:100000000C9462000C94A5010C94D2010C948A000B
:100010000C948A000C948A000C948A000C948A0038
:100020000C948A000C948A000C948A000C948A0028
:100030000C948A000C948A000C948A000C948A0018
:100040000C9460020C948A000C9493040C94D604D3
:100050000C948A000C948A000C948A000C948A00F8
:100060000C948A000C948A00000000070002010032
:100070000003040600000000000000000102040864
:100080001020408001020408102001020408102002
:10009000040404040404040402020202020203032E
:1000A00003030303000000002300260029000000D2
:1000B0000000250028002B0000000000240027007D
:1000C0002A00920511241FBECFEFD8E0DEBFCDBFBE
:1000D00011E0A0E0B1E0E8EBFEE002C005900D9277
:1000E000A233B107D9F711E0A2E3B1E001C01D923C
:1000F000A33FB107E1F710E0C4ECD0E004C02297C1
:10010000FE010E945607C23CD107C9F70E94E805CC
:100110000C942F070C94000080910E010E94CE03D6
:100120004091320150913301609134017091350159
:10013000019729F44F5F5F4F6F4F7F4F04C04150CD
:100140005109610971094093320150933301609361
:10015000340170933501089580910C010E94CE0303
:100160004091360150913701609138017091390109
:10017000019729F44F5F5F4F6F4F7F4F04C041508D
:100180005109610971094093360150933701609319
:10019000380170933901089562E171E089E491E0DA
:1001A0000E94330640913601509137016091380129
:1001B000709139012AE030E089E491E00E94AE06B6
:1001C0006AE171E089E491E00E94330640913201D6
:1001D0005091330160913401709135012AE030E093
:1001E00089E491E00C94F90643E050E06CEA70E099
:1001F000809110010E94850143E050E06CE870E0BE
:1002000080913A010E94850140E855E260E070E08B
:1002100089E491E00E94110561E0809104010E944F
:100220005F0361E0809106010E945F0361E08091BD
:1002300008010E945F0361E080910A010E945F0350
:1002400085B5887F85BD85B5816085BD0895809120
:10025000000190910101019739F460E0809104015F
:100260000E94970361E006C061E0809104010E9452
:10027000970360E0809106010E949703609102015C
:1002800070910301809108010E94FF0160910201B9
:100290007091030180910A010C94FF018091320159
:1002A00090913301A0913401B0913501833E2FEF3D
:1002B0009207A207B2071CF481E090E004C0B7FDEA
:1002C00006C08FEF9FEF90930101809300010E9481
:1002D000CC000E94270160910201709103014AE065
:1002E00050E089E491E00E9415076091000170914F
:1002F00001014AE050E089E491E00E940D0760E2CC
:1003000073E080E090E00C94D4028230E8F4E82FAF
:10031000F0E0EE0FFF1FE45CFE4F718360838130DD
:1003200041F0809169008C7F842B80936900E89A6A
:10033000089580916900440F551F440F551F837F16
:10034000842B80936900E99A08951F920F920FB64B
:100350000F9211242F933F934F935F936F937F934B
:100360008F939F93AF93BF93EF93FF9380913C0143
:1003700090913D01892B29F0E0913C01F0913D01E4
:100380000995FF91EF91BF91AF919F918F917F91CF
:100390006F915F914F913F912F910F900FBE0F90F2
:1003A0001F9018951F920F920FB60F9211242F9342
:1003B0003F934F935F936F937F938F939F93AF93ED
:1003C000BF93EF93FF9380913E0190913F01892B62
:1003D00029F0E0913E01F0913F010995FF91EF91E5
:1003E000BF91AF919F918F917F916F915F914F914D
:1003F0003F912F910F900FBE0F901F9018951F9354
:10040000CF93DF93182FEB0161E00E945F032097E9
:1004100011F460E004C0CF3FD10539F461E0812FD1
:10042000DF91CF911F910C949703E12FF0E0E859F1
:10043000FF4FE491E330B9F028F4E13051F0E230BD
:10044000B1F50CC0E63019F1E73049F1E43079F547
:1004500014C084B5806884BDC7BD2EC084B58062D9
:1004600084BDC8BD29C080918000806880938000D1
:10047000D0938900C09388001FC080918000806263
:1004800080938000D0938B00C0938A0015C0809128
:10049000B00080688093B000C093B3000DC080911D
:1004A000B00080628093B000C093B40005C0C03833
:1004B000D1050CF0B3CFADCFDF91CF911F9108954F
:1004C0001F920F920FB60F9211242F933F938F9389
:1004D0009F93AF93BF938091400190914101A09170
:1004E0004201B091430130914801232F2D5F2D37F8
:1004F00020F40196A11DB11D05C0232F2A57029695
:10050000A11DB11D209348018093400190934101AA
:10051000A0934201B0934301809144019091450121
:10052000A0914601B09147010196A11DB11D809394
:10053000440190934501A0934601B0934701BF91B8
:10054000AF919F918F913F912F910F900FBE0F9080
:100550001F9018950F931F939FB7F8940091440133
:1005600010914501209146013091470186B5A89B25
:1005700006C08F3F21F00F5F1F4F2F4F3F4F9FBF90
:10058000322F212F102F0027080F111D211D311D83
:1005900042E0000F111F221F331F4A95D1F7B80107
:1005A000C9011F910F910895CF92DF92EF92FF92B0
:1005B000CF93DF936B017C010E94AA02EB010EC076
:1005C0000E94AA026C1B7D0B683E734038F081E0EC
:1005D000C81AD108E108F108C851DC4FC114D10490
:1005E000E104F10469F7DF91CF91FF90EF90DF9084
:1005F000CF900895789484B5826084BD84B581607D
:1006000084BD85B5826085BD85B5816085BDEEE61A
:10061000F0E0808181608083E1E8F0E010828081F9
:1006200082608083808181608083E0E8F0E0808167
:1006300081608083E1EBF0E0808184608083E0EB87
:10064000F0E0808181608083EAE7F0E0808184606F
:1006500080838081826080838081816080838081CB
:10066000806880831092C1000895833069F028F477
:100670008130A1F0823011F514C08630B1F087309E
:10068000C1F08430D9F404C0809180008F7703C01A
:10069000809180008F7D80938000089584B58F774E
:1006A00002C084B58F7D84BD08958091B0008F779E
:1006B00003C08091B0008F7D8093B0000895CF93E8
:1006C000DF9390E0FC01E458FF4F4491FC01E057B8
:1006D000FF4F8491882341F190E0880F991FFC011E
:1006E000E854FF4F25913491D90182559F4FFC0169
:1006F00085919491C82FD92F9FB7F8948C9161114F
:1007000006C0409584238C938881842308C062307E
:1007100041F4242F209582238C938881842B888315
:1007200002C0842B8C939FBFDF91CF9108950F93CC
:100730001F93CF93DF931F92CDB7DEB7282F30E002
:10074000F901E859FF4F8491F901E458FF4F1491E2
:10075000F901E057FF4F04910023D1F0882321F0E5
:1007600069830E9435036981E02FF0E0EE0FFF1FDF
:10077000E255FF4F85919491DC019FB7F8948C91DD
:10078000611103C01095812301C0812B8C939FBF01
:100790000F90DF91CF911F910F910895CF93DF9329
:1007A000282F30E0F901E859FF4F8491F901E4580E
:1007B000FF4FD491F901E057FF4FC491CC2389F04A
:1007C00081110E943503EC2FF0E0EE0FFF1FEC5576
:1007D000FF4F85919491DC018C918D2321E030E0D5
:1007E00011F420E030E0C901DF91CF910895FC01C0
:1007F00084859585FC01E05CFF4F20813181FC01FF
:10080000EE5BFF4F80819181281B390B2F733327BB
:10081000C9010895FC0184859585FC01E05CFF4FCA
:1008200040815181FC01EE5BFF4F208131814217F5
:10083000530741F00190F081E02DE80FF91F20816E
:1008400030E002C02FEF3FEFC9010895FC0184851D
:100850009585FC01E05CFF4F40815181FC01EE5B1E
:10086000FF4F208131814217530781F0A081B18170
:10087000A80FB91F8C91208131812F5F3F4F2F73BB
:10088000332731832083282F30E002C02FEF3FEF42
:10089000C9010895FC0181A1882329F0A489B589A3
:1008A0008C9186FFFBCF11A20895CF93DF93FC01BB
:1008B00026853785D901A05CBF4F8D919C911197FA
:1008C00001968F739927E901CE5BDF4F48815981EB
:1008D00084179507D9F30D90BC91A02DA20FB31FDB
:1008E0006C93A685B785A05CBF4F11969C938E93A1
:1008F000A689B7892C9181E090E0078C02C0880F0F
:10090000991F0A94E2F7282B2C9381E081A3048895
:10091000F589E02D80818064808381E090E0DF9123
:10092000CF91089508951F920F920FB60F92112440
:100930002F933F934F938F939F93EF93FF938091C8
:10094000C00082FD1CC04091C6008091EF019091D3
:10095000F00101968F7399272091F1013091F201F6
:100960008217930771F0E091EF01F091F001E155EA
:10097000FE4F40839093F0018093EF0102C080917D
:10098000C600FF91EF919F918F914F913F912F91D1
:100990000F900FBE0F901F90189589E491E00E9470
:1009A000F703892B11F00C94920408951F920F9273
:1009B0000FB60F9211242F933F938F939F93EF9332
:1009C000FF932091AB013091AC018091AD019091EA
:1009D000AE012817390731F48091C1008F7D8093D3
:1009E000C10014C0E091AD01F091AE01E559FE4F98
:1009F00020818091AD019091AE0101968F7399276E
:100A00009093AE018093AD012093C600FF91EF91CA
:100A10009F918F913F912F910F900FBE0F901F903C
:100A20001895CF92DF92EF92FF92CF93DF93EC0174
:100A30006A017B01411581EE580761057105F9F0E6
:100A4000EC89FD8981E090E008A002C0880F991F21
:100A50000A94E2F7808360E079E08DE390E0A701FB
:100A600096010E94320721503109410951095695DA
:100A7000479537952795211580E1380798F0EC893F
:100A8000FD89108260E874E88EE190E0A70196018C
:100A90000E94320721503109410951095695479565
:100AA00037952795E889F9893083EA89FB8920837E
:100AB00019A2EE89FF89408181E090E09C010C8CB5
:100AC00002C0220F331F0A94E2F7422B4083EE89C3
:100AD000FF8940819C010D8C02C0220F331F0A94B4
:100AE000E2F7422B4083EE89FF8940819C010E8C06
:100AF00002C0220F331F0A94E2F7422B4083EE8993
:100B0000FF8920810F8C02C0880F991F0A94E2F799
:100B1000809582238083DF91CF91FF90EF90DF90CB
:100B2000CF90089510924C0110924B0188EE93E003
:100B3000A0E0B0E080934D0190934E01A0934F014F
:100B4000B093500186E291E090934A01809349016D
:100B50008FEA91E090935601809355018BE691E0E6
:100B6000909358018093570185EC90E090935A013F
:100B70008093590184EC90E090935C0180935B0139
:100B800080EC90E090935E0180935D0181EC90E0B9
:100B90009093600180935F0182EC90E090936201FA
:100BA0008093610186EC90E09093640180936301EF
:100BB00084E08093650183E08093660187E0809301
:100BC000670185E08093680181E080936901089561
:100BD0000E94FA020E94F400CDECD4E00E944E0183
:100BE0002097E1F30E94CD04F9CFCF92DF92EF92EC
:100BF000FF920F931F93CF93DF936C01EB017A0168
:100C0000E60EF71E00E010E00BC06991D601ED91F1
:100C1000FC910190F081E02DC6010995080F191F84
:100C2000CE15DF0591F7C801DF91CF911F910F918C
:100C3000FF90EF90DF90CF9008956115710581F0DE
:100C4000DB010D900020E9F7AD0141505109461B31
:100C5000570BDC01ED91FC910280F381E02D0994AA
:100C600080E090E008950C941D06DC01ED91FC916C
:100C70000190F081E02D09940F931F93CF93DF93A0
:100C8000EC016DE00E9435068C016AE0CE010E9405
:100C900035069C01200F311FC901DF91CF911F91B3
:100CA0000F9108954F925F926F927F929F92AF92B1
:100CB000BF92CF92DF92EF92FF920F931F93CF9349
:100CC000DF93CDB7DEB7A1970FB6F894DEBF0FBEA6
:100CD000CDBF5C016A017B01922E19A281E08217CF
:100CE00010F08AE0982E8E010F5D1F4F492C512C79
:100CF000612C712CC701B601A30192010E94320739
:100D00008C2D929E80191124015011098A3014F4FF
:100D1000805D01C0895CF801808369017A01C1149A
:100D2000D104E104F10431F7B801C5010E941D06A8
:100D3000A1960FB6F894DEBF0FBECDBFDF91CF9165
:100D40001F910F91FF90EF90DF90CF90BF90AF90E9
:100D50009F907F906F905F904F900895CF92DF9219
:100D6000EF92FF920F931F93CF93DF93EC016A01F1
:100D70007B012115310579F4E881F9810190F08139
:100D8000E02D642FDF91CF911F910F91FF90EF9095
:100D9000DF90CF9009942A30310519F477FD0EC009
:100DA0002AE0B701A601CE01DF91CF911F910F91EB
:100DB000FF90EF90DF90CF900C9452066DE20E946E
:100DC00035068C0144275527BA014C195D096E0977
:100DD0007F092AE0CE010E945206080F191FC801A0
:100DE000DF91CF911F910F91FF90EF90DF90CF9007
:100DF00008950F931F93CF93DF93EC010E94AE06EB
:100E00008C01CE010E943C069C01200F311FC901BC
:100E1000DF91CF911F910F9108959A01AB01662741
:100E200057FD6095762F0C94AE060F931F93CF93CA
:100E3000DF93EC019A01AB01662757FD6095762F91
:100E40000E94AE068C01CE010E943C069801280F3C
:100E5000391FC901DF91CF911F910F910895F89427
:100E60000C945A07A1E21A2EAA1BBB1BFD010DC050
:100E7000AA1FBB1FEE1FFF1FA217B307E407F5074A
:100E800020F0A21BB30BE40BF50B661F771F881F26
:100E9000991F1A9469F760957095809590959B01BC
:100EA000AC01BD01CF010895EE0FFF1F0590F49135
:080EB000E02D0994F894FFCF36
:100EB800010064000B000A00060005000900080094
:100EC8000100206F646F47203A00206F646F442050
:100ED8003A00000000005504F505F70326040A044B
:020EE8004A04BA
:00000001FF
