:100000000C9477000C9488110C94B5110C949F00FB
:100010000C949F000C949F000C949F000C949F00E4
:100020000C949F000C949F000C949F000C949F00D4
:100030000C949F000C949F000C949F000C949F00C4
:100040000C9443120C949F000C94C2150C9405164A
:100050000C949F000C949F000C949F000C949F00A4
:100060000C949F000C949F0005A84CCDB2D44EB9BF
:100070003836A9020C50B9918688083CA6AAAA2A4B
:10008000BE000000803F00000007000201000003E6
:100090000406000000000000000001020408102017
:1000A000408001020408102001020408102004040A
:1000B0000404040404040202020202020303030310
:1000C00003030000000023002600290000000000B8
:1000D000250028002B0000000000240027002A0033
:1000E0006364696E6F70737578585B00C116112474
:1000F0001FBECFEFD8E0DEBFCDBF12E0A0E0B1E081
:10010000EAE2FDE302C005900D92A436B107D9F7EB
:1001100013E0A4E6B2E001C01D92AD32B107E1F7F1
:1001200010E0CEEED0E004C02297FE010E948F1EA8
:10013000CC3ED107C9F70E9417170C9462180C9493
:100140000000CF93DF93EC010E94F902CE010C96E0
:100150000E9429026AE070E0CE01845B9F4F0E94FA
:10016000990F6EE170E0CE018C5A9F4F0E94990F5B
:10017000FE01E45AFF4F40E655EE60ED7EEB408312
:10018000518362837383FE01E05AFF4F40835183A2
:1001900062837383FE01EC59FF4F4AE752EB65ED32
:1001A0007AE34083518362837383FE01E859FF4FF2
:1001B00011821082C659DF4F19821882DF91CF91C8
:1001C00008958F929F92AF92BF92CF92DF92EF925B
:1001D000FF92CF93DF93EC01FC01E05AFF4FC08008
:1001E000D180E280F3806091640270916502809119
:1001F0006602909167020E945619A70196010E941B
:10020000431A4B015C016091680270916902809110
:100210006A0290916B020E945619A70196010E94F2
:10022000431A9B01AC01C501B4010E94B718FE013D
:10023000EC59FF4F20813181428153810E94431A42
:10024000AB01BC01CE01DF91CF91FF90EF90DF9029
:10025000CF90BF90AF909F908F900C94AB024F9235
:100260005F926F927F92AF92BF92CF92DF92EF92A6
:10027000FF920F931F93CF93DF93EC010E94E10055
:1002800088E6E82E82E0F82E8E0108591F4FF7010C
:1002900060817181F80180819181681B790B8827C9
:1002A00077FD8095982F0E945619FE01E45AFF4F62
:1002B00020813181428153810E94431A2B013C01EC
:1002C00094E6A92E92E0B92E6E01FAE6CF0ED11C6B
:1002D000F50160817181F60180819181681B790B44
:1002E000882777FD8095982F0E945619FE01E05AC5
:1002F000FF4F20813181428153810E94431A9B012B
:10030000AC01C301B2010E94B81820E030E040E027
:100310005FE30E94431AAB01BC01CE010E94B1020F
:10032000F50180819181F60191838083F7018081BD
:100330009181F80191838083DF91CF911F910F917B
:10034000FF90EF90DF90CF90BF90AF907F906F9035
:100350005F904F900895DF92EF92FF920F931F935B
:10036000CF93DF93EC012C96CE010E9493027C0187
:10037000CE010E949A028C01CE010E949702D82ED3
:10038000CE010E949E02C82FDD2011F061E001C065
:1003900060E08BE00E948C13CC2311F060E001C080
:1003A00061E08AE00E948C13B70186E00E94E211AE
:1003B000B80185E0DF91CF911F910F91FF90EF90F1
:1003C000DF900C94E211CF92DF92EF92FF920F93A5
:1003D0001F93CF93DF93EC018C01045B1F4FC80187
:1003E0000E94A50F882331F0C8010E948D0FCE0115
:1003F0000E942F018E010C5A1F4FC8010E94A50FA9
:100400008823F1F0C8010E948D0FC880D980EA804E
:10041000FB800C811D812E813F81488559856A852D
:100420007B85CE010C960E943C02CE01DF91CF91DC
:100430001F910F91FF90EF90DF90CF900C94AB0144
:10044000DF91CF911F910F91FF90EF90DF90CF90B0
:100450000895CF93DF93EC010E94C50FCE014D9616
:100460000E94C50F1BAE1AAE1DAE1CAE81E08EAF52
:100470008FAFDF91CF910895AF92BF92CF92DF926D
:10048000EF92FF920F931F93CF93DF93CDB7DEB719
:100490002C970FB6F894DEBF0FBECDBF5C01C982AA
:1004A000DA82EB82FC820D831E832F833887498793
:1004B0005A876B877C87CE0101960E94A102AB010F
:1004C000BC01C5014D960E94F50F0E94231977FDCE
:1004D0000BC075956795F50173AF62AF75AF64AFEB
:1004E00081E086AF87AF0EC06F5F7F4F75956795D0
:1004F000719561957109F50162AF73AF64AF75AF26
:1005000016AE17AE2C960FB6F894DEBF0FBECDBF59
:10051000DF91CF911F910F91FF90EF90DF90CF90DF
:10052000BF90AF900895FC0182AD93AD0895FC019A
:1005300086AD0895FC0184AD95AD0895FC0187ADAD
:100540000895FC015081418132812381652F742FF0
:10055000832F922F0895FC0140875187628773870C
:1005600008958F929F92AF92BF92CF92DF92EF92B7
:10057000FF92CF93DF93EC016A017B018884998419
:10058000AA84BB84C501B4010E9420199B01AC015F
:10059000C701B6010E94431A9B01AC0168817981B1
:1005A0008A819B810E94B818688379838A839B83A0
:1005B000C501B4010E94A61A9B01AC01C701B60196
:1005C0000E94431A9B01AC016C817D818E819F81C9
:1005D0000E94B8186C837D838E839F83DF91CF91B7
:1005E000FF90EF90DF90CF90BF90AF909F908F9053
:1005F0000895FC01108211821282138214821582E6
:10060000168217821086118612861386089589E055
:100610000E94C313409168025091690260916A027E
:1006200070916B02019729F44F5F5F4F6F4F7F4FBF
:1006300004C0415051096109710940936802509307
:10064000690260936A0270936B02089588E00E94C9
:10065000C3134091640250916502609166027091EB
:100660006702019729F44F5F5F4F6F4F7F4F04C0C0
:100670004150510961097109409364025093650228
:10068000609366027093670208952FEE31E0FC01DB
:1006900031832083089529E332E0FC0131832083F4
:1006A0002FEE31E0378326830895DC01ED91FC9134
:1006B000369720813181820F931F0C944B0327E1E1
:1006C00032E0FC01318320830895CF93DF93EC0166
:1006D000E881F9810288F389E02D09959C012F3F7B
:1006E0008FEF380729F08D819E8101969E838D833F
:1006F000C901DF91CF910895CB0108958FEF9FEF4E
:10070000089580E090E0089508950895242FDC0175
:10071000ED91FC910084F185E02D41E0099480E0A9
:1007200090E00895FC012289338980899189281BF2
:10073000390B86899789281B390BC90108958F9237
:100740009F92AF92BF92EF92FF92CF93DF93FC0103
:10075000DB01812C912C5401C689D789E088F1886E
:10076000828993898E199F09C817D907A0F4821628
:100770009306A406B5067CF4CE0DDF1D88818D930B
:100780008FEF881A980AA80AB80A8689978901966D
:10079000978B868BE1CFB401C501DF91CF91FF909C
:1007A000EF90BF90AF909F908F900895FC012689A5
:1007B00037894089518982899389841B950B281731
:1007C000390730F4FA01E20FF31F208130E002C054
:1007D0002FEF3FEFC9010895CF93DF93EC01E8813C
:1007E000F9810288F389E02D09959C012F3F8FEF55
:1007F000380729F08E899F8901969F8B8E8BC901BE
:10080000DF91CF910895FC0186899789009729F19E
:10081000A089B189228933892A1B3B0B2817390704
:1008200018F4378B268B19C001976F3F2FEF720793
:1008300029F4978B868B60E070E011C0A80FB91F78
:100840002C91261303C0978B868B09C0278524FF24
:1008500004C0978B868B6C9302C06FEF7FEFCB0148
:10086000089580E090E0089580E090E0089580E0B1
:1008700090E0089580E090E0089560E070E0CB01A2
:100880000895CB0108957F928F929F92AF92BF926D
:10089000CF92DF92EF92FF920F931F93CF93DF934C
:1008A000EC0149015A018B01C12CD12C76012FC0DA
:1008B000F80171908F018F8580FF0BC0E881F9816D
:1008C0000084F185E02D20E144E060E070E0CE019D
:1008D0000995EB85FC858D859E85E817F90738F429
:1008E00070828B859C8501969C878B870BC0E881E5
:1008F000F981028CF38DE02D672D70E0CE01099512
:10090000019661F02FEFC21AD20AE20AF20AC81465
:10091000D904EA04FB0464F275016401B601C7015D
:10092000DF91CF911F910F91FF90EF90DF90CF90CB
:10093000BF90AF909F908F907F90089527E132E015
:10094000FC01318320830C9426172FEE31E0FC014B
:10095000318320830C94261729E332E0FC01318394
:1009600020832FEE31E0378326830C942617DC0199
:10097000ED91FC91369720813181820F931F0C9469
:10098000AC04EF92FF920F931F93CF93DF937C0100
:10099000EB018A0164177507A1F0FC0140815181C8
:1009A000401B510B4F5F5F4FB801CE010E9483186F
:1009B0000C1B1D0BF70180819181801B910B918392
:1009C0008083CE01DF91CF911F910F91FF90EF9027
:1009D0000895CF93DF93EC01BC0181E090E00E9489
:1009E0000F11FC0110821882DF91CF910895DC0174
:1009F00013968D919C911497892B59F01596ED9132
:100A0000FC91169717968D919C911897E817F90706
:100A100041F4ED91FC9111970488F589E02DCD0109
:100A2000099481911696FC93EE93159790E00895A2
:100A3000FC018581682B83899489892B09F001C089
:100A4000616065830895FC018081918124813581F5
:100A50002817390711F00C94871408950C94230576
:100A6000CF93DF93EC0187EF91E099838883CE01E8
:100A700040960E942E0587E192E099838883DF915A
:100A8000CF910895CF93DF93EC010E943005CE0102
:100A9000DF91CF910C942617CF93DF93EC0189EC73
:100AA00091E09983888383ED91E099A388A3CE0197
:100AB00006960E9430058DED91E0998388838FEE34
:100AC00091E099A388A3DF91CF910895DC01ED9186
:100AD000FC91369720813181820F931F0C944C0535
:100AE000CF93DF93EC010E944C05CE01DF91CF91B3
:100AF0000C942617DC01ED91FC9136972081318111
:100B0000820F931F0C947005CF93DF93EC01FB01D0
:100B100001900020E9F73197E61BF70B8881998156
:100B20004A815B81481B590B4E175F0731F40E94C5
:100B30006D189C0181E0232B09F080E0DF91CF91BB
:100B40000895DC0113968D919C911497892B59F08F
:100B50001596ED91FC91169717968D919C9118978B
:100B6000E817F90741F4ED91FC9111970288F38998
:100B7000E02DCD010994808190E00895CF93DF931B
:100B8000EC01E881F98136970190F081E02DEC0FBE
:100B9000FD1F838994890E94A1058F3F2FEF920743
:100BA00089F00E946518892BC9F0E881F981369790
:100BB0000190F081E02DEC0FFD1F838994890E9444
:100BC000F704DFCFE881F98136978081918162E077
:100BD0008C0F9D1FDF91CF910C941805DF91CF9161
:100BE0000895DF92EF92FF920F931F93CF93DF93BD
:100BF0007C018B01D42EDB01ED91FC9136970190A5
:100C0000F081E02DE60FF71FC189D2892097E9F026
:100C1000E881F98136970190F081E02DEC0FFD1FFE
:100C200083899489DC01ED91FC910484F585E02DA4
:100C30000995019651F4E881F98136978081918177
:100C400061E08C0F9D1F0E941805D11003C0C801E0
:100C50000E94BE0581E0F7018083DF91CF911F9153
:100C60000F91FF90EF90DF900895CF93DF93EC0109
:100C7000009791F0CE010E94EC139C01009771F453
:100C8000E0916C02F0916D02309721F480E090E0E9
:100C90000E9462180995EECF20E030E0C901DF9193
:100CA000CF910895CF92DF92EF92FF920F931F930F
:100CB000CF93DF93EC018A819B8128813981821B4C
:100CC000930B8617970708F4CB016C012FEFC21A1C
:100CD000D20AC6010E9435068C0168817981EA80BA
:100CE000FB80E61AF70AA7010E948318E00EF11EA6
:100CF000C7010E94E904CE010E94230519830883DD
:100D0000FB82EA820C0D1D1D1D830C83DF91CF91A8
:100D10001F910F91FF90EF90DF90CF9008951F9358
:100D2000CF93DF93EC01162F8A819B819C012F5F6B
:100D30003F4F4C815D814217530779F428813981F7
:100D4000821B930B11F09C0102C021E030E0B9013D
:100D5000680F791FCE010E9452068A819B810196FD
:100D60000E94E904EA81FB8110838A819B810196BC
:100D70009B838A83DF91CF911F910895EF92FF9219
:100D80000F931F93CF93DF938C01C0E0D0E07C01E1
:100D900088E0E80EF11C2DC066E071E08FE792E07C
:100DA0000E948517209721F481E0F801868702C010
:100DB000F801168663E171E08FE792E00E94661702
:100DC0004AE050E0BE018FE792E00E944018F8012F
:100DD000608571858FE792E0DF91CF911F910F9130
:100DE000FF90EF900C948517682FC7010E948F0623
:100DF00021968FE792E00E9426151816190684F4B2
:100E0000CC31D10569F061E070E080E090E00E94B3
:100E1000C9128FE792E00E9455158A3029F7BCCF9E
:100E2000DF91CF911F910F91FF90EF9008950F9355
:100E30001F93CF93DF93EC018B016F3F8FEF780708
:100E4000E9F08F8584FF1DC0288D398D4889598927
:100E50008A899B89841B950B2817390728F0CE01B6
:100E600040960E948F0604C0FA01E20FF31F6083D0
:100E7000888D998D0196998F888F05C000E010E0CC
:100E800002C00FEF1FEFC801DF91CF911F910F91AB
:100E900008957F928F929F92AF92BF92CF92DF92EE
:100EA000EF92FF920F931F93CF93DF931F92CDB7D3
:100EB000DEB78C017B0140E0BC01CE0101960E94AF
:100EC000F1052981D8018D919C91FC01369722234F
:100ED00009F47FC00190F081E02DE00FF11FC3887D
:100EE000D488D701ED91FC91119712968D919C9128
:100EF0001397E817F90741F010828D919C91119793
:100F000013969C938E931297D801ED91FC9136978E
:100F10000190F081E02D3296E00FF11F628573851C
:100F20008485958512861386148615865B01611566
:100F3000710521F0C7010E94520603C0AA24AA9499
:100F4000BA2CC6010E94F7044C018F3FBFEF9B07EC
:100F500041F4D801ED91FC9136978081918162E056
:100F600020C0992787FD90950E946518B1E0AB1AC3
:100F7000B108892BD9F0F60183819481009789F11A
:100F80000580F681E02DE817F90759F18291881262
:100F900028C034C0D801ED91FC91369780819181B1
:100FA00064E0800F911F0E94180507C0682DC701DB
:100FB0000E948F06A114B10421F6F701228133812A
:100FC0008081918128173907F9F4D801ED91FC91BE
:100FD00036978081918164E0800F911F0E941805EF
:100FE00013C0D601ED91FC91B40177270688F789EB
:100FF000E02DC6010995019669F2DFCFD60116965C
:10100000FC93EE931597D9CFC8010F90DF91CF9144
:101010001F910F91FF90EF90DF90CF90BF90AF9016
:101020009F908F907F9008958F929F92AF92BF92E2
:10103000CF92DF92EF92FF920F931F93CF93DF93A4
:10104000EC018B016A017A01E61AF70A28813981DD
:101050008A819B81821B930B8E159F0578F0A701D7
:10106000C9010E947A184A815B81DE016D917D91F0
:10107000CD016E0D7F1D0E94C1046BC0AC01C90182
:101080000E947A188A819B8168817981AC01461B14
:10109000570B7801E40EF51EEC14FD0409F459C059
:1010A00086010E191F09F801E40FF51F2C813D81FF
:1010B000261B370B215031092E173F0780F54F5F54
:1010C0005F4FC8010431110510F484E190E04A013A
:1010D000880E991EC4010E9435066C0168817981D1
:1010E000AA80BB80A61AB70AA5010E948318AC0C7F
:1010F000BD1CA801B701C5010E948318A00EB11E36
:10110000C5010E94E904CE010E942305D982C8824C
:10111000BB82AA82C80CD91CDD82CC821AC0B7015E
:101120006F5F7F4FA601461B570B01960E948318E5
:101130008A819B81800F911F0E94E904EA81FB81D3
:10114000D7018C9180838A819B81800F911F9B8323
:101150008A83CE01DF91CF911F910F91FF90EF9085
:10116000DF90CF90BF90AF909F908F900895CF93D6
:10117000DF93EC016817790739F0FB014281538155
:10118000608171810E941408CE01DF91CF91089592
:10119000CF93DF93EC0146960E94B7081D8E1C8EFC
:1011A0008D8981FF09C0888D998D2E893F89821B89
:1011B000930B9F8F8E8F02C01F8E1E8EE881F98148
:1011C00036970190F081E02DEC0FFD1F8389948903
:1011D000892B11F0158202C081E08583DF91CF91C8
:1011E0000895CF93DF93EC01198218821B821A8233
:1011F0001D821C8288E090E00E94350699838883D6
:101200009B838A839C01285F3F4F3D832C83DF9122
:10121000CF910C94E904EF92FF920F931F93CF9319
:10122000DF931F92CDB7DEB78C017B0164E670E0DF
:101230000E94990FBE016F5F7F4FC80108960E9400
:10124000F10881E290E0F80193AB82AB14AA15AAF1
:1012500016AA46E050E060E070E047AB50AF61AFE7
:1012600072AF13AE14AE15AE16AE80E287AFE05C7F
:10127000FF4F11821082F801EE5BFF4FC8014596C7
:1012800091838083F801EC5BFF4F1082F801118A93
:10129000128A138A148A89EC91E0908B878783EDF8
:1012A00091E090AB87A7118E108E138E128E158E43
:1012B000148E178E168E11A210A213A212A214A2BF
:1012C00087EF91E0968B858BBE016F5F7F4FC801E2
:1012D00085960E94F108F80114A613A616A615A675
:1012E00088E084A3EB5BFF4FF182E08281E0F801AC
:1012F00086870F90DF91CF911F910F91FF90EF9014
:101300000895FF920F931F93CF93DF93EC018B010E
:10131000F42E488159818A819B81841B950BBC01E5
:10132000600F711F2C813D81241B350B2150310929
:101330002617370758F49C018017910708F4980185
:10134000B901680F791FCE010E94520601151105DF
:10135000E1F02A813B81C9010196A901400F511F8B
:10136000481B590B6F2D70E00E9495188A819B8154
:10137000800F911F0E94E904EA81FB81F0828A813B
:101380009B81800F911F9B838A83CE01DF91CF9138
:101390001F910F91FF900895CF92DF92EF92FF92ED
:1013A0000F931F93CF93DF931F92CDB7DEB77C01CE
:1013B0008B01BE016F5F7F4F0E94F108D801ED9154
:1013C000FC9136970190F081E02DE00FF11F8389A9
:1013D00094890E94A1056C018F3FBFEF9B0729F103
:1013E0000E946518892B69F020C0D801ED91FC910D
:1013F00036978081918166E0800F911F0E941805C9
:101400001CC0D801ED91FC9136970190F081E02D40
:10141000E00FF11F838994890E94F7044C2D61E04D
:1014200070E0C7010E948109C9CFF7012281338191
:101430008081918128173907C1F2C7010F90DF9190
:10144000CF911F910F91FF90EF90DF90CF90089573
:10145000EF92FF920F931F93CF93DF93CDB7DEB739
:101460002D970FB6F894DEBF0FBECDBF7C018B0168
:10147000BE01635F7F4FCE0107960E94F108B7015E
:10148000CE0101960E94CC09BE016F5F7F4FCE0155
:1014900007960E94B708CE0101960E942E0561E2D0
:1014A00071E0CE0107960E94840581111EC066E29C
:1014B00071E0CE0107960E948405811116C06BE28F
:1014C00071E0CE0107960E94840581110EC060E391
:1014D00071E0CE0107960E948405811106C009C003
:1014E000CE0107960E942E0507C081E0F801808397
:1014F000F7CFF8011082F4CF2D960FB6F894DEBF27
:101500000FBECDBFDF91CF911F910F91FF90EF9054
:101510000895CF92DF92EF92FF920F931F93CF9394
:10152000DF931F92CDB7DEB76C018B01BE016F5FF9
:101530007F4F0E94F108D801ED91FC913697019000
:10154000F081E02DE00FF11F838994890E94A105AD
:101550007C018F3FBFEF9B0789F10E946518892BA3
:1015600069F5C701C0970A97A8F0EEE2EE16F104FC
:1015700089F0FCE2EF16F10409F50CC0D801ED91F9
:10158000FC9136978081918166E0800F911F0E94C7
:1015900018051CC0D801ED91FC9136970190F0819F
:1015A000E02DE00FF11F838994890E94F7044E2DEE
:1015B00061E070E0C6010E948109BDCFF601228181
:1015C00033818081918128173907C1F2C6010F90BC
:1015D000DF91CF911F910F91FF90EF90DF90CF900F
:1015E0000895EF92FF920F931F93CF93DF93CDB7A0
:1015F000DEB72D970FB6F894DEBF0FBECDBF8C01BE
:10160000F62EE72EBE01635F7F4FCE0107960E9444
:10161000F108D801ED91FC9136970190F081E02D11
:10162000E00FF11F8381B80185FF14C0CE01019640
:101630000E94890ABE016F5F7F4FCE0107960E940C
:10164000B708CE0101960E942E05EF92FF9282E329
:1016500091E033C0CE0101960E94CC09BE016F5FBC
:101660007F4FCE0107960E94B708CE0101960E94D7
:101670002E05D801ED91FC9136970190F081E02D77
:10168000E00FF11F8381948186FF05C0EF92FF92E6
:1016900085E391E012C087FF0CC095FF05C0EF9273
:1016A000FF9288E391E009C0EF92FF928BE391E013
:1016B00004C0EF92FF928EE391E09F938F93888511
:1016C0008F938F818F930E949C180F900F900F9093
:1016D0000F900F900F90CE0107960E942E052D9629
:1016E0000FB6F894DEBF0FBECDBFDF91CF911F9133
:1016F0000F91FF90EF900895EF92FF920F931F9339
:10170000CF93DF931F92CDB7DEB77C018B0140E012
:10171000BC01CE0101960E94F105B801C7010E94EB
:10172000F10AC7010F90DF91CF911F910F91FF90A8
:10173000EF900895DF92EF92FF920F931F93CF9354
:10174000DF93CDB7DEB765970FB6F894DEBF0FBE57
:10175000CDBFBC01685F7F4F7C012FE0E20EF11C22
:10176000C7010E94C808BE016B5E7F4FCE01019683
:101770000E94F108BE016F5F7F4FC7010E944907B9
:10178000E981FA81D08061E471E08FE792E00E9404
:101790006617E981FA810181112707FD1095005331
:1017A00011096D2D8FE792E00E9468176EE471E0D9
:1017B0008FE792E00E9466174AE050E0B8018FE799
:1017C00092E00E9448181A8A198A188A1F861E8673
:1017D0001D861C861B861A86198618861F8283E53D
:1017E000D81278C10430110509F459C07CF40130D5
:1017F000110531F11CF4012B01F16CC1023011050E
:1018000011F10330110509F065C120C00730110541
:1018100009F41AC14CF40530110509F45AC0063018
:10182000110509F057C19CC00830110509F40FC11A
:101830000930110509F04EC10DC160E571E046C1E6
:101840006CE571E043C16AE671E040C1BE016F5EC4
:101850007F4FC7010E947C0B8C0140E0BC01CE0190
:1018600043960E94F105BE016C5E7F4FC8010E9445
:10187000280AD801ED91FC9136970190F081E02D76
:10188000E00FF11F8581857009F029C166E771E0DD
:101890008FE792E00E94661769897A89CEC0BE01FF
:1018A000615F7F4FC7010E947C0BBE01675F7F4F66
:1018B0000E947C0B6DE771E08FE792E00E94851734
:1018C0006FE171E08FE792E00E9466176F8578897B
:1018D000A6C0BE01615F7F4FC7010E947C0BBE01A5
:1018E000635F7F4F0E947C0BBE016F5E7F4F0E9443
:1018F0007C0BBE01675F7F4F0E947C0B8C0140E038
:10190000BC01CE0143960E94F105BE016C5E7F4F83
:10191000C8010E94280A66E871E08FE792E00E9401
:1019200085176F8578894AE050E08FE792E00E9442
:1019300040186FE171E08FE792E00E9466176D85B5
:101940007E854AE050E08FE792E00E9440186FE108
:1019500071E08FE792E00E94661769897A895FC01B
:10196000BE01615F7F4FC7010E947C0BBE01635FB8
:101970007F4F0E947C0BBE01655F7F4F0E947C0BF6
:10198000BE016F5E7F4F0E947C0BBE01695F7F4F7F
:101990000E947C0BBE01675F7F4F0E947C0B6FE84B
:1019A00071E08FE792E00E9485176F8578894AE0A1
:1019B00050E08FE792E00E9440186FE171E08FE7FE
:1019C00092E00E9466176D857E854AE050E08FE7C1
:1019D00092E00E9440186FE171E08FE792E00E9470
:1019E00066176B857C854AE050E08FE792E00E94A5
:1019F00040186FE171E08FE792E00E9466176989F5
:101A00007A894AE050E08FE792E00E9440186FE147
:101A100071E08FE792E00E9466176F8178854AE057
:101A200050E08FE792E00E9440186FE171E08FE78D
:101A300092E00E94661769857A854AE050E08FE758
:101A400092E00E94481846C068E971E03FC064EA2D
:101A500071E03CC0BE01615F7F4FC7010E947C0BFB
:101A6000BE01635F7F4F0E947C0BBE016F5E7F4FA4
:101A70000E947C0B6EEA71E08FE792E00E9485176E
:101A80006F8578894AE050E08FE792E00E94401825
:101A90006FE171E08FE792E00E9466176D857E85A9
:101AA0004AE050E08FE792E00E9440186FE171E059
:101AB0008FE792E00E94661769897A894AE050E0D0
:101AC0008FE792E00E9440186FE171E08FE792E0AB
:101AD0000E948517CE0101960E942E0507C067EB74
:101AE00071E08FE792E00E946617D0CE65960FB640
:101AF000F894DEBF0FBECDBFDF91CF911F910F9144
:101B0000FF90EF90DF9008950F931F93CF93DF9393
:101B100000D000D000D0CDB7DEB78C010E94A50F59
:101B20008823E9F1C8010E948D0FC8010E94BE06FA
:101B3000F8018685811133C06CEB71E08FE792E08C
:101B40000E948517C8010E949A0B81E0F8018687E0
:101B50001A8219821C821B821E821D8281E090E003
:101B60000E9435069A8389839C012F5F3F4F3E83F5
:101B70002D839C838B830E94E904BE016F5F7F4F9E
:101B8000C8010F960E94C808CE0101960E942E053A
:101B900040E251E0BA01C80108960E941408269656
:101BA0000FB6F894DEBF0FBECDBFDF91CF911F916E
:101BB0000F9108950F931F93CF93DF938C01E22F22
:101BC000E870322F30712871283121F4423009F049
:101BD0005DC059C0413011F4EB0129C04230D1F44D
:101BE000332371F0DC015296CD91DC9153975096DE
:101BF0008D919C915197C81BD90BC60FD71F02C05E
:101C0000C0E0D0E0EE2399F0D8015696CD91DC915A
:101C100057970BC0D8015296CD91DC9153975096AF
:101C20008D919C915197C81BD90BC60FD71FD80116
:101C300052964D915C91539750966D917C9151972E
:101C4000CA01861B970B8C179D07E8F0EE2321F045
:101C50005796DC93CE9356973323D9F06C0F7D1FA4
:101C6000C80142960E94C104F801828993892089A3
:101C70003189821B930B268937898217930748F491
:101C8000978B868B06C0CFEFDFEF03C0413011F694
:101C9000A3CFCE01DF91CF911F910F9108956F9245
:101CA0007F928F929F92AF92BF92CF92DF92EF92EC
:101CB000FF920F931F93CF93DF93EC017B016A0197
:101CC0004217530709F4A8C08901041B150B6A8148
:101CD0007B818C819D81861B970B081719070CF05F
:101CE0005EC05B01AE18BF0866246394712C660E5B
:101CF000771EA016B106ECF0601B710B6F5F7F4F73
:101D0000A301461B570BC3010E9483188A819B8144
:101D1000800F911F9B838A83A501401B510B4F5F4E
:101D20005F4FB701C701800F911F0E948318A80160
:101D300024C045018FEF881A980A840E951EA901C8
:101D400048195909B401C3010E9483180A191B09D3
:101D50008A819B81800F911F9B838A83A3014E19E7
:101D60005F09B7010E9483188A819B818A0D9B1DA0
:101D70009B838A838C189D08A401B601C701DF915B
:101D8000CF911F910F91FF90EF90DF90CF90BF9078
:101D9000AF909F908F907F906F900C947A1888816D
:101DA0009981681B790B6F5F7F4FC8010431110562
:101DB00010F484E190E04B01880E991EC4010E944A
:101DC00035065C01688179813701661A770AA301BB
:101DD0000E9483186A0C7B1CA801B601C3010E94F3
:101DE0008318060D171DCA80DB80CE18DF08A601F8
:101DF000B701C8010E9483180C0D1D1DC8010E9467
:101E0000E904CE010E942305B982A8821B830A83BC
:101E1000A80CB91CBD82AC82DF91CF911F910F91AC
:101E2000FF90EF90DF90CF90BF90AF909F908F90FA
:101E30007F906F9008954F925F926F927F928F92F2
:101E40009F92AF92BF92CF92DF92EF92FF920F9349
:101E50001F93CF93DF93EC01CB013901542E452E14
:101E60007901488D598D088919894B01820E931E7D
:101E70002A893B89201B310B241B350B6301261556
:101E8000370508F46901C40ED51EC00ED11E040F1B
:101E9000151F5401A81AB90A9601201B310B2A15E7
:101EA0003B0574F0A501BC01C8010E947A18B80175
:101EB0006A0D7B1DA601CE0142960E94C10413C08B
:101EC0005C01A20EB31E9501281B390BA901BC01B0
:101ED000C8010E947A1800E09401A501B601CE0164
:101EE00040960E944F0E888D998D8E0D9F1D998F63
:101EF000888FB301852D942DDF91CF911F910F9184
:101F0000FF90EF90DF90CF90BF90AF909F908F9019
:101F10007F906F905F904F900895CF93DF93EC0187
:101F20000E948D126C837D838E839F83DF91CF917E
:101F30000895AB01662757FD6095762FFC0140831D
:101F40005183628373830C948D0F0F931F93CF93F0
:101F5000DF93EC010E948D120C811D812E813F8147
:101F6000601B710B820B930B41E0088119812A8160
:101F70003B8106171707280739070CF040E0842F2C
:101F8000DF91CF911F910F910895FC011082118272
:101F9000128213821482158216821782108611868D
:101FA000128613864DEC5CEC6CE570E44487558733
:101FB000668777874FEA54E965E27FE3408B518B70
:101FC000628B738B43E353E363E970E4448B558B7B
:101FD000668B778B81E09FEF918F808F8FEF90E002
:101FE000938F828F81E0848F08952F923F924F923A
:101FF0005F926F927F928F929F92AF92BF92CF9299
:10200000DF92EF92FF920F931F93CF93DF93CDB7A1
:10201000DEB72C970FB6F894DEBF0FBECDBF9A8700
:1020200089876A017B01FC01848D882309F4D6C06D
:102030009A01AB0160857185828593850E94B718EE
:102040006D837E838F839887E985FA85208931891E
:10205000428953890E94431AE985FA852481358192
:10206000468157810E94B81869837A838B839C8349
:10207000472F382F292F862F942FA32FB22FE98592
:10208000FA8584839583A683B783628D738D8827B1
:1020900077FD8095982F0E9456193B011C012B015A
:1020A0008C01762F272F372D422D532DB981AA81F0
:1020B000BB80AC806B2F7A2F8B2D9A2D0E943F1AFC
:1020C00018165CF4862D972DA02FB32DE985FA857F
:1020D00084839583A683B7831FC0E985FA85608DC5
:1020E000718D882777FD8095982F0E9456194B0196
:1020F0005C019B01AC01B981AA81EB81FC816B2F52
:102100007A2FCF010E941C1987FF06C0E985FA8546
:1021100084829582A682B782E985FA8524853585F1
:1021200046855785BD81AE81EF81B8846B2F7A2FAC
:102130008E2F9B2D0E94431AE985FA8524813581D3
:10214000468157810E94B8184B015C01E985FA85E8
:102150002081318142815381C701B6010E94B718A5
:10216000E985FA8524893589468957890E94431A69
:102170009B01AC01C501B4010E94B7184B015C0181
:10218000262D372D422D532D682D792D8A2D9B2DEF
:102190000E943F1A1816DCF0E985FA85608D718D72
:1021A000882777FD8095982F0E9456192B018C0166
:1021B000762F272F352D402F512F682D792D8A2DE1
:1021C0009B2D0E941C1987FD02C024018501E98511
:1021D000FA85C082D182E282F38204C0412C512C64
:1021E00000E010E0642D752D802F912F2C960FB6F6
:1021F000F894DEBF0FBECDBFDF91CF911F910F913D
:10220000FF90EF90DF90CF90BF90AF909F908F9016
:102210007F906F905F904F903F902F900895CB01EB
:102220000895CF93DF9343E050E067E073E081E0EF
:102230000E94681143E050E066E273E080E00E9493
:10224000681140E855E260E070E08FE792E00E949C
:10225000401661E08BE00E94541361E08AE00E9426
:10226000541361E086E00E94541361E085E00E940F
:10227000541385B5887F85BD85B5816085BD8CE6A5
:1022800090E00E942417EC010E94A100D0937102FB
:10229000C093700287E490E00E942417EC016091E3
:1022A0007002709171020E940B09D0936F02C0936B
:1022B0006E02DF91CF91089580916E0290916F022E
:1022C0000E94840D80917002909171020C94E30140
:1022D0008230E8F4E82FF0E0EE0FFF1FEE58FD4FDC
:1022E00071836083813041F0809169008C7F842B01
:1022F00080936900E89A089580916900440F551F02
:10230000440F551F837F842B80936900E99A0895B9
:102310001F920F920FB60F9211242F933F934F935A
:102320005F936F937F938F939F93AF93BF93EF933D
:10233000FF938091720290917302892B29F0E091B2
:102340007202F09173020995FF91EF91BF91AF91E5
:102350009F918F917F916F915F914F913F912F91BD
:102360000F900FBE0F901F9018951F920F920FB6EF
:102370000F9211242F933F934F935F936F937F930B
:102380008F939F93AF93BF93EF93FF9380917402CA
:1023900090917502892B29F0E0917402F0917502F9
:1023A0000995FF91EF91BF91AF919F918F917F918F
:1023B0006F915F914F913F912F910F900FBE0F90B2
:1023C0001F9018951F93CF93DF93182FEB0161E0B7
:1023D0000E945413209711F460E004C0CF3FD10550
:1023E00039F461E0812FDF91CF911F910C948C1310
:1023F000E12FF0E0EA57FF4FE491E330B9F028F421
:10240000E13051F0E230B1F50CC0E63019F1E730BF
:1024100049F1E43079F514C084B5806884BDC7BD46
:102420002EC084B5806284BDC8BD29C08091800063
:10243000806880938000D0938900C09388001FC07B
:1024400080918000806280938000D0938B00C09345
:102450008A0015C08091B00080688093B000C0935E
:10246000B3000DC08091B00080628093B000C09333
:10247000B40005C0C038D1050CF0B3CFADCFDF91AB
:10248000CF911F9108951F920F920FB60F921124B2
:102490002F933F938F939F93AF93BF938091760237
:1024A00090917702A0917802B091790230917E02EA
:1024B000232F2D5F2D3720F40196A11DB11D05C0DE
:1024C000232F2A570296A11DB11D20937E028093CF
:1024D000760290937702A0937802B093790280916C
:1024E0007A0290917B02A0917C02B0917D020196CC
:1024F000A11DB11D80937A0290937B02A0937C0270
:10250000B0937D02BF91AF919F918F913F912F9199
:102510000F900FBE0F901F9018950F931F938FB7BA
:10252000F894009176021091770220917802309110
:1025300079028FBFB801C9011F910F9108950F93C0
:102540001F939FB7F89400917A0210917B0220911B
:102550007C0230917D0286B5A89B06C08F3F21F09A
:102560000F5F1F4F2F4F3F4F9FBF322F212F102F35
:102570000027080F111D211D311D42E0000F111F02
:10258000221F331F4A95D1F7B801C9011F910F913E
:102590000895CF92DF92EF92FF92CF93DF936B017A
:1025A0007C010E949F12EB010EC00E949F126C1BC7
:1025B0007D0B683E734038F081E0C81AD108E1080D
:1025C000F108C851DC4FC114D104E104F10469F7EA
:1025D000DF91CF91FF90EF90DF90CF9008957894A6
:1025E00084B5826084BD84B5816084BD85B5826018
:1025F00085BD85B5816085BDEEE6F0E080818160B6
:102600008083E1E8F0E010828081826080838081B5
:1026100081608083E0E8F0E0808181608083E1EB8D
:10262000F0E0808184608083E0EBF0E08081816075
:102630008083EAE7F0E0808184608083808182602B
:102640008083808181608083808180688083109214
:10265000C1000895833069F028F48130A1F0823000
:1026600011F514C08630B1F08730C1F08430D9F450
:1026700004C0809180008F7703C0809180008F7D9F
:1026800080938000089584B58F7702C084B58F7DD4
:1026900084BD08958091B0008F7703C08091B00011
:1026A0008F7D8093B0000895CF93DF9390E0FC017D
:1026B000E656FF4F4491FC01E255FF4F8491882379
:1026C00041F190E0880F991FFC01EA52FF4F2591DC
:1026D0003491D90184539F4FFC0185919491C82F67
:1026E000D92F9FB7F8948C91611106C0409584232F
:1026F0008C938881842308C0623041F4242F209574
:1027000082238C938881842B888302C0842B8C93B2
:102710009FBFDF91CF9108950F931F93CF93DF93C6
:102720001F92CDB7DEB7282F30E0F901EA57FF4FEF
:102730008491F901E656FF4F1491F901E255FF4FDC
:1027400004910023D1F0882321F069830E942A1389
:102750006981E02FF0E0EE0FFF1FE453FF4F8591FA
:102760009491DC019FB7F8948C91611103C010958E
:10277000812301C0812B8C939FBF0F90DF91CF915C
:102780001F910F910895CF93DF93282F30E0F90127
:10279000EA57FF4F8491F901E656FF4FD491F901B2
:1027A000E255FF4FC491CC2389F081110E942A1376
:1027B000EC2FF0E0EE0FFF1FEE53FF4F8591949149
:1027C000DC018C918D2321E030E011F420E030E039
:1027D000C901DF91CF9108950F931F93CF93DF939A
:1027E0008230910510F482E090E0E0912B03F091AB
:1027F0002C0320E030E0C0E0D0E023C040815181D4
:1028000048175907A8F04817590761F48281938146
:10281000209719F09B838A832EC090932C0380937A
:102820002B0329C02115310529F04217530710F059
:10283000A90102C0BE01DF0102811381EF019A01EB
:10284000F8013097D9F62115310509F1281B390B0C
:102850002430310590F412968D919C911397611557
:10286000710521F0FB019383828304C090932C03B4
:1028700080932B03FD01329644C0FD01E20FF31F4C
:1028800081939193225031092D933C933AC020912A
:10289000290330912A03232B41F420910201309126
:1028A000030130932A0320932903209100013091E2
:1028B00001012115310541F42DB73EB740910401C6
:1028C00050910501241B350BE0912903F0912A0357
:1028D000E217F307A0F42E1B3F0B2817390778F0F7
:1028E000AC014E5F5F4F2417350748F04E0F5F1F56
:1028F00050932A03409329038193919302C0E0E00F
:10290000F0E0CF01DF91CF911F910F910895EF92E9
:10291000FF920F931F93CF93DF93009709F48FC01B
:10292000DC01129713961C921E921297E0902B03D3
:10293000F0902C03E114F10489F42D913C9111974E
:10294000280F391F8091290390912A03821793073A
:1029500089F5B0932A03A093290371C0E70120E011
:1029600030E001C0EA01CA17DB0738F44A815B8115
:102970009E0141155105B1F722C0BC016250710999
:10298000FB01D383C28300811181AC01400F511F31
:102990004C175D0761F448815981400F511F4E5F0C
:1029A0005F4F518340834A815B815383428321156A
:1029B000310529F4B0932C03A0932B0340C0F901F7
:1029C000B383A283E90169917991C60FD71FAC1730
:1029D000BD0779F4DC015E914E91460F571F4E5FA3
:1029E0005F4F5183408312968D919C9113979383EF
:1029F0008283A0E0B0E002C0D7017C01F7018281B0
:102A000093810097C9F7C701029620813181820F17
:102A1000931F2091290330912A032817390779F44D
:102A2000109729F410922C0310922B0304C01396D4
:102A30001C921E921297F0922A03E0922903DF91D2
:102A4000CF911F910F91FF90EF900895FC01848525
:102A50009585FC01E05CFF4F20813181FC01EE5B3C
:102A6000FF4F80819181281B390B2F733327C901B8
:102A70000895FC0184859585FC01E05CFF4F408151
:102A80005181FC01EE5BFF4F2081318142175307DA
:102A900041F00190F081E02DE80FF91F208130E036
:102AA00002C02FEF3FEFC9010895FC018485958591
:102AB000FC01E05CFF4F40815181FC01EE5BFF4F68
:102AC000208131814217530781F0A081B181A80F85
:102AD000B91F8C91208131812F5F3F4F2F73332796
:102AE00031832083282F30E002C02FEF3FEFC90150
:102AF0000895FC0181A1882329F0A489B5898C91CE
:102B000086FFFBCF11A20895CF93DF93FC012685AA
:102B10003785D901A05CBF4F8D919C91119701968B
:102B20008F739927E901CE5BDF4F48815981841764
:102B30009507D9F30D90BC91A02DA20FB31F6C93F4
:102B4000A685B785A05CBF4F11969C938E93A689EE
:102B5000B7892C9181E090E0078C02C0880F991F03
:102B60000A94E2F7282B2C9381E081A30488F5894D
:102B7000E02D80818064808381E090E0DF91CF91BF
:102B8000089508951F920F920FB60F9211242F935C
:102B90003F934F938F939F93EF93FF938091C00048
:102BA00082FD1CC04091C6008091250390912603B0
:102BB00001968F739927209127033091280382175C
:102BC000930771F0E0912503F0912603EB51FD4F3F
:102BD0004083909326038093250302C08091C60012
:102BE000FF91EF919F918F914F913F912F910F9076
:102BF0000FBE0F901F9018958FE792E00E94261548
:102C0000892B11F00C94C11508951F920F920FB6E5
:102C10000F9211242F933F938F939F93EF93FF93E2
:102C20002091E1023091E2028091E3029091E4026E
:102C30002817390731F48091C1008F7D8093C1003E
:102C400014C0E091E302F091E402EF55FD4F2081C2
:102C50008091E3029091E40201968F7399279093FB
:102C6000E4028093E3022093C600FF91EF919F91CD
:102C70008F913F912F910F900FBE0F901F9018953D
:102C8000CF92DF92EF92FF92CF93DF93EC016A0134
:102C90007B01411581EE580761057105F9F0EC895A
:102CA000FD8981E090E008A002C0880F991F0A9476
:102CB000E2F7808360E079E08DE390E0A701960180
:102CC0000E94341E215031094109510956954795FA
:102CD00037952795211580E1380798F0EC89FD8913
:102CE000108260E874E88EE190E0A70196010E94EE
:102CF000341E2150310941095109569547953795A0
:102D00002795E889F9893083EA89FB89208319A20C
:102D1000EE89FF89408181E090E09C010C8C02C02B
:102D2000220F331F0A94E2F7422B4083EE89FF897A
:102D300040819C010D8C02C0220F331F0A94E2F7E0
:102D4000422B4083EE89FF8940819C010E8C02C09A
:102D5000220F331F0A94E2F7422B4083EE89FF894A
:102D600020810F8C02C0880F991F0A94E2F780958A
:102D700082238083DF91CF91FF90EF90DF90CF90FF
:102D80000895109282021092810288EE93E0A0E0F2
:102D9000B0E08093830290938402A0938502B09365
:102DA000860287E592E09093800280937F0285EE11
:102DB00092E090938C0280938B0281EA92E0909350
:102DC0008E0280938D0285EC90E090939002809328
:102DD0008F0284EC90E0909392028093910280ECB9
:102DE00090E0909394028093930281EC90E0909312
:102DF00096028093950282EC90E0909398028093E3
:102E0000970286EC90E090939A028093990284E076
:102E100080939B0283E080939C0287E080939D02D5
:102E200085E080939E0281E080939F0208950E9436
:102E3000EF120E941111CCEFD5E10E945C11209796
:102E4000E1F30E94FC15F9CF0C94EC130C94871459
:102E5000CF92DF92EF92FF920F931F93CF93DF9366
:102E60006C01EB017A01E60EF71E00E010E00BC0EA
:102E70006991D601ED91FC910190F081E02DC601A0
:102E80000995080F191FCE15DF0591F7C801DF91CD
:102E9000CF911F910F91FF90EF90DF90CF90089509
:102EA0006115710581F0DB010D900020E9F7AD019E
:102EB00041505109461B570BDC01ED91FC910280FA
:102EC000F381E02D099480E090E008950C94501770
:102ED000DC01ED91FC910190F081E02D09940F93BC
:102EE0001F93CF93DF93EC016DE00E9468178C0174
:102EF0006AE0CE010E9468179C01200F311FC901B2
:102F0000DF91CF911F910F9108950F931F93CF934E
:102F1000DF93EC010E9450178C01CE010E946F17C5
:102F20009801280F391FC901DF91CF911F910F918F
:102F300008954F925F926F927F929F92AF92BF924D
:102F4000CF92DF92EF92FF920F931F93CF93DF9375
:102F5000CDB7DEB7A1970FB6F894DEBF0FBECDBFD9
:102F60005C016A017B01922E19A281E0821710F0A8
:102F70008AE0982E8E010F5D1F4F492C512C612C39
:102F8000712CC701B601A30192010E94341E8C2D41
:102F9000929E80191124015011098A3014F4805D29
:102FA00001C0895CF801808369017A01C114D104F0
:102FB000E104F10431F7B801C5010E945017A19650
:102FC0000FB6F894DEBF0FBECDBFDF91CF911F913A
:102FD0000F91FF90EF90DF90CF90BF90AF909F90B8
:102FE0007F906F905F904F900895CF92DF92EF9215
:102FF000FF920F931F93CF93DF93EC016A017B0144
:103000002115310579F4E881F9810190F081E02DF5
:10301000642FDF91CF911F910F91FF90EF90DF9080
:10302000CF9009942A30310519F477FD0EC02AE0BB
:10303000B701A601CE01DF91CF911F910F91FF90B3
:10304000EF90DF90CF900C9499176DE20E94681773
:103050008C0144275527BA014C195D096E097F0977
:103060002AE0CE010E949917080F191FC801DF91AD
:10307000CF911F910F91FF90EF90DF90CF90089527
:103080009A01AB01662757FD6095762F0C94F517D2
:103090000F931F93CF93DF93EC019A01AB01662747
:1030A00057FD6095762F0E94F5178C01CE010E9486
:1030B0006F179801280F391FC901DF91CF911F9118
:1030C0000F910895F8940C94931E911120C58032AD
:1030D00019F089508550D0F70895FB01DC0104C038
:1030E0008D910190801921F441505040C8F7881B00
:1030F000990B0895FB01DC0102C001900D92415033
:103100005040D8F708956817790768F4FB01DC018F
:10311000E40FF51FA40FB51F02C002900E9241509C
:103120005040D8F708950C947A18DC0101C06D93D3
:1031300041505040E0F70895A0E1B0E0E2EAF8E144
:103140000C94661E85E08C838D899E899A83898381
:10315000AE01475E5F4F588B4F876F89788DCE01E8
:1031600001960E94591C6096E2E00C94821E505811
:10317000BB27AA270ED038C101D130F006D120F0EC
:1031800031F49F3F11F41EF4F6C00EF4E095E7FB16
:10319000ECC0E92F4BD180F3BA176207730784079D
:1031A000950718F071F49EF563C10EF4E0950B2EAF
:1031B000BA2FA02D0B01B90190010C01CA01A00189
:1031C0001124FF27591B99F0593F50F4503E68F1E4
:1031D0001A16F040A22F232F342F4427585FF3CF25
:1031E000469537952795A795F0405395C9F77EF4F6
:1031F0001F16BA0B620B730B840BBAF09150A1F03F
:10320000FF0FBB1F661F771F881FC2F70EC0BA0FC4
:10321000621F731F841F48F4879577956795B7954C
:10322000F7959E3F08F0B3CF9395880F08F0992744
:10323000EE0F97958795089574D008F481E008956E
:10324000ACD0E395E2C004D06894B11112C10895E6
:10325000F5D088F09F5790F0B92F9927B751A0F07B
:10326000D1F0660F771F881F991F1AF0BA95C9F71A
:1032700012C0B13081F0FCD0B1E00895F9C0672FE1
:10328000782F8827B85F39F0B93FCCF386957795CA
:103290006795B395D9F73EF49095809570956195B3
:1032A0007F4F8F4F9F4F0895E89409C097FB3EF4DE
:1032B00090958095709561957F4F8F4F9F4F992383
:1032C000A9F0F92F96E9BB279395F6958795779501
:1032D0006795B795F111F8CFFAF4BB0F11F460FFC1
:1032E0001BC06F5F7F4F8F4F9F4F16C0882311F019
:1032F00096E911C0772321F09EE8872F762F05C02D
:10330000662371F096E8862F70E060E02AF09A95C7
:10331000660F771F881FDAF7880F9695879597F9BC
:103320000895990F0008550FAA0BE0E8FEEF161656
:103330001706E807F907C0F012161306E407F507A9
:1033400098F0621B730B840B950B39F40A2661F01D
:10335000232B242B252B21F408950A2609F4A140C0
:10336000A6958FEF811D811D089597F99F6780E8CD
:1033700070E060E008959FEF80EC089500240A94C7
:103380001616170618060906089500240A94121640
:103390001306140605060895EECF50D0E8F3E8941E
:1033A000E0E0BB279F57F0F02AED3FE049EC06C074
:1033B000EE0FBB0F661F771F881F28F0B23A620717
:1033C0007307840728F0B25A620B730B840BE395E2
:1033D0009A9572F7803830F49A95BB0F661F771F65
:1033E000881FD2F79048FEC3092E0394000C11F4F5
:1033F000882352F0BB0F40F4BF2B11F460FF04C0D0
:103400006F5F7F4F8F4F9F4F0895EF93E0FF06C090
:10341000A2EA2AED3FE049EC5FEBBBDEE5DF0F906F
:10342000039401FC9058E8E6F0E0E8C357FD90589B
:10343000440F551F59F05F3F71F04795880F97FB78
:10344000991F61F09F3F79F0879508951216130632
:103450001406551FF2CF4695F1DF08C01616170661
:103460001806991FF1CF8695710561050894089596
:10347000E894BB2766277727CB0197F9089551DF9A
:1034800008F48FEF08950BD0AFCF78DF28F07DDF01
:1034900018F0952309F069CF6ECF1124EACFC6DF6B
:1034A000A0F3959FD1F3950F50E0551F629FF00157
:1034B000729FBB27F00DB11D639FAA27F00DB11DB0
:1034C000AA1F649F6627B00DA11D661F829F222739
:1034D000B00DA11D621F739FB00DA11D621F839FC0
:1034E000A00D611D221F749F3327A00D611D231F96
:1034F000849F600D211D822F762F6A2F11249F57E4
:1035000050408AF0E1F088234AF0EE0FFF1FBB1F06
:10351000661F771F881F91505040A9F79E3F5105A5
:1035200070F023CFA6CF5F3FECF3983EDCF3869597
:1035300077956795B795F795E7959F5FC1F7FE2B50
:10354000880F911D9695879597F908959F9325DF8C
:103550000F9007FCEE5F59CF20FD09C0FC0123FD51
:1035600005C022FF02C073836283518340830895A4
:10357000CF92DF92EF92FF920F931F9344FD10C002
:1035800046FD10C0DB01FC01AA0FBB1FEE1FFF1F91
:103590001094D1F76A0F7B1F8E1F9F1F31E003C06D
:1035A00033E001C034E0660F771F881F991F315048
:1035B000D1F76B017C01C20ED11CE11CF11C9701FB
:1035C0008601B601C9011F910F91FF90EF90DF9026
:1035D000CF9008950F931F93CF93DF938C01C80171
:1035E0000E94951DEC0197FD08C00E946518892B6B
:1035F000B1F7B801CE010E94D51DCE01DF91CF9168
:103600001F910F9108958F929F92AF92CF92DF9268
:10361000EF92FF920F931F93CF93DF93EC01A62EAF
:103620004A01022F0E94951DFC01FF27EB32F10594
:1036300019F0BD9751F40068AA9411F480E063C0BA
:10364000CE010E94951D97FDF9CF102F1D7F302FC1
:103650003073E1F48033D1F4AA9409F440C0CE0170
:103660000E94951D97FD3BC0883711F0883549F4BD
:103670001264AA94A1F1CE010E94951D97FF06C085
:103680002EC006FF02C0126001C01261C12CD12CF5
:103690007601282F2053283080F014FF04C0BE018B
:1036A0000E94D51D19C02A3040F016FFF8CF2F7D9B
:1036B000322F3151363098F72750412FC701B601CC
:1036C0000E94B81A6B017C011260AA9459F0CE01D5
:1036D0000E94951D97FFDDCF11FD04C0AFCFC12C17
:1036E000D12C760117FF08C0F094E094D094C094D8
:1036F000C11CD11CE11CF11C212FB701A601C40182
:103700000E94AC1A81E0DF91CF911F910F91FF9041
:10371000EF90DF90CF90AF909F908F9008956F9231
:103720007F929F92AF92BF92CF92DF92EF92FF92E1
:103730000F931F93CF93DF93CDB7DEB7A1970FB64B
:10374000F894DEBF0FBECDBF6C017A018901FE0186
:10375000319680E2DF011D928A95E9F7D601139632
:103760009C9020E030E0A12CA0E0B12CCF0141E002
:1037700050E0F80193FC759193FE71918F017111E6
:1037800003C000E010E080C07E3519F4211531053A
:1037900059F1EB2DF0E0E217F3073CF47D3569F1C8
:1037A0007D3219F4AA2319F103C0A11101C0A72E7B
:1037B000E72FE695E695E6953C016E0E711CF30148
:1037C000A72FA7703A0102C0660C771CAA95E2F7F2
:1037D000D301B081BA2BB0837A1559F07A1510F461
:1037E0007F5FE6CF7150E4CFBB24B39403C0A1E068
:1037F00001C0A0E02F5F3F4FBCCFAA2319F08E81FC
:1038000080628E83B11003C0BB24B3940BC0FE0151
:103810003196CE018196208120952193E817F907F2
:10382000D1F7F2CFC60169A30E94951D69A197FD4A
:1038300024C0282F269526952695E1E0F0E0EC0F90
:10384000FD1FE20FF11D208130E0AC0147705527CC
:1038500002C0359527954A95E2F720FD04C0B601D0
:103860000E94D51D0AC0E114F10419F0D7018D930F
:103870007D016150B12CB1F602C0B11082CFE114CC
:10388000F10411F0F7011082C801A1960FB6F89467
:10389000DEBF0FBECDBFDF91CF911F910F91FF9083
:1038A000EF90DF90CF90BF90AF909F907F906F9000
:1038B00008954F925F927F928F929F92AF92BF92A4
:1038C000CF92DF92EF92FF920F931F93CF93DF93EC
:1038D0001F92CDB7DEB78C012B015A01FC01178274
:1038E0001682812CF0C08E2D90E00E946518892BE5
:1038F00021F0C8010E94EA1AE6C0F5E2EF120AC000
:10390000F201F3FC3591F3FE31912F01353271F460
:1039100055E2E52EC8010E94951D97FDDFC0E8160F
:1039200009F4D1C0B8010E94D51DDAC03A3241F481
:10393000F3FC3591F3FE31912F019924939401C04A
:10394000912C712C10C0F2E09F2A672D70E080E06E
:1039500090E040E20E94B81A762EF201F3FC359115
:10396000F3FE31912F01232F20532A3060F391FE73
:1039700003C0711003C0B4C077247A94383619F0AC
:103980003C3699F40AC0F201F3FC3591F3FE319113
:103990002F01383651F4F8E09F2A84E0982AF2018A
:1039A000F3FC3591F3FE31912F01332309F498C0D4
:1039B000632F70E080EE90E039830E948A1D398188
:1039C000892B09F48DC090FC07C0F501E080F180DF
:1039D00082E0A80EB11C02C0E12CF12C3E3651F45D
:1039E000F8014681578160E070E0292DC7010E94EF
:1039F000AC1A69C0333691F491FC02C077247394F9
:103A0000C8010E94951D97FD69C0E114F10419F0E9
:103A1000F70181937F017A9499F753C03B3559F4AC
:103A20009201A701672DC8010E948F1B2C010097EE
:103A300009F047C041C0C80139830E94EA1A3981A0
:103A400097FD4CC03F3659F128F4343629F1393608
:103A500049F52AC0333719F0353721F51DC0C801A3
:103A60000E94951D6C0197FD11C00E946518892B5D
:103A700029F0B801C6010E94D51D08C0E114F10467
:103A800019F0F701C1927F017A9449F7E114F1042A
:103A9000C1F0F701108215C0F0E29F2A05C080E155
:103AA000982A02C090E4992A292DA701672DC80100
:103AB0000E94031B811105C0F8018381807371F49A
:103AC0000FC090FE8394F801F380F201F3FCE590BF
:103AD000F3FEE1902F01E11006CF02C0882019F01B
:103AE000282D30E002C02FEF3FEFC9010F90DF918A
:103AF000CF911F910F91FF90EF90DF90CF90BF90EB
:103B0000AF909F908F907F905F904F9008959927EE
:103B100088270895FC010590061621F00020D9F7AA
:103B2000C00108953197CF010895CF93DF93EC0141
:103B30003B8130FF34C036FF0AC03F7B3B838E8120
:103B40009F8101969F838E832A8130E02AC032FFB5
:103B50000FC0E881F9818081992787FD90950097B2
:103B600019F430623B831BC03196F983E8830EC0A1
:103B7000EA85FB85099597FF09C02B81019611F411
:103B800080E101C080E2822B8B8309C02E813F81BE
:103B90002F5F3F4F3F832E839C01332702C02FEFBF
:103BA0003FEFC901DF91CF910895FB01238120FFF1
:103BB00013C026FD11C08F3F3FEF930769F082834A
:103BC0002F7D20642383268137812150310937835B
:103BD00026839C01332702C02FEF3FEFC9010895D0
:103BE0009F3F31F0915020F4879577956795B79571
:103BF000880F911D9695879597F908959F938F93B8
:103C00007F936F93FF93EF939B01AC013CDCEF91AB
:103C1000FF9105D02F913F914F915F9134CCDF936D
:103C2000CF931F930F93FF92EF92DF927B018C0152
:103C3000689405C0DA2EEF0132DCFE01E894A5910C
:103C40002591359145915591AEF3EF01A2DAFE0130
:103C50009701A801DA9479F7DF90EF90FF900F9128
:103C60001F91CF91DF910895A1E21A2EAA1BBB1BD1
:103C7000FD010DC0AA1FBB1FEE1FFF1FA217B30738
:103C8000E407F50720F0A21BB30BE40BF50B661F4E
:103C9000771F881F991F1A9469F760957095809512
:103CA00090959B01AC01BD01CF0108952F923F92E9
:103CB0004F925F926F927F928F929F92AF92BF923C
:103CC000CF92DF92EF92FF920F931F93CF93DF93E8
:103CD000CDB7DEB7CA1BDB0B0FB6F894DEBF0FBE45
:103CE000CDBF09942A88398848885F846E847D8492
:103CF0008C849B84AA84B984C884DF80EE80FD8094
:103D00000C811B81AA81B981CE0FD11D0FB6F89409
:103D1000DEBF0FBECDBFED010895EE0FFF1F059072
:0A3D2000F491E02D0994F894FFCF10
:103D2A0000002D03800046696E206465206C696777
:103D3A006E6500456E7265676973747265203A2014
:103D4A0000747275650054727565005452554500C9
:103D5A003100256400256F00255800257800256963
:103D6A00006F7264726520696E64203D2000400015
:103D7A005265676C616765204F646F0052656361C5
:103D8A006C206172726965726500526563616C20AC
:103D9A006176616E7400424643617020004246417A
:103DAA0076616E636500424644726F6974650042CB
:103DBA0046436572636C6500417272657420526F86
:103DCA00626F740052657072656E64726500736525
:103DDA00745859436170006572722000636F75638D
:103DEA006F75002000000000004C057005E0FFE040
:103DFA00FF000066057A052000000000004B03ACB6
:103E0A0004E0FFE0FF00005503B70400000000458E
:103E1A0003A504000000003005420584038503DA87
:103E2A000D86038F0392039F03D603EC0303041B3F
:103E3A000F1707000000005F039E04840331043457
:103E4A0004370481033A043D047E0365037C03437B
:103E5A000441040600000000004B03AC04FAFFFA18
:103E6A00FF00005503B704C901DD01E701D3013999
:103E7A00024302000000008415281726155515393B
:043E8A001579150091
:00000001FF
