:100000000C9477000C9447120C9474120C949F007B
:100010000C949F000C949F000C949F000C949F00E4
:100020000C949F000C949F000C949F000C949F00D4
:100030000C949F000C949F000C949F000C949F00C4
:100040000C9402130C949F000C9481160C94C4160B
:100050000C949F000C949F000C949F000C949F00A4
:100060000C949F000C949F0005A84CCDB2D44EB9BF
:100070003836A9020C50B9918688083CA6AAAA2A4B
:10008000BE000000803F00000007000201000003E6
:100090000406000000000000000001020408102017
:1000A000408001020408102001020408102004040A
:1000B0000404040404040202020202020303030310
:1000C00003030000000023002600290000000000B8
:1000D000250028002B0000000000240027002A0033
:1000E0006364696E6F70737578585B0080171124B4
:1000F0001FBECFEFD8E0DEBFCDBF12E0A0E0B1E081
:10010000E6E9F1E402C005900D92A03BB107D9F7F2
:1001100013E0A0EBB2E001C01D92A937B107E1F7EF
:1001200010E0CEEED0E004C02297FE010E94C52070
:10013000CC3ED107C9F70E94D6170C942C1A0C9408
:100140000000CF93DF93EC010E94C503CE010C9613
:100150000E9486026AE070E0CE01845B9F4F0E949D
:1001600058106EE170E0CE018C5A9F4F0E945810DB
:10017000FE01E45AFF4F40E655EE60ED7EEB408312
:10018000518362837383FE01E05AFF4F40835183A2
:1001900062837383FE01EC59FF4F4AE752EB65ED32
:1001A0007AE34083518362837383FE01E859FF4FF2
:1001B00011821082C659DF4F19821882DF91CF91C8
:1001C00008958F929F92AF92BF92CF92DF92EF925B
:1001D000FF92CF93DF93EC01FC01E05AFF4FC08008
:1001E000D180E280F3806091B0027091B102809181
:1001F000B2029091B3020E94881BA70196010E944F
:10020000751C4B015C016091B4027091B502809144
:10021000B6029091B7020E94881BA70196010E9426
:10022000751C9B01AC01C501B4010E94811AFE013D
:10023000EC59FF4F20813181428153810E94751C0E
:10024000AB01BC01CE01DF91CF91FF90EF90DF9029
:10025000CF90BF90AF909F908F900C9408034F92D7
:100260005F926F927F92AF92BF92CF92DF92EF92A6
:10027000FF920F931F93CF93DF93EC010E94E10055
:1002800084EBE82E82E0F82E8E0108591F4FF7010B
:1002900060817181F80180819181681B790B8827C9
:1002A00077FD8095982F0E94881BFE01E45AFF4F2E
:1002B00020813181428153810E94751C2B013C01B8
:1002C00090EBA92E92E0B92E6E01FAE6CF0ED11C6A
:1002D000F50160817181F60180819181681B790B44
:1002E000882777FD8095982F0E94881BFE01E05A91
:1002F000FF4F20813181428153810E94751C9B01F7
:10030000AC01C301B2010E94821A20E030E040E05B
:100310005FE30E94751CAB01BC01CE010E940E037D
:10032000F50180819181F60191838083F7018081BD
:100330009181F80191838083DF91CF911F910F917B
:10034000FF90EF90DF90CF90BF90AF907F906F9035
:100350005F904F900895CF92DF92EF92FF920F93AC
:10036000CF93DF931F92CDB7DEB77B016A0166E0C2
:1003700071E08BEC92E029830E9425184AE050E05E
:10038000B7018BEC92E00E94FF186EE071E08BECFD
:1003900092E00E9425184AE050E02981622F70E027
:1003A0008BEC92E00E94FF1864E171E08BEC92E02C
:1003B0000E9425184AE050E0B6018BEC92E00E94C2
:1003C000FF186DE171E08BEC92E00E9425184AE085
:1003D00050E0602F70E08BEC92E00F90DF91CF91B6
:1003E0000F91FF90EF90DF90CF900C94FF18AF9299
:1003F000BF92CF92DF92EF92FF920F931F93CF9312
:10040000DF937C01EC012C96CE010E94F0026C017E
:10041000CE010E94F7025C01CE010E94F402182F67
:10042000CE010E94FB02082F112311F061E001C0F0
:1004300060E08BE00E944B14002311F060E001C0EB
:1004400061E08AE00E944B14B60186E00E94A1128E
:10045000B50185E00E94A112212FA501B601C701B7
:100460000E94AB01DF91CF911F910F91FF90EF9010
:10047000DF90CF90BF90AF900895CF92DF92EF9230
:10048000FF920F931F93CF93DF93EC018C01045BDA
:100490001F4FC8010E946410882349F0C8010E94C0
:1004A0004C10CE010E942F01CE010E9456038E01F6
:1004B0000C5A1F4FC8010E9464108823F1F0C80134
:1004C0000E944C10C880D980EA80FB800C811D817D
:1004D0002E813F81488559856A857B85CE010C96A2
:1004E0000E949902CE01DF91CF911F910F91FF9051
:1004F000EF90DF90CF900C94F701DF91CF911F9197
:100500000F91FF90EF90DF90CF900895CF93DF93FE
:10051000EC010E948410CE014D960E9484101BAE07
:100520001AAE1DAE1CAE81E08EAF8FAFDF91CF91C2
:100530000895AF92BF92CF92DF92EF92FF920F9306
:100540001F93CF93DF93CDB7DEB72C970FB6F894F8
:10055000DEBF0FBECDBF5C01C982DA82EB82FC82B6
:100560000D831E832F83388749875A876B877C8743
:10057000CE0101960E94FE02AB01BC01C5014D9661
:100580000E94B4100E94551B77FD0BC075956795AE
:10059000F50173AF62AF75AF64AF81E086AF87AF2F
:1005A0000EC06F5F7F4F7595679571956195710965
:1005B000F50162AF73AF64AF75AF16AE17AE2C9690
:1005C0000FB6F894DEBF0FBECDBFDF91CF911F9164
:1005D0000F91FF90EF90DF90CF90BF90AF90089574
:1005E000FC0182AD93AD0895FC0186AD0895FC0138
:1005F00084AD95AD0895FC0187AD0895FC0150814F
:10060000418132812381652F742F832F922F08958A
:10061000FC01408751876287738708958F929F926C
:10062000AF92BF92CF92DF92EF92FF92CF93DF9380
:10063000EC016A017B0188849984AA84BB84C5018A
:10064000B4010E94EA1A9B01AC01C701B6010E94E5
:10065000751C9B01AC01688179818A819B810E9414
:10066000821A688379838A839B83C501B4010E94BF
:10067000D81C9B01AC01C701B6010E94751C9B01EF
:10068000AC016C817D818E819F810E94821A6C8376
:100690007D838E839F83DF91CF91FF90EF90DF90DA
:1006A000CF90BF90AF909F908F900895CF93DF939E
:1006B000EC0163E271E08BEC92E00E94251840911E
:1006C000B4025091B5026091B6027091B7022AE06F
:1006D00030E08BEC92E00E94B4186BE271E08BEC9E
:1006E00092E00E9425184091B0025091B1026091B1
:1006F000B2027091B3022AE030E08BEC92E00E94EB
:10070000B41865E371E08BEC92E00E9425186881D3
:1007100079818A819B810E94551B4AE050E08BECD5
:1007200092E00E94FF186CE371E08BEC92E00E9473
:1007300025186C817D818E819F810E94551B4AE026
:1007400050E08BEC92E00E94FF1862E471E08BECC9
:1007500092E00E94251820E030E044EB53E46885E5
:1007600079858A859B850E94751C23EC35EF48E4CA
:1007700050E40E94ED1AAB01BC0122E030E08BECAA
:1007800092E0DF91CF910C94181AFC011082118233
:1007900012821382148215821682178210861186A5
:1007A00012861386089589E00E9482144091B40253
:1007B0005091B5026091B6027091B702019729F489
:1007C0004F5F5F4F6F4F7F4F04C041505109610928
:1007D00071094093B4025093B5026093B6027093CE
:1007E000B702089588E00E9482144091B0025091AF
:1007F000B1026091B2027091B302019729F44F5F88
:100800005F4F6F4F7F4F04C041505109610971091B
:100810004093B0025093B1026093B2027093B3025E
:1008200008952DE232E0FC0131832083089527E70B
:1008300032E0FC01318320832DE232E037832683CE
:100840000895DC01ED91FC91369720813181820F72
:10085000931F0C94170425E532E0FC0131832083BB
:100860000895CF93DF93EC01E881F9810288F38941
:10087000E02D09959C012F3F8FEF380729F08D81DE
:100880009E8101969E838D83C901DF91CF9108954A
:10089000CB0108958FEF9FEF089580E090E00895D9
:1008A00008950895242FDC01ED91FC910084F185D9
:1008B000E02D41E0099480E090E00895FC01228958
:1008C000338980899189281B390B86899789281B50
:1008D000390BC90108958F929F92AF92BF92EF9208
:1008E000FF92CF93DF93FC01DB01812C912C54010B
:1008F000C689D789E088F188828993898E199F09F2
:10090000C817D907A0F482169306A406B5067CF48E
:10091000CE0DDF1D88818D938FEF881A980AA80A63
:10092000B80A868997890196978B868BE1CFB401A7
:10093000C501DF91CF91FF90EF90BF90AF909F9056
:100940008F900895FC0126893789408951898289D1
:100950009389841B950B2817390730F4FA01E20FAD
:10096000F31F208130E002C02FEF3FEFC90108954F
:10097000CF93DF93EC01E881F9810288F389E02DC0
:1009800009959C012F3F8FEF380729F08E899F89A9
:1009900001969F8B8E8BC901DF91CF910895FC0149
:1009A00086899789009729F1A089B189228933899D
:1009B0002A1B3B0B2817390718F4378B268B19C0D5
:1009C00001976F3F2FEF720729F4978B868B60E0BA
:1009D00070E011C0A80FB91F2C91261303C0978B8C
:1009E000868B09C0278524FF04C0978B868B6C9368
:1009F00002C06FEF7FEFCB01089580E090E0089593
:100A000080E090E0089580E090E0089580E090E03C
:100A1000089560E070E0CB010895CB0108957F92C6
:100A20008F929F92AF92BF92CF92DF92EF92FF92FE
:100A30000F931F93CF93DF93EC0149015A018B0170
:100A4000C12CD12C76012FC0F80171908F018F85B8
:100A500080FF0BC0E881F9810084F185E02D20E161
:100A600044E060E070E0CE010995EB85FC858D8562
:100A70009E85E817F90738F470828B859C8501966E
:100A80009C878B870BC0E881F981028CF38DE02D68
:100A9000672D70E0CE010995019661F02FEFC21A23
:100AA000D20AE20AF20AC814D904EA04FB0464F286
:100AB00075016401B601C701DF91CF911F910F91BC
:100AC000FF90EF90DF90CF90BF90AF909F908F906E
:100AD0007F90089525E532E0FC01318320830C945A
:100AE000E5172DE232E0FC01318320830C94E517F9
:100AF00027E732E0FC01318320832DE232E03783A7
:100B000026830C94E517DC01ED91FC91369720814A
:100B10003181820F931F0C947805EF92FF920F930F
:100B20001F93CF93DF937C01EB018A016417750754
:100B3000A1F0FC0140815181401B510B4F5F5F4F81
:100B4000B801CE010E944D1A0C1B1D0BF7018081CC
:100B50009181801B910B91838083CE01DF91CF9196
:100B60001F910F91FF90EF900895CF93DF93EC01C9
:100B7000BC0181E090E00E94CE11FC01108218823D
:100B8000DF91CF910895DC0113968D919C9114977C
:100B9000892B59F01596ED91FC91169717968D912A
:100BA0009C911897E817F90741F4ED91FC91119782
:100BB0000488F589E02DCD01099481911696FC9366
:100BC000EE93159790E00895FC018581682B838949
:100BD0009489892B09F001C0616065830895FC0147
:100BE00080819181248135812817390711F00C9477
:100BF000461508950C94EF05CF93DF93EC0185E340
:100C000092E099838883CE0140960E94FA0585E59B
:100C100092E099838883DF91CF910895CF93DF93FA
:100C2000EC010E94FC05CE01DF91CF910C94E517F9
:100C3000CF93DF93EC0187E092E09983888381E191
:100C400092E099A388A3CE0106960E94FC058BE151
:100C500092E0998388838DE292E099A388A3DF9143
:100C6000CF910895DC01ED91FC913697208131817F
:100C7000820F931F0C941806CF93DF93EC010E9410
:100C80001806CE01DF91CF910C94E517DC01ED91B0
:100C9000FC91369720813181820F931F0C943C0682
:100CA000CF93DF93EC01FB0101900020E9F731972E
:100CB000E61BF70B888199814A815B81481B590BA0
:100CC0004E175F0731F40E94371A9C0181E0232BF5
:100CD00009F080E0DF91CF910895DC0113968D91AA
:100CE0009C911497892B59F01596ED91FC911697CC
:100CF00017968D919C911897E817F90741F4ED919B
:100D0000FC9111970288F389E02DCD01099480812F
:100D100090E00895CF93DF93EC01E881F981369755
:100D20000190F081E02DEC0FFD1F838994890E94D2
:100D30006D068F3F2FEF920789F00E942F1A892BA3
:100D4000C9F0E881F98136970190F081E02DEC0F30
:100D5000FD1F838994890E94C305DFCFE881F98153
:100D600036978081918162E08C0F9D1FDF91CF913A
:100D70000C94E405DF91CF910895DF92EF92FF92FA
:100D80000F931F93CF93DF937C018B01D42EDB0154
:100D9000ED91FC9136970190F081E02DE60FF71F61
:100DA000C189D2892097E9F0E881F98136970190CD
:100DB000F081E02DEC0FFD1F83899489DC01ED911A
:100DC000FC910484F585E02D0995019651F4E881A4
:100DD000F98136978081918161E08C0F9D1F0E947F
:100DE000E405D11003C0C8010E948A0681E0F70122
:100DF0008083DF91CF911F910F91FF90EF90DF9053
:100E00000895CF93DF93EC01009791F0CE010E94FB
:100E1000AB149C01009771F4E091B802F091B90213
:100E2000309721F480E090E00E942C1A0995EECFD3
:100E300020E030E0C901DF91CF910895CF92DF9299
:100E4000EF92FF920F931F93CF93DF93EC018A8170
:100E50009B8128813981821B930B8617970708F4A1
:100E6000CB016C012FEFC21AD20AC6010E94010702
:100E70008C0168817981EA80FB80E61AF70AA70174
:100E80000E944D1AE00EF11EC7010E94B505CE0169
:100E90000E94EF0519830883FB82EA820C0D1D1D59
:100EA0001D830C83DF91CF911F910F91FF90EF90E5
:100EB000DF90CF9008951F93CF93DF93EC01162F0F
:100EC0008A819B819C012F5F3F4F4C815D8142173E
:100ED000530779F428813981821B930B11F09C010F
:100EE00002C021E030E0B901680F791FCE010E94F5
:100EF0001E078A819B8101960E94B505EA81FB81CC
:100F000010838A819B8101969B838A83DF91CF9195
:100F10001F910895EF92FF920F931F93CF93DF934A
:100F20008C01C0E0D0E07C0188E0E80EF11C26C016
:100F30006BE471E08BEC92E00E944418229724F459
:100F400081E0F801868702C0F801168668E571E045
:100F50008BEC92E00E942518F801608571858BEC7E
:100F600092E0DF91CF911F910F91FF90EF900C9441
:100F70004418682FC7010E945B0721968BEC92E012
:100F80000E94E5151816190684F4CC31D10569F0D4
:100F900061E070E080E090E00E9488138BEC92E0CA
:100FA0000E9414168A3029F7C3CFDF91CF911F9189
:100FB0000F91FF90EF9008950F931F93CF93DF93BE
:100FC000EC018B016F3F8FEF7807E9F08F8584FF8D
:100FD0001DC0288D398D488959898A899B89841B30
:100FE000950B2817390728F0CE0140960E945B0721
:100FF00004C0FA01E20FF31F6083888D998D01967A
:10100000998F888F05C000E010E002C00FEF1FEF3E
:10101000C801DF91CF911F910F9108957F928F9218
:101020009F92AF92BF92CF92DF92EF92FF920F9377
:101030001F93CF93DF931F92CDB7DEB78C017B0157
:1010400040E0BC01CE0101960E94BD062981D80175
:101050008D919C91FC013697222309F47FC0019069
:10106000F081E02DE00FF11FC388D488D701ED9106
:10107000FC91119712968D919C911397E817F9079F
:1010800041F010828D919C91119713969C938E93B1
:101090001297D801ED91FC9136970190F081E02DE7
:1010A0003296E00FF11F62857385848595851286DF
:1010B0001386148615865B016115710521F0C70141
:1010C0000E941E0703C0AA24AA94BA2CC6010E943B
:1010D000C3054C018F3FBFEF9B0741F4D801ED9151
:1010E000FC9136978081918162E020C0992787FD2D
:1010F00090950E942F1AB1E0AB1AB108892BD9F054
:10110000F60183819481009789F10580F681E02DB5
:10111000E817F90759F18291881228C034C0D80124
:10112000ED91FC9136978081918164E0800F911F51
:101130000E94E40507C0682DC7010E945B07A11447
:10114000B10421F6F7012281338180819181281732
:101150003907F9F4D801ED91FC913697808191819E
:1011600064E0800F911F0E94E40513C0D601ED9149
:10117000FC91B40177270688F789E02DC60109950F
:10118000019669F2DFCFD6011696FC93EE93159780
:10119000D9CFC8010F90DF91CF911F910F91FF9090
:1011A000EF90DF90CF90BF90AF909F908F907F9007
:1011B00008958F929F92AF92BF92CF92DF92EF925B
:1011C000FF920F931F93CF93DF93EC018B016A0182
:1011D0007A01E61AF70A288139818A819B81821B6C
:1011E000930B8E159F0578F0A701C9010E94441A40
:1011F0004A815B81DE016D917D91CD016E0D7F1D78
:101200000E948D056BC0AC01C9010E94441A8A81FD
:101210009B8168817981AC01461B570B7801E40EF4
:10122000F51EEC14FD0409F459C086010E191F09BE
:10123000F801E40FF51F2C813D81261B370B21504F
:1012400031092E173F0780F54F5F5F4FC80104310A
:10125000110510F484E190E04A01880E991EC40142
:101260000E9401076C0168817981AA80BB80A61A5F
:10127000B70AA5010E944D1AAC0CBD1CA801B7010C
:10128000C5010E944D1AA00EB11EC5010E94B505F0
:10129000CE010E94EF05D982C882BB82AA82C80C07
:1012A000D91CDD82CC821AC0B7016F5F7F4FA601C7
:1012B000461B570B01960E944D1A8A819B81800F15
:1012C000911F0E94B505EA81FB81D7018C91808333
:1012D0008A819B81800F911F9B838A83CE01DF913E
:1012E000CF911F910F91FF90EF90DF90CF90BF9023
:1012F000AF909F908F900895CF93DF93EC01681784
:10130000790739F0FB0142815381608171810E942C
:10131000D908CE01DF91CF910895CF93DF93EC01EF
:1013200046960E947C091D8E1C8E8D8981FF09C006
:10133000888D998D2E893F89821B930B9F8F8E8F6D
:1013400002C01F8E1E8EE881F98136970190F081D0
:10135000E02DEC0FFD1F83899489892B11F01582F4
:1013600002C081E08583DF91CF910895CF93DF9311
:10137000EC01198218821B821A821D821C8288E06D
:1013800090E00E940107998388839B838A839C0154
:10139000285F3F4F3D832C83DF91CF910C94B5059F
:1013A000EF92FF920F931F93CF93DF931F92CDB7CE
:1013B000DEB78C017B0164E670E00E945810BE012C
:1013C0006F5F7F4FC80108960E94B60981E290E0E6
:1013D000F80193AB82AB14AA15AA16AA46E050E016
:1013E00060E070E047AB50AF61AF72AF13AE14AEC8
:1013F00015AE16AE80E287AFE05CFF4F118210821F
:10140000F801EE5BFF4FC801459691838083F80198
:10141000EC5BFF4F1082F801118A128A138A148A3A
:1014200087E092E0908B878781E192E090AB87A77D
:10143000118E108E138E128E158E148E178E168EA0
:1014400011A210A213A212A214A285E392E0968B1D
:10145000858BBE016F5F7F4FC80185960E94B609DC
:10146000F80114A613A616A615A688E084A3EB5BC4
:10147000FF4FF182E08281E0F80186870F90DF91D3
:10148000CF911F910F91FF90EF900895FF920F93CE
:101490001F93CF93DF93EC018B01F42E4881598188
:1014A0008A819B81841B950BBC01600F711F2C816D
:1014B0003D81241B350B215031092617370758F47D
:1014C0009C018017910708F49801B901680F791FF2
:1014D000CE010E941E0701151105E1F02A813B8112
:1014E000C9010196A901400F511F481B590B6F2DCF
:1014F00070E00E945F1A8A819B81800F911F0E9479
:10150000B505EA81FB81F0828A819B81800F911F62
:101510009B838A83CE01DF91CF911F910F91FF9022
:101520000895CF92DF92EF92FF920F931F93CF9384
:10153000DF931F92CDB7DEB77C018B01BE016F5FD9
:101540007F4F0E94B609D801ED91FC91369701902A
:10155000F081E02DE00FF11F838994890E946D06D0
:101560006C018F3FBFEF9B0729F10E942F1A892B37
:1015700069F020C0D801ED91FC913697808191816E
:1015800066E0800F911F0E94E4051CC0D801ED9118
:10159000FC9136970190F081E02DE00FF11F8389D7
:1015A00094890E94C3054C2D61E070E0C7010E9440
:1015B000460AC9CFF70122813381808191812817A2
:1015C0003907C1F2C7010F90DF91CF911F910F91A1
:1015D000FF90EF90DF90CF900895EF92FF920F93DE
:1015E0001F93CF93DF93CDB7DEB72D970FB6F89447
:1015F000DEBF0FBECDBF7C018B01BE01635F7F4F9D
:10160000CE0107960E94B609B701CE0101960E944D
:10161000910ABE016F5F7F4FCE0107960E947C0941
:10162000CE0101960E94FA0566E671E0CE010796AA
:101630000E94500681111EC06BE671E0CE01079634
:101640000E945006811116C060E771E0CE01079636
:101650000E94500681110EC065E771E0CE01079629
:101660000E945006811106C009C0CE0107960E9453
:10167000FA0507C081E0F8018083F7CFF8011082F6
:10168000F4CF2D960FB6F894DEBF0FBECDBFDF911D
:10169000CF911F910F91FF90EF900895CF92DF921D
:1016A000EF92FF920F931F93CF93DF931F92CDB7CB
:1016B000DEB76C018B01BE016F5F7F4F0E94B609E0
:1016C000D801ED91FC9136970190F081E02DE00F6B
:1016D000F11F838994890E946D067C018F3FBFEFC3
:1016E0009B0789F10E942F1A892B69F5C701C097C2
:1016F0000A97A8F0EEE2EE16F10489F0FCE2EF168C
:10170000F10409F50CC0D801ED91FC913697808168
:10171000918166E0800F911F0E94E4051CC0D801F2
:10172000ED91FC9136970190F081E02DE00FF11FD3
:10173000838994890E94C3054E2D61E070E0C60143
:101740000E94460ABDCFF6012281338180819181BA
:1017500028173907C1F2C6010F90DF91CF911F9171
:101760000F91FF90EF90DF90CF900895EF92FF924E
:101770000F931F93CF93DF93CDB7DEB72D970FB69F
:10178000F894DEBF0FBECDBF8C01F62EE72EBE0152
:10179000635F7F4FCE0107960E94B609D801ED9195
:1017A000FC9136970190F081E02DE00FF11F8381CD
:1017B000B80185FF14C0CE0101960E944E0BBE01F8
:1017C0006F5F7F4FCE0107960E947C09CE01019684
:1017D0000E94FA05EF92FF9287E791E033C0CE01B5
:1017E00001960E94910ABE016F5F7F4FCE0107965E
:1017F0000E947C09CE0101960E94FA05D801ED9164
:10180000FC9136970190F081E02DE00FF11F83816C
:10181000948186FF05C0EF92FF928AE791E012C0A3
:1018200087FF0CC095FF05C0EF92FF928DE791E016
:1018300009C0EF92FF9280E891E004C0EF92FF921E
:1018400083E891E09F938F9388858F938F818F9307
:101850000E94661A0F900F900F900F900F900F90AC
:10186000CE0107960E94FA052D960FB6F894DEBFBA
:101870000FBECDBFDF91CF911F910F91FF90EF90E1
:101880000895EF92FF920F931F93CF93DF931F92D0
:10189000CDB7DEB77C018B0140E0BC01CE010196E3
:1018A0000E94BD06B801C7010E94B60BC7010F9088
:1018B000DF91CF911F910F91FF90EF900895DF92EC
:1018C000EF92FF920F931F93CF93DF93CDB7DEB7C5
:1018D00065970FB6F894DEBF0FBECDBFBC01685F41
:1018E0007F4F7C012FE0E20EF11CC7010E948D09A1
:1018F000BE016B5E7F4FCE0101960E94B609BE010C
:101900006F5F7F4FC7010E940E08E981FA81D08086
:1019100066E871E08BEC92E00E942518E981FA817B
:101920000181112707FD1095005311096D2D8BECD6
:1019300092E00E94271863E971E08BEC92E00E942C
:1019400025184AE050E0B8018BEC92E00E9407199C
:101950001A8A198A188A1F861E861D861C861B866F
:101960001A86198618861F8283E5D81278C104303A
:10197000110509F459C07CF40130110531F11CF452
:10198000012B01F16CC10230110511F10330110579
:1019900009F065C120C00730110509F41AC14CF4E3
:1019A0000530110509F45AC00630110509F057C178
:1019B0009CC00830110509F40FC10930110509F068
:1019C0004EC10DC165E971E046C161EA71E043C1F4
:1019D0006FEA71E040C1BE016F5E7F4FC7010E9498
:1019E000410C8C0140E0BC01CE0143960E94BD0633
:1019F000BE016C5E7F4FC8010E94ED0AD801ED91D7
:101A0000FC9136970190F081E02DE00FF11F858168
:101A1000857009F029C16BEB71E08BEC92E00E94BC
:101A2000251869897A89CEC0BE01615F7F4FC701E1
:101A30000E94410CBE01675F7F4F0E94410C62EC27
:101A400071E08BEC92E00E94441869E471E08BEC49
:101A500092E00E9425186F857889A6C0BE01615F5B
:101A60007F4FC7010E94410CBE01635F7F4F0E9400
:101A7000410CBE016F5E7F4F0E94410CBE01675F4B
:101A80007F4F0E94410C8C0140E0BC01CE01439687
:101A90000E94BD06BE016C5E7F4FC8010E94ED0A28
:101AA0006BEC71E08BEC92E00E9444186F857889B2
:101AB0004AE050E08BEC92E00E94FF1869E471E08C
:101AC0008BEC92E00E9425186D857E854AE050E0FF
:101AD0008BEC92E00E94FF1869E471E08BEC92E0DD
:101AE0000E94251869897A895FC0BE01615F7F4FB6
:101AF000C7010E94410CBE01635F7F4F0E94410CF1
:101B0000BE01655F7F4F0E94410CBE016F5E7F4F3B
:101B10000E94410CBE01695F7F4F0E94410CBE01D3
:101B2000675F7F4F0E94410C64ED71E08BEC92E0A7
:101B30000E9444186F8578894AE050E08BEC92E06F
:101B40000E94FF1869E471E08BEC92E00E94251876
:101B50006D857E854AE050E08BEC92E00E94FF1894
:101B600069E471E08BEC92E00E9425186B857C851E
:101B70004AE050E08BEC92E00E94FF1869E471E0CB
:101B80008BEC92E00E94251869897A894AE050E03E
:101B90008BEC92E00E94FF1869E471E08BEC92E01C
:101BA0000E9425186F8178854AE050E08BEC92E026
:101BB0000E94FF1869E471E08BEC92E00E94251806
:101BC00069857A854AE050E08BEC92E00E94071923
:101BD00046C06DED71E03FC069EE71E03CC0BE01F2
:101BE000615F7F4FC7010E94410CBE01635F7F4F61
:101BF0000E94410CBE016F5E7F4F0E94410C63EF5B
:101C000071E08BEC92E00E9444186F8578894AE07D
:101C100050E08BEC92E00E94FF1869E471E08BECDD
:101C200092E00E9425186D857E854AE050E08BEC9D
:101C300092E00E94FF1869E471E08BEC92E00E9450
:101C4000251869897A894AE050E08BEC92E00E947D
:101C5000FF1869E471E08BEC92E00E944418CE0119
:101C600001960E94FA0507C06CEF71E08BEC92E0E0
:101C70000E942518D0CE65960FB6F894DEBF0FBE31
:101C8000CDBFDF91CF911F910F91FF90EF90DF902B
:101C900008950F931F93CF93DF9300D000D000D00F
:101CA000CDB7DEB78C010E9464108823B9F1C8015A
:101CB0000E944C10C8010E948A07F8018685811194
:101CC0002DC0C8010E945F0C81E0F80186871A824E
:101CD00019821C821B821E821D8281E090E00E947C
:101CE00001079A8389839C012F5F3F4F3E832D8399
:101CF0009C838B830E94B505BE016F5F7F4FC80137
:101D00000F960E948D09CE0101960E94FA054AE4C1
:101D100051E0BA01C80108960E94D90826960FB66C
:101D2000F894DEBF0FBECDBFDF91CF911F910F9111
:101D300008950F931F93CF93DF938C01E22FE870E8
:101D4000322F30712871283121F4423009F05DC002
:101D500059C0413011F4EB0129C04230D1F4332392
:101D600071F0DC015296CD91DC91539750968D9194
:101D70009C915197C81BD90BC60FD71F02C0C0E05A
:101D8000D0E0EE2399F0D8015696CD91DC9157978B
:101D90000BC0D8015296CD91DC91539750968D91FE
:101DA0009C915197C81BD90BC60FD71FD8015296CB
:101DB0004D915C91539750966D917C915197CA01CA
:101DC000861B970B8C179D07E8F0EE2321F05796A2
:101DD000DC93CE9356973323D9F06C0F7D1FC80147
:101DE00042960E948D05F801828993892089318964
:101DF000821B930B268937898217930748F4978BA8
:101E0000868B06C0CFEFDFEF03C0413011F6A3CFC2
:101E1000CE01DF91CF911F910F9108956F927F9224
:101E20008F929F92AF92BF92CF92DF92EF92FF92EA
:101E30000F931F93CF93DF93EC017B016A0142174D
:101E4000530709F4A8C08901041B150B6A817B8123
:101E50008C819D81861B970B081719070CF05EC0BB
:101E60005B01AE18BF0866246394712C660E771E62
:101E7000A016B106ECF0601B710B6F5F7F4FA301E2
:101E8000461B570BC3010E944D1A8A819B81800F0C
:101E9000911F9B838A83A501401B510B4F5F5F4FAE
:101EA000B701C701800F911F0E944D1AA80124C0DD
:101EB00045018FEF881A980A840E951EA9014819CA
:101EC0005909B401C3010E944D1A0A191B098A81DC
:101ED0009B81800F911F9B838A83A3014E195F0909
:101EE000B7010E944D1A8A819B818A0D9B1D9B839D
:101EF0008A838C189D08A401B601C701DF91CF9198
:101F00001F910F91FF90EF90DF90CF90BF90AF9017
:101F10009F908F907F906F900C94441A8881998144
:101F2000681B790B6F5F7F4FC8010431110510F4F6
:101F300084E190E04B01880E991EC4010E940107C4
:101F40005C01688179813701661A770AA3010E94D2
:101F50004D1A6A0C7B1CA801B601C3010E944D1AE0
:101F6000060D171DCA80DB80CE18DF08A601B70159
:101F7000C8010E944D1A0C0D1D1DC8010E94B50517
:101F8000CE010E94EF05B982A8821B830A83A80CA8
:101F9000B91CBD82AC82DF91CF911F910F91FF9050
:101FA000EF90DF90CF90BF90AF909F908F907F90F9
:101FB0006F9008954F925F926F927F928F929F924F
:101FC000AF92BF92CF92DF92EF92FF920F931F9347
:101FD000CF93DF93EC01CB013901542E452E7901CB
:101FE000488D598D088919894B01820E931E2A89C3
:101FF0003B89201B310B241B350B6301261537054C
:1020000008F46901C40ED51EC00ED11E040F151FA1
:102010005401A81AB90A9601201B310B2A153B0559
:1020200074F0A501BC01C8010E94441AB8016A0DF0
:102030007B1DA601CE0142960E948D0513C05C0156
:10204000A20EB31E9501281B390BA901BC01C801C2
:102050000E94441A00E09401A501B601CE01409609
:102060000E940E0F888D998D8E0D9F1D998F888FE0
:10207000B301852D942DDF91CF911F910F91FF908A
:10208000EF90DF90CF90BF90AF909F908F907F9018
:102090006F905F904F900895CF93DF93EC010E9473
:1020A0004C136C837D838E839F83DF91CF91089542
:1020B000AB01662757FD6095762FFC014083518365
:1020C000628373830C944C100F931F93CF93DF9311
:1020D000EC010E944C130C811D812E813F81601BFD
:1020E000710B820B930B41E0088119812A813B819E
:1020F00006171707280739070CF040E0842FDF91F7
:10210000CF911F910F910895FC01108211821282CC
:102110001382148215821682178210861186128607
:1021200013864DEC5CEC6CE570E44487558766875C
:1021300077874FEA54E965E27FE3408B518B628BEE
:10214000738B43E353E363E970E4448B558B668BF5
:10215000778B81E09FEF918F808F8FEF90E0938F4F
:10216000828F81E0848F08952F923F924F925F92E9
:102170006F927F928F929F92AF92BF92CF92DF9297
:10218000EF92FF920F931F93CF93DF93CDB7DEB7FC
:102190002C970FB6F894DEBF0FBECDBF9A87898704
:1021A0006A017B01FC01848D882309F4D6C09A0161
:1021B000AB0160857185828593850E94811A6D834C
:1021C0007E838F839887E985FA85208931894289C2
:1021D00053890E94751CE985FA85248135814681E1
:1021E00057810E94821A69837A838B839C83472F4D
:1021F000382F292F862F942FA32FB22FE985FA8508
:1022000084839583A683B783628D738D882777FD3A
:102210008095982F0E94881B3B011C012B018C018B
:10222000762F272F372D422D532DB981AA81BB80C0
:10223000AC806B2F7A2F8B2D9A2D0E94711C181653
:102240005CF4862D972DA02FB32DE985FA85848324
:102250009583A683B7831FC0E985FA85608D718D4C
:10226000882777FD8095982F0E94881B4B015C0181
:102270009B01AC01B981AA81EB81FC816B2F7A2F84
:10228000CF010E94E61A87FF06C0E985FA8584829D
:102290009582A682B782E985FA85248535854685AB
:1022A0005785BD81AE81EF81B8846B2F7A2F8E2F39
:1022B0009B2D0E94751CE985FA8524813581468114
:1022C00057810E94821A4B015C01E985FA852081C1
:1022D000318142815381C701B6010E94811AE9858B
:1022E000FA8524893589468957890E94751C9B0186
:1022F000AC01C501B4010E94811A4B015C01262D7D
:10230000372D422D532D682D792D8A2D9B2D0E941E
:10231000711C1816DCF0E985FA85608D718D8827AF
:1023200077FD8095982F0E94881B2B018C01762FBA
:10233000272F352D402F512F682D792D8A2D9B2D3C
:102340000E94E61A87FD02C024018501E985FA850D
:10235000C082D182E282F38204C0412C512C00E081
:1023600010E0642D752D802F912F2C960FB6F894C8
:10237000DEBF0FBECDBFDF91CF911F910F91FF90B8
:10238000EF90DF90CF90BF90AF909F908F907F9015
:102390006F905F904F903F902F900895CB010895DC
:1023A000CF93DF9343E050E063ED73E081E00E9460
:1023B000271243E050E062EF73E080E00E942712B2
:1023C00040E855E260E070E08BEC92E00E94FF167E
:1023D00061E08BE00E94131461E08AE00E94131414
:1023E00061E086E00E94131461E085E00E9413140E
:1023F00085B5887F85BD85B5816085BD8CE690E01B
:102400000E94E317EC010E94A100D093BD02C0938B
:10241000BC0287E490E00E94E317EC016091BC02EB
:102420007091BD020E94D009D093BB02C093BA0242
:10243000DF91CF9108958091BA029091BB020E94E2
:10244000490E8091BC029091BD020C943D028230F5
:10245000E8F4E82FF0E0EE0FFF1FE254FD4F718328
:102460006083813041F0809169008C7F842B809360
:102470006900E89A089580916900440F551F440F40
:10248000551F837F842B80936900E99A08951F92DA
:102490000F920FB60F9211242F933F934F935F9398
:1024A0006F937F938F939F93AF93BF93EF93FF931C
:1024B0008091BE029091BF02892B29F0E091BE026B
:1024C000F091BF020995FF91EF91BF91AF919F915C
:1024D0008F917F916F915F914F913F912F910F90CD
:1024E0000FBE0F901F9018951F920F920FB60F926C
:1024F00011242F933F934F935F936F937F938F9309
:102500009F93AF93BF93EF93FF938091C0029091FD
:10251000C102892B29F0E091C002F091C102099516
:10252000FF91EF91BF91AF919F918F917F916F91AB
:102530005F914F913F912F910F900FBE0F901F9081
:1025400018951F93CF93DF93182FEB0161E00E9442
:102550001314209711F460E004C0CF3FD10539F483
:1025600061E0812FDF91CF911F910C944B14E12FEB
:10257000F0E0EA57FF4FE491E330B9F028F4E1309E
:1025800051F0E230B1F50CC0E63019F1E73049F115
:10259000E43079F514C084B5806884BDC7BD2EC011
:1025A00084B5806284BDC8BD29C0809180008068E8
:1025B00080938000D0938900C09388001FC08091D1
:1025C0008000806280938000D0938B00C0938A004B
:1025D00015C08091B00080688093B000C093B300B4
:1025E0000DC08091B00080628093B000C093B400B1
:1025F00005C0C038D1050CF0B3CFADCFDF91CF917E
:102600001F9108951F920F920FB60F9211242F93CE
:102610003F938F939F93AF93BF938091C20290910A
:10262000C302A091C402B091C5023091CA02232F07
:102630002D5F2D3720F40196A11DB11D05C0232F5C
:102640002A570296A11DB11D2093CA028093C2028F
:102650009093C302A093C402B093C5028091C602B6
:102660009091C702A091C802B091C9020196A11D24
:10267000B11D8093C6029093C702A093C802B09385
:10268000C902BF91AF919F918F913F912F910F9070
:102690000FBE0F901F9018950F931F938FB7F8944C
:1026A0000091C2021091C3022091C4023091C50270
:1026B0008FBFB801C9011F910F9108950F931F9308
:1026C0009FB7F8940091C6021091C7022091C802EA
:1026D0003091C90286B5A89B06C08F3F21F00F5FDD
:1026E0001F4F2F4F3F4F9FBF322F212F102F0027FB
:1026F000080F111D211D311D42E0000F111F221F67
:10270000331F4A95D1F7B801C9011F910F91089560
:10271000CF92DF92EF92FF92CF93DF936B017C0118
:102720000E945E13EB010EC00E945E136C1B7D0BBA
:10273000683E734038F081E0C81AD108E108F1081A
:10274000C851DC4FC114D104E104F10469F7DF91F1
:10275000CF91FF90EF90DF90CF900895789484B55B
:10276000826084BD84B5816084BD85B5826085BD8D
:1027700085B5816085BDEEE6F0E080818160808373
:10278000E1E8F0E010828081826080838081816056
:102790008083E0E8F0E0808181608083E1EBF0E01D
:1027A000808184608083E0EBF0E0808181608083C1
:1027B000EAE7F0E0808184608083808182608083AA
:1027C0008081816080838081806880831092C100D5
:1027D0000895833069F028F48130A1F0823011F53A
:1027E00014C08630B1F08730C1F08430D9F404C011
:1027F000809180008F7703C0809180008F7D8093CF
:102800008000089584B58F7702C084B58F7D84BD24
:1028100008958091B0008F7703C08091B0008F7DC4
:102820008093B0000895CF93DF9390E0FC01E656CB
:10283000FF4F4491FC01E255FF4F8491882341F101
:1028400090E0880F991FFC01EA52FF4F25913491C7
:10285000D90184539F4FFC0185919491C82FD92FA2
:102860009FB7F8948C91611106C0409584238C9396
:102870008881842308C0623041F4242F209582236C
:102880008C938881842B888302C0842B8C939FBF78
:10289000DF91CF9108950F931F93CF93DF931F92F2
:1028A000CDB7DEB7282F30E0F901EA57FF4F84910A
:1028B000F901E656FF4F1491F901E255FF4F0491DB
:1028C0000023D1F0882321F069830E94E9136981F4
:1028D000E02FF0E0EE0FFF1FE453FF4F859194913E
:1028E000DC019FB7F8948C91611103C0109581238E
:1028F00001C0812B8C939FBF0F90DF91CF911F91CF
:102900000F910895CF93DF93282F30E0F901EA5714
:10291000FF4F8491F901E656FF4FD491F901E2553A
:10292000FF4FC491CC2389F081110E94E913EC2F51
:10293000F0E0EE0FFF1FEE53FF4F85919491DC0105
:102940008C918D2321E030E011F420E030E0C901CA
:10295000DF91CF9108950F931F93CF93DF93823030
:10296000910510F482E090E0E0917703F091780314
:1029700020E030E0C0E0D0E023C040815181481722
:102980005907A8F04817590761F48281938120976D
:1029900019F09B838A832EC09093780380937703EA
:1029A00029C02115310529F04217530710F0A9015C
:1029B00002C0BE01DF0102811381EF019A01F8011B
:1029C0003097D9F62115310509F1281B390B243030
:1029D000310590F412968D919C91139761157105B4
:1029E00021F0FB019383828304C09093780380934A
:1029F0007703FD01329644C0FD01E20FF31F81937E
:102A00009193225031092D933C933AC02091750344
:102A100030917603232B41F4209102013091030180
:102A200030937603209375032091000130910101CA
:102A30002115310541F42DB73EB740910401509165
:102A40000501241B350BE0917503F0917603E21725
:102A5000F307A0F42E1B3F0B2817390778F0AC01C1
:102A60004E5F5F4F2417350748F04E0F5F1F50939E
:102A70007603409375038193919302C0E0E0F0E008
:102A8000CF01DF91CF911F910F910895EF92FF92A7
:102A90000F931F93CF93DF93009709F48FC0DC014E
:102AA000129713961C921E921297E0907703F09063
:102AB0007803E114F10489F42D913C911197280FCA
:102AC000391F80917503909176038217930789F5DA
:102AD000B0937603A093750371C0E70120E030E066
:102AE00001C0EA01CA17DB0738F44A815B819E0105
:102AF00041155105B1F722C0BC0162507109FB01BB
:102B0000D383C28300811181AC01400F511F4C1748
:102B10005D0761F448815981400F511F4E5F5F4F3F
:102B2000518340834A815B81538342832115310560
:102B300029F4B0937803A093770340C0F901B383DD
:102B4000A283E90169917991C60FD71FAC17BD0720
:102B500079F4DC015E914E91460F571F4E5F5F4F37
:102B60005183408312968D919C9113979383828316
:102B7000A0E0B0E002C0D7017C01F701828193811F
:102B80000097C9F7C701029620813181820F931FF8
:102B900020917503309176032817390779F410973F
:102BA00029F4109278031092770304C013961C92B4
:102BB0001E921297F0927603E0927503DF91CF9107
:102BC0001F910F91FF90EF900895FC0184859585EA
:102BD000FC01E05CFF4F20813181FC01EE5BFF4F87
:102BE00080819181281B390B2F733327C9010895E8
:102BF000FC0184859585FC01E05CFF4F408151819B
:102C0000FC01EE5BFF4F208131814217530741F0F9
:102C10000190F081E02DE80FF91F208130E002C023
:102C20002FEF3FEFC9010895FC0184859585FC01D4
:102C3000E05CFF4F40815181FC01EE5BFF4F208142
:102C400031814217530781F0A081B181A80FB91FCC
:102C50008C91208131812F5F3F4F2F733327318338
:102C60002083282F30E002C02FEF3FEFC9010895E5
:102C7000FC0181A1882329F0A489B5898C9186FF64
:102C8000FBCF11A20895CF93DF93FC0126853785F2
:102C9000D901A05CBF4F8D919C91119701968F73C4
:102CA0009927E901CE5BDF4F488159818417950749
:102CB000D9F30D90BC91A02DA20FB31F6C93A685E4
:102CC000B785A05CBF4F11969C938E93A689B78958
:102CD0002C9181E090E0078C02C0880F991F0A9424
:102CE000E2F7282B2C9381E081A30488F589E02D5D
:102CF00080818064808381E090E0DF91CF910895AE
:102D000008951F920F920FB60F9211242F933F93A5
:102D10004F938F939F93EF93FF938091C00082FD19
:102D20001CC04091C600809171039091720301967E
:102D30008F7399272091730330917403821793073F
:102D400071F0E0917103F0917203EF5CFC4F4083EE
:102D5000909372038093710302C08091C600FF912B
:102D6000EF919F918F914F913F912F910F900FBEB7
:102D70000F901F9018958BEC92E00E94E515892B1F
:102D800011F00C94801608951F920F920FB60F92B7
:102D900011242F933F938F939F93EF93FF93209151
:102DA0002D0330912E0380912F039091300328172B
:102DB000390731F48091C1008F7D8093C10014C028
:102DC000E0912F03F0913003E351FD4F208180917A
:102DD0002F039091300301968F73992790933003BE
:102DE00080932F032093C600FF91EF919F918F91C5
:102DF0003F912F910F900FBE0F901F901895CF927B
:102E0000DF92EF92FF92CF93DF93EC016A017B0197
:102E1000411581EE580761057105F9F0EC89FD89CE
:102E200081E090E008A002C0880F991F0A94E2F7A1
:102E3000808360E079E08DE390E0A70196010E9435
:102E40006A20215031094109510956954795379516
:102E50002795211580E1380798F0EC89FD891082CB
:102E600060E874E88EE190E0A70196010E946A2074
:102E700021503109410951095695479537952795B4
:102E8000E889F9893083EA89FB89208319A2EE89D0
:102E9000FF89408181E090E09C010C8C02C0220FF0
:102EA000331F0A94E2F7422B4083EE89FF89408169
:102EB0009C010D8C02C0220F331F0A94E2F7422BB3
:102EC0004083EE89FF8940819C010E8C02C0220F55
:102ED000331F0A94E2F7422B4083EE89FF89208159
:102EE0000F8C02C0880F991F0A94E2F78095822305
:102EF0008083DF91CF91FF90EF90DF90CF90089586
:102F00001092CE021092CD0288EE93E0A0E0B0E0E5
:102F10008093CF029093D002A093D102B093D202BB
:102F200085E992E09093CC028093CB0281E393E019
:102F30009093D8028093D7028DEE92E09093DA02BC
:102F40008093D90285EC90E09093DC028093DB02C1
:102F500084EC90E09093DE028093DD0280EC90E0C0
:102F60009093E0028093DF0281EC90E09093E20284
:102F70008093E10282EC90E09093E4028093E3027C
:102F800086EC90E09093E6028093E50284E08093E3
:102F9000E70283E08093E80287E08093E90285E01E
:102FA0008093EA0281E08093EB0208950E94AE13C1
:102FB0000E94D011CBEBD6E10E941B122097E1F3C7
:102FC0000E94BB16F9CF0C94AB140C944615CF920B
:102FD000DF92EF92FF920F931F93CF93DF936C01D9
:102FE000EB017A01E60EF71E00E010E00BC06991DC
:102FF000D601ED91FC910190F081E02DC60109957B
:10300000080F191FCE15DF0591F7C801DF91CF9189
:103010001F910F91FF90EF90DF90CF900895611571
:10302000710581F0DB010D900020E9F7AD01415001
:103030005109461B570BDC01ED91FC910280F38195
:10304000E02D099480E090E008950C940F18DC01C5
:10305000ED91FC910190F081E02D09940F931F9365
:10306000CF93DF93EC016DE00E9427188C016AE09A
:10307000CE010E9427189C01200F311FC901DF914A
:10308000CF911F910F9108950F931F93CF93DF93CB
:10309000EC010E940F188C01CE010E942E1898019D
:1030A000280F391FC901DF91CF911F910F9108950A
:1030B0004F925F926F927F929F92AF92BF92CF9208
:1030C000DF92EF92FF920F931F93CF93DF93CDB7D1
:1030D000DEB7A1970FB6F894DEBF0FBECDBF5C017F
:1030E0006A017B01922E19A281E0821710F08AE01A
:1030F000982E8E010F5D1F4F492C512C612C712C85
:10310000C701B601A30192010E946A208C2D929EF4
:1031100080191124015011098A3014F4805D01C016
:10312000895CF801808369017A01C114D104E1044A
:10313000F10431F7B801C5010E940F18A1960FB62E
:10314000F894DEBF0FBECDBFDF91CF911F910F91DD
:10315000FF90EF90DF90CF90BF90AF909F907F90C7
:103160006F905F904F900895CF92DF92EF92FF9211
:103170000F931F93CF93DF93EC016A017B0121151D
:10318000310579F4E881F9810190F081E02D642F17
:10319000DF91CF911F910F91FF90EF90DF90CF9033
:1031A00009942A30310519F477FD0EC02AE0B701E1
:1031B000A601CE01DF91CF911F910F91FF90EF906B
:1031C000DF90CF900C9458186DE20E9427188C0164
:1031D00044275527BA014C195D096E097F092AE079
:1031E000CE010E945818080F191FC801DF91CF9116
:1031F0001F910F91FF90EF90DF90CF9008959A016B
:10320000AB01662757FD6095762F0C94B4180F9389
:103210001F93CF93DF93EC019A01AB01662757FD13
:103220006095762F0E94B4188C01CE010E942E1852
:103230009801280F391FC901DF91CF911F910F917C
:1032400008957F928F929F92AF92BF92CF92DF921A
:10325000EF92FF920F931F93CF93DF93EC016A01DC
:103260007B01122F9A01AB01C701B6010E94DE1C3F
:10327000882319F061EA72E032C046015701E894F0
:10328000B7F82FEF3FEF4FE75FE7C501B4010E94AA
:10329000DE1C81110DC02FEF3FEF4FE75FE7C50147
:1032A000B4010E94E61A18161CF465EA72E017C011
:1032B0002FEF3FEF4FE75FE4C701B6010E94711C9B
:1032C00018160CF40AC02FEF3FEF4FE75FECC70171
:1032D000B6010E94E61A87FF12C069EA72E0CE01C9
:1032E000DF91CF911F910F91FF90EF90DF90CF90E2
:1032F000BF90AF909F908F907F900C940F1820E01C
:1033000030E0A901C701B6010E94E61A87FF0AC092
:103310006DE2CE010E9427185C01F7FAF094F7F8ED
:10332000F09402C0A12CB12C00E060E070E080E0DD
:103330009FE307C020E030E040E251E40E94ED1A34
:103340000F5F0113F7CF262F372F482F592FC701B3
:10335000B6010E94821A762E872E982EC92E0E94C0
:103360005A1BD62EE72EF82E092F0E94861B9B0192
:10337000AC01672D782D892D9C2D0E94811AC62EB7
:10338000972E882E792E2AE04D2D5E2D6F2D702FD1
:10339000CE010E9458187C01EA0CFB1C1123B9F1E4
:1033A0006DEA72E0CE010E940F18E80EF91E2FC0E0
:1033B00020E030E040E251E46C2D792D882D972DEE
:1033C0000E94751C762E072F6C019D2D0E94551BA7
:1033D0004B01AA2497FCA094BA2C2AE030E0B50156
:1033E000A401CE010E94B418E80EF91EC501B40173
:1033F0000E94881B9B01AC01672D702F8C2D9D2D89
:103400000E94811AC62E972E882E792E11501111E6
:10341000CFCFC701DF91CF911F910F91FF90EF9018
:10342000DF90CF90BF90AF909F908F907F90089546
:103430000F931F93CF93DF93EC010E9421198C010E
:10344000CE010E942E189801280F391FC901DF9163
:10345000CF911F910F910895F8940C94C920911168
:103460008CC5803219F089508550D0F70895FB0142
:10347000DC0104C08D910190801921F4415050402D
:10348000C8F7881B990B0895FB01DC0102C001906D
:103490000D9241505040D8F708956817790768F4A5
:1034A000FB01DC01E40FF51FA40FB51F02C0029061
:1034B0000E9241505040D8F708950C94441ADC0104
:1034C00001C06D9341505040E0F70895A0E1B0E095
:1034D000ECE6FAE10C949C2085E08C838D899E8932
:1034E0009A838983AE01475E5F4F588B4F876F8900
:1034F000788DCE0101960E948F1E6096E2E00C94BA
:10350000B8205058BB27AA270ED0A0C169D130F0EF
:103510006ED120F031F49F3F11F41EF45EC10EF421
:10352000E095E7FB54C1E92FB3D180F3BA176207E6
:1035300073078407950718F071F49EF5CBC10EF45C
:10354000E0950B2EBA2FA02D0B01B90190010C01B3
:10355000CA01A0011124FF27591B99F0593F50F4CB
:10356000503E68F11A16F040A22F232F342F442723
:10357000585FF3CF469537952795A795F04053951B
:10358000C9F77EF41F16BA0B620B730B840BBAF0EB
:103590009150A1F0FF0FBB1F661F771F881FC2F756
:1035A0000EC0BA0F621F731F841F48F4879577956A
:1035B0006795B795F7959E3F08F0B3CF9395880F21
:1035C00008F09927EE0F979587950895DCD008F4B9
:1035D00081E0089514D1E3954AC10CD037C107D1D9
:1035E00040F0FED030F021F45F3F19F0F0C05111EF
:1035F00072C1F3C04DD198F39923C9F35523B1F3A8
:10360000951B550BBB27AA2762177307840738F051
:103610009F5F5F4F220F331F441FAA1FA9F333D0B0
:103620000E2E3AF0E0E830D091505040E695001C64
:10363000CAF729D0FE2F27D0660F771F881FBB1F20
:10364000261737074807AB07B0E809F0BB0B802DFA
:10365000BF01FF2793585F4F2AF09E3F510568F046
:10366000B6C039C15F3FECF3983EDCF386957795A1
:103670006795B795F7959F5FC9F7880F911D969548
:10368000879597F90895E1E0660F771F881FBB1FA4
:10369000621773078407BA0720F0621B730B840B51
:1036A000BA0BEE1F88F7E095089504D06894B11125
:1036B00012C10895F5D088F09F5790F0B92F99273F
:1036C000B751A0F0D1F0660F771F881F991F1AF02D
:1036D000BA95C9F712C0B13081F0FCD0B1E00895BD
:1036E000F9C0672F782F8827B85F39F0B93FCCF33E
:1036F000869577956795B395D9F73EF49095809523
:10370000709561957F4F8F4F9F4F0895E89409C042
:1037100097FB3EF490958095709561957F4F8F4F04
:103720009F4F9923A9F0F92F96E9BB279395F6951A
:10373000879577956795B795F111F8CFFAF4BB0F98
:1037400011F460FF1BC06F5F7F4F8F4F9F4F16C0FC
:10375000882311F096E911C0772321F09EE8872F86
:10376000762F05C0662371F096E8862F70E060E042
:103770002AF09A95660F771F881FDAF7880F9695BB
:10378000879597F90895990F0008550FAA0BE0E85F
:10379000FEEF16161706E807F907C0F01216130613
:1037A000E407F50798F0621B730B840B950B39F453
:1037B0000A2661F0232B242B252B21F408950A26B9
:1037C00009F4A140A6958FEF811D811D089597F9F9
:1037D0009F6780E870E060E008959FEF80EC0895B7
:1037E00000240A94161617061806090608950024E0
:1037F0000A9412161306140605060895EECF50D04B
:10380000E8F3E894E0E0BB279F57F0F02AED3FE0B3
:1038100049EC06C0EE0FBB0F661F771F881F28F00C
:10382000B23A62077307840728F0B25A620B730B2F
:10383000840BE3959A9572F7803830F49A95BB0F14
:10384000661F771F881FD2F7904802C4092E039481
:10385000000C11F4882352F0BB0F40F4BF2B11F47D
:1038600060FF04C06F5F7F4F8F4F9F4F0895EF93AE
:10387000E0FF06C0A2EA2AED3FE049EC5FEB53DE31
:10388000E5DF0F90039401FC9058E8E6F0E0ECC30C
:1038900057FD9058440F551F59F05F3F71F0479501
:1038A000880F97FB991F61F09F3F79F087950895E6
:1038B000121613061406551FF2CF4695F1DF08C005
:1038C000161617061806991FF1CF86957105610522
:1038D00008940895E894BB2766277727CB0197F9CA
:1038E000089551DF08F48FEF08950BD0AFCF78DF44
:1038F00028F07DDF18F0952309F069CF6ECF1124F1
:10390000EACFC6DFA0F3959FD1F3950F50E0551F86
:10391000629FF001729FBB27F00DB11D639FAA2724
:10392000F00DB11DAA1F649F6627B00DA11D661F73
:10393000829F2227B00DA11D621F739FB00DA11D94
:10394000621F839FA00D611D221F749F3327A00D4E
:10395000611D231F849F600D211D822F762F6A2FEA
:1039600011249F5750408AF0E1F088234AF0EE0F6F
:10397000FF1FBB1F661F771F881F91505040A9F77C
:103980009E3F510570F023CFA6CF5F3FECF3983EEA
:10399000DCF3869577956795B795F795E7959F5FE3
:1039A000C1F7FE2B880F911D9695879597F908957D
:1039B0009F9325DF0F9007FCEE5F59CFE4DE880B65
:1039C000990B089520FD09C0FC0123FD05C022FFCD
:1039D00002C073836283518340830895CF92DF9244
:1039E000EF92FF920F931F9344FD10C046FD10C04D
:1039F000DB01FC01AA0FBB1FEE1FFF1F1094D1F7C4
:103A00006A0F7B1F8E1F9F1F31E003C033E001C090
:103A100034E0660F771F881F991F3150D1F76B0173
:103A20007C01C20ED11CE11CF11C97018601B6017C
:103A3000C9011F910F91FF90EF90DF90CF900895F3
:103A40000F931F93CF93DF938C01C8010E94CB1F6C
:103A5000EC0197FD08C00E942F1A892BB1F7B8011D
:103A6000CE010E940B20CE01DF91CF911F910F91CB
:103A700008958F929F92AF92CF92DF92EF92FF9232
:103A80000F931F93CF93DF93EC01A62E4A01022FD1
:103A90000E94CB1FFC01FF27EB32F10519F0BD9707
:103AA00051F40068AA9411F480E063C0CE010E9432
:103AB000CB1F97FDF9CF102F1D7F302F3073E1F40E
:103AC0008033D1F4AA9409F440C0CE010E94CB1FE8
:103AD00097FD3BC0883711F0883549F41264AA94E9
:103AE000A1F1CE010E94CB1F97FF06C02EC006FF9A
:103AF00002C0126001C01261C12CD12C7601282FA6
:103B00002053283080F014FF04C0BE010E940B2017
:103B100019C02A3040F016FFF8CF2F7D322F3151D7
:103B2000363098F72750412FC701B6010E94EE1C8E
:103B30006B017C011260AA9459F0CE010E94CB1F48
:103B400097FFDDCF11FD04C0AFCFC12CD12C760182
:103B500017FF08C0F094E094D094C094C11CD11C0D
:103B6000E11CF11C212FB701A601C4010E94E21C37
:103B700081E0DF91CF911F910F91FF90EF90DF9047
:103B8000CF90AF909F908F9008956F927F929F9269
:103B9000AF92BF92CF92DF92EF92FF920F931F935B
:103BA000CF93DF93CDB7DEB7A1970FB6F894DEBF02
:103BB0000FBECDBF6C017A018901FE01319680E212
:103BC000DF011D928A95E9F7D60113969C9020E0BB
:103BD00030E0A12CA0E0B12CCF0141E050E0F80191
:103BE00093FC759193FE71918F01711103C000E0F8
:103BF00010E080C07E3519F42115310559F1EB2D07
:103C0000F0E0E217F3073CF47D3569F17D3219F4F9
:103C1000AA2319F103C0A11101C0A72EE72FE69531
:103C2000E695E6953C016E0E711CF301A72FA77077
:103C30003A0102C0660C771CAA95E2F7D301B08165
:103C4000BA2BB0837A1559F07A1510F47F5FE6CF5E
:103C50007150E4CFBB24B39403C0A1E001C0A0E045
:103C60002F5F3F4FBCCFAA2319F08E8180628E83D5
:103C7000B11003C0BB24B3940BC0FE013196CE013A
:103C80008196208120952193E817F907D1F7F2CF8B
:103C9000C60169A30E94CB1F69A197FD24C0282FEC
:103CA000269526952695E1E0F0E0EC0FFD1FE20F4A
:103CB000F11D208130E0AC014770552702C03595D9
:103CC00027954A95E2F720FD04C0B6010E940B201B
:103CD0000AC0E114F10419F0D7018D937D01615000
:103CE000B12CB1F602C0B11082CFE114F10411F091
:103CF000F7011082C801A1960FB6F894DEBF0FBE7F
:103D0000CDBFDF91CF911F910F91FF90EF90DF908A
:103D1000CF90BF90AF909F907F906F9008954F92FB
:103D20005F927F928F929F92AF92BF92CF92DF92DB
:103D3000EF92FF920F931F93CF93DF931F92CDB714
:103D4000DEB78C012B015A01FC0117821682812CEF
:103D5000F0C08E2D90E00E942F1A892B21F0C8010F
:103D60000E94201DE6C0F5E2EF120AC0F201F3FC4A
:103D70003591F3FE31912F01353271F455E2E52E84
:103D8000C8010E94CB1F97FDDFC0E81609F4D1C01F
:103D9000B8010E940B20DAC03A3241F4F3FC3591AD
:103DA000F3FE31912F019924939401C0912C712C31
:103DB00010C0F2E09F2A672D70E080E090E040E2C2
:103DC0000E94EE1C762EF201F3FC3591F3FE319148
:103DD0002F01232F20532A3060F391FE03C071106E
:103DE00003C0B4C077247A94383619F03C3699F47D
:103DF0000AC0F201F3FC3591F3FE31912F01383600
:103E000051F4F8E09F2A84E0982AF201F3FC3591FE
:103E1000F3FE31912F01332309F498C0632F70E032
:103E200080EE90E039830E94C01F3981892B09F40C
:103E30008DC090FC07C0F501E080F18082E0A80E03
:103E4000B11C02C0E12CF12C3E3651F4F801468140
:103E5000578160E070E0292DC7010E94E21C69C013
:103E6000333691F491FC02C077247394C8010E9408
:103E7000CB1F97FD69C0E114F10419F0F70181939C
:103E80007F017A9499F753C03B3559F49201A70109
:103E9000672DC8010E94C51D2C01009709F047C07D
:103EA00041C0C80139830E94201D398197FD4CC053
:103EB0003F3659F128F4343629F1393649F52AC00C
:103EC000333719F0353721F51DC0C8010E94CB1FCB
:103ED0006C0197FD11C00E942F1A892B29F0B8019F
:103EE000C6010E940B2008C0E114F10419F0F7018B
:103EF000C1927F017A9449F7E114F104C1F0F7010E
:103F0000108215C0F0E29F2A05C080E1982A02C005
:103F100090E4992A292DA701672DC8010E94391D17
:103F2000811105C0F8018381807371F40FC090FE88
:103F30008394F801F380F201F3FCE590F3FEE19045
:103F40002F01E11006CF02C0882019F0282D30E0A3
:103F500002C02FEF3FEFC9010F90DF91CF911F916A
:103F60000F91FF90EF90DF90CF90BF90AF909F9018
:103F70008F907F905F904F9008959927882708959C
:103F8000FC010590061621F00020D9F7C001089524
:103F90003197CF010895CF93DF93EC013B8130FF40
:103FA00034C036FF0AC03F7B3B838E819F810196E0
:103FB0009F838E832A8130E02AC032FF0FC0E881C0
:103FC000F9818081992787FD9095009719F43062D7
:103FD0003B831BC03196F983E8830EC0EA85FB85DD
:103FE000099597FF09C02B81019611F480E101C06A
:103FF00080E2822B8B8309C02E813F812F5F3F4F50
:104000003F832E839C01332702C02FEF3FEFC9016E
:10401000DF91CF910895FB01238120FF13C026FD7E
:1040200011C08F3F3FEF930769F082832F7D20649B
:1040300023832681378121503109378326839C01D0
:10404000332702C02FEF3FEFC90108959F3F31F0A2
:10405000915020F4879577956795B795880F911DB6
:104060009695879597F908959F938F937F936F9374
:10407000FF93EF939B01AC0138DCEF91FF9105D0EA
:104080002F913F914F915F9130CCDF93CF931F934E
:104090000F93FF92EF92DF927B018C01689405C031
:1040A000DA2EEF012EDCFE01E894A59125913591E1
:1040B00045915591AEF3EF0136DAFE019701A80163
:1040C000DA9479F7DF90EF90FF900F911F91CF91E5
:1040D000DF910895A1E21A2EAA1BBB1BFD010DC0A2
:1040E000AA1FBB1FEE1FFF1FA217B307E407F507A8
:1040F00020F0A21BB30BE40BF50B661F771F881F84
:10410000991F1A9469F760957095809590959B0119
:10411000AC01BD01CF0108952F923F924F925F9263
:104120006F927F928F929F92AF92BF92CF92DF92C7
:10413000EF92FF920F931F93CF93DF93CDB7DEB72C
:10414000CA1BDB0B0FB6F894DEBF0FBECDBF0994C0
:104150002A88398848885F846E847D848C849B8417
:10416000AA84B984C884DF80EE80FD800C811B8125
:10417000AA81B981CE0FD11D0FB6F894DEBF0FBE54
:10418000CDBFED010895EE0FFF1F0590F491E02DD6
:064190000994F894FFCF32
:1041960000007903800020636D6447202000202002
:1041A600472020002020636D644420200020204406
:1041B6002020007469634720203A00202074696338
:1041C6004420203A0020207820203A002020792020
:1041D6003A0020206361703A20200046696E206410
:1041E60065206C69676E6500456E726567697374F4
:1041F6007265203A20007472756500547275650008
:1042060054525545003100256400256F002558009D
:104216002578002569006F7264726520696E6420D6
:104226003D200040005265676C616765204F646FF2
:1042360000526563616C2061727269657265005235
:104246006563616C206176616E74004246436170FD
:10425600200042464176616E636500424644726FB5
:10426600697465004246436572636C65004172720B
:10427600657420526F626F740052657072656E6469
:1042860072650073657458594361700065727220D7
:104296000020000000000018063C06E0FFE0FF00DA
:1042A600003206460620000000000017047805E0EC
:1042B600FFE0FF00002104830500000000110471E7
:1042C6000500000000FC050E0650045104990E522C
:1042D600045B045E046B04A204B804CF04DA0FDCAA
:1042E60007000000002B046A055004FD04000503C6
:1042F600054D04060509054A04310448040F050D59
:104306000506000000000017047805FAFFFAFF0012
:10431600002104830507021B022502110277028190
:1043260002000000004316E717E5151416F81538C5
:10433600166E616E00696E66006F7666002E00006E
:00000001FF
