:100000000C9477000C9462160C948F160C949F003D
:100010000C949F000C949F000C949F000C949F00E4
:100020000C949F000C949F000C949F000C949F00D4
:100030000C949F000C949F000C949F000C949F00C4
:100040000C941D170C949F000C944C1A0C948F1A4E
:100050000C949F000C949F000C949F000C949F00A4
:100060000C949F000C949F0005A84CCDB2D44EB9BF
:100070003836A9020C50B9918688083CA6AAAA2A4B
:10008000BE000000803F00000007000201000003E6
:100090000406000000000000000001020408102017
:1000A000408001020408102001020408102004040A
:1000B0000404040404040202020202020303030310
:1000C00003030000000023002600290000000000B8
:1000D000250028002B0000000000240027002A0033
:1000E0006364696E6F70737578585B004B1B1124E5
:1000F0001FBECFEFD8E0DEBFCDBF12E0A0E0B1E081
:10010000E6EEF9E402C005900D92AE3AB107D9F7D8
:1001100013E0AEEAB2E001C01D92A737B107E1F7E4
:1001200010E0CEEED0E004C02297FE010E94ED2444
:10013000CC3ED107C9F70E94A11B0C94031E0C945E
:100140000000CF93DF93EC010E949305CE010C9643
:100150000E9429026AE070E0CE018E589F4F0E94F3
:1001600025146EE170E0CE0186589F4F0E94251441
:10017000FE01EE57FF4F40E655EE60ED7EEB40830B
:10018000518362837383FE01EA57FF4F408351839B
:1001900062837383FE01E657FF4F4AEC5FEA65E531
:1001A0007BE34083518362837383FE01E257FF4FF9
:1001B00011821082C057DF4F19821882DF91CF91D0
:1001C0000895CF92DF92EF92FF92CF93DF93EC01ED
:1001D0006091AE027091AF028091B0029091B10235
:1001E0000E94671FFE01EA57FF4F20813181428143
:1001F00053810E9454206B017C016091B202709186
:10020000B3028091B4029091B5020E94671FFE0173
:10021000EE57FF4F20813181428153810E9454204B
:100220009B01AC01C701B6010E94601EFE01E657AA
:10023000FF4F20813181428153810E945420AB01C4
:10024000BC01CE01DF91CF91FF90EF90DF90CF9076
:100250000C94FE044F925F926F927F92AF92BF9286
:10026000CF92DF92EF92FF920F931F93CF93DF9382
:10027000EC010E94E10082EBE82E82E0F82E8E0174
:1002800002571F4FF70160817181F80180819181D0
:10029000681B790B882777FD8095982F0E94671F30
:1002A000FE01EE57FF4F20813181428153810E9430
:1002B00054202B013C019EEAA92E92E0B92E6E013A
:1002C000F0E9CF0ED11CF50160817181F6018081CA
:1002D0009181681B790B882777FD8095982F0E9464
:1002E000671FFE01EA57FF4F208131814281538110
:1002F0000E9454209B01AC01C301B2010E94611E07
:1003000020E030E040E05FE30E945420AB01BC01FC
:10031000CE010E940405F50180819181F60191834F
:100320008083F70180819181F80191838083DF913F
:10033000CF911F910F91FF90EF90DF90CF90BF90E2
:10034000AF907F906F905F904F900895DF92EF9203
:10035000FF920F931F93CF93DF93EC012C96CE0166
:100360000E94D4047C01CE010E94DF048C01CE01E6
:100370000E94DA04D82ECE010E94E504C82FDD20A9
:1003800011F061E001C060E08BE00E941618CC2300
:1003900011F060E001C061E08AE00E941618B70128
:1003A00086E00E94BC16B80185E0DF91CF911F91D5
:1003B0000F91FF90EF90DF900C94BC16CF92DF92DC
:1003C000EF92FF920F931F93CF93DF93EC018C0179
:1003D0000E581F4FC8010E943114882331F0C80104
:1003E0000E941914CE010E942A018E0106581F4F47
:1003F000C8010E9431148823F1F0C8010E94191429
:10040000C880D980EA80FB800C811D812E813F81CC
:10041000488559856A857B85CE010C960E94970494
:10042000CE01DF91CF911F910F91FF90EF90DF9060
:10043000CF900C94A601DF91CF911F910F91FF9067
:10044000EF90DF90CF9008959C01245F3F4FC9014A
:100450000895CF92DF92EF92FF920F931F93CF9365
:10046000DF93EC010E949305CE010C960E94930548
:10047000CE0148960E94BB0519A218A2C12CD12C0E
:1004800080EAE82E81E4F82E00E010E028E432E46F
:1004900040E050E06CE872E4CE0182960E94511474
:1004A0009DECC92E9CECD92EED2C9DE3F92E00E09D
:1004B00010E020E83EE34AE959E969E97EE3CE012C
:1004C000CF960E945114FE01E45AFF4F1182108210
:1004D000FE01E25AFF4F11821082FE01EC59FF4FDC
:1004E00081E08083CB59DF4F8883DF91CF911F91CB
:1004F0000F91FF90EF90DF90CF9008958F929F9291
:10050000AF92BF92CF92DF92EF92FF920F931F9321
:10051000CF93DF93CDB7DEB764970FB6F894DEBF05
:100520000FBECDBF4C01A986BA86CB86DC86ED8690
:10053000FE860F87188B298B3A8B4B8B5C8BFC01CB
:1005400071A360A36130710529F06230710509F073
:100550006DC057C0CE0109960E94EA04AB01BC01F0
:100560008401045F1F4FC8010E9404052DB73EB7E8
:100570002C5031090FB6F8943EBF0FBE2DBFADB75A
:10058000BEB711968CE0F80101900D928A95E1F7C3
:10059000F401C080D180E280F3800481158126813E
:1005A00037814085518562857385CE0101960E9411
:1005B000C50588E0FE013196D401589601900D9250
:1005C0008A95E1F7CE0109960E94EA040FB6F894E5
:1005D000DEBF0FBECDBF20E030E0A9010E94C51EE6
:1005E0008401085E1F4F87FF03C0C8010E943C06BC
:1005F000C8010E94500640E050E0BA01C401CF9605
:1006000013C0CE0109960E94F404AB01BC01840121
:10061000045F1F4FC8010E94FE04C8010E94F40439
:10062000AB01BC01C40182960E94811464960FB68E
:10063000F894DEBF0FBECDBFDF91CF911F910F9118
:10064000FF90EF90DF90CF90BF90AF909F908F90F2
:100650000895AF92BF92CF92DF92EF92FF920F93E5
:100660001F93CF93DF93CDB7DEB760970FB6F894A3
:10067000DEBF0FBECDBF5C01CE0109960E94BB0557
:100680008501045F1F4FC8010E944C058DB79EB7BE
:100690000C970FB6F8949EBF0FBE8DBFADB7BEB717
:1006A00011968CE0F80101900D928A95E1F7F50121
:1006B000C080D180E280F38004811581268137815A
:1006C0004085518562857385CE0101960E94C505DE
:1006D00088E0FE013196DE01199601900D928A950F
:1006E000E1F70FB6F894DEBF0FBECDBFF50180A1D4
:1006F00091A18130910581F08230910509F44AC0C1
:10070000892B09F0A9C0EE59FF4F11821082F50123
:10071000E05AFF4F11821082F501C080D180E28043
:10072000F38004811581268137814085518562855A
:100730007385CE0101960E947A0609811A812B8168
:100740003C814D815E816F817885CE0109960E9442
:10075000B406AB01BC01C501CF960E948714850188
:10076000005A1F4F90580E94341FF8017183608314
:10077000C5010E94F404AB01BC01C50182960E9430
:100780008714F2E6AF0EB11C0E94341FF50171838D
:10079000608362C066E071E089EC92E00E94F01B29
:1007A000C5010E94F404AB01BC01C50182960E9400
:1007B000871485010E591F4F0E94341FF801718361
:1007C00060836EE071E089EC92E00E94F01BF5011D
:1007D000C080D180E280F380048115812681378139
:1007E0004085518562857385CE0101960E947A0607
:1007F00009811A812B813C814D815E816F817885D1
:10080000CE0109960E94B406AB01BC01C501CF968A
:100810000E9487148501005A1F4F90580E94341F70
:10082000F80171836083F501C080D180E280F3809C
:1008300004811581268137814085518562857385C4
:10084000CE0101960E947A06CE0101960E94FE0614
:10085000CE0109960E94FE066BE271E089EC92E0FF
:100860000E940F1C60960FB6F894DEBF0FBECDBF7E
:10087000DF91CF911F910F91FF90EF90DF90CF907C
:10088000BF90AF900895FC01E05AFF4F2081318165
:1008900037FF02C02F5F3F4FB90175956795FC0187
:1008A000EE59FF4FB081A1812B2F3A2F37FF02C0A5
:1008B0002F5F3F4F35952795AB01421B530BFC0132
:1008C000E45AFF4F518340832B2F3A2F37FF02C04A
:1008D0002F5F3F4F35952795260F371FFC01E25AB2
:1008E000FF4F31832083DC01AC59BF4F652F6095EA
:1008F000661F6627661F6C93DC01AB59BF4F632FE1
:100900006095661F6627661F6C9357FF08C0DC0161
:10091000A45ABF4F5195419551094D935C9337FFB0
:1009200005C0319521953109318320830895AF9217
:10093000BF92CF92DF92EF92FF920F931F93CF93CC
:10094000DF93CDB7DEB72C970FB6F894DEBF0FBE9E
:10095000CDBF5C01C982DA82EB82FC820D831E83EB
:100960002F83388749875A876B877C878CE0FE0105
:100970003196D50101900D928A95E1F7C5010E944B
:100980002903C5012C960FB6F894DEBF0FBECDBF6C
:10099000DF91CF911F910F91FF90EF90DF90CF905B
:1009A000BF90AF900C944304FC01E45AFF4F808148
:1009B000918108958C599F4FFC0180810895FC011D
:1009C000E25AFF4F8081918108958B599F4FFC011E
:1009D00080810895FC015081418132812381652FFE
:1009E000742F832F922F0895FC0150854185328505
:1009F0002385652F742F832F922F0895FC01408744
:100A000051876287738708958F929F92AF92BF92AA
:100A1000CF92DF92EF92FF92CF93DF93EC016A01C6
:100A20007B0188849984AA84BB84C501B4010E9497
:100A3000C91E9B01AC01C701B6010E9454209B0155
:100A4000AC01688179818A819B810E94611E6883E3
:100A500079838A839B83C501B4010E94B7209B01DF
:100A6000AC01C701B6010E9454209B01AC016C810E
:100A70007D818E819F810E94611E6C837D838E8328
:100A80009F83DF91CF91FF90EF90DF90CF90BF9049
:100A9000AF909F908F900895CF93DF93EC0166E124
:100AA00071E089EC92E00E94F01B688179818A8173
:100AB0009B810E94341F4AE050E089EC92E00E9442
:100AC000CA1C6DE171E089EC92E00E94F01B6C8120
:100AD0007D818E819F810E94341F4AE050E089EC25
:100AE00092E00E94CA1C63E271E089EC92E00E94ED
:100AF000F01B20E030E044E353E4688579858A8583
:100B00009B850E94542023EC35EF48E450E40E947A
:100B1000CC1EAB01BC0122E030E089EC92E0DF9119
:100B2000CF910C94E31DFC0110821182128213827A
:100B300014821582168217821086118612861386F9
:100B40000895CF92DF92EF92FF920F931F93FC01D3
:100B500040835183628373830483158326833783A1
:100B6000C086D186E286F3861F910F91FF90EF90A9
:100B7000DF90CF900895FC011082118212821382BF
:100B800014821582168217820895AF92BF92CF9277
:100B9000DF92EF92FF920F931F93CF93DF93CDB726
:100BA000DEB72C970FB6F894DEBF0FBECDBF5C0149
:100BB000C982DA82EB82FC820D831E832F83388701
:100BC00029813A814B815C81698D7A8D8B8D9C8DD9
:100BD0000E94601EF50160837183828393832D815F
:100BE0003E814F8158856D8D7E8D8F8D98A10E949D
:100BF000601EF50164837583868397832C960FB6F8
:100C0000F894DEBF0FBECDBFDF91CF911F910F9142
:100C1000FF90EF90DF90CF90BF90AF9008958F92AC
:100C20009F92AF92BF92CF92DF92EF92FF92FC0120
:100C30006081718182819381C480D580E680F78054
:100C40009B01AC010E9454204B015C01A70196015D
:100C5000C701B6010E9454209B01AC01C501B4013B
:100C60000E94611EFF90EF90DF90CF90BF90AF90F9
:100C70009F908F900C94C120FC0140815181628132
:100C8000738170584083518362837383448155819B
:100C9000668177817058448355836683778308958E
:100CA000CF92DF92EF92FF92CF93DF93EC010E94FD
:100CB0000F066B017C019B01AC01688179818A81FF
:100CC0009B810E94CC1E688379838A839B83A701C2
:100CD00096016C817D818E819F810E94CC1E6C83E8
:100CE0007D838E839F83DF91CF91FF90EF90DF9084
:100CF000CF900895CF92DF92EF92FF920F931F93C0
:100D0000CF93DF93CDB7DEB72C970FB6F894DEBF45
:100D10000FBECDBF8C0149875A876B877C87C984FA
:100D2000DA84EB84FC84C701B6010E94C91EF80175
:100D30006083718382839383C701B6010E94B720C9
:100D4000F80164837583868397832C960FB6F89495
:100D5000DEBF0FBECDBFDF91CF911F910F91FF90EE
:100D6000EF90DF90CF900895AF92BF92CF92DF9235
:100D7000EF92FF920F931F93CF93DF93CDB7DEB720
:100D800028970FB6F894DEBF0FBECDBF5C01098374
:100D90001A832B833C834D835E836F8378872981FD
:100DA0003A814B815C81FC016081718182819381F8
:100DB0000E9454206B017C012D813E814F8158851A
:100DC000F50164817581868197810E9454209B0181
:100DD000AC01C701B6010E94611E28960FB6F894B7
:100DE000DEBF0FBECDBFDF91CF911F910F91FF905E
:100DF000EF90DF90CF90BF90AF900895CF93DF93A7
:100E0000EC016CE271E089EC92E00E94F01B4881F9
:100E100059816A817B8122E030E089EC92E00E9476
:100E2000E31D61E371E089EC92E00E94F01B4C81CC
:100E30005D816E817F8122E030E089EC92E0DF917C
:100E4000CF910C94E31D89E00E944D184091B202AD
:100E50005091B3026091B4027091B502019729F4E8
:100E60004F5F5F4F6F4F7F4F04C041505109610981
:100E700071094093B2025093B3026093B40270932D
:100E8000B502089588E00E944D184091AE0250913D
:100E9000AF026091B0027091B102019729F44F5FE7
:100EA0005F4F6F4F7F4F04C0415051096109710975
:100EB0004093AE025093AF026093B0027093B102C0
:100EC000089524E132E0FC013183208308952EE56A
:100ED00032E0FC013183208324E132E03783268332
:100EE0000895DC01ED91FC91369720813181820FCC
:100EF000931F0C9467072CE332E0FC0131832083BD
:100F00000895CF93DF93EC01E881F9810288F3899A
:100F1000E02D09959C012F3F8FEF380729F08D8137
:100F20009E8101969E838D83C901DF91CF910895A3
:100F3000CB0108958FEF9FEF089580E090E0089532
:100F400008950895242FDC01ED91FC910084F18532
:100F5000E02D41E0099480E090E00895FC012289B1
:100F6000338980899189281B390B86899789281BA9
:100F7000390BC90108958F929F92AF92BF92EF9261
:100F8000FF92CF93DF93FC01DB01812C912C540164
:100F9000C689D789E088F188828993898E199F094B
:100FA000C817D907A0F482169306A406B5067CF4E8
:100FB000CE0DDF1D88818D938FEF881A980AA80ABD
:100FC000B80A868997890196978B868BE1CFB40101
:100FD000C501DF91CF91FF90EF90BF90AF909F90B0
:100FE0008F900895FC01268937894089518982892B
:100FF0009389841B950B2817390730F4FA01E20F07
:10100000F31F208130E002C02FEF3FEFC9010895A8
:10101000CF93DF93EC01E881F9810288F389E02D19
:1010200009959C012F3F8FEF380729F08E899F8902
:1010300001969F8B8E8BC901DF91CF910895FC01A2
:1010400086899789009729F1A089B18922893389F6
:101050002A1B3B0B2817390718F4378B268B19C02E
:1010600001976F3F2FEF720729F4978B868B60E013
:1010700070E011C0A80FB91F2C91261303C0978BE5
:10108000868B09C0278524FF04C0978B868B6C93C1
:1010900002C06FEF7FEFCB01089580E090E00895EC
:1010A00080E090E0089580E090E0089580E090E096
:1010B000089560E070E0CB010895CB0108957F9220
:1010C0008F929F92AF92BF92CF92DF92EF92FF9258
:1010D0000F931F93CF93DF93EC0149015A018B01CA
:1010E000C12CD12C76012FC0F80171908F018F8512
:1010F00080FF0BC0E881F9810084F185E02D20E1BB
:1011000044E060E070E0CE010995EB85FC858D85BB
:101110009E85E817F90738F470828B859C850196C7
:101120009C878B870BC0E881F981028CF38DE02DC1
:10113000672D70E0CE010995019661F02FEFC21A7C
:10114000D20AE20AF20AC814D904EA04FB0464F2DF
:1011500075016401B601C701DF91CF911F910F9115
:10116000FF90EF90DF90CF90BF90AF909F908F90C7
:101170007F9008952CE332E0FC01318320830C94AE
:10118000B01B24E132E0FC01318320830C94B01BBE
:101190002EE532E0FC013183208324E132E0378305
:1011A00026830C94B01BDC01ED91FC9136972081D5
:1011B0003181820F931F0C94C808EF92FF920F9316
:1011C0001F93CF93DF937C01EB018A0164177507AE
:1011D000A1F0FC0140815181401B510B4F5F5F4FDB
:1011E000B801CE010E94241E0C1B1D0BF70180814B
:1011F0009181801B910B91838083CE01DF91CF91F0
:101200001F910F91FF90EF900895CF93DF93EC0122
:10121000BC0181E090E00E94E915FC011082188277
:10122000DF91CF910895DC0113968D919C911497D5
:10123000892B59F01596ED91FC91169717968D9183
:101240009C911897E817F90741F4ED91FC911197DB
:101250000488F589E02DCD01099481911696FC93BF
:10126000EE93159790E00895FC018581682B8389A2
:101270009489892B09F001C0616065830895FC01A0
:1012800080819181248135812817390711F00C94D0
:10129000111908950C943F09CF93DF93EC018CE171
:1012A00092E099838883CE0140960E944A098CE39C
:1012B00092E099838883DF91CF910895CF93DF9354
:1012C000EC010E944C09CE01DF91CF910C94B01B30
:1012D000CF93DF93EC018EEE91E09983888388EFC2
:1012E00091E099A388A3CE0106960E944C0982E062
:1012F00092E09983888384E192E099A388A3DF91A7
:10130000CF910895DC01ED91FC91369720813181D8
:10131000820F931F0C946809CF93DF93EC010E9416
:101320006809CE01DF91CF910C94B01BDC01ED91E7
:10133000FC91369720813181820F931F0C948C0988
:10134000CF93DF93EC01FB0101900020E9F7319787
:10135000E61BF70B888199814A815B81481B590BF9
:101360004E175F0731F40E940E1E9C0181E0232B73
:1013700009F080E0DF91CF910895DC0113968D9103
:101380009C911497892B59F01596ED91FC91169725
:1013900017968D919C911897E817F90741F4ED91F4
:1013A000FC9111970288F389E02DCD010994808189
:1013B00090E00895CF93DF93EC01E881F9813697AF
:1013C0000190F081E02DEC0FFD1F838994890E942C
:1013D000BD098F3F2FEF920789F00E94061E892BCF
:1013E000C9F0E881F98136970190F081E02DEC0F8A
:1013F000FD1F838994890E941309DFCFE881F98159
:1014000036978081918162E08C0F9D1FDF91CF9193
:101410000C943409DF91CF910895DF92EF92FF92FF
:101420000F931F93CF93DF937C018B01D42EDB01AD
:10143000ED91FC9136970190F081E02DE60FF71FBA
:10144000C189D2892097E9F0E881F9813697019026
:10145000F081E02DEC0FFD1F83899489DC01ED9173
:10146000FC910484F585E02D0995019651F4E881FD
:10147000F98136978081918161E08C0F9D1F0E94D8
:101480003409D11003C0C8010E94DA0981E0F701D4
:101490008083DF91CF911F910F91FF90EF90DF90AC
:1014A0000895CF93DF93EC01009791F0CE010E9455
:1014B00076189C01009771F4E091B602F091B702A2
:1014C000309721F480E090E00E94031E0995EECF52
:1014D00020E030E0C901DF91CF9108950F931F9371
:1014E000CF93DF93EC018B016F3F8FEF780759F0BB
:1014F000CB010E94510A998388839B838A83080FBA
:10150000191F1D830C83DF91CF911F910F910895B7
:10151000CF93DF93EC01198218821B821A821D82FD
:101520001C8268E070E00E946E0A8A819B81DF91D4
:10153000CF910C940509EF92FF920F931F93CF93D5
:10154000DF931F92CDB7DEB78C017B0164E670E0BC
:101550000E942514F80111861086BE016F5F7F4F2F
:10156000C8010A960E94880A81E290E0F80195ABD2
:1015700084AB16AA17AA10AE46E050E060E070E017
:1015800041AF52AF63AF74AFFD96108211821282E9
:101590001382F801EF5BFF4F80E28083F801EE5B7E
:1015A000FF4F11821082F801EC5BFF4FC801479694
:1015B00091838083F801EA5BFF4F1082F801138A60
:1015C000148A158A168A8EEE91E0928B818B88EFB1
:1015D00091E092AB81AB138E128E158E148E178E06
:1015E000168E11A210A213A212A215A214A216A264
:1015F0008CE192E0908F878BBE016F5F7F4FC801B7
:1016000087960E94880AF80116A615A610AA17A6A2
:1016100088E086A3E95BFF4FF182E08281E0F80178
:10162000808B0F90DF91CF911F910F91FF90EF90E2
:101630000895CF92DF92EF92FF920F931F93CF9373
:10164000DF93EC018A819B8128813981821B930B76
:101650008617970708F4CB016C012FEFC21AD20A44
:10166000C6010E94510A8C0168817981EA80FB8061
:10167000E61AF70AA7010E94241EE00EF11EC70118
:101680000E940509CE010E943F0919830883FB824D
:10169000EA820C0D1D1D1D830C83DF91CF911F91DC
:1016A0000F91FF90EF90DF90CF9008951F93CF930D
:1016B000DF93EC01162F8A819B819C012F5F3F4FA6
:1016C0004C815D814217530779F428813981821B4F
:1016D000930B11F09C0102C021E030E0B901680FCA
:1016E000791FCE010E94190B8A819B8101960E946D
:1016F0000509EA81FB8110838A819B8101969B8386
:101700008A83DF91CF911F9108950F931F93CF93F9
:10171000DF93EC018B016F3F8FEF7807E9F08F8546
:1017200084FF1DC0288D398D488959898A899B89F4
:10173000841B950B2817390728F0CE0140960E948C
:10174000560B04C0FA01E20FF31F6083888D998D58
:101750000196998F888F05C000E010E002C00FEF5E
:101760001FEFC801DF91CF911F910F9108957F92D4
:101770008F929F92AF92BF92CF92DF92EF92FF92A1
:101780000F931F93CF93DF931F92CDB7DEB78C01DA
:101790007B0140E0BC01CE0101960E940D0A298127
:1017A000D8018D919C91FC013697222309F47FC0CA
:1017B0000190F081E02DE00FF11FC388D488D7019C
:1017C000ED91FC91119712968D919C911397E817CA
:1017D000F90741F010828D919C91119713969C937B
:1017E0008E931297D801ED91FC9136970190F0817C
:1017F000E02D3296E00FF11F628573858485958513
:1018000012861386148615865B016115710521F019
:10181000C7010E94190B03C0AA24AA94BA2CC601BE
:101820000E9413094C018F3FBFEF9B0741F4D80181
:10183000ED91FC9136978081918162E020C09927DB
:1018400087FD90950E94061EB1E0AB1AB108892B66
:10185000D9F0F60183819481009789F10580F681A2
:10186000E02DE817F90759F18291881228C034C099
:10187000D801ED91FC9136978081918164E0800FD1
:10188000911F0E94340907C0682DC7010E94560BA2
:10189000A114B10421F6F701228133818081918165
:1018A00028173907F9F4D801ED91FC91369780811A
:1018B000918164E0800F911F0E94340913C0D6010A
:1018C000ED91FC91B40177270688F789E02DC601D8
:1018D0000995019669F2DFCFD6011696FC93EE9337
:1018E0001597D9CFC8010F90DF91CF911F910F911C
:1018F000FF90EF90DF90CF90BF90AF909F908F9030
:101900007F900895FF920F931F93CF93DF93EC0185
:101910008B01F42E488159818A819B81841B950B10
:10192000BC01600F711F2C813D81241B350B2150A0
:1019300031092617370758F49C018017910708F4DE
:101940009801B901680F791FCE010E94190B01158A
:101950001105E1F02A813B81C9010196A901400FDF
:10196000511F481B590B6F2D70E00E94361E8A8153
:101970009B81800F911F0E940509EA81FB81F08203
:101980008A819B81800F911F9B838A83CE01DF9187
:10199000CF911F910F91FF900895CF92DF92EF9218
:1019A000FF920F931F93CF93DF931F92CDB7DEB7B4
:1019B0007C018B01BE016F5F7F4F0E94880AD801B6
:1019C000ED91FC9136970190F081E02DE00FF11F31
:1019D000838994890E94BD096C018F3FBFEF9B07EB
:1019E00029F10E94061E892B69F020C0D801ED91D3
:1019F000FC9136978081918166E0800F911F0E9453
:101A000034091CC0D801ED91FC9136970190F0810A
:101A1000E02DE00FF11F838994890E9413094C2D5A
:101A200061E070E0C7010E94820CC9CFF7012281FA
:101A300033818081918128173907C1F2C7010F9046
:101A4000DF91CF911F910F91FF90EF90DF90CF909A
:101A50000895CF92DF92EF92FF920F931F93CF934F
:101A6000DF931F92CDB7DEB76C018B01BE016F5FB4
:101A70007F4F0E94880AD801ED91FC913697019022
:101A8000F081E02DE00FF11F838994890E94BD0948
:101A90007C018F3FBFEF9B0789F10E94061E892BB7
:101AA00069F5C701C0970A97A8F0EEE2EE16F104B7
:101AB00089F0FCE2EF16F10409F50CC0D801ED91B4
:101AC000FC9136978081918166E0800F911F0E9482
:101AD00034091CC0D801ED91FC9136970190F0813A
:101AE000E02DE00FF11F838994890E9413094E2D88
:101AF00061E070E0C6010E94820CBDCFF601228138
:101B000033818081918128173907C1F2C6010F9076
:101B1000DF91CF911F910F91FF90EF90DF90CF90C9
:101B200008950F931F93CF93DF938C01E22FE870FA
:101B3000322F30712871283121F4423009F05DC014
:101B400059C0413011F4EB0129C04230D1F43323A4
:101B500071F0DC015296CD91DC91539750968D91A6
:101B60009C915197C81BD90BC60FD71F02C0C0E06C
:101B7000D0E0EE2399F0D8015696CD91DC9157979D
:101B80000BC0D8015296CD91DC91539750968D9110
:101B90009C915197C81BD90BC60FD71FD8015296DD
:101BA0004D915C91539750966D917C915197CA01DC
:101BB000861B970B8C179D07E8F0EE2321F05796B4
:101BC000DC93CE9356973323D9F06C0F7D1FC80159
:101BD00042960E94DD08F801828993892089318923
:101BE000821B930B268937898217930748F4978BBA
:101BF000868B06C0CFEFDFEF03C0413011F6A3CFD5
:101C0000CE01DF91CF911F910F9108958F929F92F6
:101C1000AF92BF92CF92DF92EF92FF920F931F93FA
:101C2000CF93DF93EC017B016417750709F45FC064
:101C30008A819B81688179814C01861A970A8A0181
:101C40000E191F09F801E80DF91D2C813D81261B95
:101C5000370B215031092E173F0780F58FEF881A77
:101C6000980AC8010431110510F484E190E0880E4F
:101C7000991EC4010E94510A6C0168817981AA8071
:101C8000BB80A61AB70AA5010E94241EAC0CBD1C7D
:101C9000A801B701C5010E94241EA00EB11EC501F6
:101CA0000E940509CE010E943F09D982C882BB82E9
:101CB000AA82C80CD91CDD82CC8219C0B7016F5F23
:101CC0007F4F461B570B01960E94241E8A819B81E1
:101CD000800F911F0E940509EA81FB81D7018C9139
:101CE00080838A819B81800F911F9B838A83CE0191
:101CF000DF91CF911F910F91FF90EF90DF90CF90E8
:101D0000BF90AF909F908F900895CF92DF92EF9207
:101D1000FF920F931F93CF93DF93EC018B017A0116
:101D20006A01C61AD70A288139818A819B81821B60
:101D3000930B8C159D0578F0A601C9010E941B1E0E
:101D40004A815B81FE0161917191CF016C0D7D1D16
:101D50000E94DD0811C0AC01C9010E941B1E6A81EE
:101D60007B8188819981681B790B600F711F20E04E
:101D7000A701CE010E94060ECE01DF91CF911F91E7
:101D80000F91FF90EF90DF90CF900895CF93DF9366
:101D9000EC016817790739F0FB01428153816081BA
:101DA00071810E94850ECE01DF91CF910895CF936E
:101DB000DF93EC0146960E94C60E1D8E1C8E8D8907
:101DC00081FF09C0888D998D2E893F89821B930BD5
:101DD0009F8F8E8F02C01F8E1E8EE881F9813697ED
:101DE0000190F081E02DEC0FFD1F83899489892BF0
:101DF00011F0158202C081E08583DF91CF910895B3
:101E0000EF92FF920F931F93CF93DF93CDB7DEB77F
:101E10002D970FB6F894DEBF0FBECDBF7C018B01AE
:101E2000BE01635F7F4FCE0107960E94880AB7010B
:101E3000CE0101960E94CD0CBE016F5F7F4FCE0197
:101E400007960E94C60ECE0101960E944A0965E3DC
:101E500071E0CE0107960E94A00981111EC06AE3BD
:101E600071E0CE0107960E94A009811116C06FE3B0
:101E700071E0CE0107960E94A00981110EC064E4B2
:101E800071E0CE0107960E94A009811106C009C029
:101E9000CE0107960E944A0907C081E0F8018083BD
:101EA000F7CFF8011082F4CF2D960FB6F894DEBF6D
:101EB0000FBECDBFDF91CF911F910F91FF90EF909B
:101EC0000895EF92FF920F931F93CF93DF93CDB7B7
:101ED000DEB72D970FB6F894DEBF0FBECDBF8C01D5
:101EE000F62EE72EBE01635F7F4FCE0107960E945C
:101EF000880AD801ED91FC9136970190F081E02D90
:101F0000E00FF11F8381B80185FF14C0CE01019657
:101F10000E94290DBE016F5F7F4FCE0107960E9480
:101F2000C60ECE0101960E944A09EF92FF9286E406
:101F300091E033C0CE0101960E94CD0CBE016F5FCF
:101F40007F4FCE0107960E94C60ECE0101960E94D9
:101F50004A09D801ED91FC9136970190F081E02D6E
:101F6000E00FF11F8381948186FF05C0EF92FF92FD
:101F700089E491E012C087FF0CC095FF05C0EF9285
:101F8000FF928CE491E009C0EF92FF928FE491E020
:101F900004C0EF92FF9282E591E09F938F93888532
:101FA0008F938F818F930E94451E0F900F900F90FB
:101FB0000F900F900F90CE0107960E944A092D9620
:101FC0000FB6F894DEBF0FBECDBFDF91CF911F914A
:101FD0000F91FF90EF900895EF92FF920F931F9350
:101FE000CF93DF931F92CDB7DEB77C018B0140E02A
:101FF000BC01CE0101960E940D0AB801C7010E94E2
:10200000610FC7010F90DF91CF911F910F91FF904A
:10201000EF900895AF92BF92CF92DF92EF92FF922E
:102020000F931F93CF93DF93CDB7DEB7EB970FB628
:10203000F894DEBF0FBECDBF5C01BC01665F7F4F71
:102040006C0181E1C80ED11CC6010E94D70EBE01F1
:10205000655C7F4FCE018B960E94880ABE01655D4C
:102060007F4FC6010E94B70BEBA5FCA5108165E56B
:1020700071E089EC92E00E94F01BEBA5FCA5E180E9
:10208000FF24E7FCF094A0E3EA1AF108612F89EC41
:1020900092E00E94F21B62E671E089EC92E00E94FD
:1020A000F01B4AE050E0B70189EC92E00E94D21C9C
:1020B000BE01655C7F4FCE0185960E94880ABE01F5
:1020C000655C7F4FCE014F960E94880ABE01655C19
:1020D0007F4FCE0149960E94880A18AE1FAA1EAAF9
:1020E0001DAA1CAA1BAA1AAA19AACE010D960E9403
:1020F0009305133509F037C1B3E0EB16F10449F14C
:1021000044F4A1E0EA16F104F1F004F5EF28C1F07F
:1021100039C186E0E816F10409F4FCC034F4B4E0F7
:10212000EB16F10409F02EC18EC087E0E816F10429
:1021300009F40FC1A8E0EA16F10409F023C10CC1AB
:1021400064E671E00BC160E771E008C16EE771E021
:1021500005C1BE01615E7F4FC6010E94B70B7C01C5
:1021600040E0BC01CE01C9960E940D0ABE01665C2A
:102170007F4FC7010E94000FD701ED91FC91369768
:102180000190F081E02DEE0DFF1D8581857009F035
:102190000AC18F8D98A10E94E51DBC01882777FD9B
:1021A0008095982F0E94671F23EC35EF48E450E498
:1021B0000E94542020E030E044E353E40E94CC1E0F
:1021C0006B017C0100E010E09801B901A801CE018B
:1021D00001960E94A1058CE0FE013196DE011D965C
:1021E00001900D928A95E1F76AE871E089EC92E03E
:1021F0000E94F01B8F8D98A10E94E51D4AE050E0DF
:10220000BC0189EC92E00E94D21C4AE050E062E0FE
:1022100070E089EC92E00E94D21CF501E95BFF4F6F
:10222000808191810E942402AD84BE84CF84D888AD
:10223000E988FA880B891C892D893E894F89588D38
:1022400062E070E064C0BE01675E7F4FC6010E941D
:10225000B70BBE016D5C7F4F0E94EC0F61E971E02E
:1022600089EC92E00E940F1C6AE271E089EC92E036
:102270000E94F01B898D9A8D0E94E51D4AE050E076
:10228000BC0189EC92E00E94CA1C6AE271E089EC10
:1022900092E00E94F01B6BA97CA94AE050E089EC17
:1022A00092E00E94D21C898D9A8D0E94E51DBC018E
:1022B000882777FD8095982F0E94671FAB01BC018E
:1022C000C12CD12C760197018601CE0101960E9486
:1022D000A1058CE0FE013196DE011D9601900D9264
:1022E0008A95E1F7F501E95BFF4F808191810E94BA
:1022F0002402AD84BE84CF84D888E988FA880B890B
:102300001C892D893E894F89588D61E070E00E94BB
:102310007E0238C0BE01675E7F4FC6010E94B70BC8
:10232000BE01695C7F4F0E94EC0FBE016B5C7F4F6A
:102330000E94EC0FBE01615E7F4F0E94B70BBE0191
:102340006F5C7F4F0E94EC0FBE016D5C7F4F0E945F
:10235000EC0F6AE971E002C066EA71E089EC92E094
:102360000E940F1C0FC0CE0149960E944A09CE015F
:102370004F960E944A09CE0185960E944A09CE01D5
:102380008B960EC0CE0149960E944A09CE014F9607
:102390000E944A09CE0185960E944A09CE018B9679
:1023A0000E944A0907C060EB71E089EC92E00E944C
:1023B000F01BEFCEEB960FB6F894DEBF0FBECDBF8D
:1023C000DF91CF911F910F91FF90EF90DF90CF9011
:1023D000BF90AF900895DF92EF92FF920F931F93FB
:1023E000CF93DF9300D000D000D0CDB7DEB78C0103
:1023F0007C018AE0E80EF11C65C065EB71E089ECB8
:1024000092E00E940F1CF80180859185181619062C
:102410001CF081E0808B02C0F801108A62EC71E050
:1024200089EC92E00E94F01BF8016285738589ECCB
:1024300092E00E94F01B60ED71E089EC92E00E9456
:10244000F01BF801608571854AE050E089EC92E06C
:102450000E94D21C4CC0F801648575854285538565
:10246000641B750B6E5F7F4F1A8219821C821B8260
:102470001E821D82CE0101960E946E0A8B819C8174
:102480000E940509F801448555856285738520E021
:10249000CE0101960E94060E6D2DCE0101960E947E
:1024A000560BBE016F5F7F4FC7010E94C60ECE0163
:1024B00001960E943F09F801208531852F5F3F4F2B
:1024C0003187208789EC92E00E94B019181619060E
:1024D00074F4F801808591854C974CF489EC92E076
:1024E0000E94DF19D82EFAE08F13B5CF86CF26963B
:1024F0000FB6F894DEBF0FBECDBFDF91CF911F9115
:102500000F91FF90EF90DF9008950F931F93CF935B
:10251000DF9300D000D000D0CDB7DEB78C010E9491
:1025200031148823E9F1C8010E941914C8010E94DE
:10253000EB11F8018089811133C061EE71E089EC03
:1025400092E00E940F1CC8010E940A1081E0F8016D
:10255000808B1A8219821C821B821E821D8261E07E
:1025600070E0CE0101960E946E0A89819A819C8357
:102570008B830E940509BE016F5F7F4FC8014196A2
:102580000E94D70ECE0101960E944A09F8011186D9
:1025900010864BE251E0BA01C8010A960E94850EEE
:1025A00026960FB6F894DEBF0FBECDBFDF91CF9158
:1025B0001F910F9108956F927F928F929F92AF9289
:1025C000BF92CF92DF92EF92FF920F931F93CF9320
:1025D000DF93EC017B016A014217530709F4A8C09D
:1025E0008901041B150B6A817B818C819D81861B6F
:1025F000970B081719070CF05EC05B01AE18BF08F7
:1026000066246394712C660E771EA016B106ECF05A
:10261000601B710B6F5F7F4FA301461B570BC301FC
:102620000E94241E8A819B81800F911F9B838A8335
:10263000A501401B510B4F5F5F4FB701C701800FD2
:10264000911F0E94241EA80124C045018FEF881A03
:10265000980A840E951EA90148195909B401C301AD
:102660000E94241E0A191B098A819B81800F911FD9
:102670009B838A83A3014E195F09B7010E94241E20
:102680008A819B818A0D9B1D9B838A838C189D0860
:10269000A401B601C701DF91CF911F910F91FF9067
:1026A000EF90DF90CF90BF90AF909F908F907F90F2
:1026B0006F900C941B1E88819981681B790B6F5F4A
:1026C0007F4FC8010431110510F484E190E04B0103
:1026D000880E991EC4010E94510A5C0168817981AB
:1026E0003701661A770AA3010E94241E6A0C7B1C1C
:1026F000A801B601C3010E94241E060D171DCA8041
:10270000DB80CE18DF08A601B701C8010E94241E95
:102710000C0D1D1DC8010E940509CE010E943F0934
:10272000B982A8821B830A83A80CB91CBD82AC8223
:10273000DF91CF911F910F91FF90EF90DF90CF909D
:10274000BF90AF909F908F907F906F9008954F9221
:102750005F926F927F928F929F92AF92BF92CF9231
:10276000DF92EF92FF920F931F93CF93DF93EC01D1
:10277000CB013901542E452E7901488D598D088998
:1027800019894B01820E931E2A893B89201B310B2C
:10279000241B350B63012615370508F46901C40EA7
:1027A000D51EC00ED11E040F151F5401A81AB90A58
:1027B0009601201B310B2A153B0574F0A501BC01C5
:1027C000C8010E941B1EB8016A0D7B1DA601CE0127
:1027D00042960E94DD0813C05C01A20EB31E950153
:1027E000281B390BA901BC01C8010E941B1E00E077
:1027F0009401A501B601CE0140960E94DB12888D9E
:10280000998D8E0D9F1D998F888FB301852D942DE5
:10281000DF91CF911F910F91FF90EF90DF90CF90BC
:10282000BF90AF909F908F907F906F905F904F90F0
:102830000895CF93DF93EC010E9467176C837D832B
:102840008E839F83DF91CF910895AB01662757FD5B
:102850006095762FFC0140835183628373830C94CF
:1028600019140F931F93CF93DF93EC010E94671706
:102870000C811D812E813F81601B710B820B930B9C
:1028800041E0088119812A813B8106171707280733
:1028900039070CF040E0842FDF91CF911F910F9109
:1028A0000895CF92DF92EF92FF920F931F93FC0156
:1028B000108211821282138214821582168217826C
:1028C0001086118612861386448755876687778718
:1028D000C08AD18AE28AF38A048B158B268B378BC8
:1028E00081E09FEF918F808F8FEF90E0938F828FA9
:1028F00081E0848F1F910F91FF90EF90DF90CF9038
:102900000895FC01408751876287738708952F924D
:102910003F924F925F926F927F928F929F92AF926F
:10292000BF92CF92DF92EF92FF920F931F93CF93BC
:10293000DF93CDB7DEB72C970FB6F894DEBF0FBE8E
:10294000CDBF9A8789876A017B01DC015C968C91F7
:102950005C97882309F41CC19A01AB0118966D910C
:102960007D918D919C911B970E94601E69837A8353
:102970008B839C8368E772E089EC92E00E94F01BF5
:1029800022E030E0F981EA819B818C814F2F5E2F1C
:10299000692F782F89EC92E00E94E31D6EE772E0C8
:1029A00089EC92E00E94F01BE985FA85408551850B
:1029B0006285738522E030E089EC92E00E94E31D9D
:1029C00067E872E089EC92E00E94F01B22E030E0C0
:1029D000B701A60189EC92E00E94E31DA985BA85A2
:1029E00050962D913D914D915C915397B981AA815B
:1029F0001B810C816B2F7A2F812F902F0E945420E6
:102A0000E985FA8524813581468157810E94611EBE
:102A10006D837E838F839887472F382F292F862FAA
:102A2000942FA32FB22FE985FA8584839583A683FB
:102A3000B783628D738D882777FD8095982F0E94CC
:102A4000671F3B011C012B018C01762F272F372D8F
:102A5000422D532DBD81AE81BF80A8846B2F7A2F6C
:102A60008B2D9A2D0E94502018165CF4862D972DE0
:102A7000A02FB32DE985FA8584839583A683B78338
:102A800021C0A985BA8558966D917C915997882760
:102A900077FD8095982F0E94671F4B015C019B0179
:102AA000AC01BD81AE81EF81F8856B2F7A2FCF010C
:102AB0000E94C51E87FF06C0E985FA85848295823B
:102AC000A682B782A985BA851C962D913D914D911C
:102AD0005C911F97B981AA81BB80AC806B2F7A2F44
:102AE0008B2D9A2D0E945420E985FA852481358109
:102AF000468157810E94611E4B015C01A985BA8500
:102B00002D913D914D915C91C701B6010E94601ECF
:102B1000E985FA8524893589468957890E94542098
:102B20009B01AC01C501B4010E94601E4B015C0118
:102B3000262D372D422D532D682D792D8A2D9B2D35
:102B40000E9450201816ECF0A985BA8558966D9110
:102B50007C915997882777FD8095982F0E94671F51
:102B60002B018C01762F272F352D402F512F682DCB
:102B7000792D8A2D9B2D0E94C51E87FD02C0240140
:102B80008501E985FA85C082D182E282F38204C0A0
:102B9000412C512C00E010E0642D752D802F912FD9
:102BA0002C960FB6F894DEBF0FBECDBFDF91CF914C
:102BB0001F910F91FF90EF90DF90CF90BF90AF905B
:102BC0009F908F907F906F905F904F903F902F904D
:102BD0000895CB010895CF93DF9343E050E063E283
:102BE00077E081E00E94421643E050E062E477E043
:102BF00080E00E94421640E855E260E070E089EC17
:102C000092E00E94CA1A61E08BE00E94DE1761E048
:102C10008AE00E94DE1761E086E00E94DE1761E034
:102C200085E00E94DE1785B5887F85BD85B581600A
:102C300085BD82E990E00E94AE1BEC010E94A100DC
:102C4000D093BB02C093BA0289E490E00E94AE1B0D
:102C5000EC016091BA027091BB020E949B0AD09372
:102C6000B902C093B802DF91CF9108958091B80264
:102C70009091B9020E9485128091BA029091BB0294
:102C80000C94DE018230E8F4E82FF0E0EE0FFF1F35
:102C9000E454FD4F71836083813041F0809169007D
:102CA0008C7F842B80936900E89A08958091690055
:102CB000440F551F440F551F837F842B8093690059
:102CC000E99A08951F920F920FB60F9211242F9335
:102CD0003F934F935F936F937F938F939F93AF93A4
:102CE000BF93EF93FF938091BC029091BD02892B1B
:102CF00029F0E091BC02F091BD020995FF91EF919E
:102D0000BF91AF919F918F917F916F915F914F9103
:102D10003F912F910F900FBE0F901F9018951F920B
:102D20000F920FB60F9211242F933F934F935F93FF
:102D30006F937F938F939F93AF93BF93EF93FF9383
:102D40008091BE029091BF02892B29F0E091BE02D2
:102D5000F091BF020995FF91EF91BF91AF919F91C3
:102D60008F917F916F915F914F913F912F910F9034
:102D70000FBE0F901F9018951F93CF93DF93182FBE
:102D8000EB0161E00E94DE17209711F460E004C0BF
:102D9000CF3FD10539F461E0812FDF91CF911F91B1
:102DA0000C941618E12FF0E0EA57FF4FE491E3305E
:102DB000B9F028F4E13051F0E230B1F50CC0E63062
:102DC00019F1E73049F1E43079F514C084B5806831
:102DD00084BDC7BD2EC084B5806284BDC8BD29C076
:102DE00080918000806880938000D0938900C09398
:102DF00088001FC080918000806280938000D09303
:102E00008B00C0938A0015C08091B00080688093C9
:102E1000B000C093B3000DC08091B0008062809379
:102E2000B000C093B40005C0C038D1050CF0B3CFDA
:102E3000ADCFDF91CF911F9108951F920F920FB6E2
:102E40000F9211242F933F938F939F93AF93BF9330
:102E50008091C0029091C102A091C202B091C302C0
:102E60003091C802232F2D5F2D3720F40196A11D2C
:102E7000B11D05C0232F2A570296A11DB11D209315
:102E8000C8028093C0029093C102A093C202B09383
:102E9000C3028091C4029091C502A091C602B09174
:102EA000C7020196A11DB11D8093C4029093C50273
:102EB000A093C602B093C702BF91AF919F918F912B
:102EC0003F912F910F900FBE0F901F9018950F9369
:102ED0001F938FB7F8940091C0021091C102209106
:102EE000C2023091C3028FBFB801C9011F910F9177
:102EF0000895789484B5826084BD84B5816084BD72
:102F000085B5826085BD85B5816085BDEEE6F0E062
:102F1000808181608083E1E8F0E0108280818260BE
:102F20008083808181608083E0E8F0E0808181603F
:102F30008083E1EBF0E0808184608083E0EBF0E06F
:102F4000808181608083EAE7F0E080818460808313
:102F500080818260808380818160808380818068BD
:102F600080831092C1000895833069F028F4813085
:102F7000A1F0823011F514C08630B1F08730C1F075
:102F80008430D9F404C0809180008F7703C0809191
:102F900080008F7D80938000089584B58F7702C074
:102FA00084B58F7D84BD08958091B0008F7703C074
:102FB0008091B0008F7D8093B0000895CF93DF9310
:102FC00090E0FC01E656FF4F4491FC01E255FF4FB3
:102FD0008491882341F190E0880F991FFC01EA5207
:102FE000FF4F25913491D90184539F4FFC01859166
:102FF0009491C82FD92F9FB7F8948C91611106C076
:10300000409584238C938881842308C0623041F4E6
:10301000242F209582238C938881842B888302C05F
:10302000842B8C939FBFDF91CF9108950F931F93B3
:10303000CF93DF931F92CDB7DEB7282F30E0F90191
:10304000EA57FF4F8491F901E656FF4F1491F901B9
:10305000E255FF4F04910023D1F0882321F06983CA
:103060000E94B4176981E02FF0E0EE0FFF1FE453D8
:10307000FF4F85919491DC019FB7F8948C91611179
:1030800003C01095812301C0812B8C939FBF0F90AB
:10309000DF91CF911F910F910895CF93DF93282F48
:1030A00030E0F901EA57FF4F8491F901E656FF4FEE
:1030B000D491F901E255FF4FC491CC2389F08111DD
:1030C0000E94B417EC2FF0E0EE0FFF1FEE53FF4FFE
:1030D00085919491DC018C918D2321E030E011F4F5
:1030E00020E030E0C901DF91CF9108950F931F9345
:1030F000CF93DF938230910510F482E090E0E0916D
:103100007503F091760320E030E0C0E0D0E023C00A
:103110004081518148175907A8F04817590761F4B1
:1031200082819381209719F09B838A832EC090938C
:1031300076038093750329C02115310529F04217C4
:10314000530710F0A90102C0BE01DF010281138103
:10315000EF019A01F8013097D9F62115310509F1EF
:10316000281B390B2430310590F412968D919C91D7
:1031700013976115710521F0FB019383828304C0CD
:103180009093760380937503FD01329644C0FD0150
:10319000E20FF31F81939193225031092D933C93B9
:1031A0003AC02091730330917403232B41F4209192
:1031B0000201309103013093740320937303209133
:1031C0000001309101012115310541F42DB73EB7C1
:1031D0004091040150910501241B350BE0917303CC
:1031E000F0917403E217F307A0F42E1B3F0B28178E
:1031F000390778F0AC014E5F5F4F2417350748F070
:103200004E0F5F1F50937403409373038193919308
:1032100002C0E0E0F0E0CF01DF91CF911F910F916C
:103220000895EF92FF920F931F93CF93DF93009730
:1032300009F48FC0DC01129713961C921E9212970C
:10324000E0907503F0907603E114F10489F42D9178
:103250003C911197280F391F80917303909174034B
:103260008217930789F5B0937403A093730371C019
:10327000E70120E030E001C0EA01CA17DB0738F4BB
:103280004A815B819E0141155105B1F722C0BC0105
:1032900062507109FB01D383C28300811181AC01AB
:1032A000400F511F4C175D0761F448815981400F51
:1032B000511F4E5F5F4F518340834A815B8153832F
:1032C00042832115310529F4B0937603A093750349
:1032D00040C0F901B383A283E90169917991C60FD6
:1032E000D71FAC17BD0779F4DC015E914E91460FF4
:1032F000571F4E5F5F4F5183408312968D919C9173
:10330000139793838283A0E0B0E002C0D7017C01D1
:10331000F701828193810097C9F7C7010296208146
:103320003181820F931F209173033091740328170A
:10333000390779F4109729F41092760310927503E7
:1033400004C013961C921E921297F0927403E0929E
:103350007303DF91CF911F910F91FF90EF9008952C
:10336000FC0184859585FC01E05CFF4F2081318163
:10337000FC01EE5BFF4F80819181281B390B2F737D
:103380003327C9010895FC0184859585FC01E05C23
:10339000FF4F40815181FC01EE5BFF4F2081318165
:1033A0004217530741F00190F081E02DE80FF91F1B
:1033B000208130E002C02FEF3FEFC9010895FC01EA
:1033C00084859585FC01E05CFF4F40815181FC01C3
:1033D000EE5BFF4F208131814217530781F0A081BE
:1033E000B181A80FB91F8C91208131812F5F3F4F90
:1033F0002F73332731832083282F30E002C02FEF33
:103400003FEFC9010895FC0181A1882329F0A48917
:10341000B5898C9186FFFBCF11A20895CF93DF93DE
:10342000FC0126853785D901A05CBF4F8D919C9109
:10343000119701968F739927E901CE5BDF4F488181
:10344000598184179507D9F30D90BC91A02DA20F37
:10345000B31F6C93A685B785A05CBF4F11969C9354
:103460008E93A689B7892C9181E090E0078C02C0E9
:10347000880F991F0A94E2F7282B2C9381E081A3EF
:103480000488F589E02D80818064808381E090E06C
:10349000DF91CF91089508951F920F920FB60F926A
:1034A00011242F933F934F938F939F93EF93FF9309
:1034B0008091C00082FD1CC04091C60080916F03C6
:1034C0009091700301968F73992720917103309129
:1034D00072038217930771F0E0916F03F09170030C
:1034E000E15DFC4F40839093700380936F0302C0B3
:1034F0008091C600FF91EF919F918F914F913F91E5
:103500002F910F900FBE0F901F90189589EC92E0AD
:103510000E94B019892B11F00C944B1A08951F9238
:103520000F920FB60F9211242F933F938F939F9377
:10353000EF93FF9320912B0330912C0380912D0367
:1035400090912E032817390731F48091C1008F7DA7
:103550008093C10014C0E0912D03F0912E03E5513A
:10356000FD4F208180912D0390912E0301968F7342
:10357000992790932E0380932D032093C600FF91EB
:10358000EF919F918F913F912F910F900FBE0F90D0
:103590001F901895CF92DF92EF92FF92CF93DF9317
:1035A000EC016A017B01411581EE58076105710547
:1035B000F9F0EC89FD8981E090E008A002C0880F55
:1035C000991F0A94E2F7808360E079E08DE390E050
:1035D000A70196010E949224215031094109510905
:1035E0005695479537952795211580E1380798F02E
:1035F000EC89FD89108260E874E88EE190E0A70113
:1036000096010E9492242150310941095109569591
:10361000479537952795E889F9893083EA89FB89A9
:10362000208319A2EE89FF89408181E090E09C010E
:103630000C8C02C0220F331F0A94E2F7422B408306
:10364000EE89FF8940819C010D8C02C0220F331F3F
:103650000A94E2F7422B4083EE89FF8940819C0166
:103660000E8C02C0220F331F0A94E2F7422B4083D4
:10367000EE89FF8920810F8C02C0880F991F0A9460
:10368000E2F7809582238083DF91CF91FF90EF90C6
:10369000DF90CF9008951092CC021092CB0288EE6A
:1036A00093E0A0E0B0E08093CD029093CE02A0938F
:1036B000CF02B093D00283E992E09093CA02809344
:1036C000C9028FE293E09093D6028093D5028BEEED
:1036D00092E09093D8028093D70285EC90E090938B
:1036E000DA028093D90284EC90E09093DC0280931C
:1036F000DB0280EC90E09093DE028093DD0281ECAF
:1037000090E09093E0028093DF0282EC90E090934F
:10371000E2028093E10286EC90E09093E4028093D1
:10372000E30284E08093E50283E08093E60287E091
:103730008093E70285E08093E80281E08093E902CC
:1037400008950E9479170E94EB15C6E8DAE10E94FD
:1037500036162097E1F30E94861AF9CF0C9476185A
:103760000C941119CF92DF92EF92FF920F931F9357
:10377000CF93DF936C01EB017A01E60EF71E00E0B8
:1037800010E00BC06991D601ED91FC910190F081A0
:10379000E02DC6010995080F191FCE15DF0591F719
:1037A000C801DF91CF911F910F91FF90EF90DF90B3
:1037B000CF9008956115710581F0DB010D90002017
:1037C000E9F7AD0141505109461B570BDC01ED9162
:1037D000FC910280F381E02D099480E090E008954F
:1037E0000C94DA1BDC01ED91FC910190F081E02D4D
:1037F00009940F931F93CF93DF93EC016DE00E9428
:10380000F21B8C016AE0CE010E94F21B9C01200F8A
:10381000311FC901DF91CF911F910F9108950F932F
:103820001F93CF93DF93EC010E94DA1B8C01CE0132
:103830000E94F91B9801280F391FC901DF91CF9110
:103840001F910F9108954F925F926F927F929F9276
:10385000AF92BF92CF92DF92EF92FF920F931F939E
:10386000CF93DF93CDB7DEB7A1970FB6F894DEBF45
:103870000FBECDBF5C016A017B01922E19A281E0CF
:10388000821710F08AE0982E8E010F5D1F4F492C91
:10389000512C612C712CC701B601A30192010E9429
:1038A00092248C2D929E80191124015011098A3086
:1038B00014F4805D01C0895CF801808369017A019C
:1038C000C114D104E104F10431F7B801C5010E942B
:1038D000DA1BA1960FB6F894DEBF0FBECDBFDF9105
:1038E000CF911F910F91FF90EF90DF90CF90BF90FD
:1038F000AF909F907F906F905F904F900895CF9280
:10390000DF92EF92FF920F931F93CF93DF93EC011F
:103910006A017B012115310579F4E881F981019073
:10392000F081E02D642FDF91CF911F910F91FF90D7
:10393000EF90DF90CF9009942A30310519F477FD8C
:103940000EC02AE0B701A601CE01DF91CF911F91F1
:103950000F91FF90EF90DF90CF900C94231C6DE2BD
:103960000E94F21B8C0144275527BA014C195D09AE
:103970006E097F092AE0CE010E94231C080F191F3F
:10398000C801DF91CF911F910F91FF90EF90DF90D1
:10399000CF9008959A01AB01662757FD6095762F69
:1039A0000C947F1C0F931F93CF93DF93EC019A012C
:1039B000AB01662757FD6095762F0E947F1C8C0116
:1039C000CE010E94F91B9801280F391FC901DF9110
:1039D000CF911F910F9108957F928F929F92AF92F6
:1039E000BF92CF92DF92EF92FF920F931F93CF93EC
:1039F000DF93EC016A017B01122F9A01AB01C70131
:103A0000B6010E94FF20882319F06FE972E032C0EE
:103A100046015701E894B7F82FEF3FEF4FE75FE714
:103A2000C501B4010E94FF2081110DC02FEF3FEFAF
:103A30004FE75FE7C501B4010E94C51E18161CF4CC
:103A400063EA72E017C02FEF3FEF4FE75FE4C70173
:103A5000B6010E94502018160CF40AC02FEF3FEF59
:103A60004FE75FECC701B6010E94C51E87FF12C079
:103A700067EA72E0CE01DF91CF911F910F91FF9025
:103A8000EF90DF90CF90BF90AF909F908F907F90FE
:103A90000C94DA1B20E030E0A901C701B6010E94B6
:103AA000C51E87FF0AC06DE2CE010E94F21B5C01B9
:103AB000F7FAF094F7F8F09402C0A12CB12C00E0D2
:103AC00060E070E080E09FE307C020E030E040E28B
:103AD00051E40E94CC1E0F5F0113F7CF262F372F22
:103AE000482F592FC701B6010E94611E762E872EDE
:103AF000982EC92E0E94391FD62EE72EF82E092F98
:103B00000E94651F9B01AC01672D782D892D9C2D8E
:103B10000E94601EC62E972E882E792E2AE04D2DEB
:103B20005E2D6F2D702FCE010E94231C7C01EA0CAC
:103B3000FB1C1123B9F16BEA72E0CE010E94DA1B83
:103B4000E80EF91E2FC020E030E040E251E46C2D79
:103B5000792D882D972D0E945420762E072F6C01E9
:103B60009D2D0E94341F4B01AA2497FCA094BA2CCF
:103B70002AE030E0B501A401CE010E947F1CE80ECE
:103B8000F91EC501B4010E94671F9B01AC01672D9E
:103B9000702F8C2D9D2D0E94601EC62E972E882E74
:103BA000792E11501111CFCFC701DF91CF911F9105
:103BB0000F91FF90EF90DF90CF90BF90AF909F90CC
:103BC0008F907F9008950C94EC1CFC018827992716
:103BD000E89421912032E9F3293010F02E30C8F317
:103BE0002B3241F02D3239F4689404C00E943D1EFE
:103BF000820F911D219120532A30C0F31EF490951D
:103C000081959F4F0895F8940C94F1249111D6C595
:103C1000803219F089508550D0F70895FB01DC01FE
:103C200004C08D910190801921F441505040C8F793
:103C3000881B990B0895FB01DC0102C001900D92D5
:103C400041505040D8F708956817790768F4FB0190
:103C5000DC01E40FF51FA40FB51F02C002900E9205
:103C600041505040D8F708950C941B1EDC0101C050
:103C70006D9341505040E0F708957AE0979F902D62
:103C8000879F802D910D11240895A0E1B0E0EBE411
:103C9000FEE10C94C42485E08C838D899E899A83EF
:103CA0008983AE01475E5F4F588B4F876F89788D50
:103CB000CE0101960E94B0226096E2E00C94E024CE
:103CC0005058BB27AA270ED0A0C169D130F06ED1C1
:103CD00020F031F49F3F11F41EF45EC10EF4E09524
:103CE000E7FB54C1E92FB3D180F3BA17620773071A
:103CF0008407950718F071F49EF5CBC10EF4E0959A
:103D00000B2EBA2FA02D0B01B90190010C01CA0195
:103D1000A0011124FF27591B99F0593F50F4503E40
:103D200068F11A16F040A22F232F342F4427585F32
:103D3000F3CF469537952795A795F0405395C9F74A
:103D40007EF41F16BA0B620B730B840BBAF0915002
:103D5000A1F0FF0FBB1F661F771F881FC2F70EC0A1
:103D6000BA0F621F731F841F48F487957795679574
:103D7000B795F7959E3F08F0B3CF9395880F08F05D
:103D80009927EE0F979587950895DCD008F481E088
:103D9000089514D1E3954AC10CD037C107D140F042
:103DA000FED030F021F45F3F19F0F0C0511172C124
:103DB000F3C04DD198F39923C9F35523B1F3951B63
:103DC000550BBB27AA2762177307840738F09F5F3C
:103DD0005F4F220F331F441FAA1FA9F333D00E2EAB
:103DE0003AF0E0E830D091505040E695001CCAF718
:103DF00029D0FE2F27D0660F771F881FBB1F2617DD
:103E000037074807AB07B0E809F0BB0B802DBF01AF
:103E1000FF2793585F4F2AF09E3F510568F0B6C0C8
:103E200039C15F3FECF3983EDCF386957795679553
:103E3000B795F7959F5FC9F7880F911D9695879560
:103E400097F90895E1E0660F771F881FBB1F62177F
:103E500073078407BA0720F0621B730B840BBA0B3D
:103E6000EE1F88F7E095089504D06894B11112C14F
:103E70000895F5D088F09F5790F0B92F9927B75142
:103E8000A0F0D1F0660F771F881F991F1AF0BA951E
:103E9000C9F712C0B13081F0FCD0B1E00895F9C08B
:103EA000672F782F8827B85F39F0B93FCCF3869514
:103EB00077956795B395D9F73EF490958095709571
:103EC00061957F4F8F4F9F4F0895E89409C097FBEE
:103ED0003EF490958095709561957F4F8F4F9F4FE1
:103EE0009923A9F0F92F96E9BB279395F695879525
:103EF00077956795B795F111F8CFFAF4BB0F11F4E8
:103F000060FF1BC06F5F7F4F8F4F9F4F16C088238E
:103F100011F096E911C0772321F09EE8872F762FC4
:103F200005C0662371F096E8862F70E060E02AF005
:103F30009A95660F771F881FDAF7880F96958795F1
:103F400097F90895990F0008550FAA0BE0E8FEEFC6
:103F500016161706E807F907C0F012161306E4074D
:103F6000F50798F0621B730B840B950B39F40A2646
:103F700061F0232B242B252B21F408950A2609F424
:103F8000A140A6958FEF811D811D089597F99F6728
:103F900080E870E060E008959FEF80EC08950024D1
:103FA0000A941616170618060906089500240A949E
:103FB00012161306140605060895EECF50D0E8F346
:103FC000E894E0E0BB279F57F0F02AED3FE049EC92
:103FD00006C0EE0FBB0F661F771F881F28F0B23A8E
:103FE00062077307840728F0B25A620B730B840BC5
:103FF000E3959A9572F7803830F49A95BB0F661F57
:10400000771F881FD2F7904844C4092E0394000CF0
:1040100011F4882352F0BB0F40F4BF2B11F460FF62
:1040200004C06F5F7F4F8F4F9F4F0895EF93E0FF66
:1040300006C0A2EA2AED3FE049EC5FEB53DEE5DF84
:104040000F90039401FC9058E8E6F0E035C457FD6A
:104050009058440F551F59F05F3F71F04795880FF6
:1040600097FB991F61F09F3F79F08795089512168D
:1040700013061406551FF2CF4695F1DF08C0161639
:1040800017061806991FF1CF8695710561050894EA
:104090000895E894BB2766277727CB0197F9089501
:1040A00051DF08F48FEF08950BD0AFCF78DF28F001
:1040B0007DDF18F0952309F069CF6ECF1124EACF88
:1040C000C6DFA0F3959FD1F3950F50E0551F629F77
:1040D000F001729FBB27F00DB11D639FAA27F00D61
:1040E000B11DAA1F649F6627B00DA11D661F829F88
:1040F0002227B00DA11D621F739FB00DA11D621F6D
:10410000839FA00D611D221F749F3327A00D611D89
:10411000231F849F600D211D822F762F6A2F11246B
:104120009F5750408AF0E1F088234AF0EE0FFF1FBE
:10413000BB1F661F771F881F91505040A9F79E3FF5
:10414000510570F023CFA6CF5F3FECF3983EDCF330
:10415000869577956795B795F795E7959F5FC1F732
:10416000FE2B880F911D9695879597F908959F933B
:1041700025DF0F9007FCEE5F59CF11F40EF40CCF42
:1041800086C36DDFD0F39923D9F3CEF39F57550B38
:1041900087FF8BD30024A0E640EA90018058569513
:1041A000979528F4805C660F771F881F20F02617EC
:1041B0003707480730F4621B730B840B2029312921
:1041C0004A2BA69517940794202531254A2758F79E
:1041D000660F771F881F20F026173707480730F42F
:1041E000620B730B840B200D311D411DA09581F7CF
:1041F000B901842F9158880F969587950895A2DE6E
:10420000880B990B089520FD09C0FC0123FD05C012
:1042100022FF02C073836283518340830895CF924B
:10422000DF92EF92FF920F931F9344FD10C046FD63
:1042300010C0DB01FC01AA0FBB1FEE1FFF1F109473
:10424000D1F76A0F7B1F8E1F9F1F31E003C033E041
:1042500001C034E0660F771F881F991F3150D1F7D6
:104260006B017C01C20ED11CE11CF11C970186017F
:10427000B601C9011F910F91FF90EF90DF90CF9091
:1042800008950F931F93CF93DF938C01C8010E9471
:10429000EC23EC0197FD08C00E94061E892BB1F7A4
:1042A000B801CE010E942C24CE01DF91CF911F9145
:1042B0000F9108958F929F92AF92CF92DF92EF92DB
:1042C000FF920F931F93CF93DF93EC01A62E4A0129
:1042D000022F0E94EC23FC01FF27EB32F10519F0BD
:1042E000BD9751F40068AA9411F480E063C0CE0138
:1042F0000E94EC2397FDF9CF102F1D7F302F3073D4
:10430000E1F48033D1F4AA9409F440C0CE010E94B4
:10431000EC2397FD3BC0883711F0883549F41264CF
:10432000AA94A1F1CE010E94EC2397FF06C02EC0F3
:1043300006FF02C0126001C01261C12CD12C7601AF
:10434000282F2053283080F014FF04C0BE010E94A3
:104350002C2419C02A3040F016FFF8CF2F7D322FC1
:104360003151363098F72750412FC701B6010E94CE
:104370000F216B017C011260AA9459F0CE010E94BA
:10438000EC2397FFDDCF11FD04C0AFCFC12CD12CA2
:10439000760117FF08C0F094E094D094C094C11C3B
:1043A000D11CE11CF11C212FB701A601C4010E9400
:1043B000032181E0DF91CF911F910F91FF90EF904A
:1043C000DF90CF90AF909F908F9008956F927F92E3
:1043D0009F92AF92BF92CF92DF92EF92FF920F9394
:1043E0001F93CF93DF93CDB7DEB7A1970FB6F894A5
:1043F000DEBF0FBECDBF6C017A018901FE0131968F
:1044000080E2DF011D928A95E9F7D60113969C9010
:1044100020E030E0A12CA0E0B12CCF0141E050E041
:10442000F80193FC759193FE71918F01711103C096
:1044300000E010E080C07E3519F42115310559F1F6
:10444000EB2DF0E0E217F3073CF47D3569F17D32A6
:1044500019F4AA2319F103C0A11101C0A72EE72F57
:10446000E695E695E6953C016E0E711CF301A72FCB
:10447000A7703A0102C0660C771CAA95E2F7D30137
:10448000B081BA2BB0837A1559F07A1510F47F5F9A
:10449000E6CF7150E4CFBB24B39403C0A1E001C0C8
:1044A000A0E02F5F3F4FBCCFAA2319F08E8180621E
:1044B0008E83B11003C0BB24B3940BC0FE013196B0
:1044C000CE018196208120952193E817F907D1F735
:1044D000F2CFC60169A30E94EC2369A197FD24C015
:1044E000282F269526952695E1E0F0E0EC0FFD1F9C
:1044F000E20FF11D208130E0AC014770552702C06A
:10450000359527954A95E2F720FD04C0B6010E9433
:104510002C240AC0E114F10419F0D7018D937D0118
:104520006150B12CB1F602C0B11082CFE114F10498
:1045300011F0F7011082C801A1960FB6F894DEBF02
:104540000FBECDBFDF91CF911F910F91FF90EF90E4
:10455000DF90CF90BF90AF909F907F906F90089525
:104560004F925F927F928F929F92AF92BF92CF9223
:10457000DF92EF92FF920F931F93CF93DF931F92DF
:10458000CDB7DEB78C012B015A01FC0117821682D0
:10459000812CF0C08E2D90E00E94061E892B21F008
:1045A000C8010E944121E6C0F5E2EF120AC0F20103
:1045B000F3FC3591F3FE31912F01353271F455E260
:1045C000E52EC8010E94EC2397FDDFC0E81609F430
:1045D000D1C0B8010E942C24DAC03A3241F4F3FC75
:1045E0003591F3FE31912F019924939401C0912CC0
:1045F000712C10C0F2E09F2A672D70E080E090E0FF
:1046000040E20E940F21762EF201F3FC3591F3FE79
:1046100031912F01232F20532A3060F391FE03C0E4
:10462000711003C0B4C077247A94383619F03C3640
:1046300099F40AC0F201F3FC3591F3FE31912F0198
:10464000383651F4F8E09F2A84E0982AF201F3FC0E
:104650003591F3FE31912F01332309F498C0632F74
:1046600070E080EE90E039830E94E1233981892B4C
:1046700009F48DC090FC07C0F501E080F18082E074
:10468000A80EB11C02C0E12CF12C3E3651F4F80109
:104690004681578160E070E0292DC7010E94032107
:1046A00069C0333691F491FC02C077247394C80139
:1046B0000E94EC2397FD69C0E114F10419F0F701A1
:1046C00081937F017A9499F753C03B3559F4920155
:1046D000A701672DC8010E94E6212C01009709F06F
:1046E00047C041C0C80139830E944121398197FDEB
:1046F0004CC03F3659F128F4343629F1393649F5A2
:104700002AC0333719F0353721F51DC0C8010E9482
:10471000EC236C0197FD11C00E94061E892B29F025
:10472000B801C6010E942C2408C0E114F10419F05C
:10473000F701C1927F017A9449F7E114F104C1F0C5
:10474000F701108215C0F0E29F2A05C080E1982A87
:1047500002C090E4992A292DA701672DC8010E9463
:104760005A21811105C0F8018381807371F40FC053
:1047700090FE8394F801F380F201F3FCE590F3FEE0
:10478000E1902F01E11006CF02C0882019F0282DFA
:1047900030E002C02FEF3FEFC9010F90DF91CF91C2
:1047A0001F910F91FF90EF90DF90CF90BF90AF904F
:1047B0009F908F907F905F904F90089599278827C2
:1047C0000895FC010590061621F00020D9F7C001DC
:1047D00008953197CF010895CF93DF93EC013B818A
:1047E00030FF34C036FF0AC03F7B3B838E819F8100
:1047F00001969F838E832A8130E02AC032FF0FC04A
:10480000E881F9818081992787FD9095009719F4B7
:1048100030623B831BC03196F983E8830EC0EA8582
:10482000FB85099597FF09C02B81019611F480E162
:1048300001C080E2822B8B8309C02E813F812F5FD4
:104840003F4F3F832E839C01332702C02FEF3FEF62
:10485000C901DF91CF910895FB01238120FF13C08F
:1048600026FD11C08F3F3FEF930769F082832F7DB4
:1048700020642383268137812150310937832683A1
:104880009C01332702C02FEF3FEFC90108959F3FDE
:1048900031F0915020F4879577956795B795880FFB
:1048A000911D9695879597F9089591505040660F00
:1048B000771F881FD2F708959F938F937F936F93ED
:1048C000FF93EF939B01AC01EFDBEF91FF9105D0DC
:1048D0002F913F914F915F91E7CBDF93CF931F9340
:1048E0000F93FF92EF92DF927B018C01689405C0D9
:1048F000DA2EEF01E5DBFE01E894A59125913591D3
:1049000045915591AEF3EF01EDD9FE019701A80154
:10491000DA9479F7DF90EF90FF900F911F91CF918C
:10492000DF910895A1E21A2EAA1BBB1BFD010DC049
:10493000AA1FBB1FEE1FFF1FA217B307E407F5074F
:1049400020F0A21BB30BE40BF50B661F771F881F2B
:10495000991F1A9469F760957095809590959B01C1
:10496000AC01BD01CF0108952F923F924F925F920B
:104970006F927F928F929F92AF92BF92CF92DF926F
:10498000EF92FF920F931F93CF93DF93CDB7DEB7D4
:10499000CA1BDB0B0FB6F894DEBF0FBECDBF099468
:1049A0002A88398848885F846E847D848C849B84BF
:1049B000AA84B984C884DF80EE80FD800C811B81CD
:1049C000AA81B981CE0FD11D0FB6F894DEBF0FBEFC
:1049D000CDBFED010895EE0FFF1F0590F491E02D7E
:0649E0000994F894FFCFDA
:1049E6000000770380002020434150202000202033
:1049F60044455020200020207820203A00202079AD
:104A0600203A0020206361703A20200076656374A6
:104A160000202C2000747275650054727565005470
:104A2600525545003100256400256F0025580025A4
:104A360078002569006F7264726520696E64203D96
:104A4600200040005265676C616765204F646F0007
:104A5600526563616C2061727269657265005265A8
:104A660063616C206176616E74004246436170201A
:104A76000042464176616E6365004172726574203C
:104A8600526F626F740052657072656E6472650073
:104A9600657272200046696E206465206C69676ED7
:104AA6006500456E7265676973747265203A200009
:104AB600202073657269616C5F636F756E74202068
:104AC60000636F75636F75002000000000006809C1
:104AD6008C09E0FFE0FF0000820996092000000033
:104AE60000006707C808E0FFE0FF00007107D30871
:104AF600000000006107C108000000004C095E09C3
:104B0600A007A107910DA207AB07AE07BB07F207E7
:104B160008081F08A713850B000000007B07BA08CA
:104B2600A0074D08500853089D07560859089A07CC
:104B3600810798075F085D08060000000000670708
:104B4600C808FAFFFAFF00007107D308EE01020257
:104B56000C02F8015E0268026572726F72002074C0
:104B66006172676574200020696E7075742000009C
:104B76000000000E1AB21BB019DF19C319031A6E12
:0E4B8600616E00696E66006F7666002E00009C
:00000001FF
