:100000000C9477000C943B150C9468150C949F008D
:100010000C949F000C949F000C949F000C949F00E4
:100020000C949F000C949F000C949F000C949F00D4
:100030000C949F000C949F000C949F000C949F00C4
:100040000C94F6150C949F000C9425190C946819C7
:100050000C949F000C949F000C949F000C949F00A4
:100060000C949F000C949F0005A84CCDB2D44EB9BF
:100070003836A9020C50B9918688083CA6AAAA2A4B
:10008000BE000000803F00000007000201000003E6
:100090000406000000000000000001020408102017
:1000A000408001020408102001020408102004040A
:1000B0000404040404040202020202020303030310
:1000C00003030000000023002600290000000000B8
:1000D000250028002B0000000000240027002A0033
:1000E0006364696E6F70737578585B00241A11240D
:1000F0001FBECFEFD8E0DEBFCDBF12E0A0E0B1E081
:10010000EEE9F5E402C005900D92A437B107D9F7E6
:1001100013E0A4E7B2E001C01D92AD33B107E1F7EF
:1001200010E0CEEED0E004C02297FE010E94C9226A
:10013000CC3ED107C9F70E947A1A0C94E31B0C94A9
:100140000000CF93DF93EC010E94AA04CE010C962D
:100150000E9429026AE070E0CE018E589F4F0E94F3
:1001600046136EE170E0CE0186589F4F0E94461301
:10017000FE01EE57FF4F40E655EE60ED7EEB40830B
:10018000518362837383FE01EA57FF4F408351839B
:1001900062837383FE01E657FF4F4AEC5FEA65E531
:1001A0007BE34083518362837383FE01E257FF4FF9
:1001B00011821082C057DF4F19821882DF91CF91D0
:1001C0000895CF92DF92EF92FF92CF93DF93EC01ED
:1001D000609174027091750280917602909177021D
:1001E0000E94471DFE01EA57FF4F20813181428165
:1001F00053810E94341E6B017C01609178027091E2
:10020000790280917A0290917B020E94471DFE0143
:10021000EE57FF4F20813181428153810E94341E6D
:100220009B01AC01C701B6010E94401CFE01E657CC
:10023000FF4F20813181428153810E94341EAB01E6
:10024000BC01CE01DF91CF91FF90EF90DF90CF9076
:100250000C945C044F925F926F927F92AF92BF9228
:10026000CF92DF92EF92FF920F931F93CF93DF9382
:10027000EC010E94E10088E7E82E82E0F82E8E0172
:1002800002571F4FF70160817181F80180819181D0
:10029000681B790B882777FD8095982F0E94471D52
:1002A000FE01EE57FF4F20813181428153810E9430
:1002B000341E2B013C0194E7A92E92E0B92E6E0169
:1002C000F0E9CF0ED11CF50160817181F6018081CA
:1002D0009181681B790B882777FD8095982F0E9464
:1002E000471DFE01EA57FF4F208131814281538132
:1002F0000E94341E9B01AC01C301B2010E94411C4B
:1003000020E030E040E05FE30E94341EAB01BC011E
:10031000CE010E946204F50180819181F6019183F2
:100320008083F70180819181F80191838083DF913F
:10033000CF911F910F91FF90EF90DF90CF90BF90E2
:10034000AF907F906F905F904F900895DF92EF9203
:10035000FF920F931F93CF93DF93EC012C96CE0166
:100360000E9432047C01CE010E943D048C01CE012A
:100370000E943804D82ECE010E944304C82FDD20ED
:1003800011F061E001C060E08BE00E94EF16CC2329
:1003900011F060E001C061E08AE00E94EF16B70151
:1003A00086E00E949515B80185E0DF91CF911F91FD
:1003B0000F91FF90EF90DF900C949515CF92DF9204
:1003C000EF92FF920F931F93CF93DF93EC018C0179
:1003D0000E581F4FC8010E945213882331F0C801E4
:1003E0000E943A13CE010E942A018E0106581F4F27
:1003F000C8010E9452138823F1F0C8010E943A13E9
:10040000C880D980EA80FB800C811D812E813F81CC
:10041000488559856A857B85CE010C960E94F50337
:10042000CE01DF91CF911F910F91FF90EF90DF9060
:10043000CF900C94A601DF91CF911F910F91FF9067
:10044000EF90DF90CF9008959C01245F3F4FC9014A
:100450000895CF93DF93EC010E94AA04CE010C967D
:100460000E94AA04CE0148960E94D20419A218A2A2
:10047000CE0182960E947213CE01CF960E94721313
:10048000FE01E45AFF4F11821082FE01E25AFF4F33
:1004900011821082FE01EC59FF4F81E08083CB591D
:1004A000DF4F8883DF91CF9108958F929F92AF9213
:1004B000BF92CF92DF92EF92FF920F931F93CF9351
:1004C000DF93CDB7DEB768970FB6F894DEBF0FBEE7
:1004D000CDBF4C01A986BA86CB86DC86ED86FE862A
:1004E0000F87188B298B3A8B4B8B5C8BFC0171A38C
:1004F00060A36130710529F06230710509F06AC0AE
:1005000054C0CE0109960E944804AB01BC0184018D
:10051000045F1F4FC8010E9462048DB79EB70C97FD
:100520000FB6F8949EBF0FBE8DBFADB7BEB7119684
:100530008CE0F80101900D928A95E1F7F401C080FA
:10054000D180E280F3800481158126813781408546
:10055000518562857385CE0101960E94DC0488E096
:10056000FE013196D401589601900D928A95E1F7DB
:100570008401085E1F4FC8010E942605AB01BC0123
:10058000C8014D8B5E8B6F8B788F0E9453054D8910
:100590005E896F89788DC401CF960E94A2130FB631
:1005A000F894DEBF0FBECDBF15C0CE0109960E94E4
:1005B0005204AB01BC018401045F1F4FC8010E94BB
:1005C0005C04C8010E945204AB01BC01C4018296C4
:1005D0000E94A21368960FB6F894DEBF0FBECDBF7F
:1005E000DF91CF911F910F91FF90EF90DF90CF900F
:1005F000BF90AF909F908F9008958F929F92AF92EF
:10060000BF92CF92DF92EF92FF920F931F93CF93FF
:10061000DF93CDB7DEB760970FB6F894DEBF0FBE9D
:10062000CDBF5C01CE0109960E94D204F50180A1E4
:1006300091A18130910559F08230910509F458C09B
:10064000892B09F06BC0E05AFF4F118210824501DF
:10065000F2E68F0E911CF401118210828DB79EB7C5
:100660000C970FB6F8949EBF0FBE8DBFADB7BEB747
:1006700011968CE0F5013C9601900D928A95E1F778
:10068000F501C080D180E280F3800481158126814C
:1006900037814085518562857385CE0101960E9420
:1006A000DC0488E0FE013196DE01199601900D927E
:1006B0008A95E1F7F501008D118D228D338D448DE2
:1006C000558D668D778DCE0109960E947D05AB0113
:1006D000BC01C50182960E94A8130E94141DF4015A
:1006E000718360830FB6F894DEBF0FBECDBF16C016
:1006F000F501E05AFF4F11821082C5010E94520499
:10070000AB01BC01C50182960E94A81385010E5958
:100710001F4F0E94141DF8017183608360960FB60D
:10072000F894DEBF0FBECDBFDF91CF911F910F9127
:10073000FF90EF90DF90CF90BF90AF909F908F9001
:100740000895FC01E05AFF4F2081318137FF02C03C
:100750002F5F3F4FB90175956795FC01EE59FF4F2B
:10076000B081A1812B2F3A2F37FF02C02F5F3F4F5F
:1007700035952795AB01421B530BFC01E45AFF4F03
:10078000518340832B2F3A2F37FF02C02F5F3F4FFB
:1007900035952795260F371FFC01E25AFF4F31830D
:1007A0002083DC01AC59BF4F652F6095661F66271B
:1007B000661F6C93DC01AB59BF4F632F6095661FBA
:1007C0006627661F6C9357FF08C0DC01A45ABF4F11
:1007D0005195419551094D935C9337FF05C0319573
:1007E00021953109318320830895AF92BF92CF9232
:1007F000DF92EF92FF920F931F93CF93DF93CDB7CA
:10080000DEB72C970FB6F894DEBF0FBECDBF5C01EC
:10081000C982DA82EB82FC820D831E832F833887A4
:1008200049875A876B877C878CE0FE013196D5011A
:1008300001900D928A95E1F7C5010E94FD02C50164
:100840002C960FB6F894DEBF0FBECDBFDF91CF91CF
:100850001F910F91FF90EF90DF90CF90BF90AF90DE
:100860000C94A103FC01E45AFF4F8081918108950B
:100870008C599F4FFC0180810895FC01E25AFF4F83
:100880008081918108958B599F4FFC01808108954B
:10089000FC015081418132812381652F742F832F88
:1008A000922F0895FC015085418532852385652F5F
:1008B000742F832F922F0895FC0140875187628700
:1008C000738708958F929F92AF92BF92CF92DF92DB
:1008D000EF92FF92CF93DF93EC016A017B01888452
:1008E0009984AA84BB84C501B4010E94A91C9B0100
:1008F000AC01C701B6010E94341E9B01AC016881A6
:1009000079818A819B810E94411C688379838A83D3
:100910009B83C501B4010E94971E9B01AC01C701D6
:10092000B6010E94341E9B01AC016C817D818E81D9
:100930009F810E94411C6C837D838E839F83DF9106
:10094000CF91FF90EF90DF90CF90BF90AF909F90AE
:100950008F900895FC0110821182128213821482FA
:1009600015821682178210861186128613860895C4
:10097000CF92DF92EF92FF920F931F93FC0140837F
:100980005183628373830483158326833783C086F0
:10099000D186E286F3861F910F91FF90EF90DF9052
:1009A000CF900895FC01108211821282138214826A
:1009B0001582168217820895AF92BF92CF92DF926E
:1009C000EF92FF920F931F93CF93DF93CDB7DEB7D4
:1009D0002C970FB6F894DEBF0FBECDBF5C01C98265
:1009E000DA82EB82FC820D831E832F833887298174
:1009F0003A814B815C81698D7A8D8B8D9C8D0E94B3
:100A0000401CF50160837183828393832D813E8135
:100A10004F8158856D8D7E8D8F8D98A10E94401CD1
:100A2000F50164837583868397832C960FB6F894BB
:100A3000DEBF0FBECDBFDF91CF911F910F91FF9011
:100A4000EF90DF90CF90BF90AF9008958F929F92DC
:100A5000AF92BF92CF92DF92EF92FF92FC01608142
:100A6000718182819381C480D580E680F7809B016B
:100A7000AC010E94341E4B015C01A7019601C70125
:100A8000B6010E94341E9B01AC01C501B4010E9455
:100A9000411CFF90EF90DF90CF90BF90AF909F9060
:100AA0008F900C94A11ECF92DF92EF92FF92CF9382
:100AB000DF93EC010E9426056B017C019B01AC01D8
:100AC000688179818A819B810E94AC1C68837983CB
:100AD0008A839B83A70196016C817D818E819F8192
:100AE0000E94AC1C6C837D838E839F83DF91CF91AA
:100AF000FF90EF90DF90CF9008958F929F92AF92EA
:100B0000BF92CF92DF92EF92FF920F931F93CF93FA
:100B1000DF93CDB7DEB728970FB6F894DEBF0FBED0
:100B2000CDBF09831A832B833C83FC01C480D5800D
:100B3000E680F78029813A814B815C8160817181F7
:100B4000828193810E94341E4B015C01A7019601B2
:100B5000C701B6010E94341E9B01AC01C501B4015E
:100B60000E94411C28960FB6F894DEBF0FBECDBF81
:100B7000DF91CF911F910F91FF90EF90DF90CF9079
:100B8000BF90AF909F908F90089589E00E942617A4
:100B9000409178025091790260917A0270917B02C3
:100BA000019729F44F5F5F4F6F4F7F4F04C0415053
:100BB0005109610971094093780250937902609359
:100BC0007A0270937B02089588E00E942617409174
:100BD00074025091750260917602709177020197CC
:100BE00029F44F5F5F4F6F4F7F4F04C04150510951
:100BF0006109710940937402509375026093760203
:100C000070937702089520E032E0FC013183208365
:100C100008952AE432E0FC013183208320E032E0B1
:100C2000378326830895DC01ED91FC91369720816E
:100C30003181820F931F0C94090628E232E0FC01F7
:100C4000318320830895CF93DF93EC01E881F9810C
:100C50000288F389E02D09959C012F3F8FEF38071B
:100C600029F08D819E8101969E838D83C901DF913C
:100C7000CF910895CB0108958FEF9FEF089580E005
:100C800090E0089508950895242FDC01ED91FC91E2
:100C90000084F185E02D41E0099480E090E0089522
:100CA000FC012289338980899189281B390B868927
:100CB0009789281B390BC90108958F929F92AF9293
:100CC000BF92EF92FF92CF93DF93FC01DB01812C67
:100CD000912C5401C689D789E088F188828993894B
:100CE0008E199F09C817D907A0F482169306A40687
:100CF000B5067CF4CE0DDF1D88818D938FEF881AA9
:100D0000980AA80AB80A868997890196978B868BD4
:100D1000E1CFB401C501DF91CF91FF90EF90BF907B
:100D2000AF909F908F900895FC0126893789408964
:100D3000518982899389841B950B2817390730F4D0
:100D4000FA01E20FF31F208130E002C02FEF3FEFE6
:100D5000C9010895CF93DF93EC01E881F9810288FE
:100D6000F389E02D09959C012F3F8FEF380729F07B
:100D70008E899F8901969F8B8E8BC901DF91CF91C0
:100D80000895FC0186899789009729F1A089B18986
:100D9000228933892A1B3B0B2817390718F4378B14
:100DA000268B19C001976F3F2FEF720729F4978B9D
:100DB000868B60E070E011C0A80FB91F2C9126133C
:100DC00003C0978B868B09C0278524FF04C0978BAF
:100DD000868B6C9302C06FEF7FEFCB01089580E0AC
:100DE00090E0089580E090E0089580E090E008951C
:100DF00080E090E0089560E070E0CB010895CB01C1
:100E000008957F928F929F92AF92BF92CF92DF927E
:100E1000EF92FF920F931F93CF93DF93EC01490161
:100E20005A018B01C12CD12C76012FC0F801719091
:100E30008F018F8580FF0BC0E881F9810084F185E7
:100E4000E02D20E144E060E070E0CE010995EB8503
:100E5000FC858D859E85E817F90738F470828B85AF
:100E60009C8501969C878B870BC0E881F981028C59
:100E7000F38DE02D672D70E0CE010995019661F0AC
:100E80002FEFC21AD20AE20AF20AC814D904EA04FD
:100E9000FB0464F275016401B601C701DF91CF91D3
:100EA0001F910F91FF90EF90DF90CF90BF90AF9088
:100EB0009F908F907F90089528E232E0FC0131836B
:100EC00020830C94891A20E032E0FC0131832083D6
:100ED0000C94891A2AE432E0FC013183208320E05B
:100EE00032E0378326830C94891ADC01ED91FC9162
:100EF000369720813181820F931F0C946A07EF92FD
:100F0000FF920F931F93CF93DF937C01EB018A0134
:100F100064177507A1F0FC0140815181401B510B02
:100F20004F5F5F4FB801CE010E94041C0C1B1D0BCC
:100F3000F70180819181801B910B91838083CE0189
:100F4000DF91CF911F910F91FF90EF900895CF9374
:100F5000DF93EC01BC0181E090E00E94C214FC012F
:100F600010821882DF91CF910895DC0113968D9144
:100F70009C911497892B59F01596ED91FC91169739
:100F800017968D919C911897E817F90741F4ED9108
:100F9000FC9111970488F589E02DCD010994819188
:100FA0001696FC93EE93159790E00895FC018581C9
:100FB000682B83899489892B09F001C0616065835E
:100FC0000895FC018081918124813581281739079A
:100FD00011F00C94EA1708950C94E107CF93DF9376
:100FE000EC0188E092E099838883CE0140960E94CC
:100FF000EC0788E292E099838883DF91CF9108958E
:10100000CF93DF93EC010E94EE07CE01DF91CF91E9
:101010000C94891ACF93DF93EC018AED91E09983C8
:10102000888384EE91E099A388A3CE0106960E945E
:10103000EE078EEE91E09983888380E092E099A399
:1010400088A3DF91CF910895DC01ED91FC91369753
:1010500020813181820F931F0C940A08CF93DF9374
:10106000EC010E940A08CE01DF91CF910C94891AFD
:10107000DC01ED91FC91369720813181820F931F25
:101080000C942E08CF93DF93EC01FB01019000201C
:10109000E9F73197E61BF70B888199814A815B81DB
:1010A000481B590B4E175F0731F40E94EE1B9C0141
:1010B00081E0232B09F080E0DF91CF910895DC01DE
:1010C00013968D919C911497892B59F01596ED915B
:1010D000FC91169717968D919C911897E817F90730
:1010E00041F4ED91FC9111970288F389E02DCD0137
:1010F0000994808190E00895CF93DF93EC01E8811B
:10110000F98136970190F081E02DEC0FFD1F838966
:1011100094890E945F088F3F2FEF920789F00E9409
:10112000E61B892BC9F0E881F98136970190F0819F
:10113000E02DEC0FFD1F838994890E94B507DFCF56
:10114000E881F98136978081918162E08C0F9D1F43
:10115000DF91CF910C94D607DF91CF910895DF9264
:10116000EF92FF920F931F93CF93DF937C018B013C
:10117000D42EDB01ED91FC9136970190F081E02DAA
:10118000E60FF71FC189D2892097E9F0E881F9813C
:1011900036970190F081E02DEC0FFD1F8389948933
:1011A000DC01ED91FC910484F585E02D0995019613
:1011B00051F4E881F98136978081918161E08C0F4B
:1011C0009D1F0E94D607D11003C0C8010E947C0851
:1011D00081E0F7018083DF91CF911F910F91FF9004
:1011E000EF90DF900895CF93DF93EC01009791F09B
:1011F000CE010E944F179C01009771F4E0917C0290
:10120000F0917D02309721F480E090E00E94E31B92
:101210000995EECF20E030E0C901DF91CF9108952C
:101220000F931F93CF93DF93EC018B016F3F8FEFF1
:10123000780759F0CB010E94F308998388839B8338
:101240008A83080F191F1D830C83DF91CF911F9193
:101250000F910895CF93DF93EC01198218821B82BE
:101260001A821D821C8268E070E00E9410098A8147
:101270009B81DF91CF910C94A707EF92FF920F9380
:101280001F93CF93DF931F92CDB7DEB78C017B0105
:1012900064E670E00E944613F80111861086BE01D4
:1012A0006F5F7F4FC8010A960E942A0981E290E091
:1012B000F80195AB84AB16AA17AA10AE46E050E031
:1012C00060E070E041AF52AF63AF74AFFD96108243
:1012D000118212821382F801EF5BFF4F80E280835C
:1012E000F801EE5BFF4F11821082F801EC5BFF4FBB
:1012F000C801479691838083F801EA5BFF4F108213
:10130000F801138A148A158A168A8AED91E0928B65
:10131000818B84EE91E092AB81AB138E128E158E91
:10132000148E178E168E11A210A213A212A215A24D
:1013300014A216A288E092E0908F878BBE016F5FA7
:101340007F4FC80187960E942A09F80116A615A6A4
:1013500010AA17A688E086A3E95BFF4FF182E0821E
:1013600081E0F801808B0F90DF91CF911F910F9159
:10137000FF90EF900895CF92DF92EF92FF920F933C
:101380001F93CF93DF93EC018A819B812881398160
:10139000821B930B8617970708F4CB016C012FEF84
:1013A000C21AD20AC6010E94F3088C0168817981B1
:1013B000EA80FB80E61AF70AA7010E94041CE00EEF
:1013C000F11EC7010E94A707CE010E94E107198301
:1013D0000883FB82EA820C0D1D1D1D830C83DF91A7
:1013E000CF911F910F91FF90EF90DF90CF900895D4
:1013F0001F93CF93DF93EC01162F8A819B819C0171
:101400002F5F3F4F4C815D814217530779F428814C
:101410003981821B930B11F09C0102C021E030E066
:10142000B901680F791FCE010E94BB098A819B8197
:1014300001960E94A707EA81FB8110838A819B8124
:1014400001969B838A83DF91CF911F9108950F931B
:101450001F93CF93DF93EC018B016F3F8FEF7807E2
:10146000E9F08F8584FF1DC0288D398D4889598901
:101470008A899B89841B950B2817390728F0CE0190
:1014800040960E94F80904C0FA01E20FF31F60833E
:10149000888D998D0196998F888F05C000E010E0A6
:1014A00002C00FEF1FEFC801DF91CF911F910F9185
:1014B00008957F928F929F92AF92BF92CF92DF92C8
:1014C000EF92FF920F931F93CF93DF931F92CDB7AD
:1014D000DEB78C017B0140E0BC01CE0101960E9489
:1014E000AF082981D8018D919C91FC013697222368
:1014F00009F47FC00190F081E02DE00FF11FC38857
:10150000D488D701ED91FC91119712968D919C9101
:101510001397E817F90741F010828D919C9111976C
:1015200013969C938E931297D801ED91FC91369768
:101530000190F081E02D3296E00FF11F62857385F6
:101540008485958512861386148615865B01611540
:10155000710521F0C7010E94BB0903C0AA24AA9407
:10156000BA2CC6010E94B5074C018F3FBFEF9B0705
:1015700041F4D801ED91FC9136978081918162E030
:1015800020C0992787FD90950E94E61BB1E0AB1A19
:10159000B108892BD9F0F60183819481009789F1F4
:1015A0000580F681E02DE817F90759F1829188123C
:1015B00028C034C0D801ED91FC913697808191818B
:1015C00064E0800F911F0E94D60707C0682DC701F5
:1015D0000E94F809A114B10421F6F7012281338198
:1015E0008081918128173907F9F4D801ED91FC9198
:1015F00036978081918164E0800F911F0E94D60709
:1016000013C0D601ED91FC91B40177270688F789C4
:10161000E02DC6010995019669F2DFCFD601169635
:10162000FC93EE931597D9CFC8010F90DF91CF911E
:101630001F910F91FF90EF90DF90CF90BF90AF90F0
:101640009F908F907F900895FF920F931F93CF9359
:10165000DF93EC018B01F42E488159818A819B81B3
:10166000841B950BBC01600F711F2C813D81241BD5
:10167000350B215031092617370758F49C01801784
:10168000910708F49801B901680F791FCE010E94F3
:10169000BB0901151105E1F02A813B81C9010196C1
:1016A000A901400F511F481B590B6F2D70E00E947C
:1016B000161C8A819B81800F911F0E94A707EA81D7
:1016C000FB81F0828A819B81800F911F9B838A839B
:1016D000CE01DF91CF911F910F91FF900895CF928E
:1016E000DF92EF92FF920F931F93CF93DF931F929E
:1016F000CDB7DEB77C018B01BE016F5F7F4F0E94CB
:101700002A09D801ED91FC9136970190F081E02DE6
:10171000E00FF11F838994890E945F086C018F3F5D
:10172000BFEF9B0729F10E94E61B892B69F020C0BF
:10173000D801ED91FC9136978081918166E0800F10
:10174000911F0E94D6071CC0D801ED91FC913697DD
:101750000190F081E02DE00FF11F838994890E94B0
:10176000B5074C2D61E070E0C7010E94240BC9CF82
:10177000F701228133818081918128173907C1F2D5
:10178000C7010F90DF91CF911F910F91FF90EF90C4
:10179000DF90CF900895CF92DF92EF92FF920F9358
:1017A0001F93CF93DF931F92CDB7DEB76C018B01F0
:1017B000BE016F5F7F4F0E942A09D801ED91FC9115
:1017C00036970190F081E02DE00FF11F8389948915
:1017D0000E945F087C018F3FBFEF9B0789F10E9449
:1017E000E61B892B69F5C701C0970A97A8F0EEE2BE
:1017F000EE16F10489F0FCE2EF16F10409F50CC0D5
:10180000D801ED91FC9136978081918166E0800F3F
:10181000911F0E94D6071CC0D801ED91FC9136970C
:101820000190F081E02DE00FF11F838994890E94DF
:10183000B5074E2D61E070E0C6010E94240BBDCFBC
:10184000F601228133818081918128173907C1F205
:10185000C6010F90DF91CF911F910F91FF90EF90F4
:10186000DF90CF9008950F931F93CF93DF938C0158
:10187000E22FE870322F30712871283121F4423084
:1018800009F05DC059C0413011F4EB0129C042306C
:10189000D1F4332371F0DC015296CD91DC91539752
:1018A00050968D919C915197C81BD90BC60FD71F8D
:1018B00002C0C0E0D0E0EE2399F0D8015696CD9159
:1018C000DC9157970BC0D8015296CD91DC9153977C
:1018D00050968D919C915197C81BD90BC60FD71F5D
:1018E000D80152964D915C91539750966D917C9191
:1018F0005197CA01861B970B8C179D07E8F0EE23C2
:1019000021F05796DC93CE9356973323D9F06C0F82
:101910007D1FC80142960E947F07F8018289938942
:1019200020893189821B930B268937898217930777
:1019300048F4978B868B06C0CFEFDFEF03C04130B2
:1019400011F6A3CFCE01DF91CF911F910F91089592
:101950008F929F92AF92BF92CF92DF92EF92FF92BF
:101960000F931F93CF93DF93EC017B0164177507EF
:1019700009F45FC08A819B81688179814C01861A54
:10198000970A8A010E191F09F801E80DF91D2C812B
:101990003D81261B370B215031092E173F0780F55B
:1019A0008FEF881A980AC8010431110510F484E1F8
:1019B00090E0880E991EC4010E94F3086C016881B2
:1019C0007981AA80BB80A61AB70AA5010E94041CCF
:1019D000AC0CBD1CA801B701C5010E94041CA00EDF
:1019E000B11EC5010E94A707CE010E94E107D9825E
:1019F000C882BB82AA82C80CD91CDD82CC8219C0E5
:101A0000B7016F5F7F4F461B570B01960E94041C66
:101A10008A819B81800F911F0E94A707EA81FB8129
:101A2000D7018C9180838A819B81800F911F9B833A
:101A30008A83CE01DF91CF911F910F91FF90EF909C
:101A4000DF90CF90BF90AF909F908F900895CF92EE
:101A5000DF92EF92FF920F931F93CF93DF93EC01EE
:101A60008B017A016A01C61AD70A288139818A81D5
:101A70009B81821B930B8C159D0578F0A601C901F3
:101A80000E94FB1B4A815B81FE0161917191CF0134
:101A90006C0D7D1D0E947F0711C0AC01C9010E9421
:101AA000FB1B6A817B8188819981681B790B600FA0
:101AB000711F20E0A701CE010E94A80CCE01DF918A
:101AC000CF911F910F91FF90EF90DF90CF900895ED
:101AD000CF93DF93EC016817790739F0FB0142815E
:101AE0005381608171810E94270DCE01DF91CF91DA
:101AF0000895CF93DF93EC0146960E94680D1D8EEA
:101B00001C8E8D8981FF09C0888D998D2E893F8912
:101B1000821B930B9F8F8E8F02C01F8E1E8EE881BB
:101B2000F98136970190F081E02DEC0FFD1F83893C
:101B30009489892B11F0158202C081E08583DF91A1
:101B4000CF910895EF92FF920F931F93CF93DF935E
:101B5000CDB7DEB72D970FB6F894DEBF0FBECDBF61
:101B60007C018B01BE01635F7F4FCE0107960E940F
:101B70002A09B701CE0101960E946F0BBE016F5F6B
:101B80007F4FCE0107960E94680DCE0101960E94FC
:101B9000EC0766E071E0CE0107960E9442088111D1
:101BA0001EC06BE071E0CE0107960E9442088111D1
:101BB00016C060E171E0CE0107960E9442088111D3
:101BC0000EC065E171E0CE0107960E9442088111C6
:101BD00006C009C0CE0107960E94EC0707C081E04D
:101BE000F8018083F7CFF8011082F4CF2D960FB65D
:101BF000F894DEBF0FBECDBFDF91CF911F910F9143
:101C0000FF90EF900895EF92FF920F931F93CF9361
:101C1000DF93CDB7DEB72D970FB6F894DEBF0FBEBA
:101C2000CDBF8C01F62EE72EBE01635F7F4FCE0144
:101C300007960E942A09D801ED91FC9136970190F0
:101C4000F081E02DE00FF11F8381B80185FF14C002
:101C5000CE0101960E94CB0BBE016F5F7F4FCE017C
:101C600007960E94680DCE0101960E94EC07EF9244
:101C7000FF9287E191E033C0CE0101960E946F0B85
:101C8000BE016F5F7F4FCE0107960E94680DCE01A7
:101C900001960E94EC07D801ED91FC9136970190D6
:101CA000F081E02DE00FF11F8381948186FF05C054
:101CB000EF92FF928AE191E012C087FF0CC095FF7E
:101CC00005C0EF92FF928DE191E009C0EF92FF9283
:101CD00080E291E004C0EF92FF9283E291E09F9353
:101CE0008F9388858F938F818F930E94251C0F90EF
:101CF0000F900F900F900F900F90CE0107960E94BB
:101D0000EC072D960FB6F894DEBF0FBECDBFDF9166
:101D1000CF911F910F91FF90EF900895EF92FF9256
:101D20000F931F93CF93DF931F92CDB7DEB77C0144
:101D30008B0140E0BC01CE0101960E94AF08B801C2
:101D4000C7010E94030EC7010F90DF91CF911F9131
:101D50000F91FF90EF900895AF92BF92CF92DF92D4
:101D6000EF92FF920F931F93CF93DF93CDB7DEB720
:101D7000E7970FB6F894DEBF0FBECDBF5C01BC0184
:101D8000665F7F4F6C0181E1C80ED11CC6010E94C5
:101D9000790DBE01695C7F4FCE0185960E942A09AC
:101DA000BE016B5D7F4FC6010E94590AEDA1FEA1E5
:101DB000108166E271E08FE892E00E94C91AEDA1FD
:101DC000FEA1E180FF24E7FCF094A0E3EA1AF10809
:101DD000612F8FE892E00E94CB1A63E371E08FE8F5
:101DE00092E00E94C91A4AE050E0B7018FE892E001
:101DF0000E94AB1BBE01695C7F4FCE014F960E94D3
:101E00002A09BE01695C7F4FCE0149960E942A09CA
:101E10001CAA1BAA1AAA19AA18AA1FA61EA61DA6A2
:101E20001CA61BA6CE010D960E94AA04133509F02C
:101E3000C3C1B4E0EB16F10409F4B4C094F4A1E01A
:101E4000EA16F10469F11CF4EF2839F1C0C182E00F
:101E5000E816F10441F1A3E0EA16F10409F0B7C174
:101E600025C0B7E0EB16F10409F467C15CF4A5E006
:101E7000EA16F10409F4B0C0B6E0EB16F10409F07B
:101E8000A6C1EFC088E0E816F10409F459C1A9E041
:101E9000EA16F10409F09BC156C165E371E087C100
:101EA00061E471E084C16FE471E081C1BE01675EED
:101EB0007F4FC6010E94590A7C0140E0BC01CE015F
:101EC000C5960E94AF08BE016A5C7F4FC7010E94A1
:101ED000A20DD701ED91FC9136970190F081E02D94
:101EE000EE0DFF1D8581857009F07EC1898D9A8D6B
:101EF0000E94C51BBC01882777FD8095982F0E9402
:101F0000471D23EC35EF48E450E40E94341E20E0E6
:101F100030E044E353E40E94AC1C6B017C0100E020
:101F200010E09801B901A801CE0101960E94B80401
:101F30008CE0FE013196DE011D9601900D928A958E
:101F4000E1F76BE571E08FE892E00E94C91A898D94
:101F50009A8D0E94C51B4AE050E0BC018FE892E0D8
:101F60000E94AB1B4AE050E062E070E08FE892E034
:101F70000E94AB1BF501E95BFF4F808191810E94BC
:101F80002402AD84BE84CF84D888E988FA880B897E
:101F90001C892D893E894F89588D62E070E00E942E
:101FA000550215C1BE016D5C7F4FC6010E948E0EA9
:101FB000BE01635D7F4F0E948E0E62E671E08FE886
:101FC00092E00E94E81A6BEC71E08FE892E00E94C8
:101FD000C91A6BA97CA99CC0BE016D5C7F4FC6016C
:101FE0000E948E0EBE016F5C7F4F0E948E0EBE015E
:101FF000675E7F4F0E94590ABE01635D7F4F0E945A
:102000008E0E7C0140E0BC01CE01C5960E94AF0857
:10201000BE016A5C7F4FC7010E94A20D6BE671E0B2
:102020008FE892E00E94E81A6BA97CA94AE050E090
:102030008FE892E00E94A31B6BEC71E08FE892E0C6
:102040000E94C91A69A97AA94AE050E08FE892E093
:102050000E94A31B6BEC71E08FE892E00E94C91A0A
:102060005DC0BE016D5C7F4FC6010E948E0EBE0139
:102070006F5C7F4F0E948E0EBE01615D7F4F0E949C
:102080008E0EBE01675E7F4F0E94590ABE01655DDC
:102090007F4F0E948E0EBE01635D7F4F0E948E0EA9
:1020A00064E771E08FE892E00E94E81A6BA97CA9CE
:1020B0004AE050E08FE892E00E94A31B6BEC71E0D5
:1020C0008FE892E00E94C91A69A97AA94AE050E013
:1020D0008FE892E00E94A31B6BEC71E08FE892E026
:1020E0000E94C91A6FA578A94AE050E08FE892E0F3
:1020F0000E94A31B6BEC71E08FE892E00E94C91A6A
:102100006BEC71E08FE892E00E94C91A6BA57CA588
:102110004AE050E08FE892E00E94A31B6BEC71E074
:102120008FE892E00E94C91A6DA57EA54AE050E0B2
:102130008FE892E00E94AB1B4AC06DE771E037C0A8
:1021400069E871E034C0BE016D5C7F4FC6010E943A
:102150008E0EBE016F5C7F4F0E948E0EBE01675EC9
:102160007F4F0E94590A63E971E08FE892E00E9474
:10217000E81A6BA97CA94AE050E08FE892E00E943F
:10218000A31B6BEC71E08FE892E00E94C91A69A969
:102190007AA94AE050E08FE892E00E94A31B6BEC22
:1021A00071E08FE892E00E94C91A6BEC71E08FE851
:1021B00092E00E94E81A0BC0CE0149960E94EC07FB
:1021C000CE014F960E94EC07CE0185960AC0CE0143
:1021D00049960E94EC07CE014F960E94EC07CE0173
:1021E00085960E94EC0707C06CE971E08FE892E0E9
:1021F0000E94C91A7BCEE7960FB6F894DEBF0FBED9
:10220000CDBFDF91CF911F910F91FF90EF90DF90A5
:10221000CF90BF90AF900895DF92EF92FF920F930F
:102220001F93CF93DF9300D000D000D0CDB7DEB79F
:102230008C017C018AE0E80EF11C65C061EA71E066
:102240008FE892E00E94E81AF801808591851816BF
:1022500019061CF081E0808B02C0F801108A6EEA3A
:1022600071E08FE892E00E94C91AF80162857385D7
:102270008FE892E00E94C91A6CEB71E08FE892E05F
:102280000E94C91AF801608571854AE050E08FE824
:1022900092E00E94AB1B4CC0F801648575854285B5
:1022A0005385641B750B6E5F7F4F1A8219821C82E7
:1022B0001B821E821D82CE0101960E9410098B8115
:1022C0009C810E94A707F801448555856285738526
:1022D00020E0CE0101960E94A80C6D2DCE01019642
:1022E0000E94F809BE016F5F7F4FC7010E94680D11
:1022F000CE0101960E94E107F801208531852F5F0C
:102300003F4F318720878FE892E00E948918181686
:10231000190674F4F801808591854C974CF48FE888
:1023200092E00E94B818D82EFAE08F13B5CF86CF6E
:1023300026960FB6F894DEBF0FBECDBFDF91CF91CA
:102340001F910F91FF90EF90DF9008950F931F93CF
:10235000CF93DF9300D000D000D0CDB7DEB78C0193
:102360000E9452138823E9F1C8010E943A13C80160
:102370000E940C11F8018089811133C06DEC71E06D
:102380008FE892E00E94E81AC8010E94AC0E81E03A
:10239000F801808B1A8219821C821B821E821D8288
:1023A00061E070E0CE0101960E94100989819A8156
:1023B0009C838B830E94A707BE016F5F7F4FC8017C
:1023C00041960E94790DCE0101960E94EC07F8011A
:1023D000118610864CEC51E0BA01C8010A960E94A1
:1023E000270D26960FB6F894DEBF0FBECDBFDF9146
:1023F000CF911F910F9108956F927F928F929F922C
:10240000AF92BF92CF92DF92EF92FF920F931F9302
:10241000CF93DF93EC017B016A014217530709F464
:10242000A8C08901041B150B6A817B818C819D8169
:10243000861B970B081719070CF05EC05B01AE18DE
:10244000BF0866246394712C660E771EA016B10631
:10245000ECF0601B710B6F5F7F4FA301461B570BA6
:10246000C3010E94041C8A819B81800F911F9B8362
:102470008A83A501401B510B4F5F5F4FB701C70116
:10248000800F911F0E94041CA80124C045018FEFFA
:10249000881A980A840E951EA90148195909B40191
:1024A000C3010E94041C0A191B098A819B81800FA9
:1024B000911F9B838A83A3014E195F09B7010E9474
:1024C000041C8A819B818A0D9B1D9B838A838C18A7
:1024D0009D08A401B601C701DF91CF911F910F9113
:1024E000FF90EF90DF90CF90BF90AF909F908F9034
:1024F0007F906F900C94FB1B88819981681B790BEE
:102500006F5F7F4FC8010431110510F484E190E042
:102510004B01880E991EC4010E94F3085C0168817A
:1025200079813701661A770AA3010E94041C6A0C9C
:102530007B1CA801B601C3010E94041C060D171DD7
:10254000CA80DB80CE18DF08A601B701C8010E944F
:10255000041C0C0D1D1DC8010E94A707CE010E947E
:10256000E107B982A8821B830A83A80CB91CBD822B
:10257000AC82DF91CF911F910F91FF90EF90DF9090
:10258000CF90BF90AF909F908F907F906F90089565
:102590004F925F926F927F928F929F92AF92BF9273
:1025A000CF92DF92EF92FF920F931F93CF93DF931F
:1025B000EC01CB013901542E452E7901488D598DFE
:1025C000088919894B01820E931E2A893B89201B99
:1025D000310B241B350B63012615370508F46901FF
:1025E000C40ED51EC00ED11E040F151F5401A81A0B
:1025F000B90A9601201B310B2A153B0574F0A50181
:10260000BC01C8010E94FB1BB8016A0D7B1DA6011D
:10261000CE0142960E947F0713C05C01A20EB31E3A
:102620009501281B390BA901BC01C8010E94FB1BA5
:1026300000E09401A501B601CE0140960E94FC1174
:10264000888D998D8E0D9F1D998F888FB301852D53
:10265000942DDF91CF911F910F91FF90EF90DF901C
:10266000CF90BF90AF909F908F907F906F905F9032
:102670004F900895CF93DF93EC010E9440166C8336
:102680007D838E839F83DF91CF910895AB01662771
:1026900057FD6095762FFC014083518362837383DD
:1026A0000C943A130F931F93CF93DF93EC010E9486
:1026B00040160C811D812E813F81601B710B820BA6
:1026C000930B41E0088119812A813B810617170786
:1026D000280739070CF040E0842FDF91CF911F913C
:1026E0000F910895FC0110821182128213821482CC
:1026F00015821682178210861186128613864DEC7B
:102700005CEC6CE570E444875587668777874FEA11
:1027100054E965E27FE3408B518B628B738B43E31B
:1027200053E363E970E4448B558B668B778B81E0D0
:102730009FEF918F808F8FEF90E0938F828F81E05A
:10274000848F0895FC0140875187628773870895BD
:102750002F923F924F925F926F927F928F929F92B1
:10276000AF92BF92CF92DF92EF92FF920F931F939F
:10277000CF93DF93CDB7DEB72C970FB6F894DEBFBB
:102780000FBECDBF9A8789876A017B01FC01848DCA
:10279000882309F4D6C09A01AB01608571858285D2
:1027A00093850E94401C6D837E838F839887E98583
:1027B000FA8520893189428953890E94341EE9852E
:1027C000FA8524813581468157810E94411C6983A5
:1027D0007A838B839C83472F382F292F862F942F22
:1027E000A32FB22FE985FA8584839583A683B783C7
:1027F000628D738D882777FD8095982F0E94471DE5
:102800003B011C012B018C01762F272F372D422DE8
:10281000532DB981AA81BB80AC806B2F7A2F8B2D71
:102820009A2D0E94301E18165CF4862D972DA02F2D
:10283000B32DE985FA8584839583A683B7831FC06A
:10284000E985FA85608D718D882777FD8095982FB1
:102850000E94471D4B015C019B01AC01B981AA811B
:10286000EB81FC816B2F7A2FCF010E94A51C87FF83
:1028700006C0E985FA8584829582A682B782E985B9
:10288000FA852485358546855785BD81AE81EF81E2
:10289000B8846B2F7A2F8E2F9B2D0E94341EE985D2
:1028A000FA8524813581468157810E94411C4B0164
:1028B0005C01E985FA852081318142815381C7011C
:1028C000B6010E94401CE985FA852489358946892C
:1028D00057890E94341E9B01AC01C501B4010E94BE
:1028E000401C4B015C01262D372D422D532D682DA8
:1028F000792D8A2D9B2D0E94301E1816DCF0E9855B
:10290000FA85608D718D882777FD8095982F0E94BC
:10291000471D2B018C01762F272F352D402F512F4E
:10292000682D792D8A2D9B2D0E94A51C87FD02C044
:1029300024018501E985FA85C082D182E282F38291
:1029400004C0412C512C00E010E0642D752D802F27
:10295000912F2C960FB6F894DEBF0FBECDBFDF913E
:10296000CF911F910F91FF90EF90DF90CF90BF908C
:10297000AF909F908F907F906F905F904F903F901F
:102980002F900895CB010895CF93DF9343E050E05B
:1029900065EC75E081E00E941B1543E050E064EEB9
:1029A00075E080E00E941B1540E855E260E070E0B1
:1029B0008FE892E00E94A31961E08BE00E94B716B5
:1029C00061E08AE00E94B71661E086E00E94B716D7
:1029D00061E085E00E94B71685B5887F85BD85B525
:1029E000816085BD82E990E00E94871AEC010E9417
:1029F000A100D0938102C093800289E490E00E94FC
:102A0000871AEC0160918002709181020E943D0959
:102A1000D0937F02C0937E02DF91CF910895809181
:102A20007E0290917F020E94A61180918002909177
:102A300081020C94DE018230E8F4E82FF0E0EE0F22
:102A4000FF1FEE57FD4F71836083813041F080910D
:102A500069008C7F842B80936900E89A08958091A7
:102A60006900440F551F440F551F837F842B8093AB
:102A70006900E99A08951F920F920FB60F921124E0
:102A80002F933F934F935F936F937F938F939F9376
:102A9000AF93BF93EF93FF93809182029091830253
:102AA000892B29F0E0918202F09183020995FF9130
:102AB000EF91BF91AF919F918F917F916F915F91B6
:102AC0004F913F912F910F900FBE0F901F9018952F
:102AD0001F920F920FB60F9211242F933F934F9393
:102AE0005F936F937F938F939F93AF93BF93EF9376
:102AF000FF938091840290918502892B29F0E091C7
:102B00008402F09185020995FF91EF91BF91AF91F9
:102B10009F918F917F916F915F914F913F912F91F5
:102B20000F900FBE0F901F9018951F93CF93DF93B8
:102B3000182FEB0161E00E94B716209711F460E0B6
:102B400004C0CF3FD10539F461E0812FDF91CF91EF
:102B50001F910C94EF16E12FF0E0EA57FF4FE4913C
:102B6000E330B9F028F4E13051F0E230B1F50CC0B7
:102B7000E63019F1E73049F1E43079F514C084B555
:102B8000806884BDC7BD2EC084B5806284BDC8BDC9
:102B900029C080918000806880938000D093890054
:102BA000C09388001FC08091800080628093800065
:102BB000D0938B00C0938A0015C08091B0008068CC
:102BC0008093B000C093B3000DC08091B0008062CC
:102BD0008093B000C093B40005C0C038D1050CF09C
:102BE000B3CFADCFDF91CF911F9108951F920F9278
:102BF0000FB60F9211242F933F938F939F93AF9310
:102C0000BF938091860290918702A0918802B09133
:102C1000890230918E02232F2D5F2D3720F40196EB
:102C2000A11DB11D05C0232F2A570296A11DB11D5C
:102C300020938E028093860290938702A09388024D
:102C4000B093890280918A0290918B02A0918C02AC
:102C5000B0918D020196A11DB11D80938A029093BF
:102C60008B02A0938C02B0938D02BF91AF919F9184
:102C70008F913F912F910F900FBE0F901F9018953D
:102C80000F931F938FB7F8940091860210918702DB
:102C900020918802309189028FBFB801C9011F912C
:102CA0000F910895789484B5826084BD84B5816065
:102CB00084BD85B5826085BD85B5816085BDEEE644
:102CC000F0E0808181608083E1E8F0E01082808123
:102CD00082608083808181608083E0E8F0E0808191
:102CE00081608083E1EBF0E0808184608083E0EBB1
:102CF000F0E0808181608083EAE7F0E08081846099
:102D000080838081826080838081816080838081F4
:102D1000806880831092C1000895833069F028F4A0
:102D20008130A1F0823011F514C08630B1F08730C7
:102D3000C1F08430D9F404C0809180008F7703C043
:102D4000809180008F7D80938000089584B58F7777
:102D500002C084B58F7D84BD08958091B0008F77C7
:102D600003C08091B0008F7D8093B0000895CF9311
:102D7000DF9390E0FC01E656FF4F4491FC01E255E1
:102D8000FF4F8491882341F190E0880F991FFC0147
:102D9000EA52FF4F25913491D90184539F4FFC0192
:102DA00085919491C82FD92F9FB7F8948C91611178
:102DB00006C0409584238C938881842308C06230A8
:102DC00041F4242F209582238C938881842B88833F
:102DD00002C0842B8C939FBFDF91CF9108950F93F6
:102DE0001F93CF93DF931F92CDB7DEB7282F30E02C
:102DF000F901EA57FF4F8491F901E656FF4F14910C
:102E0000F901E255FF4F04910023D1F0882321F00E
:102E100069830E948D166981E02FF0E0EE0FFF1F9D
:102E2000E453FF4F85919491DC019FB7F8948C9106
:102E3000611103C01095812301C0812B8C939FBF2A
:102E40000F90DF91CF911F910F910895CF93DF9352
:102E5000282F30E0F901EA57FF4F8491F901E65637
:102E6000FF4FD491F901E255FF4FC491CC2389F073
:102E700081110E948D16EC2FF0E0EE0FFF1FEE5334
:102E8000FF4F85919491DC018C918D2321E030E0FE
:102E900011F420E030E0C901DF91CF9108950F9344
:102EA0001F93CF93DF938230910510F482E090E07E
:102EB000E0913B03F0913C0320E030E0C0E0D0E043
:102EC00023C04081518148175907A8F04817590776
:102ED00061F482819381209719F09B838A832EC0AD
:102EE00090933C0380933B0329C02115310529F0C1
:102EF0004217530710F0A90102C0BE01DF01028191
:102F00001381EF019A01F8013097D9F621153105A7
:102F100009F1281B390B2430310590F412968D915C
:102F20009C9113976115710521F0FB0193838283B6
:102F300004C090933C0380933B03FD01329644C050
:102F4000FD01E20FF31F81939193225031092D93DC
:102F50003C933AC02091390330913A03232B41F43A
:102F6000209102013091030130933A0320933903F9
:102F700020910001309101012115310541F42DB757
:102F80003EB74091040150910501241B350BE0919F
:102F90003903F0913A03E217F307A0F42E1B3F0B1D
:102FA0002817390778F0AC014E5F5F4F24173507BB
:102FB00048F04E0F5F1F50933A03409339038193BB
:102FC000919302C0E0E0F0E0CF01DF91CF911F913B
:102FD0000F910895EF92FF920F931F93CF93DF937A
:102FE000009709F48FC0DC01129713961C921E9271
:102FF0001297E0903B03F0903C03E114F10489F454
:103000002D913C911197280F391F80913903909190
:103010003A038217930789F5B0933A03A0933903D3
:1030200071C0E70120E030E001C0EA01CA17DB0708
:1030300038F44A815B819E0141155105B1F722C0E8
:10304000BC0162507109FB01D383C28300811181ED
:10305000AC01400F511F4C175D0761F44881598145
:10306000400F511F4E5F5F4F518340834A815B8108
:10307000538342832115310529F4B0933C03A09377
:103080003B0340C0F901B383A283E90169917991BF
:10309000C60FD71FAC17BD0779F4DC015E914E91C6
:1030A000460F571F4E5F5F4F5183408312968D919D
:1030B0009C91139793838283A0E0B0E002C0D70174
:1030C0007C01F701828193810097C9F7C7010296BD
:1030D00020813181820F931F2091390330913A036F
:1030E0002817390779F4109729F410923C031092AD
:1030F0003B0304C013961C921E921297F0923A035F
:10310000E0923903DF91CF911F910F91FF90EF90E3
:103110000895FC0184859585FC01E05CFF4F2081CA
:103120003181FC01EE5BFF4F80819181281B390BBF
:103130002F733327C9010895FC0184859585FC010F
:10314000E05CFF4F40815181FC01EE5BFF4F20812D
:1031500031814217530741F00190F081E02DE80FD3
:10316000F91F208130E002C02FEF3FEFC901089521
:10317000FC0184859585FC01E05CFF4F4081518115
:10318000FC01EE5BFF4F208131814217530781F034
:10319000A081B181A80FB91F8C91208131812F5F4F
:1031A0003F4F2F73332731832083282F30E002C015
:1031B0002FEF3FEFC9010895FC0181A1882329F079
:1031C000A489B5898C9186FFFBCF11A20895CF9376
:1031D000DF93FC0126853785D901A05CBF4F8D9117
:1031E0009C91119701968F739927E901CE5BDF4F70
:1031F0004881598184179507D9F30D90BC91A02D72
:10320000A20FB31F6C93A685B785A05CBF4F119624
:103210009C938E93A689B7892C9181E090E0078CCE
:1032200002C0880F991F0A94E2F7282B2C9381E0A3
:1032300081A30488F589E02D80818064808381E00A
:1032400090E0DF91CF91089508951F920F920FB6ED
:103250000F9211242F933F934F938F939F93EF934C
:10326000FF938091C00082FD1CC04091C6008091F8
:1032700035039091360301968F7399272091370378
:10328000309138038217930771F0E0913503F09184
:103290003603EB50FD4F4083909336038093350304
:1032A00002C08091C600FF91EF919F918F914F9145
:1032B0003F912F910F900FBE0F901F9018958FE8A0
:1032C00092E00E948918892B11F00C94241908951A
:1032D0001F920F920FB60F9211242F933F938F934B
:1032E0009F93EF93FF932091F1023091F20280912E
:1032F000F3029091F4022817390731F48091C1004C
:103300008F7D8093C10014C0E091F302F091F4022C
:10331000EF54FD4F20818091F3029091F4020196C9
:103320008F7399279093F4028093F3022093C60041
:10333000FF91EF919F918F913F912F910F900FBE31
:103340000F901F901895CF92DF92EF92FF92CF933C
:10335000DF93EC016A017B01411581EE580761059D
:103360007105F9F0EC89FD8981E090E008A002C0C8
:10337000880F991F0A94E2F7808360E079E08DE37B
:1033800090E0A70196010E946E2221503109410967
:1033900051095695479537952795211580E13807AE
:1033A00098F0EC89FD89108260E874E88EE190E085
:1033B000A70196010E946E2221503109410951094D
:1033C0005695479537952795E889F9893083EA8995
:1033D000FB89208319A2EE89FF89408181E090E07A
:1033E0009C010C8C02C0220F331F0A94E2F7422B7F
:1033F0004083EE89FF8940819C010D8C02C0220F21
:10340000331F0A94E2F7422B4083EE89FF89408103
:103410009C010E8C02C0220F331F0A94E2F7422B4C
:103420004083EE89FF8920810F8C02C0880F991F8D
:103430000A94E2F7809582238083DF91CF91FF90F9
:10344000EF90DF90CF900895109292021092910227
:1034500088EE93E0A0E0B0E0809393029093940212
:10346000A0939502B093960288E692E09093900222
:1034700080938F0285EF92E090939C0280939B0251
:1034800081EB92E090939E0280939D0285EC90E008
:103490009093A00280939F0284EC90E09093A2020C
:1034A0008093A10280EC90E09093A4028093A30209
:1034B00081EC90E09093A6028093A50282EC90E0CC
:1034C0009093A8028093A70286EC90E09093AA02C2
:1034D0008093A90284E08093AB0283E08093AC02E6
:1034E00087E08093AD0285E08093AE0281E0809317
:1034F000AF0208950E9452160E94C414CFE5D9E18C
:103500000E940F152097E1F30E945F19F9CF0C94E8
:103510004F170C94EA17CF92DF92EF92FF920F931E
:103520001F93CF93DF936C01EB017A01E60EF71E38
:1035300000E010E00BC06991D601ED91FC91019083
:10354000F081E02DC6010995080F191FCE15DF0582
:1035500091F7C801DF91CF911F910F91FF90EF90EC
:10356000DF90CF9008956115710581F0DB010D901A
:103570000020E9F7AD0141505109461B570BDC0112
:10358000ED91FC910280F381E02D099480E090E0C0
:1035900008950C94B31ADC01ED91FC910190F08137
:1035A000E02D09940F931F93CF93DF93EC016DE00F
:1035B0000E94CB1A8C016AE0CE010E94CB1A9C01BA
:1035C000200F311FC901DF91CF911F910F910895F5
:1035D0000F931F93CF93DF93EC010E94B31A8C01DA
:1035E000CE010E94D21A9801280F391FC901DF911C
:1035F000CF911F910F9108954F925F926F927F929A
:103600009F92AF92BF92CF92DF92EF92FF920F9371
:103610001F93CF93DF93CDB7DEB7A1970FB6F89482
:10362000DEBF0FBECDBF5C016A017B01922E19A2E5
:1036300081E0821710F08AE0982E8E010F5D1F4FF7
:10364000492C512C612C712CC701B601A3019201A8
:103650000E946E228C2D929E801911240150110916
:103660008A3014F4805D01C0895CF80180836901AF
:103670007A01C114D104E104F10431F7B801C501A4
:103680000E94B31AA1960FB6F894DEBF0FBECDBF4D
:10369000DF91CF911F910F91FF90EF90DF90CF902E
:1036A000BF90AF909F907F906F905F904F900895E4
:1036B000CF92DF92EF92FF920F931F93CF93DF93FE
:1036C000EC016A017B012115310579F4E881F9816A
:1036D0000190F081E02D642FDF91CF911F910F9128
:1036E000FF90EF90DF90CF9009942A30310519F4C4
:1036F00077FD0EC02AE0B701A601CE01DF91CF9180
:103700001F910F91FF90EF90DF90CF900C94FC1AD7
:103710006DE20E94CB1A8C0144275527BA014C193F
:103720005D096E097F092AE0CE010E94FC1A080F8C
:10373000191FC801DF91CF911F910F91FF90EF905A
:10374000DF90CF9008959A01AB01662757FD6095F1
:10375000762F0C94581B0F931F93CF93DF93EC019C
:103760009A01AB01662757FD6095762F0E94581B82
:103770008C01CE010E94D21A9801280F391FC9016D
:10378000DF91CF911F910F910895FC018827992710
:10379000E89421912032E9F3293010F02E30C8F35B
:1037A0002B3241F02D3239F4689404C00E941D1C64
:1037B000820F911D219120532A30C0F31EF4909561
:1037C00081959F4F0895F8940C94CD229111D2C504
:1037D000803219F089508550D0F70895FB01DC0143
:1037E00004C08D910190801921F441505040C8F7D8
:1037F000881B990B0895FB01DC0102C001900D921A
:1038000041505040D8F708956817790768F4FB01D4
:10381000DC01E40FF51FA40FB51F02C002900E9249
:1038200041505040D8F708950C94FB1BDC0101C0B7
:103830006D9341505040E0F708957AE0979F902DA6
:10384000879F802D910D11240895A0E1B0E0EBE257
:10385000FCE10C94A02285E08C838D899E899A835B
:103860008983AE01475E5F4F588B4F876F89788D94
:10387000CE0101960E948C206096E2E00C94BC225E
:103880005058BB27AA270ED0A0C169D130F06ED105
:1038900020F031F49F3F11F41EF45EC10EF4E09568
:1038A000E7FB54C1E92FB3D180F3BA17620773075E
:1038B0008407950718F071F49EF5CBC10EF4E095DE
:1038C0000B2EBA2FA02D0B01B90190010C01CA01DA
:1038D000A0011124FF27591B99F0593F50F4503E85
:1038E00068F11A16F040A22F232F342F4427585F77
:1038F000F3CF469537952795A795F0405395C9F78F
:103900007EF41F16BA0B620B730B840BBAF0915046
:10391000A1F0FF0FBB1F661F771F881FC2F70EC0E5
:10392000BA0F621F731F841F48F4879577956795B8
:10393000B795F7959E3F08F0B3CF9395880F08F0A1
:103940009927EE0F979587950895DCD008F481E0CC
:10395000089514D1E3954AC10CD037C107D140F086
:10396000FED030F021F45F3F19F0F0C0511172C168
:10397000F3C04DD198F39923C9F35523B1F3951BA7
:10398000550BBB27AA2762177307840738F09F5F80
:103990005F4F220F331F441FAA1FA9F333D00E2EEF
:1039A0003AF0E0E830D091505040E695001CCAF75C
:1039B00029D0FE2F27D0660F771F881FBB1F261721
:1039C00037074807AB07B0E809F0BB0B802DBF01F4
:1039D000FF2793585F4F2AF09E3F510568F0B6C00D
:1039E00039C15F3FECF3983EDCF386957795679598
:1039F000B795F7959F5FC9F7880F911D96958795A5
:103A000097F90895E1E0660F771F881FBB1F6217C3
:103A100073078407BA0720F0621B730B840BBA0B81
:103A2000EE1F88F7E095089504D06894B11112C193
:103A30000895F5D088F09F5790F0B92F9927B75186
:103A4000A0F0D1F0660F771F881F991F1AF0BA9562
:103A5000C9F712C0B13081F0FCD0B1E00895F9C0CF
:103A6000672F782F8827B85F39F0B93FCCF3869558
:103A700077956795B395D9F73EF4909580957095B5
:103A800061957F4F8F4F9F4F0895E89409C097FB32
:103A90003EF490958095709561957F4F8F4F9F4F25
:103AA0009923A9F0F92F96E9BB279395F695879569
:103AB00077956795B795F111F8CFFAF4BB0F11F42C
:103AC00060FF1BC06F5F7F4F8F4F9F4F16C08823D3
:103AD00011F096E911C0772321F09EE8872F762F09
:103AE00005C0662371F096E8862F70E060E02AF04A
:103AF0009A95660F771F881FDAF7880F9695879536
:103B000097F90895990F0008550FAA0BE0E8FEEF0A
:103B100016161706E807F907C0F012161306E40791
:103B2000F50798F0621B730B840B950B39F40A268A
:103B300061F0232B242B252B21F408950A2609F468
:103B4000A140A6958FEF811D811D089597F99F676C
:103B500080E870E060E008959FEF80EC0895002415
:103B60000A941616170618060906089500240A94E2
:103B700012161306140605060895EECF50D0E8F38A
:103B8000E894E0E0BB279F57F0F02AED3FE049ECD6
:103B900006C0EE0FBB0F661F771F881F28F0B23AD2
:103BA00062077307840728F0B25A620B730B840B09
:103BB000E3959A9572F7803830F49A95BB0F661F9B
:103BC000771F881FD2F7904840C4092E0394000C39
:103BD00011F4882352F0BB0F40F4BF2B11F460FFA7
:103BE00004C06F5F7F4F8F4F9F4F0895EF93E0FFAB
:103BF00006C0A2EA2AED3FE049EC5FEB53DEE5DFC9
:103C00000F90039401FC9058E8E6F0E031C457FDB2
:103C10009058440F551F59F05F3F71F04795880F3A
:103C200097FB991F61F09F3F79F0879508951216D1
:103C300013061406551FF2CF4695F1DF08C016167D
:103C400017061806991FF1CF86957105610508942E
:103C50000895E894BB2766277727CB0197F9089545
:103C600051DF08F48FEF08950BD0AFCF78DF28F045
:103C70007DDF18F0952309F069CF6ECF1124EACFCC
:103C8000C6DFA0F3959FD1F3950F50E0551F629FBB
:103C9000F001729FBB27F00DB11D639FAA27F00DA5
:103CA000B11DAA1F649F6627B00DA11D661F829FCC
:103CB0002227B00DA11D621F739FB00DA11D621FB1
:103CC000839FA00D611D221F749F3327A00D611DCE
:103CD000231F849F600D211D822F762F6A2F1124B0
:103CE0009F5750408AF0E1F088234AF0EE0FFF1F03
:103CF000BB1F661F771F881F91505040A9F79E3F3A
:103D0000510570F023CFA6CF5F3FECF3983EDCF374
:103D1000869577956795B795F795E7959F5FC1F776
:103D2000FE2B880F911D9695879597F908959F937F
:103D300025DF0F9007FCEE5F59CF11F40EF40CCF86
:103D400082C36DDFD0F39923D9F3CEF39F57550B80
:103D500087FF87D30024A0E640EA9001805856955B
:103D6000979528F4805C660F771F881F20F0261730
:103D70003707480730F4621B730B840B2029312965
:103D80004A2BA69517940794202531254A2758F7E2
:103D9000660F771F881F20F026173707480730F473
:103DA000620B730B840B200D311D411DA09581F713
:103DB000B901842F9158880F96958795089520FD15
:103DC00009C0FC0123FD05C022FF02C0738362838A
:103DD000518340830895CF92DF92EF92FF920F9329
:103DE0001F9344FD10C046FD10C0DB01FC01AA0F6B
:103DF000BB1FEE1FFF1F1094D1F76A0F7B1F8E1F92
:103E00009F1F31E003C033E001C034E0660F771F2D
:103E1000881F991F3150D1F76B017C01C20ED11C54
:103E2000E11CF11C97018601B601C9011F910F9198
:103E3000FF90EF90DF90CF9008950F931F93CF9353
:103E4000DF938C01C8010E94C821EC0197FD08C0D6
:103E50000E94E61B892BB1F7B801CE010E9408220F
:103E6000CE01DF91CF911F910F9108958F929F9274
:103E7000AF92CF92DF92EF92FF920F931F93CF9367
:103E8000DF93EC01A62E4A01022F0E94C821FC01FB
:103E9000FF27EB32F10519F0BD9751F40068AA94A1
:103EA00011F480E063C0CE010E94C82197FDF9CFD4
:103EB000102F1D7F302F3073E1F48033D1F4AA949A
:103EC00009F440C0CE010E94C82197FD3BC088374D
:103ED00011F0883549F41264AA94A1F1CE010E9430
:103EE000C82197FF06C02EC006FF02C0126001C0A5
:103EF0001261C12CD12C7601282F2053283080F05C
:103F000014FF04C0BE010E94082219C02A3040F0EC
:103F100016FFF8CF2F7D322F3151363098F72750CA
:103F2000412FC701B6010E94EB1E6B017C0112609C
:103F3000AA9459F0CE010E94C82197FFDDCF11FD50
:103F400004C0AFCFC12CD12C760117FF08C0F0946C
:103F5000E094D094C094C11CD11CE11CF11C212F11
:103F6000B701A601C4010E94DF1E81E0DF91CF915D
:103F70001F910F91FF90EF90DF90CF90AF909F90A7
:103F80008F9008956F927F929F92AF92BF92CF923F
:103F9000DF92EF92FF920F931F93CF93DF93CDB7F2
:103FA000DEB7A1970FB6F894DEBF0FBECDBF6C0190
:103FB0007A018901FE01319680E2DF011D928A9526
:103FC000E9F7D60113969C9020E030E0A12CA0E008
:103FD000B12CCF0141E050E0F80193FC759193FEC4
:103FE00071918F01711103C000E010E080C07E3537
:103FF00019F42115310559F1EB2DF0E0E217F30723
:104000003CF47D3569F17D3219F4AA2319F103C01E
:10401000A11101C0A72EE72FE695E695E6953C0194
:104020006E0E711CF301A72FA7703A0102C0660C37
:10403000771CAA95E2F7D301B081BA2BB0837A1529
:1040400059F07A1510F47F5FE6CF7150E4CFBB24AE
:10405000B39403C0A1E001C0A0E02F5F3F4FBCCFED
:10406000AA2319F08E8180628E83B11003C0BB2415
:10407000B3940BC0FE013196CE018196208120952C
:104080002193E817F907D1F7F2CFC60169A30E947F
:10409000C82169A197FD24C0282F2695269526952D
:1040A000E1E0F0E0EC0FFD1FE20FF11D208130E0B8
:1040B000AC014770552702C0359527954A95E2F720
:1040C00020FD04C0B6010E9408220AC0E114F104D8
:1040D00019F0D7018D937D016150B12CB1F602C06A
:1040E000B11082CFE114F10411F0F7011082C80180
:1040F000A1960FB6F894DEBF0FBECDBFDF91CF9172
:104100001F910F91FF90EF90DF90CF90BF90AF90F5
:104110009F907F906F9008954F925F927F928F92C1
:104120009F92AF92BF92CF92DF92EF92FF920F9346
:104130001F93CF93DF931F92CDB7DEB78C012B0176
:104140005A01FC0117821682812CF0C08E2D90E05E
:104150000E94E61B892B21F0C8010E941D1FE6C0AA
:10416000F5E2EF120AC0F201F3FC3591F3FE319152
:104170002F01353271F455E2E52EC8010E94C821A5
:1041800097FDDFC0E81609F4D1C0B8010E940822EB
:10419000DAC03A3241F4F3FC3591F3FE31912F014C
:1041A0009924939401C0912C712C10C0F2E09F2AA5
:1041B000672D70E080E090E040E20E94EB1E762EDA
:1041C000F201F3FC3591F3FE31912F01232F20539F
:1041D0002A3060F391FE03C0711003C0B4C077248D
:1041E0007A94383619F03C3699F40AC0F201F3FC9F
:1041F0003591F3FE31912F01383651F4F8E09F2AC2
:1042000084E0982AF201F3FC3591F3FE31912F01FD
:10421000332309F498C0632F70E080EE90E0398377
:104220000E94BD213981892B09F48DC090FC07C003
:10423000F501E080F18082E0A80EB11C02C0E12C03
:10424000F12C3E3651F4F8014681578160E070E070
:10425000292DC7010E94DF1E69C0333691F491FCFD
:1042600002C077247394C8010E94C82197FD69C0D9
:10427000E114F10419F0F70181937F017A9499F721
:1042800053C03B3559F49201A701672DC8010E9424
:10429000C21F2C01009709F047C041C0C8013983F3
:1042A0000E941D1F398197FD4CC03F3659F128F4FB
:1042B000343629F1393649F52AC0333719F0353704
:1042C00021F51DC0C8010E94C8216C0197FD11C0D5
:1042D0000E94E61B892B29F0B801C6010E94082222
:1042E00008C0E114F10419F0F701C1927F017A943A
:1042F00049F7E114F104C1F0F701108215C0F0E2B2
:104300009F2A05C080E1982A02C090E4992A292DAD
:10431000A701672DC8010E94361F811105C0F80151
:104320008381807371F40FC090FE8394F801F38051
:10433000F201F3FCE590F3FEE1902F01E11006CFCE
:1043400002C0882019F0282D30E002C02FEF3FEF87
:10435000C9010F90DF91CF911F910F91FF90EF90C6
:10436000DF90CF90BF90AF909F908F907F905F90A5
:104370004F900895992788270895FC010590061607
:1043800021F00020D9F7C00108953197CF01089599
:10439000CF93DF93EC013B8130FF34C036FF0AC07E
:1043A0003F7B3B838E819F8101969F838E832A81F1
:1043B00030E02AC032FF0FC0E881F981808199275F
:1043C00087FD9095009719F430623B831BC03196AE
:1043D000F983E8830EC0EA85FB85099597FF09C03C
:1043E0002B81019611F480E101C080E2822B8B8346
:1043F00009C02E813F812F5F3F4F3F832E839C0159
:10440000332702C02FEF3FEFC901DF91CF9108950D
:10441000FB01238120FF13C026FD11C08F3F3FEF1A
:10442000930769F082832F7D20642383268137815F
:1044300021503109378326839C01332702C02FEF97
:104440003FEFC90108959F3F31F0915020F48795C7
:1044500077956795B795880F911D9695879597F9EC
:10446000089591505040660F771F881FD2F7089526
:104470009F938F937F936F93FF93EF939B01AC0177
:10448000F3DBEF91FF9105D02F913F914F915F9119
:10449000EBCBDF93CF931F930F93FF92EF92DF92BB
:1044A0007B018C01689405C0DA2EEF01E9DBFE0187
:1044B000E894A5912591359145915591AEF3EF0181
:1044C000F1D9FE019701A801DA9479F7DF90EF9016
:1044D000FF900F911F91CF91DF910895A1E21A2EC5
:1044E000AA1BBB1BFD010DC0AA1FBB1FEE1FFF1F98
:1044F000A217B307E407F50720F0A21BB30BE40BE8
:10450000F50B661F771F881F991F1A9469F760952E
:104510007095809590959B01AC01BD01CF010895E8
:104520002F923F924F925F926F927F928F929F92C3
:10453000AF92BF92CF92DF92EF92FF920F931F93B1
:10454000CF93DF93CDB7DEB7CA1BDB0B0FB6F89462
:10455000DEBF0FBECDBF09942A88398848885F84A2
:104560006E847D848C849B84AA84B984C884DF8013
:10457000EE80FD800C811B81AA81B981CE0FD11DF7
:104580000FB6F894DEBF0FBECDBFED010895EE0F5C
:0E459000FF1F0590F491E02D0994F894FFCFE1
:10459E0000003D03800074727565005472756500ED
:1045AE0054525545003100256400256F00255800F2
:1045BE002578002569006F7264726520696E64202B
:1045CE003D200040005265676C616765204F646F47
:1045DE0000526563616C206172726965726500528A
:1045EE006563616C206176616E7400424643617052
:1045FE00200042464176616E636500424644726F0A
:10460E00697465004246436572636C65004172725F
:10461E00657420526F626F740052657072656E64BD
:10462E00726500736574585943617000657272202B
:10463E000046696E206465206C69676E6500456E84
:10464E007265676973747265203A20002020736565
:10465E007269616C5F636F756E74202000636F7595
:10466E00636F75002000000000000A082E08E0FFAE
:10467E00E0FF0000240838082000000000000906B2
:10468E006A07E0FFE0FF0000130675070000000058
:10469E000306630700000000EE070008420643060B
:1046AE00330C44064D0650065D069406AA06C10656
:1046BE00C812270A000000001D065C074206EF061E
:1046CE00F206F5063F06F806FB063C0623063A06FA
:1046DE000107FF0606000000000009066A07FAFF40
:1046EE00FAFF000013067507DA01EE01F801E40186
:1046FE004A02540200000000E7188B1A8918B818F5
:04470E009C18DC18FF
:00000001FF
