:100000000C9471000C94C6020C94F3020C949900A9
:100010000C9499000C9499000C9499000C949900FC
:100020000C9499000C9499000C9499000C949900EC
:100030000C9499000C9499000C9499000C949900DC
:100040000C9420030C9499000C94DE040C9421056C
:100050000C9499000C9499000C9499000C949900BC
:100060000C9499000C94990005A84CCDB2D44EB9CB
:100070003836A9020C50B9918688083CA6AAAA2A4B
:10008000BE000000803F00000007000201000003E6
:100090000406000000000000000001020408102017
:1000A000408001020408102001020408102004040A
:1000B0000404040404040202020202020303030310
:1000C00003030000000023002600290000000000B8
:1000D000250028002B0000000000240027002A0033
:1000E000DD0511241FBECFEFD8E0DEBFCDBF11E08C
:1000F000A0E0B1E0EAE5F3E102C005900D92A6317F
:10010000B107D9F711E0A6E1B1E001C01D92AB3D06
:10011000B107E1F710E0C2EED0E004C02297FE0183
:100120000E94A709C03ED107C9F70E9433060C946C
:10013000A4070C9400008F929F92AF92BF92CF922F
:10014000DF92EF92FF92CF93DF93EC016A017B0184
:1001500088849984AA84BB84C501B4010E940C08D8
:100160009B01AC01C701B6010E94D6089B01AC01FE
:10017000688179818A819B810E94A807688379833D
:100180008A839B83C501B4010E9439099B01AC019C
:10019000C701B6010E94D6089B01AC016C817D812C
:1001A0008E819F810E94A8076C837D838E839F83AD
:1001B000DF91CF91FF90EF90DF90CF90BF90AF9005
:1001C0009F908F900895CF93DF93EC01188219824E
:1001D0001A821B821C821D821E821F82188619862B
:1001E0001A861B866AE070E00C960E9438026EE167
:1001F00070E0CE0144960E94380240E050E060E892
:100200007FE34C8F5D8F6E8F7F8F48A359A36AA3C6
:100210007BA34DEC5CEC6CE47DE34CA35DA36EA38F
:100220007FA319A618A61BA61AA6DF91CF91089541
:100230008F929F92AF92BF92CF92DF92EF92FF92F6
:10024000CF93DF93EC01C8A0D9A0EAA0FBA06091F6
:1002500016017091170180911801909119010E9467
:100260001108A70196010E94D6084B015C0160911C
:100270001A0170911B0180911C0190911D010E9437
:100280001108A70196010E94D6089B01AC01C50187
:10029000B4010E94A7072CA13DA14EA15FA10E941D
:1002A000D608688779878A879B87DF91CF91FF90EF
:1002B000EF90DF90CF90BF90AF909F908F90089578
:1002C0004F925F926F927F92AF92BF92CF92DF92E6
:1002D000EF92FF920F931F93CF93DF93EC010E9455
:1002E0001801C8A0D9A0EAA0FBA00AE111E0F8011A
:1002F0006081718188A599A5681B790B882777FD96
:100300008095982F0E941108A70196010E94D60897
:100310002B013C0186E1A82E81E0B82EF501608119
:1003200071818AA59BA5681B790B882777FD80952D
:10033000982F0E941108A70196010E94D6089B01E0
:10034000AC01C301B2010E94A80720E030E040E008
:100350005FE30E94D608AB01BC01CE010E949B0066
:10036000F501808191819BA78AA7F8018081918105
:1003700099A788A7DF91CF911F910F91FF90EF90E0
:10038000DF90CF90BF90AF907F906F905F904F9035
:1003900008950F931F93CF93DF93EC018C01045FBB
:1003A0001F4FC8010E944402882331F0C8010E94F7
:1003B0002C02CE010E9460016496CE010E9444028C
:1003C000882339F0CE01DF91CF911F910F910C94CA
:1003D0002C02DF91CF911F910F91089588E00E9428
:1003E000190440911A0150911B0160911C017091F8
:1003F0001D01019729F44F5F5F4F6F4F7F4F04C07E
:10040000415051096109710940931A0150931B0130
:1004100060931C0170931D01089589E00E941904E6
:1004200040911601509117016091180170911901C6
:10043000019729F44F5F5F4F6F4F7F4F04C04150CA
:100440005109610971094093160150931701609396
:100450001801709319010895CF93DF93EC010E9466
:100460006A036C837D838E839F83DF91CF91089590
:10047000AB01662757FD6095762FFC0140835183C1
:10048000628373830C942C020F931F93CF93DF939B
:10049000EC010E946A030C811D812E813F81601B4B
:1004A000710B820B930B41E0088119812A813B81FA
:1004B00006171707280739070CF040E0842FDF9153
:1004C000CF911F910F910895CF93DF9343E050E0B8
:1004D0006EEE71E081E00E94A60243E050E06DE024
:1004E00072E080E00E94A60240E855E260E070E021
:1004F0008DE291E00E945C0561E08BE00E94E103E7
:1005000061E08AE00E94E10361E086E00E94E1038D
:1005100061E085E00E94E10385B5887F85BD85B5F2
:10052000816085BD8CE290E00E944006EC010E9453
:10053000E300D0931F01C0931E01DF91CF91089576
:1005400080911E0190911F010C94C9018230E8F442
:10055000E82FF0E0EE0FFF1FE05EFE4F7183608337
:10056000813041F0809169008C7F842B80936900F9
:10057000E89A089580916900440F551F440F551F54
:10058000837F842B80936900E99A08951F920F92CC
:100590000FB60F9211242F933F934F935F936F9356
:1005A0007F938F939F93AF93BF93EF93FF9380912C
:1005B000200190912101892B29F0E0912001F091F7
:1005C00021010995FF91EF91BF91AF919F918F917B
:1005D0007F916F915F914F913F912F910F900FBE3F
:1005E0000F901F9018951F920F920FB60F92112423
:1005F0002F933F934F935F936F937F938F939F932B
:10060000AF93BF93EF93FF938091220190912301C9
:10061000892B29F0E0912201F09123010995FF91A6
:10062000EF91BF91AF919F918F917F916F915F916A
:100630004F913F912F910F900FBE0F901F901895E3
:100640001F920F920FB60F9211242F933F938F9307
:100650009F93AF93BF938091240190912501A09126
:100660002601B091270130912C01232F2D5F2D37CA
:1006700020F40196A11DB11D05C0232F2A57029613
:10068000A11DB11D20932C0180932401909325017D
:10069000A0932601B0932701809128019091290110
:1006A000A0912A01B0912B010196A11DB11D80934B
:1006B000280190932901A0932A01B0932B01BF91A7
:1006C000AF919F918F913F912F910F900FBE0F90FF
:1006D0001F9018950F931F938FB7F89400912401E2
:1006E0001091250120912601309127018FBFB8017B
:1006F000C9011F910F910895789484B5826084BDDB
:1007000084B5816084BD85B5826085BD85B5816015
:1007100085BDEEE6F0E0808181608083E1E8F0E075
:100720001082808182608083808181608083E0E8A4
:10073000F0E0808181608083E1EBF0E08081846083
:100740008083E0EBF0E0808181608083EAE7F0E085
:1007500080818460808380818260808380818160E9
:1007600080838081806880831092C10008958330E7
:1007700069F028F48130A1F0823011F514C0863080
:10078000B1F08730C1F08430D9F404C0809180008A
:100790008F7703C0809180008F7D809380000895C3
:1007A00084B58F7702C084B58F7D84BD0895809114
:1007B000B0008F7703C08091B0008F7D8093B00030
:1007C0000895CF93DF9390E0FC01E656FF4F4491EC
:1007D000FC01E255FF4F8491882341F190E0880F9E
:1007E000991FFC01EA52FF4F25913491D90184539E
:1007F0009F4FFC0185919491C82FD92F9FB7F894F2
:100800008C91611106C0409584238C938881842348
:1008100008C0623041F4242F209582238C93888174
:10082000842B888302C0842B8C939FBFDF91CF9150
:100830000895CF93DF93282F30E0F901EA57FF4F57
:100840008491F901E656FF4FD491F901E255FF4F2B
:10085000C491CC2389F081110E94B703EC2FF0E002
:10086000EE0FFF1FEE53FF4F85919491DC018C91A9
:100870008D2321E030E011F420E030E0C901DF9168
:10088000CF910895FC0184859585FC01E05CFF4FC4
:1008900020813181FC01EE5BFF4F80819181281B1B
:1008A000390B2F733327C9010895FC018485958581
:1008B000FC01E05CFF4F40815181FC01EE5BFF4F8A
:1008C000208131814217530741F00190F081E02DE2
:1008D000E80FF91F208130E002C02FEF3FEFC90180
:1008E0000895FC0184859585FC01E05CFF4F408103
:1008F0005181FC01EE5BFF4F20813181421753078C
:1009000081F0A081B181A80FB91F8C912081318124
:100910002F5F3F4F2F73332731832083282F30E001
:1009200002C02FEF3FEFC9010895FC0181A1882388
:1009300029F0A489B5898C9186FFFBCF11A2089577
:10094000CF93DF93FC0126853785D901A05CBF4F8B
:100950008D919C91119701968F739927E901CE5B38
:10096000DF4F4881598184179507D9F30D90BC91C9
:10097000A02DA20FB31F6C93A685B785A05CBF4FB7
:1009800011969C938E93A689B7892C9181E090E073
:10099000078C02C0880F991F0A94E2F7282B2C932A
:1009A00081E081A30488F589E02D808180648083C3
:1009B00081E090E0DF91CF91089508951F920F920A
:1009C0000FB60F9211242F933F934F938F939F93C2
:1009D000EF93FF938091C00082FD1CC04091C60040
:1009E0008091D3019091D40101968F739927209122
:1009F000D5013091D6018217930771F0E091D301B0
:100A0000F091D401ED56FE4F40839093D401809332
:100A1000D30102C08091C600FF91EF919F918F9109
:100A20004F913F912F910F900FBE0F901F901895EF
:100A30008DE291E00E944204892B11F00C94DD04B8
:100A400008951F920F920FB60F9211242F933F9388
:100A50008F939F93EF93FF9320918F01309190019B
:100A600080919101909192012817390731F480917A
:100A7000C1008F7D8093C10014C0E0919101F0917D
:100A80009201E15BFE4F2081809191019091920152
:100A900001968F73992790939201809391012093EF
:100AA000C600FF91EF919F918F913F912F910F90F1
:100AB0000FBE0F901F901895CF92DF92EF92FF928A
:100AC000CF93DF93EC016A017B01411581EE58075A
:100AD00061057105F9F0EC89FD8981E090E008A0DD
:100AE00002C0880F991F0A94E2F7808360E079E0E2
:100AF0008DE390E0A70196010E94830921503109FE
:100B0000410951095695479537952795211580E15B
:100B1000380798F0EC89FD89108260E874E88EE16E
:100B200090E0A70196010E948309215031094109F3
:100B300051095695479537952795E889F989308366
:100B4000EA89FB89208319A2EE89FF89408181E02F
:100B500090E09C010C8C02C0220F331F0A94E2F734
:100B6000422B4083EE89FF8940819C010D8C02C09D
:100B7000220F331F0A94E2F7422B4083EE89FF894C
:100B800040819C010E8C02C0220F331F0A94E2F7B1
:100B9000422B4083EE89FF8920810F8C02C0880F91
:100BA000991F0A94E2F7809582238083DF91CF9189
:100BB000FF90EF90DF90CF90089510923001109247
:100BC0002F0188EE93E0A0E0B0E080933101909394
:100BD0003201A0933301B09334018AE091E0909305
:100BE0002E0180932D0183E991E090933A01809347
:100BF00039018FE491E090933C0180933B0185ECB7
:100C000090E090933E0180933D0184EC90E09093BE
:100C1000400180933F0180EC90E0909342018093EB
:100C2000410181EC90E0909344018093430182EC78
:100C300090E0909346018093450186EC90E090937C
:100C400048018093470184E08093490183E08093C9
:100C50004A0187E080934B0185E080934C0181E05D
:100C600080934D0108950E947C030E946402C8E1B4
:100C7000D5E00E94A0022097E1F30E941805F9CF69
:100C80000C946A06CF92DF92EF92FF920F931F931C
:100C9000CF93DF936C01EB017A01E60EF71E00E0C3
:100CA00010E00BC06991D601ED91FC910190F081AB
:100CB000E02DC6010995080F191FCE15DF0591F724
:100CC000C801DF91CF911F910F91FF90EF90DF90BE
:100CD000CF9008950F931F93CF93DF9382309105A8
:100CE00010F482E090E0E091D901F091DA0120E087
:100CF00030E0C0E0D0E023C040815181481759075F
:100D0000A8F04817590761F482819381209719F060
:100D10009B838A832EC09093DA018093D90129C0E6
:100D20002115310529F04217530710F0A90102C01F
:100D3000BE01DF0102811381EF019A01F8013097B2
:100D4000D9F62115310509F1281B390B243031055D
:100D500090F412968D919C9113976115710521F075
:100D6000FB019383828304C09093DA018093D901BD
:100D7000FD01329644C0FD01E20FF31F8193919370
:100D8000225031092D933C933AC02091D7013091E4
:100D9000D801232B41F420910201309103013093BB
:100DA000D8012093D7012091000130910101211534
:100DB000310541F42DB73EB7409104015091050132
:100DC000241B350BE091D701F091D801E217F3070E
:100DD000A0F42E1B3F0B2817390778F0AC014E5FAB
:100DE0005F4F2417350748F04E0F5F1F5093D8010F
:100DF0004093D7018193919302C0E0E0F0E0CF01EE
:100E0000DF91CF911F910F910895EF92FF920F9371
:100E10001F93CF93DF93009709F48FC0DC011297E3
:100E200013961C921E921297E090D901F090DA016D
:100E3000E114F10489F42D913C911197280F391F89
:100E40008091D7019091D8018217930789F5B093CB
:100E5000D801A093D70171C0E70120E030E001C0C4
:100E6000EA01CA17DB0738F44A815B819E0141150C
:100E70005105B1F722C0BC0162507109FB01D38357
:100E8000C28300811181AC01400F511F4C175D07D7
:100E900061F448815981400F511F4E5F5F4F51836C
:100EA00040834A815B81538342832115310529F4B4
:100EB000B093DA01A093D90140C0F901B383A283B2
:100EC000E90169917991C60FD71FAC17BD0779F475
:100ED000DC015E914E91460F571F4E5F5F4F51836D
:100EE000408312968D919C91139793838283A0E007
:100EF000B0E002C0D7017C01F701828193810097A5
:100F0000C9F7C701029620813181820F931F20917A
:100F1000D7013091D8012817390779F4109729F4AF
:100F20001092DA011092D90104C013961C921E92FD
:100F30001297F092D801E092D701DF91CF911F91E3
:100F40000F91FF90EF900895F8940C94AB095058CE
:100F5000BB27AA270ED0DFC0A8D030F0ADD020F03C
:100F600031F49F3F11F41EF49DC00EF4E095E7FBB1
:100F700093C0E92FF2D080F3BA1762077307840792
:100F8000950718F071F49EF50AC10EF4E0950B2E4A
:100F9000BA2FA02D0B01B90190010C01CA01A001CB
:100FA0001124FF27591B99F0593F50F4503E68F126
:100FB0001A16F040A22F232F342F4427585FF3CF67
:100FC000469537952795A795F0405395C9F77EF438
:100FD0001F16BA0B620B730B840BBAF09150A1F081
:100FE000FF0FBB1F661F771F881FC2F70EC0BA0F07
:100FF000621F731F841F48F4879577956795B7958F
:10100000F7959E3F08F0B3CF9395880F08F0992786
:10101000EE0F97958795089557D0E3958DC0E89486
:1010200009C097FB3EF490958095709561957F4F30
:101030008F4F9F4F9923A9F0F92F96E9BB279395DE
:10104000F695879577956795B795F111F8CFFAF4EE
:10105000BB0F11F460FF1BC06F5F7F4F8F4F9F4F1F
:1010600016C0882311F096E911C0772321F09EE87D
:10107000872F762F05C0662371F096E8862F70E0E3
:1010800060E02AF09A95660F771F881FDAF7880FBD
:101090009695879597F9089597F99F6780E870E08E
:1010A00060E008959FEF80EC089500240A941616DE
:1010B000170618060906089500240A941216130646
:1010C000140605060895EECF50D0E8F3E894E0E06A
:1010D000BB279F57F0F02AED3FE049EC06C0EE0F2A
:1010E000BB0F661F771F881F28F0B23A620773078D
:1010F000840728F0B25A620B730B840BE3959A9520
:1011000072F7803830F49A95BB0F661F771F881FDF
:10111000D2F79048B6C0092E0394000C11F488232E
:1011200052F0BB0F40F4BF2B11F460FF04C06F5F9F
:101130007F4F8F4F9F4F0895EF93E0FF06C0A2EAC5
:101140002AED3FE049EC5FEB14DFE5DF0F900394FD
:1011500001FC9058E8E6F0E0A0C057FD9058440F1D
:10116000551F59F05F3F71F04795880F97FB991F06
:1011700061F09F3F79F087950895121613061406C3
:10118000551FF2CF4695F1DF08C016161706180650
:10119000991FF1CF86957105610508940895E8942B
:1011A000BB2766277727CB0197F908950BD0B3CFDC
:1011B0007CDF28F081DF18F0952309F06DCF72CF26
:1011C0001124EECFCADFA0F3959FD1F3950F50E025
:1011D000551F629FF001729FBB27F00DB11D639FE9
:1011E000AA27F00DB11DAA1F649F6627B00DA11D8F
:1011F000661F829F2227B00DA11D621F739FB00D35
:10120000A11D621F839FA00D611D221F749F3327A4
:10121000A00D611D231F849F600D211D822F762F3D
:101220006A2F11249F5750408AF0E1F088234AF03A
:10123000EE0FFF1FBB1F661F771F881F9150504086
:10124000A9F79E3F510570F027CFAACF5F3FECF37F
:10125000983EDCF3869577956795B795F795E79572
:101260009F5FC1F7FE2B880F911D9695879597F983
:1012700008959F9329DF0F9007FCEE5F5DCF9F3F9E
:1012800031F0915020F4879577956795B795880F41
:10129000911D9695879597F908959F938F937F93C6
:1012A0006F93FF93EF939B01AC0180DFEF91FF9170
:1012B00005D02F913F914F915F9178CFDF93CF93DE
:1012C0001F930F93FF92EF92DF927B018C01689442
:1012D00005C0DA2EEF0176DFFE01E894A591259195
:1012E000359145915591AEF3EF0143DEFE01970133
:1012F000A801DA9479F7DF90EF90FF900F911F919A
:10130000CF91DF910895A1E21A2EAA1BBB1BFD010C
:101310000DC0AA1FBB1FEE1FFF1FA217B307E407D4
:10132000F50720F0A21BB30BE40BF50B661F771F2C
:10133000881F991F1A9469F760957095809590950C
:101340009B01AC01BD01CF010895EE0FFF1F059079
:0A135000F491E02D0994F894FFCF0A
:10135A000000DB01800000000000A00442064204F5
:06136A0071045504950416
:00000001FF
