:100000000C9477000C948F150C94BC150C949F00E5
:100010000C949F000C949F000C949F000C949F00E4
:100020000C949F000C949F000C949F000C949F00D4
:100030000C949F000C949F000C949F000C949F00C4
:100040000C944A160C949F000C9479190C94BC19CA
:100050000C949F000C949F000C949F000C949F00A4
:100060000C949F000C949F0005A84CCDB2D44EB9BF
:100070003836A9020C50B9918688083CA6AAAA2A4B
:10008000BE000000803F00000007000201000003E6
:100090000406000000000000000001020408102017
:1000A000408001020408102001020408102004040A
:1000B0000404040404040202020202020303030310
:1000C00003030000000023002600290000000000B8
:1000D000250028002B0000000000240027002A0033
:1000E0006364696E6F70737578585B00781A1124B9
:1000F0001FBECFEFD8E0DEBFCDBF12E0A0E0B1E081
:10010000E8E6F8E402C005900D92A439B107D9F7EA
:1001100013E0A4E9B2E001C01D92AD35B107E1F7EB
:1001200010E0CEEED0E004C02297FE010E942E2403
:10013000CC3ED107C9F70E94CE1A0C94441D0C94F2
:100140000000CF93DF93EC010E941F05CE010C96B7
:100150000E9429026AE070E0CE018E589F4F0E94F3
:1001600052136EE170E0CE0186589F4F0E945213E9
:10017000FE01EE57FF4F40E655EE60ED7EEB40830B
:10018000518362837383FE01EA57FF4F408351839B
:1001900062837383FE01E657FF4F4AEC5FEA65E531
:1001A0007BE34083518362837383FE01E257FF4FF9
:1001B00011821082C057DF4F19821882DF91CF91D0
:1001C0000895CF92DF92EF92FF92CF93DF93EC01ED
:1001D000609194027091950280919602909197029D
:1001E0000E94A81EFE01EA57FF4F20813181428103
:1001F00053810E94951F6B017C0160919802709160
:10020000990280919A0290919B020E94A81EFE0181
:10021000EE57FF4F20813181428153810E94951F0B
:100220009B01AC01C701B6010E94A11DFE01E6576A
:10023000FF4F20813181428153810E94951FAB0184
:10024000BC01CE01DF91CF91FF90EF90DF90CF9076
:100250000C948A044F925F926F927F92AF92BF92FA
:10026000CF92DF92EF92FF920F931F93CF93DF9382
:10027000EC010E94E10088E9E82E82E0F82E8E0170
:1002800002571F4FF70160817181F80180819181D0
:10029000681B790B882777FD8095982F0E94A81EF0
:1002A000FE01EE57FF4F20813181428153810E9430
:1002B000951F2B013C0194E9A92E92E0B92E6E0105
:1002C000F0E9CF0ED11CF50160817181F6018081CA
:1002D0009181681B790B882777FD8095982F0E9464
:1002E000A81EFE01EA57FF4F2081318142815381D0
:1002F0000E94951F9B01AC01C301B2010E94A21D87
:1003000020E030E040E05FE30E94951FAB01BC01BC
:10031000CE010E949004F50180819181F6019183C4
:100320008083F70180819181F80191838083DF913F
:10033000CF911F910F91FF90EF90DF90CF90BF90E2
:10034000AF907F906F905F904F900895DF92EF9203
:10035000FF920F931F93CF93DF93EC012C96CE0166
:100360000E9460047C01CE010E946B048C01CE01CE
:100370000E946604D82ECE010E947104C82FDD2091
:1003800011F061E001C060E08BE00E944317CC23D4
:1003900011F060E001C061E08AE00E944317B701FC
:1003A00086E00E94E915B80185E0DF91CF911F91A9
:1003B0000F91FF90EF90DF900C94E915CF92DF92B0
:1003C000EF92FF920F931F93CF93DF93EC018C0179
:1003D0000E581F4FC8010E945E13882331F0C801D8
:1003E0000E944613CE010E942A018E0106581F4F1B
:1003F000C8010E945E138823F1F0C8010E944613D1
:10040000C880D980EA80FB800C811D812E813F81CC
:10041000488559856A857B85CE010C960E94230408
:10042000CE01DF91CF911F910F91FF90EF90DF9060
:10043000CF900C94A601DF91CF911F910F91FF9067
:10044000EF90DF90CF9008959C01245F3F4FC9014A
:100450000895CF92DF92EF92FF920F931F93CF9365
:10046000DF93EC010E941F05CE010C960E941F0530
:10047000CE0148960E94470519A218A2C12CD12C82
:1004800080EAE82E81E4F82E00E010E028E432E46F
:1004900040E050E06CE872E4CE0182960E947E1348
:1004A0009DECC92E9CECD92EED2C9DE3F92E00E09D
:1004B00010E020E83EE34AE959E969E97EE3CE012C
:1004C000CF960E947E13FE01E45AFF4F11821082E4
:1004D000FE01E25AFF4F11821082FE01EC59FF4FDC
:1004E00081E08083CB59DF4F8883DF91CF911F91CB
:1004F0000F91FF90EF90DF90CF9008958F929F9291
:10050000AF92BF92CF92DF92EF92FF920F931F9321
:10051000CF93DF93CDB7DEB764970FB6F894DEBF05
:100520000FBECDBF4C01A986BA86CB86DC86ED8690
:10053000FE860F87188B298B3A8B4B8B5C8BFC01CB
:1005400071A360A36130710529F06230710509F073
:100550006DC057C0CE0109960E947604AB01BC0164
:100560008401045F1F4FC8010E9490042DB73EB75D
:100570002C5031090FB6F8943EBF0FBE2DBFADB75A
:10058000BEB711968CE0F80101900D928A95E1F7C3
:10059000F401C080D180E280F3800481158126813E
:1005A00037814085518562857385CE0101960E9411
:1005B000510588E0FE013196D401589601900D92C4
:1005C0008A95E1F7CE0109960E9476040FB6F89459
:1005D000DEBF0FBECDBF20E030E0A9010E94061EA5
:1005E0008401085E1F4F87FF03C0C8010E94C80531
:1005F000C8010E94DC0540E050E0BA01C401CF967A
:1006000013C0CE0109960E948004AB01BC01840195
:10061000045F1F4FC8010E948A04C8010E94800421
:10062000AB01BC01C40182960E94AE1364960FB662
:10063000F894DEBF0FBECDBFDF91CF911F910F9118
:10064000FF90EF90DF90CF90BF90AF909F908F90F2
:100650000895AF92BF92CF92DF92EF92FF920F93E5
:100660001F93CF93DF93CDB7DEB760970FB6F894A3
:10067000DEBF0FBECDBF5C01CE0109960E944705CB
:10068000C5010C960E94D804F50180A191A181308A
:10069000910559F08230910509F45AC0892B09F06F
:1006A0006DC0E05AFF4F11821082F501EE59FF4FE5
:1006B000118210828DB79EB70C970FB6F8949EBF2B
:1006C0000FBE8DBFADB7BEB711968CE0F5013C965D
:1006D00001900D928A95E1F7F501C080D180E2800A
:1006E000F38004811581268137814085518562859B
:1006F0007385CE0101960E94510588E0FE01319676
:10070000DE01199601900D928A95E1F7F501008DB1
:10071000118D228D338D448D558D668D778DCE0153
:1007200009960E940606AB01BC01C501CF960E9446
:10073000B413F0E6AF0EB11C90580E94751EF5017F
:10074000718360830FB6F894DEBF0FBECDBF16C0B5
:10075000F501E05AFF4F11821082C5010E9480040A
:10076000AB01BC01C50182960E94B41385010E59EC
:100770001F4F0E94751EF8017183608360960FB64B
:10078000F894DEBF0FBECDBFDF91CF911F910F91C7
:10079000FF90EF90DF90CF90BF90AF900895FC0155
:1007A000E05AFF4F2081318137FF02C02F5F3F4F5A
:1007B000B90175956795FC01EE59FF4FB081A18194
:1007C0002B2F3A2F37FF02C02F5F3F4F35952795CC
:1007D000AB01421B530BFC01E45AFF4F5183408392
:1007E0002B2F3A2F37FF02C02F5F3F4F35952795AC
:1007F000260F371FFC01E25AFF4F31832083DC01B3
:10080000AC59BF4F652F6095661F6627661F6C93B6
:10081000DC01AB59BF4F632F6095661F6627661FCB
:100820006C9357FF08C0DC01A45ABF4F5195419506
:1008300051094D935C9337FF05C0319521953109DE
:10084000318320830895AF92BF92CF92DF92EF92CF
:10085000FF920F931F93CF93DF93CDB7DEB72C9703
:100860000FB6F894DEBF0FBECDBF5C01C982DA823D
:10087000EB82FC820D831E832F83388749875A873A
:100880006B877C878CE0FE013196D50101900D923B
:100890008A95E1F7C5010E942903C5012C960FB680
:1008A000F894DEBF0FBECDBFDF91CF911F910F91A6
:1008B000FF90EF90DF90CF90BF90AF900C94CF035C
:1008C000FC01E45AFF4F8081918108958C599F4F1C
:1008D000FC0180810895FC01E25AFF4F80819181E3
:1008E00008958B599F4FFC0180810895FC01508130
:1008F000418132812381652F742F832F922F089598
:10090000FC015085418532852385652F742F832F07
:10091000922F0895FC01408751876287738708955D
:100920008F929F92AF92BF92CF92DF92EF92FF92FF
:10093000CF93DF93EC016A017B0188849984AA84B8
:10094000BB84C501B4010E940A1E9B01AC01C70112
:10095000B6010E94951F9B01AC01688179818A8153
:100960009B810E94A21D688379838A839B83C50132
:10097000B4010E94F81F9B01AC01C701B6010E949F
:10098000951F9B01AC016C817D818E819F810E94AE
:10099000A21D6C837D838E839F83DF91CF91FF9017
:1009A000EF90DF90CF90BF90AF909F908F90089581
:1009B000CF93DF93EC0166E071E08FEA92E00E9452
:1009C0001D1B688179818A819B810E94751E4AE086
:1009D00050E08FEA92E00E94F71B6DE071E08FEA31
:1009E00092E00E941D1B6C817D818E819F810E94FF
:1009F000751E4AE050E08FEA92E00E94F71B63E127
:100A000071E08FEA92E00E941D1B20E030E044E399
:100A100053E4688579858A859B850E94951F23EC20
:100A200035EF48E450E40E940D1EAB01BC0122E00A
:100A300030E08FEA92E0DF91CF910C94101DFC0121
:100A400010821182128213821482158216821782FA
:100A500010861186128613860895CF92DF92EF9248
:100A6000FF920F931F93FC01408351836283738332
:100A70000483158326833783C086D186E286F38676
:100A80001F910F91FF90EF90DF90CF900895FC01A0
:100A900010821182128213821482158216821782AA
:100AA0000895AF92BF92CF92DF92EF92FF920F9391
:100AB0001F93CF93DF93CDB7DEB72C970FB6F89483
:100AC000DEBF0FBECDBF5C01C982DA82EB82FC8241
:100AD0000D831E832F83388729813A814B815C8166
:100AE000698D7A8D8B8D9C8D0E94A11DF50160838F
:100AF0007183828393832D813E814F8158856D8DD3
:100B00007E8D8F8D98A10E94A11DF5016483758350
:100B1000868397832C960FB6F894DEBF0FBECDBFA9
:100B2000DF91CF911F910F91FF90EF90DF90CF90C9
:100B3000BF90AF9008958F929F92AF92BF92CF9245
:100B4000DF92EF92FF92FC0160817181828193813B
:100B5000C480D580E680F7809B01AC010E94951F80
:100B60004B015C01A7019601C701B6010E94951FC8
:100B70009B01AC01C501B4010E94A21DFF90EF9042
:100B8000DF90CF90BF90AF909F908F900C940220F9
:100B9000FC0140815181628173817058408351838F
:100BA0006283738344815581668177817058448361
:100BB0005583668377830895CF92DF92EF92FF92F9
:100BC000CF93DF93EC010E949B056B017C019B019D
:100BD000AC01688179818A819B810E940D1E6883A6
:100BE00079838A839B83A70196016C817D818E81A5
:100BF0009F810E940D1E6C837D838E839F83DF9176
:100C0000CF91FF90EF90DF90CF900895AF92BF9279
:100C1000CF92DF92EF92FF920F931F93CF93DF93C8
:100C2000CDB7DEB728970FB6F894DEBF0FBECDBFA5
:100C30005C0109831A832B833C834D835E836F831E
:100C4000788729813A814B815C81FC0160817181C7
:100C5000828193810E94951F6B017C012D813E81D1
:100C60004F815885F50164817581868197810E9445
:100C7000951F9B01AC01C701B6010E94A21D2896D9
:100C80000FB6F894DEBF0FBECDBFDF91CF911F919D
:100C90000F91FF90EF90DF90CF90BF90AF900895AD
:100CA00089E00E947A1740919802509199026091D0
:100CB0009A0270919B02019729F44F5F5F4F6F4F2B
:100CC0007F4F04C041505109610971094093980256
:100CD0005093990260939A0270939B02089588E062
:100CE0000E947A1740919402509195026091960269
:100CF00070919702019729F44F5F5F4F6F4F7F4FBD
:100D000004C0415051096109710940939402509304
:100D10009502609396027093970208952BEF31E04D
:100D2000FC0131832083089525E432E0FC01318306
:100D300020832BEF31E0378326830895DC01ED918A
:100D4000FC91369720813181820F931F0C94940679
:100D500023E232E0FC01318320830895CF93DF93B7
:100D6000EC01E881F9810288F389E02D09959C0165
:100D70002F3F8FEF380729F08D819E8101969E834A
:100D80008D83C901DF91CF910895CB0108958FEF35
:100D90009FEF089580E090E0089508950895242F2E
:100DA000DC01ED91FC910084F185E02D41E0099496
:100DB00080E090E00895FC0122893389808991893F
:100DC000281B390B86899789281B390BC90108957F
:100DD0008F929F92AF92BF92EF92FF92CF93DF9349
:100DE000FC01DB01812C912C5401C689D789E08854
:100DF000F188828993898E199F09C817D907A0F4B1
:100E000082169306A406B5067CF4CE0DDF1D8881FC
:100E10008D938FEF881A980AA80AB80A868997894D
:100E20000196978B868BE1CFB401C501DF91CF91FD
:100E3000FF90EF90BF90AF909F908F900895FC012E
:100E4000268937894089518982899389841B950B2A
:100E50002817390730F4FA01E20FF31F208130E040
:100E600002C02FEF3FEFC9010895CF93DF93EC014C
:100E7000E881F9810288F389E02D09959C012F3FD3
:100E80008FEF380729F08E899F8901969F8B8E8B73
:100E9000C901DF91CF910895FC0186899789009758
:100EA00029F1A089B189228933892A1B3B0B281794
:100EB000390718F4378B268B19C001976F3F2FEF36
:100EC000720729F4978B868B60E070E011C0A80F41
:100ED000B91F2C91261303C0978B868B09C02785D9
:100EE00024FF04C0978B868B6C9302C06FEF7FEF5B
:100EF000CB01089580E090E0089580E090E00895AF
:100F000080E090E0089580E090E0089560E070E077
:100F1000CB010895CB0108957F928F929F92AF925B
:100F2000BF92CF92DF92EF92FF920F931F93CF93D6
:100F3000DF93EC0149015A018B01C12CD12C7601C0
:100F40002FC0F80171908F018F8580FF0BC0E88161
:100F5000F9810084F185E02D20E144E060E070E05B
:100F6000CE010995EB85FC858D859E85E817F907EF
:100F700038F470828B859C8501969C878B870BC08B
:100F8000E881F981028CF38DE02D672D70E0CE01B0
:100F90000995019661F02FEFC21AD20AE20AF20A0D
:100FA000C814D904EA04FB0464F275016401B601B3
:100FB000C701DF91CF911F910F91FF90EF90DF90CC
:100FC000CF90BF90AF909F908F907F90089523E235
:100FD00032E0FC01318320830C94DD1A2BEF31E0E9
:100FE000FC01318320830C94DD1A25E432E0FC01FE
:100FF000318320832BEF31E0378326830C94DD1A75
:10100000DC01ED91FC91369720813181820F931F95
:101010000C94F507EF92FF920F931F93CF93DF93FA
:101020007C01EB018A0164177507A1F0FC01408186
:101030005181401B510B4F5F5F4FB801CE010E94A1
:10104000651D0C1B1D0BF70180819181801B910B8D
:1010500091838083CE01DF91CF911F910F91FF90FB
:10106000EF900895CF93DF93EC01BC0181E090E015
:101070000E941615FC0110821882DF91CF9108950D
:10108000DC0113968D919C911497892B59F015963C
:10109000ED91FC91169717968D919C911897E817F2
:1010A000F90741F4ED91FC9111970488F589E02D41
:1010B000CD01099481911696FC93EE93159790E0DB
:1010C0000895FC018581682B83899489892B09F017
:1010D00001C0616065830895FC0180819181248154
:1010E00035812817390711F00C943E1808950C9497
:1010F0006C08CF93DF93EC0183E092E099838883BF
:10110000CE0140960E94770883E292E0998388831B
:10111000DF91CF910895CF93DF93EC010E9479087E
:10112000CE01DF91CF910C94DD1ACF93DF93EC01C8
:1011300085ED91E0998388838FED91E099A388A351
:10114000CE0106960E94790889EE91E09983888302
:101150008BEF91E099A388A3DF91CF910895DC01F3
:10116000ED91FC91369720813181820F931F0C9471
:101170009508CF93DF93EC010E949508CE01DF9193
:10118000CF910C94DD1ADC01ED91FC913697208112
:101190003181820F931F0C94B908CF93DF93EC0138
:1011A000FB0101900020E9F73197E61BF70B8881DE
:1011B00099814A815B81481B590B4E175F0731F4B7
:1011C0000E944F1D9C0181E0232B09F080E0DF91FC
:1011D000CF910895DC0113968D919C911497892BE2
:1011E00059F01596ED91FC91169717968D919C915B
:1011F0001897E817F90741F4ED91FC9111970288CF
:10120000F389E02DCD010994808190E00895CF937A
:10121000DF93EC01E881F98136970190F081E02DB0
:10122000EC0FFD1F838994890E94EA088F3F2FEFFE
:10123000920789F00E94471D892BC9F0E881F98146
:1012400036970190F081E02DEC0FFD1F8389948982
:101250000E944008DFCFE881F98136978081918133
:1012600062E08C0F9D1FDF91CF910C946108DF919C
:10127000CF910895DF92EF92FF920F931F93CF9338
:10128000DF937C018B01D42EDB01ED91FC9136972D
:101290000190F081E02DE60FF71FC189D2892097D8
:1012A000E9F0E881F98136970190F081E02DEC0FAB
:1012B000FD1F83899489DC01ED91FC910484F585FF
:1012C000E02D0995019651F4E881F98136978081E6
:1012D000918161E08C0F9D1F0E946108D11003C0B5
:1012E000C8010E94070981E0F7018083DF91CF9157
:1012F0001F910F91FF90EF90DF900895CF93DF93B0
:10130000EC01009791F0CE010E94A3179C01009779
:1013100071F4E0919C02F0919D02309721F480E0FD
:1013200090E00E94441D0995EECF20E030E0C90115
:10133000DF91CF9108950F931F93CF93DF93EC012B
:101340008B016F3F8FEF780759F0CB010E947E0928
:10135000998388839B838A83080F191F1D830C83BD
:10136000DF91CF911F910F910895CF93DF93EC01FF
:10137000198218821B821A821D821C8268E070E02A
:101380000E949B098A819B81DF91CF910C94320846
:10139000EF92FF920F931F93CF93DF931F92CDB7DE
:1013A000DEB78C017B0164E670E00E945213F80105
:1013B00011861086BE016F5F7F4FC8010A960E949A
:1013C000B50981E290E0F80195AB84AB16AA17AAA3
:1013D00010AE46E050E060E070E041AF52AF63AF66
:1013E00074AFFD961082118212821382F801EF5BB6
:1013F000FF4F80E28083F801EE5BFF4F1182108285
:10140000F801EC5BFF4FC801479691838083F80198
:10141000EA5BFF4F1082F801138A148A158A168A34
:1014200085ED91E0928B818B8FED91E092AB81AB5A
:10143000138E128E158E148E178E168E11A210A278
:1014400013A212A215A214A216A283E092E0908F1A
:10145000878BBE016F5F7F4FC80187960E94B509D9
:10146000F80116A615A610AA17A688E086A3E95BC0
:10147000FF4FF182E08281E0F801808B0F90DF91D5
:10148000CF911F910F91FF90EF900895CF92DF922F
:10149000EF92FF920F931F93CF93DF93EC018A811A
:1014A0009B8128813981821B930B8617970708F44B
:1014B000CB016C012FEFC21AD20AC6010E947E092D
:1014C0008C0168817981EA80FB80E61AF70AA7011E
:1014D0000E94651DE00EF11EC7010E943208CE0178
:1014E0000E946C0819830883FB82EA820C0D1D1D83
:1014F0001D830C83DF91CF911F910F91FF90EF908F
:10150000DF90CF9008951F93CF93DF93EC01162FB8
:101510008A819B819C012F5F3F4F4C815D814217E7
:10152000530779F428813981821B930B11F09C01B8
:1015300002C021E030E0B901680F791FCE010E949E
:10154000460A8A819B8101960E943208EA81FB81CA
:1015500010838A819B8101969B838A83DF91CF913F
:101560001F9108950F931F93CF93DF93EC018B018D
:101570006F3F8FEF7807E9F08F8584FF1DC0288DBE
:10158000398D488959898A899B89841B950B28172D
:10159000390728F0CE0140960E94830A04C0FA0160
:1015A000E20FF31F6083888D998D0196998F888F44
:1015B00005C000E010E002C00FEF1FEFC801DF918F
:1015C000CF911F910F9108957F928F929F92AF922A
:1015D000BF92CF92DF92EF92FF920F931F93CF9320
:1015E000DF931F92CDB7DEB78C017B0140E0BC01D9
:1015F000CE0101960E943A092981D8018D919C91D2
:10160000FC013697222309F47FC00190F081E02D80
:10161000E00FF11FC388D488D701ED91FC91119799
:1016200012968D919C911397E817F90741F010825B
:101630008D919C91119713969C938E931297D8013C
:10164000ED91FC9136970190F081E02D3296E00FFC
:10165000F11F6285738584859585128613861486AD
:1016600015865B016115710521F0C7010E94460ACC
:1016700003C0AA24AA94BA2CC6010E9440084C01B7
:101680008F3FBFEF9B0741F4D801ED91FC91369756
:101690008081918162E020C0992787FD90950E940A
:1016A000471DB1E0AB1AB108892BD9F0F60183814F
:1016B0009481009789F10580F681E02DE817F907FC
:1016C00059F18291881228C034C0D801ED91FC9163
:1016D00036978081918164E0800F911F0E9461089C
:1016E00007C0682DC7010E94830AA114B10421F626
:1016F000F701228133818081918128173907F9F41C
:10170000D801ED91FC9136978081918164E0800F42
:10171000911F0E94610813C0D601ED91FC91B401A4
:1017200077270688F789E02DC6010995019669F2A9
:10173000DFCFD6011696FC93EE931597D9CFC8014B
:101740000F90DF91CF911F910F91FF90EF90DF905D
:10175000CF90BF90AF909F908F907F900895FF9211
:101760000F931F93CF93DF93EC018B01F42E4881ED
:1017700059818A819B81841B950BBC01600F711F6D
:101780002C813D81241B350B215031092617370749
:1017900058F49C018017910708F49801B901680F6B
:1017A000791FCE010E94460A01151105E1F02A8138
:1017B0003B81C9010196A901400F511F481B590BDC
:1017C0006F2D70E00E94771D8A819B81800F911F91
:1017D0000E943208EA81FB81F0828A819B81800F1E
:1017E000911F9B838A83CE01DF91CF911F910F912F
:1017F000FF900895CF92DF92EF92FF920F931F9385
:10180000CF93DF931F92CDB7DEB77C018B01BE0172
:101810006F5F7F4F0E94B509D801ED91FC9136971B
:101820000190F081E02DE00FF11F838994890E94DF
:10183000EA086C018F3FBFEF9B0729F10E94471D0B
:10184000892B69F020C0D801ED91FC9136978081F9
:10185000918166E0800F911F0E9461081CC0D80131
:10186000ED91FC9136970190F081E02DE00FF11F92
:10187000838994890E9440084C2D61E070E0C70183
:101880000E94AF0BC9CFF701228133818081918102
:1018900028173907C1F2C7010F90DF91CF911F912F
:1018A0000F91FF90EF90DF90CF900895CF92DF924D
:1018B000EF92FF920F931F93CF93DF931F92CDB7B9
:1018C000DEB76C018B01BE016F5F7F4F0E94B509CF
:1018D000D801ED91FC9136970190F081E02DE00F59
:1018E000F11F838994890E94EA087C018F3FBFEF32
:1018F0009B0789F10E94471D892B69F5C701C09795
:101900000A97A8F0EEE2EE16F10489F0FCE2EF1679
:10191000F10409F50CC0D801ED91FC913697808156
:10192000918166E0800F911F0E9461081CC0D80160
:10193000ED91FC9136970190F081E02DE00FF11FC1
:10194000838994890E9440084E2D61E070E0C601B1
:101950000E94AF0BBDCFF60122813381808191813E
:1019600028173907C1F2C6010F90DF91CF911F915F
:101970000F91FF90EF90DF90CF9008950F931F93FA
:10198000CF93DF938C01E22FE870322F30712871F2
:10199000283121F4423009F05DC059C0413011F4C2
:1019A000EB0129C04230D1F4332371F0DC015296AF
:1019B000CD91DC91539750968D919C915197C81B76
:1019C000D90BC60FD71F02C0C0E0D0E0EE2399F0BC
:1019D000D8015696CD91DC9157970BC0D8015296FD
:1019E000CD91DC91539750968D919C915197C81B46
:1019F000D90BC60FD71FD80152964D915C915397C2
:101A000050966D917C915197CA01861B970B8C174C
:101A10009D07E8F0EE2321F05796DC93CE9356977E
:101A20003323D9F06C0F7D1FC80142960E940A082B
:101A3000F8018289938920893189821B930B268939
:101A400037898217930748F4978B868B06C0CFEFB0
:101A5000DFEF03C0413011F6A3CFCE01DF91CF916C
:101A60001F910F9108958F929F92AF92BF92CF9244
:101A7000DF92EF92FF920F931F93CF93DF93EC01CE
:101A80007B016417750709F45FC08A819B816881B7
:101A900079814C01861A970A8A010E191F09F801EB
:101AA000E80DF91D2C813D81261B370B2150310992
:101AB0002E173F0780F58FEF881A980AC801043166
:101AC000110510F484E190E0880E991EC4010E9473
:101AD0007E096C0168817981AA80BB80A61AB70A49
:101AE000A5010E94651DAC0CBD1CA801B701C50174
:101AF0000E94651DA00EB11EC5010E943208CE01D4
:101B00000E946C08D982C882BB82AA82C80CD91CE8
:101B1000DD82CC8219C0B7016F5F7F4F461B570B28
:101B200001960E94651D8A819B81800F911F0E94F2
:101B30003208EA81FB81D7018C9180838A819B8165
:101B4000800F911F9B838A83CE01DF91CF911F91DC
:101B50000F91FF90EF90DF90CF90BF90AF909F904C
:101B60008F900895CF92DF92EF92FF920F931F9381
:101B7000CF93DF93EC018B017A016A01C61AD70A71
:101B8000288139818A819B81821B930B8C159D054D
:101B900078F0A601C9010E945C1D4A815B81FE01AB
:101BA00061917191CF016C0D7D1D0E940A0811C0D9
:101BB000AC01C9010E945C1D6A817B818881998189
:101BC000681B790B600F711F20E0A701CE010E94F6
:101BD000330DCE01DF91CF911F910F91FF90EF90C8
:101BE000DF90CF900895CF93DF93EC0168177907CA
:101BF00039F0FB0142815381608171810E94B20DF5
:101C0000CE01DF91CF910895CF93DF93EC014696FB
:101C10000E94F30D1D8E1C8E8D8981FF09C0888D59
:101C2000998D2E893F89821B930B9F8F8E8F02C0C7
:101C30001F8E1E8EE881F98136970190F081E02D8C
:101C4000EC0FFD1F83899489892B11F0158202C046
:101C500081E08583DF91CF910895EF92FF920F93FA
:101C60001F93CF93DF93CDB7DEB72D970FB6F894C0
:101C7000DEBF0FBECDBF7C018B01BE01635F7F4F16
:101C8000CE0107960E94B509B701CE0101960E94C8
:101C9000FA0BBE016F5F7F4FCE0107960E94F30DD6
:101CA000CE0101960E9477086CE171E0CE010796A3
:101CB0000E94CD0881111EC061E271E0CE0107963D
:101CC0000E94CD08811116C066E271E0CE01079630
:101CD0000E94CD0881110EC06BE271E0CE01079623
:101CE0000E94CD08811106C009C0CE0107960E944E
:101CF000770807C081E0F8018083F7CFF8011082F0
:101D0000F4CF2D960FB6F894DEBF0FBECDBFDF9196
:101D1000CF911F910F91FF90EF900895EF92FF9256
:101D20000F931F93CF93DF93CDB7DEB72D970FB6E9
:101D3000F894DEBF0FBECDBF8C01F62EE72EBE019C
:101D4000635F7F4FCE0107960E94B509D801ED91E0
:101D5000FC9136970190F081E02DE00FF11F838117
:101D6000B80185FF14C0CE0101960E94560CBE0139
:101D70006F5F7F4FCE0107960E94F30DCE01019653
:101D80000E947708EF92FF928DE291E033C0CE017E
:101D900001960E94FA0BBE016F5F7F4FCE0107963E
:101DA0000E94F30DCE0101960E947708D801ED91B3
:101DB000FC9136970190F081E02DE00FF11F8381B7
:101DC000948186FF05C0EF92FF9280E391E012C0FC
:101DD00087FF0CC095FF05C0EF92FF9283E391E06F
:101DE00009C0EF92FF9286E391E004C0EF92FF9268
:101DF00089E391E09F938F9388858F938F818F9351
:101E00000E94861D0F900F900F900F900F900F90D3
:101E1000CE0107960E9477082D960FB6F894DEBF84
:101E20000FBECDBFDF91CF911F910F91FF90EF902B
:101E30000895EF92FF920F931F93CF93DF931F921A
:101E4000CDB7DEB77C018B0140E0BC01CE0101962D
:101E50000E943A09B801C7010E948E0EC7010F9077
:101E6000DF91CF911F910F91FF90EF900895AF9266
:101E7000BF92CF92DF92EF92FF920F931F93CF9377
:101E8000DF93CDB7DEB7EB970FB6F894DEBF0FBE8A
:101E9000CDBF5C01BC01665F7F4F6C0181E1C80E64
:101EA000D11CC6010E94040EBE01655C7F4FCE01AD
:101EB0008B960E94B509BE01655D7F4FC6010E94E9
:101EC000E40AEBA5FCA510816CE371E08FEA92E0D7
:101ED0000E941D1BEBA5FCA5E180FF24E7FCF0940C
:101EE000A0E3EA1AF108612F8FEA92E00E941F1B1B
:101EF00069E471E08FEA92E00E941D1B4AE050E025
:101F0000B7018FEA92E00E94FF1BBE01655C7F4F24
:101F1000CE0185960E94B509BE01655C7F4FCE015A
:101F20004F960E94B509BE01655C7F4FCE01499670
:101F30000E94B50918AE1FAA1EAA1DAA1CAA1BAA98
:101F40001AAA19AACE010D960E941F05133509F091
:101F500037C1B3E0EB16F10449F144F4A1E0EA160D
:101F6000F104F1F004F5EF28C1F039C186E0E8167C
:101F7000F10409F4FCC034F4B4E0EB16F10409F008
:101F80002EC18EC087E0E816F10409F40FC1A8E065
:101F9000EA16F10409F023C10CC16BE471E00BC136
:101FA00067E571E008C165E671E005C1BE01615EEB
:101FB0007F4FC6010E94E40A7C0140E0BC01CE01D3
:101FC000C9960E943A09BE01665C7F4FC7010E9414
:101FD0002D0ED701ED91FC9136970190F081E02D07
:101FE000EE0DFF1D8581857009F00AC18F8D98A1C6
:101FF0000E94261DBC01882777FD8095982F0E949E
:10200000A81E23EC35EF48E450E40E94951F20E021
:1020100030E044E353E40E940D1E6B017C0100E0BC
:1020200010E09801B901A801CE0101960E942D058A
:102030008CE0FE013196DE011D9601900D928A958D
:10204000E1F761E771E08FEA92E00E941D1B8F8D3E
:1020500098A10E94261D4AE050E0BC018FEA92E060
:102060000E94FF1B4AE050E062E070E08FEA92E0DD
:102070000E94FF1BF501E95BFF4F808191810E9467
:102080002402AD84BE84CF84D888E988FA880B897D
:102090001C892D893E894F89588D62E070E064C0AB
:1020A000BE01675E7F4FC6010E94E40ABE016D5CFF
:1020B0007F4F0E94190F68E771E08FEA92E00E945B
:1020C0003C1B6AE171E08FEA92E00E941D1B898D42
:1020D0009A8D0E94261D4AE050E0BC018FEA92E0F2
:1020E0000E94F71B6AE171E08FEA92E00E941D1BDB
:1020F0006BA97CA94AE050E08FEA92E00E94FF1BA6
:10210000898D9A8D0E94261DBC01882777FD8095B8
:10211000982F0E94A81EAB01BC01C12CD12C7601C6
:1021200097018601CE0101960E942D058CE0FE01EB
:102130003196DE011D9601900D928A95E1F7F50129
:10214000E95BFF4F808191810E942402AD84BE84AF
:10215000CF84D888E988FA880B891C892D893E8923
:102160004F89588D61E070E00E947E0238C0BE0148
:10217000675E7F4FC6010E94E40ABE01695C7F4F23
:102180000E94190FBE016B5C7F4F0E94190FBE01A8
:10219000615E7F4F0E94E40ABE016F5C7F4F0E9428
:1021A000190FBE016D5C7F4F0E94190F61E871E04D
:1021B00002C06DE871E08FEA92E00E943C1B0FC004
:1021C000CE0149960E947708CE014F960E9477086B
:1021D000CE0185960E947708CE018B960EC0CE0167
:1021E00049960E947708CE014F960E947708CE014B
:1021F00085960E947708CE018B960E94770807C0CB
:1022000067E971E08FEA92E00E941D1BEFCEEB962A
:102210000FB6F894DEBF0FBECDBFDF91CF911F91F7
:102220000F91FF90EF90DF90CF90BF90AF90089507
:10223000DF92EF92FF920F931F93CF93DF9300D023
:1022400000D000D0CDB7DEB78C017C018AE0E80E6B
:10225000F11C65C06CE971E08FEA92E00E943C1BC2
:10226000F80180859185181619061CF081E0808B95
:1022700002C0F801108A69EA71E08FEA92E00E94D8
:102280001D1BF801628573858FEA92E00E941D1B79
:1022900067EB71E08FEA92E00E941D1BF8016085F8
:1022A00071854AE050E08FEA92E00E94FF1B4CC02B
:1022B000F8016485758542855385641B750B6E5FD7
:1022C0007F4F1A8219821C821B821E821D82CE01C0
:1022D00001960E949B098B819C810E943208F80123
:1022E000448555856285738520E0CE0101960E9464
:1022F000330D6D2DCE0101960E94830ABE016F5FE2
:102300007F4FC7010E94F30DCE0101960E946C0819
:10231000F801208531852F5F3F4F318720878FEA75
:1023200092E00E94DD181816190674F4F8018085F1
:1023300091854C974CF48FEA92E00E940C19D82EAC
:10234000FAE08F13B5CF86CF26960FB6F894DEBF8E
:102350000FBECDBFDF91CF911F910F91FF90EF90F6
:10236000DF9008950F931F93CF93DF9300D000D099
:1023700000D0CDB7DEB78C010E945E138823E9F14F
:10238000C8010E944613C8010E941811F8018089F3
:10239000811133C068EC71E08FEA92E00E943C1B2F
:1023A000C8010E94370F81E0F801808B1A821982E0
:1023B0001C821B821E821D8261E070E0CE010196AC
:1023C0000E949B0989819A819C838B830E94320899
:1023D000BE016F5F7F4FC80141960E94040ECE017F
:1023E00001960E947708F801118610864BE151E0B2
:1023F000BA01C8010A960E94B20D26960FB6F8944B
:10240000DEBF0FBECDBFDF91CF911F910F91089519
:102410006F927F928F929F92AF92BF92CF92DF92F4
:10242000EF92FF920F931F93CF93DF93EC017B0109
:102430006A014217530709F4A8C08901041B150B50
:102440006A817B818C819D81861B970B08171907F8
:102450000CF05EC05B01AE18BF0866246394712C5B
:10246000660E771EA016B106ECF0601B710B6F5F55
:102470007F4FA301461B570BC3010E94651D8A8134
:102480009B81800F911F9B838A83A501401B510B69
:102490004F5F5F4FB701C701800F911F0E94651DFD
:1024A000A80124C045018FEF881A980A840E951E52
:1024B000A90148195909B401C3010E94651D0A19EF
:1024C0001B098A819B81800F911F9B838A83A301B3
:1024D0004E195F09B7010E94651D8A819B818A0D93
:1024E0009B1D9B838A838C189D08A401B601C7019C
:1024F000DF91CF911F910F91FF90EF90DF90CF90E0
:10250000BF90AF909F908F907F906F900C945C1DC8
:1025100088819981681B790B6F5F7F4FC8010431F7
:10252000110510F484E190E04B01880E991EC4015E
:102530000E947E095C01688179813701661A770AF9
:10254000A3010E94651D6A0C7B1CA801B601C30192
:102550000E94651D060D171DCA80DB80CE18DF089E
:10256000A601B701C8010E94651D0C0D1D1DC80103
:102570000E943208CE010E946C08B982A8821B8397
:102580000A83A80CB91CBD82AC82DF91CF911F9148
:102590000F91FF90EF90DF90CF90BF90AF909F9002
:1025A0008F907F906F9008954F925F926F927F927D
:1025B0008F929F92AF92BF92CF92DF92EF92FF9253
:1025C0000F931F93CF93DF93EC01CB013901542E6E
:1025D000452E7901488D598D088919894B01820E44
:1025E000931E2A893B89201B310B241B350B630169
:1025F0002615370508F46901C40ED51EC00ED11E7C
:10260000040F151F5401A81AB90A9601201B310B9B
:102610002A153B0574F0A501BC01C8010E945C1D90
:10262000B8016A0D7B1DA601CE0142960E940A08E0
:1026300013C05C01A20EB31E9501281B390BA90122
:10264000BC01C8010E945C1D00E09401A501B60117
:10265000CE0140960E940812888D998D8E0D9F1D87
:10266000998F888FB301852D942DDF91CF911F9184
:102670000F91FF90EF90DF90CF90BF90AF909F9021
:102680008F907F906F905F904F900895CF93DF93DE
:10269000EC010E9494166C837D838E839F83DF916F
:1026A000CF910895AB01662757FD6095762FFC0109
:1026B00040835183628373830C9446130F931F935B
:1026C000CF93DF93EC010E9494160C811D812E8123
:1026D0003F81601B710B820B930B41E008811981D4
:1026E0002A813B8106171707280739070CF040E0BD
:1026F000842FDF91CF911F910F910895CF92DF9298
:10270000EF92FF920F931F93FC01108211821282AD
:102710001382148215821682178210861186128601
:1027200013864487558766877787C08AD18AE28A6D
:10273000F38A048B158B268B378B81E09FEF918F6B
:10274000808F8FEF90E0938F828F81E0848F1F9135
:102750000F91FF90EF90DF90CF900895FC0140879C
:1027600051876287738708952F923F924F925F92AD
:102770006F927F928F929F92AF92BF92CF92DF9291
:10278000EF92FF920F931F93CF93DF93CDB7DEB7F6
:102790002C970FB6F894DEBF0FBECDBF9A878987FE
:1027A0006A017B01DC015C968C915C97882309F4BB
:1027B0001CC19A01AB0118966D917D918D919C91F0
:1027C0001B970E94A11D69837A838B839C836FE58D
:1027D00072E08FEA92E00E941D1B22E030E0F98156
:1027E000EA819B818C814F2F5E2F692F782F8FEA92
:1027F00092E00E94101D65E672E08FEA92E00E946E
:102800001D1BE985FA85408551856285738522E027
:1028100030E08FEA92E00E94101D6EE672E08FEACF
:1028200092E00E941D1B22E030E0B701A6018FEA72
:1028300092E00E94121DA985BA8550962D913D9176
:102840004D915C915397B981AA811B810C816B2FAB
:102850007A2F812F902F0E94951FE985FA85248178
:102860003581468157810E94A21D6D837E838F83AF
:102870009887472F382F292F862F942FA32FB22FD9
:10288000E985FA8584839583A683B783628D738DEA
:10289000882777FD8095982F0E94A81E3B011C0178
:1028A0002B018C01762F272F372D422D532DBD81E3
:1028B000AE81BF80A8846B2F7A2F8B2D9A2D0E941A
:1028C000911F18165CF4862D972DA02FB32DE98546
:1028D000FA8584839583A683B78321C0A985BA85A9
:1028E00058966D917C915997882777FD8095982F00
:1028F0000E94A81E4B015C019B01AC01BD81AE8111
:10290000EF81F8856B2F7A2FCF010E94061E87FF7B
:1029100006C0E985FA8584829582A682B782A98558
:10292000BA851C962D913D914D915C911F97B9816F
:10293000AA81BB80AC806B2F7A2F8B2D9A2D0E94A1
:10294000951FE985FA8524813581468157810E944A
:10295000A21D4B015C01A985BA852D913D914D9138
:102960005C91C701B6010E94A11DE985FA85248901
:102970003589468957890E94951F9B01AC01C50185
:10298000B4010E94A11D4B015C01262D372D422D63
:10299000532D682D792D8A2D9B2D0E94911F18167D
:1029A000ECF0A985BA8558966D917C915997882746
:1029B00077FD8095982F0E94A81E2B018C01762F01
:1029C000272F352D402F512F682D792D8A2D9B2DA6
:1029D0000E94061E87FD02C024018501E985FA8553
:1029E000C082D182E282F38204C0412C512C00E0EB
:1029F00010E0642D752D802F912F2C960FB6F89432
:102A0000DEBF0FBECDBFDF91CF911F910F91FF9021
:102A1000EF90DF90CF90BF90AF909F908F907F907E
:102A20006F905F904F903F902F900895CB01089545
:102A3000CF93DF9343E050E060E576E081E00E94D1
:102A40006F1543E050E06FE676E080E00E946F157E
:102A500040E855E260E070E08FEA92E00E94F719EA
:102A600061E08BE00E940B1761E08AE00E940B1787
:102A700061E086E00E940B1761E085E00E940B1781
:102A800085B5887F85BD85B5816085BD82E990E08B
:102A90000E94DB1AEC010E94A100D093A102C09316
:102AA000A00289E490E00E94DB1AEC016091A00290
:102AB0007091A1020E94C809D0939F02C0939E0208
:102AC000DF91CF91089580919E0290919F020E9484
:102AD000B2118091A0029091A1020C94DE0182308B
:102AE000E8F4E82FF0E0EE0FFF1FEE55FD4F718385
:102AF0006083813041F0809169008C7F842B8093CA
:102B00006900E89A089580916900440F551F440FA9
:102B1000551F837F842B80936900E99A08951F9243
:102B20000F920FB60F9211242F933F934F935F9301
:102B30006F937F938F939F93AF93BF93EF93FF9385
:102B40008091A2029091A302892B29F0E091A20228
:102B5000F091A3020995FF91EF91BF91AF919F91E1
:102B60008F917F916F915F914F913F912F910F9036
:102B70000FBE0F901F9018951F920F920FB60F92D5
:102B800011242F933F934F935F936F937F938F9372
:102B90009F93AF93BF93EF93FF938091A402909183
:102BA000A502892B29F0E091A402F091A5020995D4
:102BB000FF91EF91BF91AF919F918F917F916F9115
:102BC0005F914F913F912F910F900FBE0F901F90EB
:102BD00018951F93CF93DF93182FEB0161E00E94AC
:102BE0000B17209711F460E004C0CF3FD10539F4F2
:102BF00061E0812FDF91CF911F910C944317E12F5A
:102C0000F0E0EA57FF4FE491E330B9F028F4E13007
:102C100051F0E230B1F50CC0E63019F1E73049F17E
:102C2000E43079F514C084B5806884BDC7BD2EC07A
:102C300084B5806284BDC8BD29C080918000806851
:102C400080938000D0938900C09388001FC080913A
:102C50008000806280938000D0938B00C0938A00B4
:102C600015C08091B00080688093B000C093B3001D
:102C70000DC08091B00080628093B000C093B4001A
:102C800005C0C038D1050CF0B3CFADCFDF91CF91E7
:102C90001F9108951F920F920FB60F9211242F9338
:102CA0003F938F939F93AF93BF938091A602909190
:102CB000A702A091A802B091A9023091AE02232FE1
:102CC0002D5F2D3720F40196A11DB11D05C0232FC6
:102CD0002A570296A11DB11D2093AE028093A60231
:102CE0009093A702A093A802B093A9028091AA0290
:102CF0009091AB02A091AC02B091AD020196A11DE2
:102D0000B11D8093AA029093AB02A093AC02B09342
:102D1000AD02BF91AF919F918F913F912F910F90F5
:102D20000FBE0F901F9018950F931F938FB7F894B5
:102D30000091A6021091A7022091A8023091A90249
:102D40008FBFB801C9011F910F910895789484B580
:102D5000826084BD84B5816084BD85B5826085BD97
:102D600085B5816085BDEEE6F0E08081816080837D
:102D7000E1E8F0E010828081826080838081816060
:102D80008083E0E8F0E0808181608083E1EBF0E027
:102D9000808184608083E0EBF0E0808181608083CB
:102DA000EAE7F0E0808184608083808182608083B4
:102DB0008081816080838081806880831092C100DF
:102DC0000895833069F028F48130A1F0823011F544
:102DD00014C08630B1F08730C1F08430D9F404C01B
:102DE000809180008F7703C0809180008F7D8093D9
:102DF0008000089584B58F7702C084B58F7D84BD2F
:102E000008958091B0008F7703C08091B0008F7DCE
:102E10008093B0000895CF93DF9390E0FC01E656D5
:102E2000FF4F4491FC01E255FF4F8491882341F10B
:102E300090E0880F991FFC01EA52FF4F25913491D1
:102E4000D90184539F4FFC0185919491C82FD92FAC
:102E50009FB7F8948C91611106C0409584238C93A0
:102E60008881842308C0623041F4242F2095822376
:102E70008C938881842B888302C0842B8C939FBF82
:102E8000DF91CF9108950F931F93CF93DF931F92FC
:102E9000CDB7DEB7282F30E0F901EA57FF4F849114
:102EA000F901E656FF4F1491F901E255FF4F0491E5
:102EB0000023D1F0882321F069830E94E116698103
:102EC000E02FF0E0EE0FFF1FE453FF4F8591949148
:102ED000DC019FB7F8948C91611103C01095812398
:102EE00001C0812B8C939FBF0F90DF91CF911F91D9
:102EF0000F910895CF93DF93282F30E0F901EA571F
:102F0000FF4F8491F901E656FF4FD491F901E25544
:102F1000FF4FC491CC2389F081110E94E116EC2F60
:102F2000F0E0EE0FFF1FEE53FF4F85919491DC010F
:102F30008C918D2321E030E011F420E030E0C901D4
:102F4000DF91CF9108950F931F93CF93DF9382303A
:102F5000910510F482E090E0E0915B03F0915C0356
:102F600020E030E0C0E0D0E023C04081518148172C
:102F70005907A8F04817590761F482819381209777
:102F800019F09B838A832EC090935C0380935B032C
:102F900029C02115310529F04217530710F0A90166
:102FA00002C0BE01DF0102811381EF019A01F80125
:102FB0003097D9F62115310509F1281B390B24303A
:102FC000310590F412968D919C91139761157105BE
:102FD00021F0FB019383828304C090935C03809370
:102FE0005B03FD01329644C0FD01E20FF31F8193A4
:102FF0009193225031092D933C933AC0209159036B
:1030000030915A03232B41F42091020130910301A6
:1030100030935A032093590320910001309101010C
:103020002115310541F42DB73EB74091040150916F
:103030000501241B350BE0915903F0915A03E21767
:10304000F307A0F42E1B3F0B2817390778F0AC01CB
:103050004E5F5F4F2417350748F04E0F5F1F5093A8
:103060005A03409359038193919302C0E0E0F0E04A
:10307000CF01DF91CF911F910F910895EF92FF92B1
:103080000F931F93CF93DF93009709F48FC0DC0158
:10309000129713961C921E921297E0905B03F09089
:1030A0005C03E114F10489F42D913C911197280FF0
:1030B000391F8091590390915A038217930789F51C
:1030C000B0935A03A093590371C0E70120E030E0A8
:1030D00001C0EA01CA17DB0738F44A815B819E010F
:1030E00041155105B1F722C0BC0162507109FB01C5
:1030F000D383C28300811181AC01400F511F4C1753
:103100005D0761F448815981400F511F4E5F5F4F49
:10311000518340834A815B8153834283211531056A
:1031200029F4B0935C03A0935B0340C0F901B3831F
:10313000A283E90169917991C60FD71FAC17BD072A
:1031400079F4DC015E914E91460F571F4E5F5F4F41
:103150005183408312968D919C9113979383828320
:10316000A0E0B0E002C0D7017C01F7018281938129
:103170000097C9F7C701029620813181820F931F02
:103180002091590330915A032817390779F4109781
:1031900029F410925C0310925B0304C013961C92F6
:1031A0001E921297F0925A03E0925903DF91CF9149
:1031B0001F910F91FF90EF900895FC0184859585F4
:1031C000FC01E05CFF4F20813181FC01EE5BFF4F91
:1031D00080819181281B390B2F733327C9010895F2
:1031E000FC0184859585FC01E05CFF4F40815181A5
:1031F000FC01EE5BFF4F208131814217530741F004
:103200000190F081E02DE80FF91F208130E002C02D
:103210002FEF3FEFC9010895FC0184859585FC01DE
:10322000E05CFF4F40815181FC01EE5BFF4F20814C
:1032300031814217530781F0A081B181A80FB91FD6
:103240008C91208131812F5F3F4F2F733327318342
:103250002083282F30E002C02FEF3FEFC9010895EF
:10326000FC0181A1882329F0A489B5898C9186FF6E
:10327000FBCF11A20895CF93DF93FC0126853785FC
:10328000D901A05CBF4F8D919C91119701968F73CE
:103290009927E901CE5BDF4F488159818417950753
:1032A000D9F30D90BC91A02DA20FB31F6C93A685EE
:1032B000B785A05CBF4F11969C938E93A689B78962
:1032C0002C9181E090E0078C02C0880F991F0A942E
:1032D000E2F7282B2C9381E081A30488F589E02D67
:1032E00080818064808381E090E0DF91CF910895B8
:1032F00008951F920F920FB60F9211242F933F93B0
:103300004F938F939F93EF93FF938091C00082FD23
:103310001CC04091C60080915503909156030196C0
:103320008F73992720915703309158038217930781
:1033300071F0E0915503F0915603EB5EFC4F408332
:10334000909356038093550302C08091C600FF916D
:10335000EF919F918F914F913F912F910F900FBEC1
:103360000F901F9018958FEA92E00E94DD18892B2C
:1033700011F00C94781908951F920F920FB60F92C6
:1033800011242F933F938F939F93EF93FF9320915B
:1033900011033091120380911303909114032817A5
:1033A000390731F48091C1008F7D8093C10014C032
:1033B000E0911303F0911403EF52FD4F20818091AF
:1033C00013039091140301968F739927909314031C
:1033D000809313032093C600FF91EF919F918F91EB
:1033E0003F912F910F900FBE0F901F901895CF9285
:1033F000DF92EF92FF92CF93DF93EC016A017B01A2
:10340000411581EE580761057105F9F0EC89FD89D8
:1034100081E090E008A002C0880F991F0A94E2F7AB
:10342000808360E079E08DE390E0A70196010E943F
:10343000D3232150310941095109569547953795B4
:103440002795211580E1380798F0EC89FD891082D5
:1034500060E874E88EE190E0A70196010E94D32312
:1034600021503109410951095695479537952795BE
:10347000E889F9893083EA89FB89208319A2EE89DA
:10348000FF89408181E090E09C010C8C02C0220FFA
:10349000331F0A94E2F7422B4083EE89FF89408173
:1034A0009C010D8C02C0220F331F0A94E2F7422BBD
:1034B0004083EE89FF8940819C010E8C02C0220F5F
:1034C000331F0A94E2F7422B4083EE89FF89208163
:1034D0000F8C02C0880F991F0A94E2F7809582230F
:1034E0008083DF91CF91FF90EF90DF90CF90089590
:1034F0001092B2021092B10288EE93E0A0E0B0E028
:103500008093B3029093B402A093B502B093B60235
:103510008AE792E09093B0028093AF0285E193E056
:103520009093BC028093BB0281ED92E09093BE0227
:103530008093BD0285EC90E09093C0028093BF021F
:1035400084EC90E09093C2028093C10280EC90E002
:103550009093C4028093C30281EC90E09093C602E2
:103560008093C50282EC90E09093C8028093C702DA
:1035700086EC90E09093CA028093C90284E0809325
:10358000CB0283E08093CC0287E08093CD0285E07C
:103590008093CE0281E08093CF0208950E94A61608
:1035A0000E941815C3EBD9E10E9463152097E1F33F
:1035B0000E94B319F9CF0C94A3170C943E18CF9224
:1035C000DF92EF92FF920F931F93CF93DF936C01E3
:1035D000EB017A01E60EF71E00E010E00BC06991E6
:1035E000D601ED91FC910190F081E02DC601099585
:1035F000080F191FCE15DF0591F7C801DF91CF9194
:103600001F910F91FF90EF90DF90CF90089561157B
:10361000710581F0DB010D900020E9F7AD0141500B
:103620005109461B570BDC01ED91FC910280F3819F
:10363000E02D099480E090E008950C94071BDC01D4
:10364000ED91FC910190F081E02D09940F931F936F
:10365000CF93DF93EC016DE00E941F1B8C016AE0A9
:10366000CE010E941F1B9C01200F311FC901DF9159
:10367000CF911F910F9108950F931F93CF93DF93D5
:10368000EC010E94071B8C01CE010E94261B9801B1
:10369000280F391FC901DF91CF911F910F91089514
:1036A0004F925F926F927F929F92AF92BF92CF9212
:1036B000DF92EF92FF920F931F93CF93DF93CDB7DB
:1036C000DEB7A1970FB6F894DEBF0FBECDBF5C0189
:1036D0006A017B01922E19A281E0821710F08AE024
:1036E000982E8E010F5D1F4F492C512C612C712C8F
:1036F000C701B601A30192010E94D3238C2D929E93
:1037000080191124015011098A3014F4805D01C020
:10371000895CF801808369017A01C114D104E10454
:10372000F10431F7B801C5010E94071BA1960FB63D
:10373000F894DEBF0FBECDBFDF91CF911F910F91E7
:10374000FF90EF90DF90CF90BF90AF909F907F90D1
:103750006F905F904F900895CF92DF92EF92FF921B
:103760000F931F93CF93DF93EC016A017B01211527
:10377000310579F4E881F9810190F081E02D642F21
:10378000DF91CF911F910F91FF90EF90DF90CF903D
:1037900009942A30310519F477FD0EC02AE0B701EB
:1037A000A601CE01DF91CF911F910F91FF90EF9075
:1037B000DF90CF900C94501B6DE20E941F1B8C0178
:1037C00044275527BA014C195D096E097F092AE083
:1037D000CE010E94501B080F191FC801DF91CF9125
:1037E0001F910F91FF90EF90DF90CF9008959A0175
:1037F000AB01662757FD6095762F0C94AC1B0F9399
:103800001F93CF93DF93EC019A01AB01662757FD1D
:103810006095762F0E94AC1B8C01CE010E94261B66
:103820009801280F391FC901DF91CF911F910F9186
:1038300008957F928F929F92AF92BF92CF92DF9224
:10384000EF92FF920F931F93CF93DF93EC016A01E6
:103850007B01122F9A01AB01C701B6010E944020E3
:10386000882319F066E872E032C046015701E894F7
:10387000B7F82FEF3FEF4FE75FE7C501B4010E94B4
:10388000402081110DC02FEF3FEF4FE75FE7C501EB
:10389000B4010E94061E18161CF46AE872E017C0F4
:1038A0002FEF3FEF4FE75FE4C701B6010E94911F82
:1038B00018160CF40AC02FEF3FEF4FE75FECC7017B
:1038C000B6010E94061E87FF12C06EE872E0CE01AC
:1038D000DF91CF911F910F91FF90EF90DF90CF90EC
:1038E000BF90AF909F908F907F900C94071B20E02B
:1038F00030E0A901C701B6010E94061E87FF0AC079
:103900006DE2CE010E941F1B5C01F7FAF094F7F8FC
:10391000F09402C0A12CB12C00E060E070E080E0E7
:103920009FE307C020E030E040E251E40E940D1E1A
:103930000F5F0113F7CF262F372F482F592FC701BD
:10394000B6010E94A21D762E872E982EC92E0E94A7
:103950007A1ED62EE72EF82E092F0E94A61E9B0156
:10396000AC01672D782D892D9C2D0E94A11DC62E9E
:10397000972E882E792E2AE04D2D5E2D6F2D702FDB
:10398000CE010E94501B7C01EA0CFB1C1123B9F1F3
:1039900062E972E0CE010E94071BE80EF91E2FC0FB
:1039A00020E030E040E251E46C2D792D882D972DF8
:1039B0000E94951F762E072F6C019D2D0E94751E6B
:1039C0004B01AA2497FCA094BA2C2AE030E0B50160
:1039D000A401CE010E94AC1BE80EF91EC501B40182
:1039E0000E94A81E9B01AC01672D702F8C2D9D2D70
:1039F0000E94A11DC62E972E882E792E11501111CE
:103A0000CFCFC701DF91CF911F910F91FF90EF9022
:103A1000DF90CF90BF90AF909F908F907F90089550
:103A20000C94191C0F931F93CF93DF93EC010E940A
:103A3000191C8C01CE010E94261B9801280F391FEA
:103A4000C901DF91CF911F910F910895FC01882743
:103A50009927E89421912032E9F3293010F02E3093
:103A6000C8F32B3241F02D3239F4689404C00E941F
:103A70007E1D820F911D219120532A30C0F31EF428
:103A8000909581959F4F0895F8940C94322491114C
:103A9000D6C5803219F089508550D0F70895FB01C2
:103AA000DC0104C08D910190801921F441505040F7
:103AB000C8F7881B990B0895FB01DC0102C0019037
:103AC0000D9241505040D8F708956817790768F46F
:103AD000FB01DC01E40FF51FA40FB51F02C002902B
:103AE0000E9241505040D8F708950C945C1DDC01B3
:103AF00001C06D9341505040E0F708957AE0979FE0
:103B0000902D879F802D910D11240895A0E1B0E0A4
:103B1000ECE8FDE10C94052485E08C838D899E8979
:103B20009A838983AE01475E5F4F588B4F876F89B9
:103B3000788DCE0101960E94F1216096E2E00C940E
:103B400021245058BB27AA270ED0A0C169D130F03C
:103B50006ED120F031F49F3F11F41EF45EC10EF4DB
:103B6000E095E7FB54C1E92FB3D180F3BA176207A0
:103B700073078407950718F071F49EF5CBC10EF416
:103B8000E0950B2EBA2FA02D0B01B90190010C016D
:103B9000CA01A0011124FF27591B99F0593F50F485
:103BA000503E68F11A16F040A22F232F342F4427DD
:103BB000585FF3CF469537952795A795F0405395D5
:103BC000C9F77EF41F16BA0B620B730B840BBAF0A5
:103BD0009150A1F0FF0FBB1F661F771F881FC2F710
:103BE0000EC0BA0F621F731F841F48F48795779524
:103BF0006795B795F7959E3F08F0B3CF9395880FDB
:103C000008F09927EE0F979587950895DCD008F472
:103C100081E0089514D1E3954AC10CD037C107D192
:103C200040F0FED030F021F45F3F19F0F0C05111A8
:103C300072C1F3C04DD198F39923C9F35523B1F361
:103C4000951B550BBB27AA2762177307840738F00B
:103C50009F5F5F4F220F331F441FAA1FA9F333D06A
:103C60000E2E3AF0E0E830D091505040E695001C1E
:103C7000CAF729D0FE2F27D0660F771F881FBB1FDA
:103C8000261737074807AB07B0E809F0BB0B802DB4
:103C9000BF01FF2793585F4F2AF09E3F510568F000
:103CA000B6C039C15F3FECF3983EDCF3869577955B
:103CB0006795B795F7959F5FC9F7880F911D969502
:103CC000879597F90895E1E0660F771F881FBB1F5E
:103CD000621773078407BA0720F0621B730B840B0B
:103CE000BA0BEE1F88F7E095089504D06894B111DF
:103CF00012C10895F5D088F09F5790F0B92F9927F9
:103D0000B751A0F0D1F0660F771F881F991F1AF0E6
:103D1000BA95C9F712C0B13081F0FCD0B1E0089576
:103D2000F9C0672F782F8827B85F39F0B93FCCF3F7
:103D3000869577956795B395D9F73EF490958095DC
:103D4000709561957F4F8F4F9F4F0895E89409C0FC
:103D500097FB3EF490958095709561957F4F8F4FBE
:103D60009F4F9923A9F0F92F96E9BB279395F695D4
:103D7000879577956795B795F111F8CFFAF4BB0F52
:103D800011F460FF1BC06F5F7F4F8F4F9F4F16C0B6
:103D9000882311F096E911C0772321F09EE8872F40
:103DA000762F05C0662371F096E8862F70E060E0FC
:103DB0002AF09A95660F771F881FDAF7880F969575
:103DC000879597F90895990F0008550FAA0BE0E819
:103DD000FEEF16161706E807F907C0F012161306CD
:103DE000E407F50798F0621B730B840B950B39F40D
:103DF0000A2661F0232B242B252B21F408950A2673
:103E000009F4A140A6958FEF811D811D089597F9B2
:103E10009F6780E870E060E008959FEF80EC089570
:103E200000240A9416161706180609060895002499
:103E30000A9412161306140605060895EECF50D004
:103E4000E8F3E894E0E0BB279F57F0F02AED3FE06D
:103E500049EC06C0EE0FBB0F661F771F881F28F0C6
:103E6000B23A62077307840728F0B25A620B730BE9
:103E7000840BE3959A9572F7803830F49A95BB0FCE
:103E8000661F771F881FD2F7904844C4092E0394F9
:103E9000000C11F4882352F0BB0F40F4BF2B11F437
:103EA00060FF04C06F5F7F4F8F4F9F4F0895EF9368
:103EB000E0FF06C0A2EA2AED3FE049EC5FEB53DEEB
:103EC000E5DF0F90039401FC9058E8E6F0E035C47C
:103ED00057FD9058440F551F59F05F3F71F04795BB
:103EE000880F97FB991F61F09F3F79F087950895A0
:103EF000121613061406551FF2CF4695F1DF08C0BF
:103F0000161617061806991FF1CF869571056105DB
:103F100008940895E894BB2766277727CB0197F983
:103F2000089551DF08F48FEF08950BD0AFCF78DFFD
:103F300028F07DDF18F0952309F069CF6ECF1124AA
:103F4000EACFC6DFA0F3959FD1F3950F50E0551F40
:103F5000629FF001729FBB27F00DB11D639FAA27DE
:103F6000F00DB11DAA1F649F6627B00DA11D661F2D
:103F7000829F2227B00DA11D621F739FB00DA11D4E
:103F8000621F839FA00D611D221F749F3327A00D08
:103F9000611D231F849F600D211D822F762F6A2FA4
:103FA00011249F5750408AF0E1F088234AF0EE0F29
:103FB000FF1FBB1F661F771F881F91505040A9F736
:103FC0009E3F510570F023CFA6CF5F3FECF3983EA4
:103FD000DCF3869577956795B795F795E7959F5F9D
:103FE000C1F7FE2B880F911D9695879597F9089537
:103FF0009F9325DF0F9007FCEE5F59CF11F40EF46D
:104000000CCF86C36DDFD0F39923D9F3CEF39F573E
:10401000550B87FF8BD30024A0E640EA900180581F
:104020005695979528F4805C660F771F881F20F0BF
:1040300026173707480730F4621B730B840B2029BF
:1040400031294A2BA69517940794202531254A2714
:1040500058F7660F771F881F20F026173707480785
:1040600030F4620B730B840B200D311D411DA095A4
:1040700081F7B901842F9158880F969587950895F7
:10408000A2DE880B990B089520FD09C0FC0123FDD9
:1040900005C022FF02C07383628351834083089569
:1040A000CF92DF92EF92FF920F931F9344FD10C0C7
:1040B00046FD10C0DB01FC01AA0FBB1FEE1FFF1F56
:1040C0001094D1F76A0F7B1F8E1F9F1F31E003C032
:1040D00033E001C034E0660F771F881F991F31500D
:1040E000D1F76B017C01C20ED11CE11CF11C9701C0
:1040F0008601B601C9011F910F91FF90EF90DF90EB
:10410000CF9008950F931F93CF93DF938C01C80135
:104110000E942D23EC0197FD08C00E94471D892BAA
:10412000B1F7B801CE010E946D23CE01DF91CF918E
:104130001F910F9108958F929F92AF92CF92DF922D
:10414000EF92FF920F931F93CF93DF93EC01A62E74
:104150004A01022F0E942D23FC01FF27EB32F105BB
:1041600019F0BD9751F40068AA9411F480E063C07F
:10417000CE010E942D2397FDF9CF102F1D7F302FE8
:104180003073E1F48033D1F4AA9409F440C0CE0135
:104190000E942D2397FD3BC0883711F0883549F4E4
:1041A0001264AA94A1F1CE010E942D2397FF06C0AC
:1041B0002EC006FF02C0126001C01261C12CD12CBA
:1041C0007601282F2053283080F014FF04C0BE0150
:1041D0000E946D2319C02A3040F016FFF8CF2F7DC2
:1041E000322F3151363098F72750412FC701B60191
:1041F0000E9450206B017C011260AA9459F0CE01FC
:104200000E942D2397FFDDCF11FD04C0AFCFC12C3D
:10421000D12C760117FF08C0F094E094D094C0949C
:10422000C11CD11CE11CF11C212FB701A601C40146
:104230000E94442081E0DF91CF911F910F91FF9068
:10424000EF90DF90CF90AF909F908F9008956F92F6
:104250007F929F92AF92BF92CF92DF92EF92FF92A6
:104260000F931F93CF93DF93CDB7DEB7A1970FB610
:10427000F894DEBF0FBECDBF6C017A018901FE014B
:10428000319680E2DF011D928A95E9F7D6011396F7
:104290009C9020E030E0A12CA0E0B12CCF0141E0C7
:1042A00050E0F80193FC759193FE71918F017111AB
:1042B00003C000E010E080C07E3519F421153105FF
:1042C00059F1EB2DF0E0E217F3073CF47D3569F18D
:1042D0007D3219F4AA2319F103C0A11101C0A72E40
:1042E000E72FE695E695E6953C016E0E711CF3010D
:1042F000A72FA7703A0102C0660C771CAA95E2F7B7
:10430000D301B081BA2BB0837A1559F07A1510F425
:104310007F5FE6CF7150E4CFBB24B39403C0A1E02C
:1043200001C0A0E02F5F3F4FBCCFAA2319F08E81C0
:1043300080628E83B11003C0BB24B3940BC0FE0116
:104340003196CE018196208120952193E817F907B7
:10435000D1F7F2CFC60169A30E942D2369A197FD71
:1043600024C0282F269526952695E1E0F0E0EC0F55
:10437000FD1FE20FF11D208130E0AC014770552791
:1043800002C0359527954A95E2F720FD04C0B60195
:104390000E946D230AC0E114F10419F0D7018D9336
:1043A0007D016150B12CB1F602C0B11082CFE11491
:1043B000F10411F0F7011082C801A1960FB6F8942C
:1043C000DEBF0FBECDBFDF91CF911F910F91FF9048
:1043D000EF90DF90CF90BF90AF909F907F906F90C5
:1043E00008954F925F927F928F929F92AF92BF9269
:1043F000CF92DF92EF92FF920F931F93CF93DF93B1
:104400001F92CDB7DEB78C012B015A01FC01178238
:104410001682812CF0C08E2D90E00E94471D892BC2
:1044200021F0C8010E948220E6C0F5E2EF120AC026
:10443000F201F3FC3591F3FE31912F01353271F425
:1044400055E2E52EC8010E942D2397FDDFC0E81636
:1044500009F4D1C0B8010E946D23DAC03A3241F4A8
:10446000F3FC3591F3FE31912F019924939401C00F
:10447000912C712C10C0F2E09F2A672D70E080E033
:1044800090E040E20E945020762EF201F3FC35913C
:10449000F3FE31912F01232F20532A3060F391FE38
:1044A00003C0711003C0B4C077247A94383619F071
:1044B0003C3699F40AC0F201F3FC3591F3FE3191D8
:1044C0002F01383651F4F8E09F2A84E0982AF2014F
:1044D000F3FC3591F3FE31912F01332309F498C099
:1044E000632F70E080EE90E039830E9422233981AF
:1044F000892B09F48DC090FC07C0F501E080F180A4
:1045000082E0A80EB11C02C0E12CF12C3E3651F421
:10451000F8014681578160E070E0292DC7010E94B3
:10452000442069C0333691F491FC02C0772473941F
:10453000C8010E942D2397FD69C0E114F10419F010
:10454000F70181937F017A9499F753C03B3559F471
:104550009201A701672DC8010E9427212C01009715
:1045600009F047C041C0C80139830E9482203981C7
:1045700097FD4CC03F3659F128F4343629F13936CD
:1045800049F52AC0333719F0353721F51DC0C80168
:104590000E942D236C0197FD11C00E94471D892B9D
:1045A00029F0B801C6010E946D2308C0E114F1048E
:1045B00019F0F701C1927F017A9449F7E114F104EF
:1045C000C1F0F701108215C0F0E29F2A05C080E11A
:1045D000982A02C090E4992A292DA701672DC801C5
:1045E0000E949B20811105C0F8018381807371F4C2
:1045F0000FC090FE8394F801F380F201F3FCE59084
:10460000F3FEE1902F01E11006CF02C0882019F0DF
:10461000282D30E002C02FEF3FEFC9010F90DF914E
:10462000CF911F910F91FF90EF90DF90CF90BF90AF
:10463000AF909F908F907F905F904F9008959927B3
:1046400088270895FC010590061621F00020D9F76F
:10465000C00108953197CF010895CF93DF93EC0106
:104660003B8130FF34C036FF0AC03F7B3B838E81E5
:104670009F8101969F838E832A8130E02AC032FF7A
:104680000FC0E881F9818081992787FD9095009777
:1046900019F430623B831BC03196F983E8830EC066
:1046A000EA85FB85099597FF09C02B81019611F4D6
:1046B00080E101C080E2822B8B8309C02E813F8183
:1046C0002F5F3F4F3F832E839C01332702C02FEF84
:1046D0003FEFC901DF91CF910895FB01238120FFB6
:1046E00013C026FD11C08F3F3FEF930769F082830F
:1046F0002F7D206423832681378121503109378320
:1047000026839C01332702C02FEF3FEFC901089594
:104710009F3F31F0915020F4879577956795B79535
:10472000880F911D9695879597F90895915050405F
:10473000660F771F881FD2F708959F938F937F93FB
:104740006F93FF93EF939B01AC01EFDBEF91FF9130
:1047500005D02F913F914F915F91E7CBDF93CF939E
:104760001F930F93FF92EF92DF927B018C0168946D
:1047700005C0DA2EEF01E5DBFE01E894A591259155
:10478000359145915591AEF3EF01EDD9FE019701B9
:10479000A801DA9479F7DF90EF90FF900F911F91C5
:1047A000CF91DF910895A1E21A2EAA1BBB1BFD0138
:1047B0000DC0AA1FBB1FEE1FFF1FA217B307E40700
:1047C000F50720F0A21BB30BE40BF50B661F771F58
:1047D000881F991F1A9469F7609570958095909538
:1047E0009B01AC01BD01CF0108952F923F924F92E2
:1047F0005F926F927F928F929F92AF92BF92CF9271
:10480000DF92EF92FF920F931F93CF93DF93CDB779
:10481000DEB7CA1BDB0B0FB6F894DEBF0FBECDBFF1
:1048200009942A88398848885F846E847D848C84C2
:104830009B84AA84B984C884DF80EE80FD800C81CB
:104840001B81AA81B981CE0FD11D0FB6F894DEBFAE
:104850000FBECDBFED010895EE0FFF1F0590F4913F
:08486000E02D0994F894FFCF4C
:1048680000005D03800020207820203A0020207975
:10487800203A0020206361703A2020007472756528
:104888000054727565005452554500310025640086
:10489800256F002558002578002569006F7264721D
:1048A8006520696E64203D200040005265676C6198
:1048B8006765204F646F00526563616C2061727296
:1048C8006965726500526563616C206176616E741A
:1048D800004246436170200042464176616E63653E
:1048E80000417272657420526F626F740052657075
:1048F80072656E64726500657272200046696E208A
:104908006465206C69676E6500456E7265676973DA
:10491800747265203A2000202073657269616C5FAB
:10492800636F756E74202000636F75636F75002068
:1049380000000000009508B908E0FFE0FF0000AFA4
:1049480008C3082000000000009406F507E0FFE017
:10495800FF00009E060008000000008E06EE07001B
:1049680000000079088B08CD06CE06BE0CCF06D80D
:1049780006DB06E8061F0735074C07D412B20A0003
:10498800000000A806E707CD067A077D078007CA5A
:104998000683078607C706AE06C5068C078A07067C
:1049A80000000000009406F507FAFFFAFF00009ED9
:1049B800060008D501E901F301DF0145024F026550
:1049C80072726F72002074617267657420002069CA
:1049D8006E7075742000000000003B19DF1ADD18A6
:1049E8000C19F01830196E616E00696E66006F76EA
:0449F80066002E0027
:00000001FF
