:100000000C9471000C9436060C9463060C949900C1
:100010000C9499000C9499000C9499000C949900FC
:100020000C9499000C9499000C9499000C949900EC
:100030000C9499000C9499000C9499000C949900DC
:100040000C94F1060C9499000C94E6080C94290980
:100050000C9499000C9499000C9499000C949900BC
:100060000C9499000C94990005A84CCDB2D44EB9CB
:100070003836A9020C50B9918688083CA6AAAA2A4B
:10008000BE000000803F00000007000201000003E6
:100090000406000000000000000001020408102017
:1000A000408001020408102001020408102004040A
:1000B0000404040404040202020202020303030310
:1000C00003030000000023002600290000000000B8
:1000D000250028002B0000000000240027002A0033
:1000E000E50911241FBECFEFD8E0DEBFCDBF11E080
:1000F000A0E0B1E0EAEDF0E202C005900D92AA3670
:10010000B107D9F712E0AAE6B1E001C01D92A13310
:10011000B107E1F710E0C2EED0E004C02297FE0183
:100120000E946710C03ED107C9F70E943B0A0C9499
:100130009B0D0C940000CF93DF93EC010E94F10320
:10014000CE010C960E94B2026AE070E0CE01845BA0
:100150009F4F0E9449046EE170E0CE018C5A9F4F80
:100160000E944904FE01E45AFF4F40E655EE60ED5F
:100170007EEB4083518362837383FE01E05AFF4F1D
:100180004083518362837383FE01EC59FF4F4AE73A
:1001900052EB65ED7AE34083518362837383FE0102
:1001A000E859FF4F11821082C659DF4F1982188219
:1001B000DF91CF9108958F929F92AF92BF92CF928D
:1001C000DF92EF92FF92CF93DF93EC01FC01E05AB4
:1001D000FF4FC080D180E280F38060916A0170910E
:1001E0006B0180916C0190916D010E94A50EA70199
:1001F00096010E94920F4B015C0160916E0170911B
:100200006F0180917001909171010E94A50EA7016C
:1002100096010E94920F9B01AC01C501B4010E949E
:100220009E0DFE01EC59FF4F2081318142815381A7
:100230000E94920FAB01BC01CE01DF91CF91FF90E4
:10024000EF90DF90CF90BF90AF909F908F900C94E5
:1002500034034F925F926F927F92AF92BF92CF9290
:10026000DF92EF92FF920F931F93CF93DF93EC01F6
:100270000E94DB008EE6E82E81E0F82E8E01085900
:100280001F4FF70160817181F80180819181681BA6
:10029000790B882777FD8095982F0E94A50EFE0187
:1002A000E45AFF4F20813181428153810E94920F95
:1002B0002B013C019AE6A92E91E0B92E6E01FAE6D7
:1002C000CF0ED11CF50160817181F6018081918191
:1002D000681B790B882777FD8095982F0E94A50EC3
:1002E000FE01E05AFF4F20813181428153810E94FB
:1002F000920F9B01AC01C301B2010E949F0D20E04F
:1003000030E040E05FE30E94920FAB01BC01CE0100
:100310000E943A03F50180819181F60191838083E7
:10032000F70180819181F80191838083DF91CF91E2
:100330001F910F91FF90EF90DF90CF90BF90AF9003
:100340007F906F905F904F900895CF92DF92EF92E1
:10035000FF920F93CF93DF931F92CDB7DEB77B0150
:100360006A0166E071E083E891E029830E94880ACF
:100370004AE050E0B70183E891E00E944E0B6EE046
:1003800071E083E891E00E94880A4AE050E0298108
:10039000622F70E083E891E00E944E0B64E171E00F
:1003A00083E891E00E94880A4AE050E0B60183E8C1
:1003B00091E00E944E0B6DE171E083E891E00E94B4
:1003C000880A4AE050E0602F70E083E891E00F90E7
:1003D000DF91CF910F91FF90EF90DF90CF900C9431
:1003E0004E0BAF92BF92CF92DF92EF92FF920F939C
:1003F0001F93CF93DF937C01EC012C96CE010E94DA
:100400001C036C01CE010E9423035C01CE010E94FB
:100410002003182FCE010E942703082F112311F06B
:1004200061E001C060E08BE00E94EA07002311F068
:1004300060E001C061E08AE00E94EA07B60186E060
:100440000E949006B50185E00E949006212FA5012B
:10045000B601C7010E94A501DF91CF911F910F91B5
:10046000FF90EF90DF90CF90BF90AF900895CF9224
:10047000DF92EF92FF920F931F93CF93DF93EC01E4
:100480008C01045B1F4FC8010E945504882349F06A
:10049000C8010E943D04CE010E942901CE010E94A4
:1004A00082038E010C5A1F4FC8010E9455048823F5
:1004B000F1F0C8010E943D04C880D980EA80FB8029
:1004C0000C811D812E813F81488559856A857B85F8
:1004D000CE010C960E94C502CE01DF91CF911F91F3
:1004E0000F91FF90EF90DF90CF900C94F101DF918E
:1004F000CF911F910F91FF90EF90DF90CF900895D3
:100500000F931F93CF93DF93EC018B0162E370E0B5
:100510000E94490419870887DF91CF911F910F919D
:10052000089583E891E00E944A081816190624F4F9
:1005300083E891E00C9479080895CF93DF93D82F46
:10054000C92F0E945504882351F08D2F9C2F0E94A3
:100550003D048D2F9C2FDF91CF910C949102DF9160
:10056000CF910895CF93DF93EC010E947504CE01E3
:100570004D960E9475041BAE1AAE1DAE1CAE81E0F6
:100580008EAF8FAFDF91CF910895AF92BF92CF9290
:10059000DF92EF92FF920F931F93CF93DF93CDB72C
:1005A000DEB72C970FB6F894DEBF0FBECDBF5C014F
:1005B000C982DA82EB82FC820D831E832F83388707
:1005C00049875A876B877C87CE0101960E942A0350
:1005D000AB01BC01C5014D960E94A5040E94720E9C
:1005E00077FD0BC075956795F50173AF62AF75AF79
:1005F00064AF81E086AF87AF0EC06F5F7F4F7595A8
:100600006795719561957109F50162AF73AF64AF3C
:1006100075AF16AE17AE2C960FB6F894DEBF0FBEB0
:10062000CDBFDF91CF911F910F91FF90EF90DF90A1
:10063000CF90BF90AF900895FC0182AD93AD089527
:10064000FC0186AD0895FC0184AD95AD0895FC01D3
:1006500087AD0895FC015081418132812381652F4E
:10066000742F832F922F0895FC0140875187628752
:10067000738708958F929F92AF92BF92CF92DF922D
:10068000EF92FF92CF93DF93EC016A017B018884A4
:100690009984AA84BB84C501B4010E94070E9B0102
:1006A000AC01C701B6010E94920F9B01AC016881A9
:1006B00079818A819B810E949F0D688379838A83D7
:1006C0009B83C501B4010E94F50F9B01AC01C701DA
:1006D000B6010E94920F9B01AC016C817D818E81DD
:1006E0009F810E949F0D6C837D838E839F83DF910A
:1006F000CF91FF90EF90DF90CF90BF90AF909F9001
:100700008F900895CF93DF93EC0163E271E083E86B
:1007100091E00E94880A40916E0150916F016091B2
:100720007001709171012AE030E083E891E00E944D
:10073000030B6BE271E083E891E00E94880A40912C
:100740006A0150916B0160916C0170916D012AE01A
:1007500030E083E891E00E94030B65E371E083E8F9
:1007600091E00E94880A688179818A819B810E9438
:10077000720E4AE050E083E891E00E944E0B6CE379
:1007800071E083E891E00E94880A6C817D818E810E
:100790009F810E94720E4AE050E083E891E00E943F
:1007A0004E0B62E471E083E891E00E94880A20E049
:1007B00030E044EB53E4688579858A859B850E9407
:1007C000920F23EC35EF48E450E40E940A0EAB018F
:1007D000BC0122E030E083E891E0DF91CF910C94FE
:1007E0004D0CFC0110821182128213821482158238
:1007F000168217821086118612861386089589E064
:100800000E94210840916E0150916F01609170012A
:1008100070917101019729F44F5F5F4F6F4F7F4FC8
:1008200004C0415051096109710940936E01509310
:100830006F016093700170937101089588E00E94C8
:10084000210840916A0150916B0160916C01709197
:100850006D01019729F44F5F5F4F6F4F7F4F04C0C9
:10086000415051096109710940936A0150936B012C
:1008700060936C0170936D010895CF93DF93EC0149
:100880000E943B076C837D838E839F83DF91CF9192
:100890000895AB01662757FD6095762FFC014083D4
:1008A0005183628373830C943D040F931F93CF9302
:1008B000DF93EC010E943B070C811D812E813F815B
:1008C000601B710B820B930B41E0088119812A8117
:1008D0003B8106171707280739070CF040E0842FE3
:1008E000DF91CF911F910F910895FC011082118229
:1008F0001282138214821582168217821086118644
:10090000128613864DEC5CEC6CE570E444875587E9
:10091000668777874FEA54E965E27FE3408B518B26
:10092000628B738B43E353E363E970E4448B558B31
:10093000668B778B81E09FEF918F808F8FEF90E0B8
:10094000938F828F81E0848F08952F923F924F92F0
:100950005F926F927F928F929F92AF92BF92CF924F
:10096000DF92EF92FF920F931F93CF93DF93CDB758
:10097000DEB72C970FB6F894DEBF0FBECDBF9A87B7
:1009800089876A017B01FC01848D882309F4D6C024
:100990009A01AB0160857185828593850E949E0DC9
:1009A0006D837E838F839887E985FA8520893189D5
:1009B000428953890E94920FE985FA852481358105
:1009C000468157810E949F0D69837A838B839C8324
:1009D000472F382F292F862F942FA32FB22FE98549
:1009E000FA8584839583A683B783628D738D882768
:1009F00077FD8095982F0E94A50E3B011C012B01CD
:100A00008C01762F272F372D422D532DB981AA81A6
:100A1000BB80AC806B2F7A2F8B2D9A2D0E948E0F6E
:100A200018165CF4862D972DA02FB32DE985FA8535
:100A300084839583A683B7831FC0E985FA85608D7B
:100A4000718D882777FD8095982F0E94A50E4B0108
:100A50005C019B01AC01B981AA81EB81FC816B2F08
:100A60007A2FCF010E94030E87FF06C0E985FA8521
:100A700084829582A682B782E985FA8524853585A8
:100A800046855785BD81AE81EF81B8846B2F7A2F63
:100A90008E2F9B2D0E94920FE985FA852481358146
:100AA000468157810E949F0D4B015C01E985FA85C3
:100AB0002081318142815381C701B6010E949E0D80
:100AC000E985FA8524893589468957890E94920FDC
:100AD0009B01AC01C501B4010E949E0D4B015C015C
:100AE000262D372D422D532D682D792D8A2D9B2DA6
:100AF0000E948E0F1816DCF0E985FA85608D718DE5
:100B0000882777FD8095982F0E94A50E2B018C01D8
:100B1000762F272F352D402F512F682D792D8A2D97
:100B20009B2D0E94030E87FD02C024018501E985EB
:100B3000FA85C082D182E282F38204C0412C512C1A
:100B400000E010E0642D752D802F912F2C960FB6AC
:100B5000F894DEBF0FBECDBFDF91CF911F910F91F3
:100B6000FF90EF90DF90CF90BF90AF909F908F90CD
:100B70007F906F905F904F903F902F900895CF930C
:100B8000DF9343E050E06FEF73E081E00E941606D0
:100B900043E050E06EE174E080E00E94160640E819
:100BA00055E260E070E083E891E00E94640961E052
:100BB0008BE00E94B20761E08AE00E94B20761E028
:100BC00086E00E94B20761E085E00E94B20785B529
:100BD000887F85BD85B5816085BD8CE690E00E94EB
:100BE000480AEC010E949B00D0937501C0937401E8
:100BF0008AE090E00E94480AEC01609174017091D3
:100C000075010E948002D0937301C0937201DF913D
:100C1000CF91089580917201909173010E949D027D
:100C200080917401909175010C9437028230E8F440
:100C3000E82FF0E0EE0FFF1FEA58FE4F718360834C
:100C4000813041F0809169008C7F842B8093690012
:100C5000E89A089580916900440F551F440F551F6D
:100C6000837F842B80936900E99A08951F920F92E5
:100C70000FB60F9211242F933F934F935F936F936F
:100C80007F938F939F93AF93BF93EF93FF93809145
:100C9000760190917701892B29F0E0917601F0910E
:100CA00077010995FF91EF91BF91AF919F918F913E
:100CB0007F916F915F914F913F912F910F900FBE58
:100CC0000F901F9018951F920F920FB60F9211243C
:100CD0002F933F934F935F936F937F938F939F9344
:100CE000AF93BF93EF93FF93809178019091790137
:100CF000892B29F0E0917801F09179010995FF9114
:100D0000EF91BF91AF919F918F917F916F915F9183
:100D10004F913F912F910F900FBE0F901F901895FC
:100D20001F93CF93DF93182FEB0161E00E94B2076E
:100D3000209711F460E004C0CF3FD10539F461E0A1
:100D4000812FDF91CF911F910C94EA07E12FF0E002
:100D5000EA57FF4FE491E330B9F028F4E13051F065
:100D6000E230B1F50CC0E63019F1E73049F1E4307A
:100D700079F514C084B5806884BDC7BD2EC084B524
:100D8000806284BDC8BD29C0809180008068809346
:100D90008000D0938900C09388001FC0809180009C
:100DA000806280938000D0938B00C0938A0015C02E
:100DB0008091B00080688093B000C093B3000DC0F4
:100DC0008091B00080628093B000C093B40005C0F1
:100DD000C038D1050CF0B3CFADCFDF91CF911F91CB
:100DE00008951F920F920FB60F9211242F933F93E5
:100DF0008F939F93AF93BF9380917A0190917B01E2
:100E0000A0917C01B0917D0130918201232F2D5F53
:100E10002D3720F40196A11DB11D05C0232F2A579F
:100E20000296A11DB11D2093820180937A019093B7
:100E30007B01A0937C01B0937D0180917E01909114
:100E40007F01A0918001B09181010196A11DB11D8A
:100E500080937E0190937F01A0938001B0938101E4
:100E6000BF91AF919F918F913F912F910F900FBEA6
:100E70000F901F9018950F931F938FB7F8940091C0
:100E80007A0110917B0120917C0130917D018FBF0F
:100E9000B801C9011F910F910895789484B58260BB
:100EA00084BD84B5816084BD85B5826085BD85B50E
:100EB000816085BDEEE6F0E0808181608083E1E8BD
:100EC000F0E01082808182608083808181608083F5
:100ED000E0E8F0E0808181608083E1EBF0E08081F8
:100EE00084608083E0EBF0E0808181608083EAE7CA
:100EF000F0E0808184608083808182608083808153
:100F0000816080838081806880831092C100089511
:100F1000833069F028F48130A1F0823011F514C0DB
:100F20008630B1F08730C1F08430D9F404C08091AC
:100F300080008F7703C0809180008F7D8093800038
:100F4000089584B58F7702C084B58F7D84BD0895E0
:100F50008091B0008F7703C08091B0008F7D809327
:100F6000B0000895CF93DF9390E0FC01E656FF4F69
:100F70004491FC01E255FF4F8491882341F190E0B8
:100F8000880F991FFC01EA52FF4F25913491D90136
:100F900084539F4FFC0185919491C82FD92F9FB7FF
:100FA000F8948C91611106C0409584238C938881BC
:100FB000842308C0623041F4242F209582238C932F
:100FC0008881842B888302C0842B8C939FBFDF9100
:100FD000CF9108950F931F93CF93DF931F92CDB7B7
:100FE000DEB7282F30E0F901EA57FF4F8491F9016D
:100FF000E656FF4F1491F901E255FF4F049100238B
:10100000D1F0882321F069830E9488076981E02F4D
:10101000F0E0EE0FFF1FE453FF4F85919491DC0148
:101020009FB7F8948C91611103C01095812301C082
:10103000812B8C939FBF0F90DF91CF911F910F91C8
:101040000895CF93DF93282F30E0F901EA57FF4F3F
:101050008491F901E656FF4FD491F901E255FF4F13
:10106000C491CC2389F081110E948807EC2FF0E015
:10107000EE0FFF1FEE53FF4F85919491DC018C9191
:101080008D2321E030E011F420E030E0C901DF9150
:10109000CF910895FC0184859585FC01E05CFF4FAC
:1010A00020813181FC01EE5BFF4F80819181281B03
:1010B000390B2F733327C9010895FC018485958569
:1010C000FC01E05CFF4F40815181FC01EE5BFF4F72
:1010D000208131814217530741F00190F081E02DCA
:1010E000E80FF91F208130E002C02FEF3FEFC90168
:1010F0000895FC0184859585FC01E05CFF4F4081EB
:101100005181FC01EE5BFF4F208131814217530773
:1011100081F0A081B181A80FB91F8C91208131810C
:101120002F5F3F4F2F73332731832083282F30E0E9
:1011300002C02FEF3FEFC9010895FC0181A1882370
:1011400029F0A489B5898C9186FFFBCF11A208955F
:10115000CF93DF93FC0126853785D901A05CBF4F73
:101160008D919C91119701968F739927E901CE5B20
:10117000DF4F4881598184179507D9F30D90BC91B1
:10118000A02DA20FB31F6C93A685B785A05CBF4F9F
:1011900011969C938E93A689B7892C9181E090E05B
:1011A000078C02C0880F991F0A94E2F7282B2C9312
:1011B00081E081A30488F589E02D808180648083AB
:1011C00081E090E0DF91CF91089508951F920F92F2
:1011D0000FB60F9211242F933F934F938F939F93AA
:1011E000EF93FF938091C00082FD1CC04091C60028
:1011F0008091290290912A0201968F73992720915C
:101200002B0230912C028217930771F0E091290292
:10121000F0912A02E751FE4F408390932A02809377
:10122000290202C08091C600FF91EF919F918F919A
:101230004F913F912F910F900FBE0F901F901895D7
:1012400083E891E00E944A08892B11F00C94E5088C
:1012500008951F920F920FB60F9211242F933F9370
:101260008F939F93EF93FF932091E5013091E601D7
:101270008091E7019091E8012817390731F48091B6
:10128000C1008F7D8093C10014C0E091E701F0910F
:10129000E801EB55FE4F20818091E7019091E80134
:1012A00001968F7399279093E8018093E70120932B
:1012B000C600FF91EF919F918F913F912F910F90D9
:1012C0000FBE0F901F901895CF92DF92EF92FF9272
:1012D000CF93DF93EC016A017B01411581EE580742
:1012E00061057105F9F0EC89FD8981E090E008A0C5
:1012F00002C0880F991F0A94E2F7808360E079E0CA
:101300008DE390E0A70196010E944310215031091E
:10131000410951095695479537952795211580E143
:10132000380798F0EC89FD89108260E874E88EE156
:1013300090E0A70196010E94431021503109410914
:1013400051095695479537952795E889F98930834E
:10135000EA89FB89208319A2EE89FF89408181E017
:1013600090E09C010C8C02C0220F331F0A94E2F71C
:10137000422B4083EE89FF8940819C010D8C02C085
:10138000220F331F0A94E2F7422B4083EE89FF8934
:1013900040819C010E8C02C0220F331F0A94E2F799
:1013A000422B4083EE89FF8920810F8C02C0880F79
:1013B000991F0A94E2F7809582238083DF91CF9171
:1013C000FF90EF90DF90CF900895109286011092D9
:1013D000850188EE93E0A0E0B0E0809387019093D0
:1013E0008801A0938901B0938A018FE491E09093E2
:1013F00084018093830189EE91E090939001809322
:101400008F0185EA91E0909392018093910185ECA0
:1014100090E0909394018093930184EC90E09093FA
:1014200096018093950180EC90E0909398018093D1
:10143000970181EC90E090939A018093990182EC5E
:1014400090E090939C0180939B0186EC90E09093B8
:101450009E0180939D0184E080939F0183E08093AF
:10146000A00187E08093A10185E08093A20181E043
:101470008093A30108950E944D070E94BF05C0E21A
:10148000D9E00E940A062097E1F30E942009F9CFD3
:101490000C94610CCF92DF92EF92FF920F931F9307
:1014A000CF93DF936C01EB017A01E60EF71E00E0AB
:1014B00010E00BC06991D601ED91FC910190F08193
:1014C000E02DC6010995080F191FCE15DF0591F70C
:1014D000C801DF91CF911F910F91FF90EF90DF90A6
:1014E000CF9008956115710581F0DB010D9000200A
:1014F000E9F7AD0141505109461B570BDC01ED9155
:10150000FC910280F381E02D099480E090E0089541
:101510000C94720ADC01ED91FC910190F081E02DB8
:1015200009940F931F93CF93DF93EC016DE00E941A
:101530008A0A8C016AE0CE010E948A0A9C01200F6F
:10154000311FC901DF91CF911F910F9108954F92E3
:101550005F926F927F929F92AF92BF92CF92DF92F3
:10156000EF92FF920F931F93CF93DF93CDB7DEB728
:10157000A1970FB6F894DEBF0FBECDBF5C016A0124
:101580007B01922E19A281E0821710F08AE0982E3A
:101590008E010F5D1F4F492C512C612C712CC701FE
:1015A000B601A30192010E9443108C2D929E8019D6
:1015B0001124015011098A3014F4805D01C0895C46
:1015C000F801808369017A01C114D104E104F104B6
:1015D00031F7B801C5010E94720AA1960FB6F894BE
:1015E000DEBF0FBECDBFDF91CF911F910F91FF9056
:1015F000EF90DF90CF90BF90AF909F907F906F90D3
:101600005F904F900895CF92DF92EF92FF920F93E9
:101610001F93CF93DF93EC016A017B012115310504
:1016200079F4E881F9810190F081E02D642FDF9158
:10163000CF911F910F91FF90EF90DF90CF90099481
:101640002A30310519F477FD0EC02AE0B701A60152
:10165000CE01DF91CF911F910F91FF90EF90DF901E
:10166000CF900C94A70A6DE20E948A0A8C0144274D
:101670005527BA014C195D096E097F092AE0CE0190
:101680000E94A70A080F191FC801DF91CF911F916F
:101690000F91FF90EF90DF90CF9008959A01AB01EA
:1016A000662757FD6095762F0C94030B7F928F92DF
:1016B0009F92AF92BF92CF92DF92EF92FF920F93E1
:1016C0001F93CF93DF93EC016A017B01122F9A01E4
:1016D000AB01C701B6010E94FB0F882319F06BE52F
:1016E00071E032C046015701E894B7F82FEF3FEFA1
:1016F0004FE75FE7C501B4010E94FB0F81110DC0E8
:101700002FEF3FEF4FE75FE7C501B4010E94030EE3
:1017100018161CF46FE571E017C02FEF3FEF4FE78D
:101720005FE4C701B6010E948E0F18160CF40AC0C0
:101730002FEF3FEF4FE75FECC701B6010E94030EAA
:1017400087FF12C063E671E0CE01DF91CF911F9158
:101750000F91FF90EF90DF90CF90BF90AF909F9050
:101760008F907F900C94720A20E030E0A901C701AD
:10177000B6010E94030E87FF0AC06DE2CE010E94EF
:101780008A0A5C01F7FAF094F7F8F09402C0A12CF1
:10179000B12C00E060E070E080E09FE307C020E053
:1017A00030E040E251E40E940A0E0F5F0113F7CFD0
:1017B000262F372F482F592FC701B6010E949F0DA2
:1017C000762E872E982EC92E0E94770ED62EE72EC3
:1017D000F82E092F0E94A30E9B01AC01672D782DD6
:1017E000892D9C2D0E949E0DC62E972E882E792E17
:1017F0002AE04D2D5E2D6F2D702FCE010E94A70A7D
:101800007C01EA0CFB1C1123B9F167E671E0CE0103
:101810000E94720AE80EF91E2FC020E030E040E27C
:1018200051E46C2D792D882D972D0E94920F762EE4
:10183000072F6C019D2D0E94720E4B01AA2497FC6C
:10184000A094BA2C2AE030E0B501A401CE010E9498
:10185000030BE80EF91EC501B4010E94A50E9B0101
:10186000AC01672D702F8C2D9D2D0E949E0DC62ED4
:10187000972E882E792E11501111CFCFC701DF91ED
:10188000CF911F910F91FF90EF90DF90CF90BF907D
:10189000AF909F908F907F9008950F931F93CF9359
:1018A000DF93EC010E94560B8C01CE010E94910A3D
:1018B0009801280F391FC901DF91CF911F910F9116
:1018C00008950F931F93CF93DF938230910510F407
:1018D00082E090E0E0912F02F091300220E030E0D1
:1018E000C0E0D0E023C04081518148175907A8F0DB
:1018F0004817590761F482819381209719F09B83DF
:101900008A832EC09093300280932F0229C0211524
:10191000310529F04217530710F0A90102C0BE019A
:10192000DF0102811381EF019A01F8013097D9F6A6
:101930002115310509F1281B390B2430310590F4AC
:1019400012968D919C9113976115710521F0FB0101
:101950009383828304C09093300280932F02FD0111
:10196000329644C0FD01E20FF31F81939193225000
:1019700031092D933C933AC020912D0230912E02D3
:10198000232B41F4209102013091030130932E0268
:1019900020932D0220910001309101012115310584
:1019A00041F42DB73EB74091040150910501241B2D
:1019B000350BE0912D02F0912E02E217F307A0F40F
:1019C0002E1B3F0B2817390778F0AC014E5F5F4F95
:1019D0002417350748F04E0F5F1F50932E02409397
:1019E0002D028193919302C0E0E0F0E0CF01DF91FE
:1019F000CF911F910F910895EF92FF920F931F9334
:101A0000CF93DF93009709F48FC0DC0112971396F0
:101A10001C921E921297E0902F02F0903002E11477
:101A2000F10489F42D913C911197280F391F809171
:101A30002D0290912E028217930789F5B0932E0202
:101A4000A0932D0271C0E70120E030E001C0EA015F
:101A5000CA17DB0738F44A815B819E0141155105A5
:101A6000B1F722C0BC0162507109FB01D383C2836C
:101A700000811181AC01400F511F4C175D0761F4CB
:101A800048815981400F511F4E5F5F4F5183408302
:101A90004A815B81538342832115310529F4B09338
:101AA0003002A0932F0240C0F901B383A283E90161
:101AB00069917991C60FD71FAC17BD0779F4DC0186
:101AC0005E914E91460F571F4E5F5F4F518340838B
:101AD00012968D919C91139793838283A0E0B0E03E
:101AE00002C0D7017C01F701828193810097C9F779
:101AF000C701029620813181820F931F20912D0210
:101B000030912E022817390779F4109729F4109292
:101B1000300210922F0204C013961C921E9212974C
:101B2000F0922E02E0922D02DF91CF911F910F9142
:101B3000FF90EF900895F8940C946B105058BB27C9
:101B4000AA270ED0A0C169D130F06ED120F031F4B7
:101B50009F3F11F41EF45EC10EF4E095E7FB54C103
:101B6000E92FB3D180F3BA1762077307840795078B
:101B700018F071F49EF5CBC10EF4E0950B2EBA2F40
:101B8000A02D0B01B90190010C01CA01A001112483
:101B9000FF27591B99F0593F50F4503E68F11A162F
:101BA000F040A22F232F342F4427585FF3CF4695C0
:101BB00037952795A795F0405395C9F77EF41F16E2
:101BC000BA0B620B730B840BBAF09150A1F0FF0FAC
:101BD000BB1F661F771F881FC2F70EC0BA0F621F98
:101BE000731F841F48F4879577956795B795F79588
:101BF0009E3F08F0B3CF9395880F08F09927EE0F1A
:101C0000979587950895DCD008F481E0089514D164
:101C1000E3954AC10CD037C107D140F0FED030F077
:101C200021F45F3F19F0F0C0511172C1F3C04DD1E2
:101C300098F39923C9F35523B1F3951B550BBB2793
:101C4000AA2762177307840738F09F5F5F4F220F40
:101C5000331F441FAA1FA9F333D00E2E3AF0E0E839
:101C600030D091505040E695001CCAF729D0FE2F85
:101C700027D0660F771F881FBB1F26173707480717
:101C8000AB07B0E809F0BB0B802DBF01FF279358CD
:101C90005F4F2AF09E3F510568F0B6C039C15F3FE3
:101CA000ECF3983EDCF3869577956795B795F795B5
:101CB0009F5FC9F7880F911D9695879597F90895AD
:101CC000E1E0660F771F881FBB1F62177307840749
:101CD000BA0720F0621B730B840BBA0BEE1F88F758
:101CE000E095089504D06894B11112C10895F5D01B
:101CF00088F09F5790F0B92F9927B751A0F0D1F0F5
:101D0000660F771F881F991F1AF0BA95C9F712C07E
:101D1000B13081F0FCD0B1E00895F9C0672F782F81
:101D20008827B85F39F0B93FCCF3869577956795EA
:101D3000B395D9F73EF490958095709561957F4F56
:101D40008F4F9F4F0895E89409C097FB3EF49095FC
:101D50008095709561957F4F8F4F9F4F9923A9F084
:101D6000F92F96E9BB279395F69587957795679513
:101D7000B795F111F8CFFAF4BB0F11F460FF1BC057
:101D80006F5F7F4F8F4F9F4F16C0882311F096E9EA
:101D900011C0772321F09EE8872F762F05C0662398
:101DA00071F096E8862F70E060E02AF09A95660F51
:101DB000771F881FDAF7880F9695879597F908950A
:101DC000990F0008550FAA0BE0E8FEEF161617064C
:101DD000E807F907C0F012161306E407F50798F0B4
:101DE000621B730B840B950B39F40A2661F0232BCD
:101DF000242B252B21F408950A2609F4A140A69549
:101E00008FEF811D811D089597F99F6780E870E02D
:101E100060E008959FEF80EC089500240A94161660
:101E2000170618060906089500240A9412161306C8
:101E3000140605060895EECF50D0E8F3E894E0E0EC
:101E4000BB279F57F0F02AED3FE049EC06C0EE0FAC
:101E5000BB0F661F771F881F28F0B23A620773070F
:101E6000840728F0B25A620B730B840BE3959A95A2
:101E700072F7803830F49A95BB0F661F771F881F62
:101E8000D2F79048BEC0092E0394000C11F48823A9
:101E900052F0BB0F40F4BF2B11F460FF04C06F5F22
:101EA0007F4F8F4F9F4F0895EF93E0FF06C0A2EA48
:101EB0002AED3FE049EC5FEB53DEE5DF0F90039442
:101EC00001FC9058E8E6F0E0A8C057FD9058440F98
:101ED000551F59F05F3F71F04795880F97FB991F89
:101EE00061F09F3F79F08795089512161306140646
:101EF000551FF2CF4695F1DF08C0161617061806D3
:101F0000991FF1CF86957105610508940895E894AD
:101F1000BB2766277727CB0197F9089551DF08F48F
:101F20008FEF08950BD0AFCF78DF28F07DDF18F06A
:101F3000952309F069CF6ECF1124EACFC6DFA0F355
:101F4000959FD1F3950F50E0551F629FF001729F4E
:101F5000BB27F00DB11D639FAA27F00DB11DAA1F6D
:101F6000649F6627B00DA11D661F829F2227B00DBA
:101F7000A11D621F739FB00DA11D621F839FA00D45
:101F8000611D221F749F3327A00D611D231F849F95
:101F9000600D211D822F762F6A2F11249F575040EC
:101FA0008AF0E1F088234AF0EE0FFF1FBB1F661F87
:101FB000771F881F91505040A9F79E3F510570F040
:101FC00023CFA6CF5F3FECF3983EDCF38695779561
:101FD0006795B795F795E7959F5FC1F7FE2B880F3B
:101FE000911D9695879597F908959F9325DF0F90FA
:101FF00007FCEE5F59CFE4DE880B990B08959F3FF5
:1020000031F0915020F4879577956795B795880FB3
:10201000911D9695879597F908959F938F937F9338
:102020006F93FF93EF939B01AC017CDFEF91FF91E6
:1020300005D02F913F914F915F9174CFDF93CF9354
:102040001F930F93FF92EF92DF927B018C016894B4
:1020500005C0DA2EEF0172DFFE01E894A59125910B
:10206000359145915591AEF3EF017ADDFE0197016F
:10207000A801DA9479F7DF90EF90FF900F911F910C
:10208000CF91DF910895A1E21A2EAA1BBB1BFD017F
:102090000DC0AA1FBB1FEE1FFF1FA217B307E40747
:1020A000F50720F0A21BB30BE40BF50B661F771F9F
:1020B000881F991F1A9469F760957095809590957F
:1020C0009B01AC01BD01CF010895EE0FFF1F0590EC
:0A20D000F491E02D0994F894FFCF7D
:1020DA0000003102800020636D6447202000202028
:1020EA00472020002020636D6444202000202044E3
:1020FA002020007469634720203A00202074696315
:10210A004420203A0020207820203A0020207920FC
:10211A003A0020206361703A20200000000000A8E5
:10212A00084A0A4A0879085D089D086E616E0069C6
:0A213A006E66006F7666002E00004E
:00000001FF
