:100000000C9471000C9430030C945D030C949900D3
:100010000C9499000C9499000C9499000C949900FC
:100020000C9499000C9499000C9499000C949900EC
:100030000C9499000C9499000C9499000C949900DC
:100040000C948A030C9499000C9448050C948B052D
:100050000C9499000C9499000C9499000C949900BC
:100060000C9499000C94990005A84CCDB2D44EB9CB
:100070003836A9020C50B9918688083CA6AAAA2A4B
:10008000BE000000803F00000007000201000003E6
:100090000406000000000000000001020408102017
:1000A000408001020408102001020408102004040A
:1000B0000404040404040202020202020303030310
:1000C00003030000000023002600290000000000B8
:1000D000250028002B0000000000240027002A0033
:1000E000470611241FBECFEFD8E0DEBFCDBF11E021
:1000F000A0E0B1E0EEE9F9E102C005900D92AC3468
:10010000B107D9F712E0ACE4B1E001C01D92A13112
:10011000B107E1F710E0C2EED0E004C02297FE0183
:100120000E94C90CC03ED107C9F70E949D060C94DD
:10013000FD090C9400008F929F92AF92BF92CF92D4
:10014000DF92EF92FF92CF93DF93EC016A017B0184
:1001500088849984AA84BB84C501B4010E94690A79
:100160009B01AC01C701B6010E94F40B9B01AC01DD
:10017000688179818A819B810E94010A68837983E1
:100180008A839B83C501B4010E94570C9B01AC017B
:10019000C701B6010E94F40B9B01AC016C817D810B
:1001A0008E819F810E94010A6C837D838E839F8351
:1001B000DF91CF91FF90EF90DF90CF90BF90AF9005
:1001C0009F908F900895CF93DF93EC0166E071E0EC
:1001D00083E691E00E94EA0640915001509151015E
:1001E00060915201709153012AE030E083E691E082
:1001F0000E9465076EE071E083E691E00E94EA06E6
:1002000040914C0150914D0160914E0170914F0110
:100210002AE030E083E691E00E94650768E171E042
:1002200083E691E00E94EA06688179818A819B8158
:100230000E94D40A4AE050E083E691E00E94B007B1
:100240006FE171E083E691E00E94EA066C817D81B6
:100250008E819F810E94D40A4AE050E083E691E0BB
:100260000E94B00765E271E083E691E00E94EA0631
:1002700020E030E044EB53E4688579858A859B85EE
:100280000E94F40B23EC35EF48E450E40E946C0A22
:10029000AB01BC0122E030E083E691E0DF91CF9139
:1002A0000C94AF08CF93DF93EC01188219821A8265
:1002B0001B821C821D821E821F82188619861A8646
:1002C0001B866AE070E00C960E94A2026EE170E06C
:1002D000CE0144960E94A20240E655EE60ED7EEB10
:1002E0004C8F5D8F6E8F7F8F48A359A36AA37BA32A
:1002F0004AE752EB65ED7AE34CA35DA36EA37FA3BF
:1003000019A618A61BA61AA6DF91CF9108958F9261
:100310009F92AF92BF92CF92DF92EF92FF92CF93D4
:10032000DF93EC01C8A0D9A0EAA0FBA060914C012A
:1003300070914D0180914E0190914F010E94070BE9
:10034000A70196010E94F40B4B015C0160915001E2
:100350007091510180915201909153010E94070BBD
:10036000A70196010E94F40B9B01AC01C501B401E9
:100370000E94000A2CA13DA14EA15FA10E94F40B96
:10038000688779878A879B87DF91CF91FF90EF906D
:10039000DF90CF90BF90AF909F908F900895AF92D5
:1003A000BF92CF92DF92EF92FF920F931F93CF9362
:1003B000DF93EC010E94870100E511E0F801608104
:1003C000718188A599A5681B790B882777FD809591
:1003D000982F0E94070B2C8D3D8D4E8D5F8D0E94B6
:1003E000F40B6B017C018CE4A82E81E0B82EF501A2
:1003F000608171818AA59BA5681B790B882777FD91
:100400008095982F0E94070B28A139A14AA15BA1D2
:100410000E94F40B9B01AC01C701B6010E94010AC6
:1004200020E030E040E05FE30E94F40BAB01BC0150
:10043000CE010E949B00F501808191819BA78AA734
:10044000F8018081918199A788A7DF91CF911F91B1
:100450000F91FF90EF90DF90CF90BF90AF900895F5
:100460000F931F93CF93DF93EC018C01045F1F4F19
:10047000C8010E94AE02882349F0C8010E9496027A
:10048000CE010E94CF01CE010E94E3006496CE010E
:100490000E94AE02882339F0CE01DF91CF911F91E7
:1004A0000F910C949602DF91CF911F910F910895B7
:1004B00089E00E9483044091500150915101609164
:1004C000520170915301019729F44F5F5F4F6F4FB5
:1004D0007F4F04C041505109610971094093500197
:1004E000509351016093520170935301089588E035
:1004F0000E94830440914C0150914D0160914E0146
:1005000070914F01019729F44F5F5F4F6F4F7F4FFD
:1005100004C0415051096109710940934C01509345
:100520004D0160934E0170934F010895CF93DF9377
:10053000EC010E94D4036C837D838E839F83DF91C3
:10054000CF910895AB01662757FD6095762FFC018A
:1005500040835183628373830C9496020F931F939D
:10056000CF93DF93EC010E94D4030C811D812E8177
:100570003F81601B710B820B930B41E00881198155
:100580002A813B8106171707280739070CF040E03E
:10059000842FDF91CF911F910F910895CF93DF9317
:1005A00043E050E068E572E081E00E94100343E020
:1005B00050E067E772E080E00E94100340E855E2F7
:1005C00060E070E083E691E00E94C60561E08BE0A8
:1005D0000E944B0461E08AE00E944B0461E086E0E7
:1005E0000E944B0461E085E00E944B0485B5887F42
:1005F00085BD85B5816085BD8CE290E00E94AA062C
:10060000EC010E945201D0935501C0935401DF9137
:10061000CF91089580915401909155010C9430022E
:100620008230E8F4E82FF0E0EE0FFF1FEA5AFE4FA9
:1006300071836083813041F0809169008C7F842BCD
:1006400080936900E89A089580916900440F551FCE
:10065000440F551F837F842B80936900E99A089586
:100660001F920F920FB60F9211242F933F934F9327
:100670005F936F937F938F939F93AF93BF93EF930A
:10068000FF938091560190915701892B29F0E091B9
:100690005601F09157010995FF91EF91BF91AF91EC
:1006A0009F918F917F916F915F914F913F912F918A
:1006B0000F900FBE0F901F9018951F920F920FB6BC
:1006C0000F9211242F933F934F935F936F937F93D8
:1006D0008F939F93AF93BF93EF93FF9380915801B4
:1006E00090915901892B29F0E0915801F09159011D
:1006F0000995FF91EF91BF91AF919F918F917F915C
:100700006F915F914F913F912F910F900FBE0F907E
:100710001F9018951F920F920FB60F9211242F93CE
:100720003F938F939F93AF93BF9380915A01909182
:100730005B01A0915C01B0915D0130916201232FBA
:100740002D5F2D3720F40196A11DB11D05C0232F6B
:100750002A570296A11DB11D2093620180935A0170
:1007600090935B01A0935C01B0935D0180915E0169
:1007700090915F01A0916001B09161010196A11D6E
:10078000B11D80935E0190935F01A0936001B093CF
:100790006101BF91AF919F918F913F912F910F90E8
:1007A0000FBE0F901F9018950F931F938FB7F8945B
:1007B00000915A0110915B0120915C0130915D0123
:1007C0008FBFB801C9011F910F910895789484B526
:1007D000826084BD84B5816084BD85B5826085BD3D
:1007E00085B5816085BDEEE6F0E080818160808323
:1007F000E1E8F0E010828081826080838081816006
:100800008083E0E8F0E0808181608083E1EBF0E0CC
:10081000808184608083E0EBF0E080818160808370
:10082000EAE7F0E080818460808380818260808359
:100830008081816080838081806880831092C10084
:100840000895833069F028F48130A1F0823011F5E9
:1008500014C08630B1F08730C1F08430D9F404C0C0
:10086000809180008F7703C0809180008F7D80937E
:100870008000089584B58F7702C084B58F7D84BDD4
:1008800008958091B0008F7703C08091B0008F7D74
:100890008093B0000895CF93DF9390E0FC01E6567B
:1008A000FF4F4491FC01E255FF4F8491882341F1B1
:1008B00090E0880F991FFC01EA52FF4F2591349177
:1008C000D90184539F4FFC0185919491C82FD92F52
:1008D0009FB7F8948C91611106C0409584238C9346
:1008E0008881842308C0623041F4242F209582231C
:1008F0008C938881842B888302C0842B8C939FBF28
:10090000DF91CF910895CF93DF93282F30E0F90145
:10091000EA57FF4F8491F901E656FF4FD491F90150
:10092000E255FF4FC491CC2389F081110E9421042C
:10093000EC2FF0E0EE0FFF1FEE53FF4F85919491E7
:10094000DC018C918D2321E030E011F420E030E0D7
:10095000C901DF91CF910895FC0184859585FC0143
:10096000E05CFF4F20813181FC01EE5BFF4F808115
:100970009181281B390B2F733327C9010895FC017E
:1009800084859585FC01E05CFF4F40815181FC012D
:10099000EE5BFF4F208131814217530741F00190F8
:1009A000F081E02DE80FF91F208130E002C02FEF29
:1009B0003FEFC9010895FC0184859585FC01E05C49
:1009C000FF4F40815181FC01EE5BFF4F208131815F
:1009D0004217530781F0A081B181A80FB91F8C91F4
:1009E000208131812F5F3F4F2F7333273183208345
:1009F000282F30E002C02FEF3FEFC9010895FC011E
:100A000081A1882329F0A489B5898C9186FFFBCF29
:100A100011A20895CF93DF93FC0126853785D90174
:100A2000A05CBF4F8D919C91119701968F73992770
:100A3000E901CE5BDF4F4881598184179507D9F3CF
:100A40000D90BC91A02DA20FB31F6C93A685B78506
:100A5000A05CBF4F11969C938E93A689B7892C9169
:100A600081E090E0078C02C0880F991F0A94E2F79A
:100A7000282B2C9381E081A30488F589E02D8081C7
:100A80008064808381E090E0DF91CF9108950895A4
:100A90001F920F920FB60F9211242F933F934F93F3
:100AA0008F939F93EF93FF938091C00082FD1CC0B2
:100AB0004091C6008091090290910A0201968F73BD
:100AC000992720910B0230910C028217930771F045
:100AD000E0910902F0910A02E753FE4F40839093A0
:100AE0000A028093090202C08091C600FF91EF9133
:100AF0009F918F914F913F912F910F900FBE0F902B
:100B00001F90189583E691E00E94AC04892B11F0A8
:100B10000C94470508951F920F920FB60F9211245F
:100B20002F933F938F939F93EF93FF932091C50152
:100B30003091C6018091C7019091C80128173907EB
:100B400031F48091C1008F7D8093C10014C0E09189
:100B5000C701F091C801EB57FE4F20818091C7017A
:100B60009091C80101968F7399279093C801809343
:100B7000C7012093C600FF91EF919F918F913F9104
:100B80002F910F900FBE0F901F901895CF92DF926C
:100B9000EF92FF92CF93DF93EC016A017B01411545
:100BA00081EE580761057105F9F0EC89FD8981E056
:100BB00090E008A002C0880F991F0A94E2F7808392
:100BC00060E079E08DE390E0A70196010E94A50C1A
:100BD0002150310941095109569547953795279577
:100BE000211580E1380798F0EC89FD89108260E8D2
:100BF00074E88EE190E0A70196010E94A50C2150B7
:100C00003109410951095695479537952795E88946
:100C1000F9893083EA89FB89208319A2EE89FF894B
:100C2000408181E090E09C010C8C02C0220F331FB8
:100C30000A94E2F7422B4083EE89FF8940819C01B0
:100C40000D8C02C0220F331F0A94E2F7422B40831F
:100C5000EE89FF8940819C010E8C02C0220F331F58
:100C60000A94E2F7422B4083EE89FF8920810F8CA2
:100C700002C0880F991F0A94E2F78095822380832F
:100C8000DF91CF91FF90EF90DF90CF900895109279
:100C900066011092650188EE93E0A0E0B0E08093D9
:100CA000670190936801A0936901B0936A0182E3A0
:100CB00091E0909364018093630189EC91E09093BB
:100CC000700180936F0185E891E0909372018093A9
:100CD000710185EC90E0909374018093730184EC32
:100CE00090E0909376018093750180EC90E0909372
:100CF00078018093770181EC90E090937A01809362
:100D0000790182EC90E090937C0180937B0186ECEA
:100D100090E090937E0180937D0184E080937F0139
:100D200083E08093800187E08093810185E0809358
:100D3000820181E08093830108950E94E6030E946E
:100D4000CE02C2E8D5E00E940A032097E1F30E9498
:100D50008205F9CF0C94C308CF92DF92EF92FF92F5
:100D60000F931F93CF93DF936C01EB017A01E60E93
:100D7000F71E00E010E00BC06991D601ED91FC91E7
:100D80000190F081E02DC6010995080F191FCE15BD
:100D9000DF0591F7C801DF91CF911F910F91FF906F
:100DA000EF90DF90CF9008956115710581F0DB0120
:100DB0000D900020E9F7AD0141505109461B570B3A
:100DC000DC01ED91FC910280F381E02D099480E03B
:100DD00090E008950C94D406DC01ED91FC91019013
:100DE000F081E02D09940F931F93CF93DF93EC01D3
:100DF0006DE00E94EC068C016AE0CE010E94EC06D8
:100E00009C01200F311FC901DF91CF911F910F91DC
:100E100008954F925F926F927F929F92AF92BF928E
:100E2000CF92DF92EF92FF920F931F93CF93DF93B6
:100E3000CDB7DEB7A1970FB6F894DEBF0FBECDBF1A
:100E40005C016A017B01922E19A281E0821710F0E9
:100E50008AE0982E8E010F5D1F4F492C512C612C7A
:100E6000712CC701B601A30192010E94A50C8C2D23
:100E7000929E80191124015011098A3014F4805D6A
:100E800001C0895CF801808369017A01C114D10431
:100E9000E104F10431F7B801C5010E94D406A1961E
:100EA0000FB6F894DEBF0FBECDBFDF91CF911F917B
:100EB0000F91FF90EF90DF90CF90BF90AF909F90F9
:100EC0007F906F905F904F900895CF92DF92EF9256
:100ED000FF920F931F93CF93DF93EC016A017B0185
:100EE0002115310579F4E881F9810190F081E02D37
:100EF000642FDF91CF911F910F91FF90EF90DF90C2
:100F0000CF9009942A30310519F477FD0EC02AE0FC
:100F1000B701A601CE01DF91CF911F910F91FF90F4
:100F2000EF90DF90CF900C9409076DE20E94EC06E1
:100F30008C0144275527BA014C195D096E097F09B8
:100F40002AE0CE010E940907080F191FC801DF918E
:100F5000CF911F910F91FF90EF90DF90CF90089568
:100F60009A01AB01662757FD6095762F0C946507B3
:100F70007F928F929F92AF92BF92CF92DF92EF9229
:100F8000FF920F931F93CF93DF93EC016A017B01D4
:100F9000122F9A01AB01C701B6010E945D0C882394
:100FA00019F06EE371E032C046015701E894B7F8DA
:100FB0002FEF3FEF4FE75FE7C501B4010E945D0CE3
:100FC00081110DC02FEF3FEF4FE75FE7C501B4017F
:100FD0000E94650A18161CF462E471E017C02FEF36
:100FE0003FEF4FE75FE4C701B6010E94F00B181610
:100FF0000CF40AC02FEF3FEF4FE75FECC701B601DB
:101000000E94650A87FF12C066E471E0CE01DF919D
:10101000CF911F910F91FF90EF90DF90CF90BF90F5
:10102000AF909F908F907F900C94D40620E030E09A
:10103000A901C701B6010E94650A87FF0AC06DE2D7
:10104000CE010E94EC065C01F7FAF094F7F8F094F8
:1010500002C0A12CB12C00E060E070E080E09FE3D2
:1010600007C020E030E040E251E40E946C0A0F5FCC
:101070000113F7CF262F372F482F592FC701B6015D
:101080000E94010A762E872E982EC92E0E94D90A18
:10109000D62EE72EF82E092F0E94050B9B01AC01DE
:1010A000672D782D892D9C2D0E94000AC62E972E23
:1010B000882E792E2AE04D2D5E2D6F2D702FCE01BA
:1010C0000E9409077C01EA0CFB1C1123B9F16AE4B8
:1010D00071E0CE010E94D406E80EF91E2FC020E078
:1010E00030E040E251E46C2D792D882D972D0E943F
:1010F000F40B762E072F6C019D2D0E94D40A4B0114
:10110000AA2497FCA094BA2C2AE030E0B501A401EF
:10111000CE010E946507E80EF91EC501B4010E94C8
:10112000070B9B01AC01672D702F8C2D9D2D0E940C
:10113000000AC62E972E882E792E11501111CFCF6E
:10114000C701DF91CF911F910F91FF90EF90DF903A
:10115000CF90BF90AF909F908F907F9008950F9306
:101160001F93CF93DF93EC010E94B8078C01CE014F
:101170000E94F3069801280F391FC901DF91CF9112
:101180001F910F9108950F931F93CF93DF93823098
:10119000910510F482E090E0E0910F02F0911002CE
:1011A00020E030E0C0E0D0E023C04081518148170A
:1011B0005907A8F04817590761F482819381209755
:1011C00019F09B838A832EC09093100280930F02A4
:1011D00029C02115310529F04217530710F0A90144
:1011E00002C0BE01DF0102811381EF019A01F80103
:1011F0003097D9F62115310509F1281B390B243018
:10120000310590F412968D919C911397611571059B
:1012100021F0FB019383828304C09093100280939A
:101220000F02FD01329644C0FD01E20FF31F8193CE
:101230009193225031092D933C933AC020910D0295
:1012400030910E02232B41F42091020130910301D1
:1012500030930E0220930D02209100013091010184
:101260002115310541F42DB73EB74091040150914D
:101270000501241B350BE0910D02F0910E02E217DF
:10128000F307A0F42E1B3F0B2817390778F0AC01A9
:101290004E5F5F4F2417350748F04E0F5F1F509386
:1012A0000E0240930D028193919302C0E0E0F0E0C2
:1012B000CF01DF91CF911F910F910895EF92FF928F
:1012C0000F931F93CF93DF93009709F48FC0DC0136
:1012D000129713961C921E921297E0900F02F090B4
:1012E0001002E114F10489F42D913C911197280F1B
:1012F000391F80910D0290910E028217930789F594
:10130000B0930E02A0930D0271C0E70120E030E01F
:1013100001C0EA01CA17DB0738F44A815B819E01EC
:1013200041155105B1F722C0BC0162507109FB01A2
:10133000D383C28300811181AC01400F511F4C1730
:101340005D0761F448815981400F511F4E5F5F4F27
:10135000518340834A815B81538342832115310548
:1013600029F4B0931002A0930F0240C0F901B38397
:10137000A283E90169917991C60FD71FAC17BD0708
:1013800079F4DC015E914E91460F571F4E5F5F4F1F
:101390005183408312968D919C91139793838283FE
:1013A000A0E0B0E002C0D7017C01F7018281938107
:1013B0000097C9F7C701029620813181820F931FE0
:1013C00020910D0230910E022817390779F41097F9
:1013D00029F41092100210920F0204C013961C926E
:1013E0001E921297F0920E02E0920D02DF91CF91C1
:1013F0001F910F91FF90EF900895F8940C94CD0CED
:101400005058BB27AA270ED0A0C169D130F06ED1A9
:1014100020F031F49F3F11F41EF45EC10EF4E0950C
:10142000E7FB54C1E92FB3D180F3BA176207730702
:101430008407950718F071F49EF5CBC10EF4E09582
:101440000B2EBA2FA02D0B01B90190010C01CA017E
:10145000A0011124FF27591B99F0593F50F4503E29
:1014600068F11A16F040A22F232F342F4427585F1B
:10147000F3CF469537952795A795F0405395C9F733
:101480007EF41F16BA0B620B730B840BBAF09150EB
:10149000A1F0FF0FBB1F661F771F881FC2F70EC08A
:1014A000BA0F621F731F841F48F48795779567955D
:1014B000B795F7959E3F08F0B3CF9395880F08F046
:1014C0009927EE0F979587950895DCD008F481E071
:1014D000089514D1E3954AC10CD037C107D140F02B
:1014E000FED030F021F45F3F19F0F0C0511172C10D
:1014F000F3C04DD198F39923C9F35523B1F3951B4C
:10150000550BBB27AA2762177307840738F09F5F24
:101510005F4F220F331F441FAA1FA9F333D00E2E93
:101520003AF0E0E830D091505040E695001CCAF700
:1015300029D0FE2F27D0660F771F881FBB1F2617C5
:1015400037074807AB07B0E809F0BB0B802DBF0198
:10155000FF2793585F4F2AF09E3F510568F0B6C0B1
:1015600039C15F3FECF3983EDCF38695779567953C
:10157000B795F7959F5FC9F7880F911D9695879549
:1015800097F90895E1E0660F771F881FBB1F621768
:1015900073078407BA0720F0621B730B840BBA0B26
:1015A000EE1F88F7E095089504D06894B11112C138
:1015B0000895F5D088F09F5790F0B92F9927B7512B
:1015C000A0F0D1F0660F771F881F991F1AF0BA9507
:1015D000C9F712C0B13081F0FCD0B1E00895F9C074
:1015E000672F782F8827B85F39F0B93FCCF38695FD
:1015F00077956795B395D9F73EF49095809570955A
:1016000061957F4F8F4F9F4F0895E89409C097FBD6
:101610003EF490958095709561957F4F8F4F9F4FC9
:101620009923A9F0F92F96E9BB279395F69587950D
:1016300077956795B795F111F8CFFAF4BB0F11F4D0
:1016400060FF1BC06F5F7F4F8F4F9F4F16C0882377
:1016500011F096E911C0772321F09EE8872F762FAD
:1016600005C0662371F096E8862F70E060E02AF0EE
:101670009A95660F771F881FDAF7880F96958795DA
:1016800097F90895990F0008550FAA0BE0E8FEEFAF
:1016900016161706E807F907C0F012161306E40736
:1016A000F50798F0621B730B840B950B39F40A262F
:1016B00061F0232B242B252B21F408950A2609F40D
:1016C000A140A6958FEF811D811D089597F99F6711
:1016D00080E870E060E008959FEF80EC08950024BA
:1016E0000A941616170618060906089500240A9487
:1016F00012161306140605060895EECF50D0E8F32F
:10170000E894E0E0BB279F57F0F02AED3FE049EC7A
:1017100006C0EE0FBB0F661F771F881F28F0B23A76
:1017200062077307840728F0B25A620B730B840BAD
:10173000E3959A9572F7803830F49A95BB0F661F3F
:10174000771F881FD2F79048BEC0092E0394000C63
:1017500011F4882352F0BB0F40F4BF2B11F460FF4B
:1017600004C06F5F7F4F8F4F9F4F0895EF93E0FF4F
:1017700006C0A2EA2AED3FE049EC5FEB53DEE5DF6D
:101780000F90039401FC9058E8E6F0E0A8C057FDE4
:101790009058440F551F59F05F3F71F04795880FDF
:1017A00097FB991F61F09F3F79F087950895121676
:1017B00013061406551FF2CF4695F1DF08C0161622
:1017C00017061806991FF1CF8695710561050894D3
:1017D0000895E894BB2766277727CB0197F90895EA
:1017E00051DF08F48FEF08950BD0AFCF78DF28F0EA
:1017F0007DDF18F0952309F069CF6ECF1124EACF71
:10180000C6DFA0F3959FD1F3950F50E0551F629F5F
:10181000F001729FBB27F00DB11D639FAA27F00D49
:10182000B11DAA1F649F6627B00DA11D661F829F70
:101830002227B00DA11D621F739FB00DA11D621F55
:10184000839FA00D611D221F749F3327A00D611D72
:10185000231F849F600D211D822F762F6A2F112454
:101860009F5750408AF0E1F088234AF0EE0FFF1FA7
:10187000BB1F661F771F881F91505040A9F79E3FDE
:10188000510570F023CFA6CF5F3FECF3983EDCF319
:10189000869577956795B795F795E7959F5FC1F71B
:1018A000FE2B880F911D9695879597F908959F9324
:1018B00025DF0F9007FCEE5F59CFE4DE880B990B14
:1018C00008959F3F31F0915020F487957795679563
:1018D000B795880F911D9695879597F908959F93D1
:1018E0008F937F936F93FF93EF939B01AC017CDF0A
:1018F000EF91FF9105D02F913F914F915F9174CF60
:10190000DF93CF931F930F93FF92EF92DF927B01B0
:101910008C01689405C0DA2EEF0172DFFE01E894B5
:10192000A5912591359145915591AEF3EF017ADD61
:10193000FE019701A801DA9479F7DF90EF90FF900C
:101940000F911F91CF91DF910895A1E21A2EAA1B4A
:10195000BB1BFD010DC0AA1FBB1FEE1FFF1FA2175F
:10196000B307E407F50720F0A21BB30BE40BF50B5C
:10197000661F771F881F991F1A9469F760957095E5
:10198000809590959B01AC01BD01CF010895EE0FAC
:0E199000FF1F0590F491E02D0994F894FFCF0D
:10199E000000110280007469634720203A00202065
:1019AE007469634420203A0020207820203A0020D9
:1019BE002079203A0020206361703A202000000038
:1019CE0000000A05AC06AC04DB04BF04FF046E6124
:0C19DE006E00696E66006F7666002E00D9
:00000001FF
