:100000000C9477000C9425160C9452160C949F00B7
:100010000C949F000C949F000C949F000C949F00E4
:100020000C949F000C949F000C949F000C949F00D4
:100030000C949F000C949F000C949F000C949F00C4
:100040000C94E0160C949F000C940F1A0C94521A06
:100050000C949F000C949F000C949F000C949F00A4
:100060000C949F000C949F0005A84CCDB2D44EB9BF
:100070003836A9020C50B9918688083CA6AAAA2A4B
:10008000BE000000803F00000007000201000003E6
:100090000406000000000000000001020408102017
:1000A000408001020408102001020408102004040A
:1000B0000404040404040202020202020303030310
:1000C00003030000000023002600290000000000B8
:1000D000250028002B0000000000240027002A0033
:1000E0006364696E6F70737578585B000E1B112422
:1000F0001FBECFEFD8E0DEBFCDBF12E0A0E0B1E081
:10010000ECE6F9E402C005900D92A43BB107D9F7E3
:1001100013E0A4EBB2E001C01D92AD37B107E1F7E7
:1001200010E0CEEED0E004C02297FE010E94B02481
:10013000CC3ED107C9F70E94641B0C94C61D0C94D9
:100140000000CF93DF93EC010E94EE05CE010C96E8
:100150000E9483026AE070E0CE018E589F4F0E9499
:1001600080146EE170E0CE0186589F4F0E9480148B
:10017000FE01EE57FF4F40E655EE60ED7EEB40830B
:10018000518362837383FE01EA57FF4F408351839B
:1001900062837383FE01E657FF4F4AEC5FEA65E531
:1001A0007BE34083518362837383FE01E257FF4FF9
:1001B00011821082C057DF4F19821882DF91CF91D0
:1001C0000895CF92DF92EF92FF92CF93DF93EC01ED
:1001D0006091B4027091B5028091B6029091B7021D
:1001E0000E942A1FFE01EA57FF4F20813181428180
:1001F00053810E9417206B017C016091B8027091BD
:10020000B9028091BA029091BB020E942A1FFE019E
:10021000EE57FF4F20813181428153810E94172088
:100220009B01AC01C701B6010E94231EFE01E657E7
:10023000FF4F20813181428153810E941720AB0101
:10024000BC01CE01DF91CF91FF90EF90DF90CF9076
:100250000C9459054F925F926F927F92AF92BF922A
:10026000CF92DF92EF92FF920F931F93CF93DF9382
:10027000EC010E94E10088EBE82E82E0F82E8E016E
:1002800002571F4FF70160817181F80180819181D0
:10029000681B790B882777FD8095982F0E942A1F6D
:1002A000FE01EE57FF4F20813181428153810E9430
:1002B00017202B013C0194EBA92E92E0B92E6E0180
:1002C000F0E9CF0ED11CF50160817181F6018081CA
:1002D0009181681B790B882777FD8095982F0E9464
:1002E0002A1FFE01EA57FF4F20813181428153814D
:1002F0000E9417209B01AC01C301B2010E94241E81
:1003000020E030E040E05FE30E941720AB01BC0139
:10031000CE010E945F05F50180819181F6019183F4
:100320008083F70180819181F80191838083DF913F
:10033000CF911F910F91FF90EF90DF90CF90BF90E2
:10034000AF907F906F905F904F900895CF92DF9223
:10035000EF92FF920F93CF93DF931F92CDB7DEB74B
:100360007B016A0166E071E08FEC92E029830E94D4
:10037000B31B4AE050E0B7018FEC92E00E948D1C65
:100380006EE071E08FEC92E00E94B31B4AE050E017
:100390002981622F70E08FEC92E00E948D1C64E155
:1003A00071E08FEC92E00E94B31B4AE050E0B6018E
:1003B0008FEC92E00E948D1C6DE171E08FEC92E079
:1003C0000E94B31B4AE050E0602F70E08FEC92E097
:1003D0000F90DF91CF910F91FF90EF90DF90CF9032
:1003E0000C948D1CAF92BF92CF92DF92EF92FF924E
:1003F0000F931F93CF93DF937C01EC012C96CE01DA
:100400000E942F056C01CE010E943A055C01CE01CD
:100410000E943505182FCE010E944005082F112398
:1004200011F061E001C060E08BE00E94D917002369
:1004300011F060E001C061E08AE00E94D917B601C6
:1004400086E00E947F16B50185E00E947F16212F6D
:10045000A501B601C7010E94A601DF91CF911F91AE
:100460000F91FF90EF90DF90CF90BF90AF900895E5
:10047000CF92DF92EF92FF920F931F93CF93DF9370
:10048000EC018C010E581F4FC8010E948C14882368
:1004900031F0C8010E947414CE010E942A018E011D
:1004A00006581F4FC8010E948C148823F1F0C80120
:1004B0000E947414C880D980EA80FB800C811D8161
:1004C0002E813F81488559856A857B85CE010C96B2
:1004D0000E94F204CE01DF91CF911F910F91FF9006
:1004E000EF90DF90CF900C94F201DF91CF911F91AC
:1004F0000F91FF90EF90DF90CF9008959C01245FC3
:100500003F4FC9010895CF92DF92EF92FF920F9370
:100510001F93CF93DF93EC010E94EE05CE010C9662
:100520000E94EE05CE0148960E94160619A218A256
:10053000C12CD12C80E2E82E82E4F82E00E010E0FD
:100540002CE832E440E050E064EB72E4CE018296A5
:100550000E94AC149DECC92E9CECD92E9CE4E92E93
:100560009EE3F92E03E313E323EB3EE340E050E088
:1005700060E07FE3CE01CF960E94AC14FE01E45A06
:10058000FF4F11821082FE01E25AFF4F118210824A
:10059000FE01EC59FF4F81E08083CB59DF4F888308
:1005A000DF91CF911F910F91FF90EF90DF90CF904F
:1005B00008958F929F92AF92BF92CF92DF92EF9267
:1005C000FF920F931F93CF93DF93CDB7DEB764975E
:1005D0000FB6F894DEBF0FBECDBF4C01A986BA8618
:1005E000CB86DC86ED86FE860F87188B298B3A8BAF
:1005F0004B8B5C8BFC0171A360A36130710529F00A
:100600006230710509F06DC057C0CE0109960E9495
:100610004505AB01BC018401045F1F4FC8010E9466
:100620005F052DB73EB72C5031090FB6F8943EBF89
:100630000FBE2DBFADB7BEB711968CE0F80101908B
:100640000D928A95E1F7F401C080D180E280F380B9
:1006500004811581268137814085518562857385A6
:10066000CE0101960E94200688E0FE013196D40159
:10067000589601900D928A95E1F7CE0109960E9455
:1006800045050FB6F894DEBF0FBECDBF20E030E0C9
:10069000A9010E94881E8401085E1F4F87FF03C0C6
:1006A000C8010E949706C8010E94AB0640E050E0D6
:1006B000BA01C401CF9613C0CE0109960E944F051E
:1006C000AB01BC018401045F1F4FC8010E945905A2
:1006D000C8010E944F05AB01BC01C40182960E9473
:1006E000DC1464960FB6F894DEBF0FBECDBFDF9169
:1006F000CF911F910F91FF90EF90DF90CF90BF901F
:10070000AF909F908F900895AF92BF92CF92DF925B
:10071000EF92FF920F931F93CF93DF93CDB7DEB786
:1007200060970FB6F894DEBF0FBECDBF5C01CE015F
:1007300009960E9416068501045F1F4FC8010E949A
:10074000A7058DB79EB70C970FB6F8949EBF0FBE46
:100750008DBFADB7BEB711968CE0F80101900D9238
:100760008A95E1F7F501C080D180E280F3800481B1
:100770001581268137814085518562857385CE013B
:1007800001960E94200688E0FE013196DE0119964E
:1007900001900D928A95E1F70FB6F894DEBF0FBE77
:1007A000CDBFF50180A191A18130910581F082300A
:1007B000910509F44AC0892B09F0A9C0EE59FF4FF1
:1007C00011821082F501E05AFF4F11821082F5016B
:1007D000C080D180E280F380048115812681378139
:1007E0004085518562857385CE0101960E94D506AC
:1007F00009811A812B813C814D815E816F817885D1
:10080000CE0109960E940F07AB01BC01C501CF962E
:100810000E94E2148501005A1F4F90580E94F71E53
:10082000F80171836083C5010E944F05AB01BC01D3
:10083000C50182960E94E214F2E6AF0EB11C0E943E
:10084000F71EF5017183608362C063E271E08FEC93
:1008500092E00E94B31BC5010E944F05AB01BC0191
:10086000C50182960E94E21485010E591F4F0E9415
:10087000F71EF801718360836BE271E08FEC92E008
:100880000E94B31BF501C080D180E280F380048117
:100890001581268137814085518562857385CE011A
:1008A00001960E94D50609811A812B813C814D81D8
:1008B0005E816F817885CE0109960E940F07AB019A
:1008C000BC01C501CF960E94E2148501005A1F4F5A
:1008D00090580E94F71EF80171836083F501C08073
:1008E000D180E280F38004811581268137814085A3
:1008F000518562857385CE0101960E94D506CE0191
:1009000001960E945907CE0109960E94590768E492
:1009100071E08FEC92E00E94D21B60960FB6F894C3
:10092000DEBF0FBECDBFDF91CF911F910F91FF9022
:10093000EF90DF90CF90BF90AF900895FC01E05A08
:10094000FF4F2081318137FF02C02F5F3F4FB90138
:1009500075956795FC01EE59FF4FB081A1812B2F52
:100960003A2F37FF02C02F5F3F4F35952795AB01D8
:10097000421B530BFC01E45AFF4F518340832B2F42
:100980003A2F37FF02C02F5F3F4F35952795260F2F
:10099000371FFC01E25AFF4F31832083DC01AC5941
:1009A000BF4F652F6095661F6627661F6C93DC013D
:1009B000AB59BF4F632F6095661F6627661F6C9308
:1009C00057FF08C0DC01A45ABF4F5195419551090A
:1009D0004D935C9337FF05C03195219531093183E3
:1009E00020830895AF92BF92CF92DF92EF92FF9251
:1009F0000F931F93CF93DF93CDB7DEB72C970FB62E
:100A0000F894DEBF0FBECDBF5C01C982DA82EB82F3
:100A1000FC820D831E832F83388749875A876B8713
:100A20007C878CE0FE013196D50101900D928A956C
:100A3000E1F7C5010E948403C5012C960FB6F89416
:100A4000DEBF0FBECDBFDF91CF911F910F91FF9001
:100A5000EF90DF90CF90BF90AF900C949E04FC017C
:100A6000E45AFF4F8081918108958C599F4FFC017A
:100A700080810895FC01E25AFF4F808191810895A1
:100A80008B599F4FFC0180810895FC015081418169
:100A900032812381652F742F832F922F0895FC01BB
:100AA0005085418532852385652F742F832F922FA2
:100AB0000895FC01408751876287738708958F925C
:100AC0009F92AF92BF92CF92DF92EF92FF92CF931D
:100AD000DF93EC016A017B0188849984AA84BB843A
:100AE000C501B4010E948C1E9B01AC01C701B60177
:100AF0000E9417209B01AC01688179818A819B81CA
:100B00000E94241E688379838A839B83C501B40174
:100B10000E947A209B01AC01C701B6010E941720F8
:100B20009B01AC016C817D818E819F810E94241E7E
:100B30006C837D838E839F83DF91CF91FF90EF90B5
:100B4000DF90CF90BF90AF909F908F900895CF93FC
:100B5000DF93EC0163E371E08FEC92E00E94B31B42
:100B6000688179818A819B810E94F71E4AE050E06A
:100B70008FEC92E00E948D1C6AE371E08FEC92E0B2
:100B80000E94B31B6C817D818E819F810E94F71E24
:100B90004AE050E08FEC92E00E948D1C60E471E02E
:100BA0008FEC92E00E94B31B20E030E044E353E47A
:100BB000688579858A859B850E94172023EC35EF0F
:100BC00048E450E40E948F1EAB01BC0122E030E0FB
:100BD0008FEC92E0DF91CF910C94A61DFC01108266
:100BE0001182128213821482158216821782108655
:100BF0001186128613860895CF92DF92EF92FF92AC
:100C00000F931F93FC01408351836283738304839A
:100C1000158326833783C086D186E286F3861F91AB
:100C20000F91FF90EF90DF90CF900895FC0110821C
:100C300011821282138214821582168217820895FD
:100C4000AF92BF92CF92DF92EF92FF920F931F93DA
:100C5000CF93DF93CDB7DEB72C970FB6F894DEBFF6
:100C60000FBECDBF5C01C982DA82EB82FC820D83AC
:100C70001E832F83388729813A814B815C81698D5E
:100C80007A8D8B8D9C8D0E94231EF501608371836C
:100C9000828393832D813E814F8158856D8D7E8D1A
:100CA0008F8D98A10E94231EF5016483758386832E
:100CB00097832C960FB6F894DEBF0FBECDBFDF91A1
:100CC000CF911F910F91FF90EF90DF90CF90BF9049
:100CD000AF9008958F929F92AF92BF92CF92DF9282
:100CE000EF92FF92FC016081718182819381C480C7
:100CF000D580E680F7809B01AC010E9417204B0154
:100D00005C01A7019601C701B6010E9417209B0153
:100D1000AC01C501B4010E94241EFF90EF90DF904A
:100D2000CF90BF90AF909F908F900C948420FC0147
:100D30004081518162817381705840835183628305
:100D400073834481558166817781705844835583CC
:100D5000668377830895CF92DF92EF92FF92CF93CD
:100D6000DF93EC010E946A066B017C019B01AC01E0
:100D7000688179818A819B810E948F1E6883798333
:100D80008A839B83A70196016C817D818E819F81DF
:100D90000E948F1E6C837D838E839F83DF91CF9112
:100DA000FF90EF90DF90CF900895CF92DF92EF9277
:100DB000FF920F931F93CF93DF93CDB7DEB72C979E
:100DC0000FB6F894DEBF0FBECDBF8C0149875A879E
:100DD0006B877C87C984DA84EB84FC84C701B60105
:100DE0000E948C1EF8016083718382839383C70104
:100DF000B6010E947A20F801648375838683978305
:100E00002C960FB6F894DEBF0FBECDBFDF91CF9109
:100E10001F910F91FF90EF90DF90CF900895AF92C8
:100E2000BF92CF92DF92EF92FF920F931F93CF93D7
:100E3000DF93CDB7DEB728970FB6F894DEBF0FBEAD
:100E4000CDBF5C0109831A832B833C834D835E8372
:100E50006F83788729813A814B815C81FC016081B5
:100E60007181828193810E9417206B017C012D8109
:100E70003E814F815885F501648175818681978116
:100E80000E9417209B01AC01C701B6010E94241EDD
:100E900028960FB6F894DEBF0FBECDBFDF91CF917D
:100EA0001F910F91FF90EF90DF90CF90BF90AF9088
:100EB0000895CF93DF93EC0169E471E08FEC92E049
:100EC0000E94B31B488159816A817B8122E030E016
:100ED0008FEC92E00E94A61D6EE471E08FEC92E030
:100EE0000E94B31B4C815D816E817F8122E030E0E6
:100EF0008FEC92E0DF91CF910C94A61D89E00E94C7
:100F000010184091B8025091B9026091BA027091E4
:100F1000BB02019729F44F5F5F4F6F4F7F4F04C0B3
:100F200041505109610971094093B8025093B902C7
:100F30006093BA027093BB02089588E00E94101873
:100F40004091B4025091B5026091B6027091B7021F
:100F5000019729F44F5F5F4F6F4F7F4F04C041509F
:100F60005109610971094093B4025093B50260932D
:100F7000B6027093B702089521E332E0FC01318399
:100F8000208308952BE732E0FC013183208321E3A5
:100F900032E0378326830895DC01ED91FC9136978A
:100FA00020813181820F931F0C94C20729E532E022
:100FB000FC01318320830895CF93DF93EC01E88116
:100FC000F9810288F389E02D09959C012F3F8FEF6D
:100FD000380729F08D819E8101969E838D83C901FA
:100FE000DF91CF910895CB0108958FEF9FEF089582
:100FF00080E090E0089508950895242FDC01ED919C
:10100000FC910084F185E02D41E0099480E090E0BE
:101010000895FC012289338980899189281B390B25
:1010200086899789281B390BC90108958F929F9251
:10103000AF92BF92EF92FF92CF93DF93FC01DB015F
:10104000812C912C5401C689D789E088F188828946
:1010500093898E199F09C817D907A0F482169306A1
:10106000A406B5067CF4CE0DDF1D88818D938FEF2D
:10107000881A980AA80AB80A868997890196978BD0
:10108000868BE1CFB401C501DF91CF91FF90EF9046
:10109000BF90AF909F908F900895FC01268937896B
:1010A0004089518982899389841B950B28173907B8
:1010B00030F4FA01E20FF31F208130E002C02FEF7D
:1010C0003FEFC9010895CF93DF93EC01E881F981E7
:1010D0000288F389E02D09959C012F3F8FEF380797
:1010E00029F08E899F8901969F8B8E8BC901DF9194
:1010F000CF910895FC0186899789009729F1A089ED
:10110000B189228933892A1B3B0B2817390718F428
:10111000378B268B19C001976F3F2FEF720729F489
:10112000978B868B60E070E011C0A80FB91F2C91DF
:10113000261303C0978B868B09C0278524FF04C024
:10114000978B868B6C9302C06FEF7FEFCB01089576
:1011500080E090E0089580E090E0089580E090E0E5
:10116000089580E090E0089560E070E0CB0108957C
:10117000CB0108957F928F929F92AF92BF92CF92B0
:10118000DF92EF92FF920F931F93CF93DF93EC01C7
:1011900049015A018B01C12CD12C76012FC0F801D5
:1011A00071908F018F8580FF0BC0E881F9810084E9
:1011B000F185E02D20E144E060E070E0CE0109958A
:1011C000EB85FC858D859E85E817F90738F47082DC
:1011D0008B859C8501969C878B870BC0E881F98164
:1011E000028CF38DE02D672D70E0CE0109950196FC
:1011F00061F02FEFC21AD20AE20AF20AC814D90427
:10120000EA04FB0464F275016401B601C701DF91D1
:10121000CF911F910F91FF90EF90DF90CF90BF90F3
:10122000AF909F908F907F90089529E532E0FC0168
:10123000318320830C94731B21E332E0FC01318362
:1012400020830C94731B2BE732E0FC013183208355
:1012500021E332E0378326830C94731BDC01ED918C
:10126000FC91369720813181820F931F0C942309C2
:10127000EF92FF920F931F93CF93DF937C01EB01CB
:101280008A0164177507A1F0FC0140815181401B60
:10129000510B4F5F5F4FB801CE010E94E71D0C1B41
:1012A0001D0BF70180819181801B910B91838083BD
:1012B000CE01DF91CF911F910F91FF90EF90089594
:1012C000CF93DF93EC01BC0181E090E00E94B21566
:1012D000FC0110821882DF91CF910895DC011396F2
:1012E0008D919C911497892B59F01596ED91FC9155
:1012F000169717968D919C911897E817F90741F466
:10130000ED91FC9111970488F589E02DCD010994A8
:1013100081911696FC93EE93159790E00895FC0149
:101320008581682B83899489892B09F001C06160CC
:1013300065830895FC01808191812481358128177E
:10134000390711F00C94D41808950C949A09CF938E
:10135000DF93EC0189E392E099838883CE01409684
:101360000E94A50989E592E099838883DF91CF9156
:101370000895CF93DF93EC010E94A709CE01DF917E
:10138000CF910C94731BCF93DF93EC018BE092E031
:101390009983888385E192E099A388A3CE0106967C
:1013A0000E94A7098FE192E09983888381E392E00C
:1013B00099A388A3DF91CF910895DC01ED91FC9171
:1013C000369720813181820F931F0C94C309CF93EC
:1013D000DF93EC010E94C309CE01DF91CF910C9401
:1013E000731BDC01ED91FC91369720813181820FD6
:1013F000931F0C94E709CF93DF93EC01FB0101905D
:101400000020E9F73197E61BF70B888199814A8123
:101410005B81481B590B4E175F0731F40E94D11DA9
:101420009C0181E0232B09F080E0DF91CF910895AA
:10143000DC0113968D919C911497892B59F0159688
:10144000ED91FC91169717968D919C911897E8173E
:10145000F90741F4ED91FC9111970288F389E02D91
:10146000CD010994808190E00895CF93DF93EC0142
:10147000E881F98136970190F081E02DEC0FFD1F96
:10148000838994890E94180A8F3F2FEF920789F071
:101490000E94C91D892BC9F0E881F9813697019016
:1014A000F081E02DEC0FFD1F838994890E946E0965
:1014B000DFCFE881F98136978081918162E08C0FDE
:1014C0009D1FDF91CF910C948F09DF91CF910895EB
:1014D000DF92EF92FF920F931F93CF93DF937C01E4
:1014E0008B01D42EDB01ED91FC9136970190F081B8
:1014F000E02DE60FF71FC189D2892097E9F0E88136
:10150000F98136970190F081E02DEC0FFD1F838962
:101510009489DC01ED91FC910484F585E02D099519
:10152000019651F4E881F98136978081918161E0DB
:101530008C0F9D1F0E948F09D11003C0C8010E940B
:10154000350A81E0F7018083DF91CF911F910F91E0
:10155000FF90EF90DF900895CF93DF93EC01009719
:1015600091F0CE010E9439189C01009771F4E0912E
:10157000BC02F091BD02309721F480E090E00E941F
:10158000C61D0995EECF20E030E0C901DF91CF9173
:1015900008950F931F93CF93DF93EC018B016F3F5F
:1015A0008FEF780759F0CB010E94AC0A99838883AA
:1015B0009B838A83080F191F1D830C83DF91CF91B2
:1015C0001F910F910895CF93DF93EC011982188238
:1015D0001B821A821D821C8268E070E00E94C90A88
:1015E0008A819B81DF91CF910C946009EF92FF92E9
:1015F0000F931F93CF93DF931F92CDB7DEB78C016C
:101600007B0164E670E00E948014F8011186108668
:10161000BE016F5F7F4FC8010A960E94E30A81E214
:1016200090E0F80195AB84AB16AA17AA10AE46E07D
:1016300050E060E070E041AF52AF63AF74AFFD9631
:101640001082118212821382F801EF5BFF4F80E259
:101650008083F801EE5BFF4F11821082F801EC5B92
:10166000FF4FC801479691838083F801EA5BFF4FE3
:101670001082F801138A148A158A168A8BE092E088
:10168000928B818B85E192E092AB81AB138E128EAF
:10169000158E148E178E168E11A210A213A212A2EE
:1016A00015A214A216A289E392E0908F878BBE0147
:1016B0006F5F7F4FC80187960E94E30AF80116A664
:1016C00015A610AA17A688E086A3E95BFF4FF18252
:1016D000E08281E0F801808B0F90DF91CF911F9124
:1016E0000F91FF90EF900895CF92DF92EF92FF92CB
:1016F0000F931F93CF93DF93EC018A819B81288105
:101700003981821B930B8617970708F4CB016C0174
:101710002FEFC21AD20AC6010E94AC0A8C0168815E
:101720007981EA80FB80E61AF70AA7010E94E71D8B
:10173000E00EF11EC7010E946009CE010E949A09C5
:1017400019830883FB82EA820C0D1D1D1D830C8307
:10175000DF91CF911F910F91FF90EF90DF90CF908D
:1017600008951F93CF93DF93EC01162F8A819B81FD
:101770009C012F5F3F4F4C815D814217530779F4E5
:1017800028813981821B930B11F09C0102C021E05A
:1017900030E0B901680F791FCE010E94740B8A8175
:1017A0009B8101960E946009EA81FB8110838A81F6
:1017B0009B8101969B838A83DF91CF911F9108952E
:1017C0000F931F93CF93DF93EC018B016F3F8FEF4C
:1017D0007807E9F08F8584FF1DC0288D398D4889F1
:1017E00059898A899B89841B950B2817390728F00A
:1017F000CE0140960E94B10B04C0FA01E20FF31F24
:101800006083888D998D0196998F888F05C000E03F
:1018100010E002C00FEF1FEFC801DF91CF911F91C1
:101820000F9108957F928F929F92AF92BF92CF9225
:10183000DF92EF92FF920F931F93CF93DF931F924C
:10184000CDB7DEB78C017B0140E0BC01CE01019633
:101850000E94680A2981D8018D919C91FC013697DC
:10186000222309F47FC00190F081E02DE00FF11FE9
:10187000C388D488D701ED91FC91119712968D9170
:101880009C911397E817F90741F010828D919C9174
:10189000119713969C938E931297D801ED91FC911A
:1018A00036970190F081E02D3296E00FF11F6285AE
:1018B00073858485958512861386148615865B014B
:1018C0006115710521F0C7010E94740B03C0AA24A1
:1018D000AA94BA2CC6010E946E094C018F3FBFEF3B
:1018E0009B0741F4D801ED91FC913697808191815D
:1018F00062E020C0992787FD90950E94C91DB1E044
:10190000AB1AB108892BD9F0F60183819481009735
:1019100089F10580F681E02DE817F90759F18291E8
:10192000881228C034C0D801ED91FC91369780818F
:10193000918164E0800F911F0E948F0907C0682D7C
:10194000C7010E94B10BA114B10421F6F701228155
:1019500033818081918128173907F9F4D801ED91FD
:10196000FC9136978081918164E0800F911F0E94E5
:101970008F0913C0D601ED91FC91B4017727068839
:10198000F789E02DC6010995019669F2DFCFD601EE
:101990001696FC93EE931597D9CFC8010F90DF915F
:1019A000CF911F910F91FF90EF90DF90CF90BF905C
:1019B000AF909F908F907F900895FF920F931F9309
:1019C000CF93DF93EC018B01F42E488159818A81FA
:1019D0009B81841B950BBC01600F711F2C813D8185
:1019E000241B350B215031092617370758F49C0169
:1019F0008017910708F49801B901680F791FCE018B
:101A00000E94740B01151105E1F02A813B81C90187
:101A10000196A901400F511F481B590B6F2D70E013
:101A20000E94F91D8A819B81800F911F0E9460098D
:101A3000EA81FB81F0828A819B81800F911F9B83C9
:101A40008A83CE01DF91CF911F910F91FF9008956E
:101A5000CF92DF92EF92FF920F931F93CF93DF937A
:101A60001F92CDB7DEB77C018B01BE016F5F7F4F48
:101A70000E94E30AD801ED91FC9136970190F08124
:101A8000E02DE00FF11F838994890E94180A6C01F0
:101A90008F3FBFEF9B0729F10E94C91D892B69F079
:101AA00020C0D801ED91FC9136978081918166E04C
:101AB000800F911F0E948F091CC0D801ED91FC91ED
:101AC00036970190F081E02DE00FF11F8389948912
:101AD0000E946E094C2D61E070E0C7010E94DD0C90
:101AE000C9CFF7012281338180819181281739077D
:101AF000C1F2C7010F90DF91CF911F910F91FF901D
:101B0000EF90DF90CF900895CF92DF92EF92FF9207
:101B10000F931F93CF93DF931F92CDB7DEB76C0166
:101B20008B01BE016F5F7F4F0E94E30AD801ED91E8
:101B3000FC9136970190F081E02DE00FF11F838931
:101B400094890E94180A7C018F3FBFEF9B0789F19F
:101B50000E94C91D892B69F5C701C0970A97A8F093
:101B6000EEE2EE16F10489F0FCE2EF16F10409F55D
:101B70000CC0D801ED91FC9136978081918166E08F
:101B8000800F911F0E948F091CC0D801ED91FC911C
:101B900036970190F081E02DE00FF11F8389948941
:101BA0000E946E094E2D61E070E0C6010E94DD0CBE
:101BB000BDCFF601228133818081918128173907B9
:101BC000C1F2C6010F90DF91CF911F910F91FF904D
:101BD000EF90DF90CF9008950F931F93CF93DF93F3
:101BE0008C01E22FE870322F30712871283121F4F6
:101BF000423009F05DC059C0413011F4EB0129C0F9
:101C00004230D1F4332371F0DC015296CD91DC9156
:101C1000539750968D919C915197C81BD90BC60F25
:101C2000D71F02C0C0E0D0E0EE2399F0D80156964D
:101C3000CD91DC9157970BC0D8015296CD91DC9194
:101C4000539750968D919C915197C81BD90BC60FF5
:101C5000D71FD80152964D915C91539750966D9134
:101C60007C915197CA01861B970B8C179D07E8F052
:101C7000EE2321F05796DC93CE9356973323D9F079
:101C80006C0F7D1FC80142960E943809F8018289B5
:101C9000938920893189821B930B26893789821782
:101CA000930748F4978B868B06C0CFEFDFEF03C016
:101CB000413011F6A3CFCE01DF91CF911F910F914B
:101CC00008958F929F92AF92BF92CF92DF92EF9240
:101CD000FF920F931F93CF93DF93EC017B01641767
:101CE000750709F45FC08A819B81688179814C0105
:101CF000861A970A8A010E191F09F801E80DF91DC5
:101D00002C813D81261B370B215031092E173F07AF
:101D100080F58FEF881A980AC8010431110510F474
:101D200084E190E0880E991EC4010E94AC0A6C0107
:101D300068817981AA80BB80A61AB70AA5010E9492
:101D4000E71DAC0CBD1CA801B701C5010E94E71D31
:101D5000A00EB11EC5010E946009CE010E949A0921
:101D6000D982C882BB82AA82C80CD91CDD82CC82EF
:101D700019C0B7016F5F7F4F461B570B01960E943A
:101D8000E71D8A819B81800F911F0E946009EA8173
:101D9000FB81D7018C9180838A819B81800F911F69
:101DA0009B838A83CE01DF91CF911F910F91FF908A
:101DB000EF90DF90CF90BF90AF909F908F9008955D
:101DC000CF92DF92EF92FF920F931F93CF93DF9307
:101DD000EC018B017A016A01C61AD70A2881398180
:101DE0008A819B81821B930B8C159D0578F0A6013F
:101DF000C9010E94DE1D4A815B81FE0161917191E2
:101E0000CF016C0D7D1D0E94380911C0AC01C901C4
:101E10000E94DE1D6A817B8188819981681B790B14
:101E2000600F711F20E0A701CE010E94610ECE015C
:101E3000DF91CF911F910F91FF90EF90DF90CF90A6
:101E40000895CF93DF93EC016817790739F0FB0110
:101E500042815381608171810E94E00ECE01DF9149
:101E6000CF910895CF93DF93EC0146960E94210F06
:101E70001D8E1C8E8D8981FF09C0888D998D2E89BC
:101E80003F89821B930B9F8F8E8F02C01F8E1E8EE9
:101E9000E881F98136970190F081E02DEC0FFD1F6C
:101EA00083899489892B11F0158202C081E0858392
:101EB000DF91CF910895EF92FF920F931F93CF93ED
:101EC000DF93CDB7DEB72D970FB6F894DEBF0FBE08
:101ED000CDBF7C018B01BE01635F7F4FCE010796B2
:101EE0000E94E30AB701CE0101960E94280DBE01AF
:101EF0006F5F7F4FCE0107960E94210FCE010196A2
:101F00000E94A50962E571E0CE0107960E94FB09D7
:101F100081111EC067E571E0CE0107960E94FB09A2
:101F2000811116C06CE571E0CE0107960E94FB0995
:101F300081110EC061E671E0CE0107960E94FB0997
:101F4000811106C009C0CE0107960E94A50907C0ED
:101F500081E0F8018083F7CFF8011082F4CF2D964D
:101F60000FB6F894DEBF0FBECDBFDF91CF911F91AA
:101F70000F91FF90EF900895EF92FF920F931F93B0
:101F8000CF93DF93CDB7DEB72D970FB6F894DEBFB2
:101F90000FBECDBF8C01F62EE72EBE01635F7F4FD3
:101FA000CE0107960E94E30AD801ED91FC91369785
:101FB0000190F081E02DE00FF11F8381B80185FFD2
:101FC00014C0CE0101960E94840DBE016F5F7F4F49
:101FD000CE0107960E94210FCE0101960E94A5090D
:101FE000EF92FF9283E691E033C0CE0101960E940A
:101FF000280DBE016F5F7F4FCE0107960E94210F13
:10200000CE0101960E94A509D801ED91FC91369769
:102010000190F081E02DE00FF11F8381948186FF14
:1020200005C0EF92FF9286E691E012C087FF0CC0D8
:1020300095FF05C0EF92FF9289E691E009C0EF920B
:10204000FF928CE691E004C0EF92FF928FE691E060
:102050009F938F9388858F938F818F930E94081E03
:102060000F900F900F900F900F900F90CE0107964A
:102070000E94A5092D960FB6F894DEBF0FBECDBF06
:10208000DF91CF911F910F91FF90EF900895EF9204
:10209000FF920F931F93CF93DF931F92CDB7DEB7BD
:1020A0007C018B0140E0BC01CE0101960E94680AD0
:1020B000B801C7010E94BC0FC7010F90DF91CF91FB
:1020C0001F910F91FF90EF900895AF92BF92CF9222
:1020D000DF92EF92FF920F931F93CF93DF93CDB7D1
:1020E000DEB7EB970FB6F894DEBF0FBECDBF5C0135
:1020F000BC01665F7F4F6C0181E1C80ED11CC60137
:102100000E94320FBE01655C7F4FCE018B960E940C
:10211000E30ABE01655D7F4FC6010E94120CEBA56C
:10212000FCA5108162E771E08FEC92E00E94B31B86
:10213000EBA5FCA5E180FF24E7FCF094A0E3EA1AFC
:10214000F108612F8FEC92E00E94B51B6FE771E000
:102150008FEC92E00E94B31B4AE050E0B7018FEC95
:1021600092E00E94951CBE01655C7F4FCE01859672
:102170000E94E30ABE01655C7F4FCE014F960E942C
:10218000E30ABE01655C7F4FCE0149960E94E30AD7
:1021900018AE1FAA1EAA1DAA1CAA1BAA1AAA19AA0F
:1021A000CE010D960E94EE05133509F037C1B3E05C
:1021B000EB16F10449F144F4A1E0EA16F104F1F060
:1021C00004F5EF28C1F039C186E0E816F10409F4FE
:1021D000FCC034F4B4E0EB16F10409F02EC18EC05B
:1021E00087E0E816F10409F40FC1A8E0EA16F1044B
:1021F00009F023C10CC161E871E00BC16DE871E029
:1022000008C16BE971E005C1BE01615E7F4FC60187
:102210000E94120C7C0140E0BC01CE01C9960E94D4
:10222000680ABE01665C7F4FC7010E945B0FD70141
:10223000ED91FC9136970190F081E02DEE0DFF1DA0
:102240008581857009F00AC18F8D98A10E94A81D13
:10225000BC01882777FD8095982F0E942A1F23ECC8
:1022600035EF48E450E40E94172020E030E044E3DA
:1022700053E40E948F1E6B017C0100E010E0980186
:10228000B901A801CE0101960E94FC058CE0FE0177
:102290003196DE011D9601900D928A95E1F767EA6D
:1022A00071E08FEC92E00E94B31B8F8D98A10E9489
:1022B000A81D4AE050E0BC018FEC92E00E94951C02
:1022C0004AE050E062E070E08FEC92E00E94951CE2
:1022D000F501E95BFF4F808191810E947E02AD8410
:1022E000BE84CF84D888E988FA880B891C892D8917
:1022F0003E894F89588D62E070E064C0BE01675E20
:102300007F4FC6010E94120CBE016D5C7F4F0E9480
:1023100047106EEA71E08FEC92E00E94D21B67E4F6
:1023200071E08FEC92E00E94B31B898D9A8D0E9420
:10233000A81D4AE050E0BC018FEC92E00E948D1C89
:1023400067E471E08FEC92E00E94B31B6BA97CA95B
:102350004AE050E08FEC92E00E94951C898D9A8DA6
:102360000E94A81DBC01882777FD8095982F0E94A8
:102370002A1FAB01BC01C12CD12C7601970186012B
:10238000CE0101960E94FC058CE0FE013196DE0133
:102390001D9601900D928A95E1F7F501E95BFF4FDB
:1023A000808191810E947E02AD84BE84CF84D888D2
:1023B000E988FA880B891C892D893E894F89588DB7
:1023C00061E070E00E94D90238C0BE01675E7F4FB5
:1023D000C6010E94120CBE01695C7F4F0E9447102B
:1023E000BE016B5C7F4F0E944710BE01615E7F4F54
:1023F0000E94120CBE016F5C7F4F0E944710BE010D
:102400006D5C7F4F0E94471067EB71E002C063EC88
:1024100071E08FEC92E00E94D21B0FC0CE01499672
:102420000E94A509CE014F960E94A509CE0185966E
:102430000E94A509CE018B960EC0CE0149960E943E
:10244000A509CE014F960E94A509CE0185960E944E
:10245000A509CE018B960E94A50907C06DEC71E01D
:102460008FEC92E00E94B31BEFCEEB960FB6F89480
:10247000DEBF0FBECDBFDF91CF911F910F91FF90B7
:10248000EF90DF90CF90BF90AF900895DF92EF92E2
:10249000FF920F931F93CF93DF9300D000D000D013
:1024A000CDB7DEB78C017C018AE0E80EF11C65C077
:1024B00062ED71E08FEC92E00E94D21BF801808502
:1024C0009185181619061CF081E0808B02C0F80176
:1024D000108A6FED71E08FEC92E00E94B31BF8015F
:1024E000628573858FEC92E00E94B31B6DEE71E004
:1024F0008FEC92E00E94B31BF801608571854AE081
:1025000050E08FEC92E00E94951C4CC0F80164856D
:10251000758542855385641B750B6E5F7F4F1A82EC
:1025200019821C821B821E821D82CE0101960E948E
:10253000C90A8B819C810E946009F80144855585F8
:102540006285738520E0CE0101960E94610E6D2D9B
:10255000CE0101960E94B10BBE016F5F7F4FC70194
:102560000E94210FCE0101960E949A09F801208550
:1025700031852F5F3F4F318720878FEC92E00E949B
:1025800073191816190674F4F801808591854C9713
:102590004CF48FEC92E00E94A219D82EFAE08F132F
:1025A000B5CF86CF26960FB6F894DEBF0FBECDBF4F
:1025B000DF91CF911F910F91FF90EF90DF900895E1
:1025C0000F931F93CF93DF9300D000D000D0CDB7EF
:1025D000DEB78C010E948C148823E9F1C8010E94A7
:1025E0007414C8010E944612F8018089811133C019
:1025F0006EEF71E08FEC92E00E94D21BC8010E9446
:10260000651081E0F801808B1A8219821C821B827E
:102610001E821D8261E070E0CE0101960E94C90A0F
:1026200089819A819C838B830E946009BE016F5FC0
:102630007F4FC80141960E94320FCE0101960E9441
:10264000A509F8011186108648E451E0BA01C801D5
:102650000A960E94E00E26960FB6F894DEBF0FBED3
:10266000CDBFDF91CF911F910F9108956F927F920F
:102670008F929F92AF92BF92CF92DF92EF92FF9292
:102680000F931F93CF93DF93EC017B016A014217F5
:10269000530709F4A8C08901041B150B6A817B81CB
:1026A0008C819D81861B970B081719070CF05EC063
:1026B0005B01AE18BF0866246394712C660E771E0A
:1026C000A016B106ECF0601B710B6F5F7F4FA3018A
:1026D000461B570BC3010E94E71D8A819B81800F17
:1026E000911F9B838A83A501401B510B4F5F5F4F56
:1026F000B701C701800F911F0E94E71DA80124C0E8
:1027000045018FEF881A980A840E951EA901481971
:102710005909B401C3010E94E71D0A191B098A81E6
:102720009B81800F911F9B838A83A3014E195F09B0
:10273000B7010E94E71D8A819B818A0D9B1D9B83A7
:102740008A838C189D08A401B601C701DF91CF913F
:102750001F910F91FF90EF90DF90CF90BF90AF90BF
:102760009F908F907F906F900C94DE1D888199814F
:10277000681B790B6F5F7F4FC8010431110510F49E
:1027800084E190E04B01880E991EC4010E94AC0ABE
:102790005C01688179813701661A770AA3010E947A
:1027A000E71D6A0C7B1CA801B601C3010E94E71D4E
:1027B000060D171DCA80DB80CE18DF08A601B70101
:1027C000C8010E94E71D0C0D1D1DC8010E94600973
:1027D000CE010E949A09B982A8821B830A83A80CA1
:1027E000B91CBD82AC82DF91CF911F910F91FF90F8
:1027F000EF90DF90CF90BF90AF909F908F907F90A1
:102800006F9008954F925F926F927F928F929F92F6
:10281000AF92BF92CF92DF92EF92FF920F931F93EE
:10282000CF93DF93EC01CB013901542E452E790172
:10283000488D598D088919894B01820E931E2A896A
:102840003B89201B310B241B350B630126153705F3
:1028500008F46901C40ED51EC00ED11E040F151F49
:102860005401A81AB90A9601201B310B2A153B0501
:1028700074F0A501BC01C8010E94DE1DB8016A0DFB
:102880007B1DA601CE0142960E94380913C05C014F
:10289000A20EB31E9501281B390BA901BC01C8016A
:1028A0000E94DE1D00E09401A501B601CE01409614
:1028B0000E943613888D998D8E0D9F1D998F888F5C
:1028C000B301852D942DDF91CF911F910F91FF9032
:1028D000EF90DF90CF90BF90AF909F908F907F90C0
:1028E0006F905F904F900895CF93DF93EC010E941B
:1028F0002A176C837D838E839F83DF91CF91089508
:10290000AB01662757FD6095762FFC01408351830C
:10291000628373830C9474140F931F93CF93DF938C
:10292000EC010E942A170C811D812E813F81601BC2
:10293000710B820B930B41E0088119812A813B8145
:1029400006171707280739070CF040E0842FDF919E
:10295000CF911F910F910895CF92DF92EF92FF9246
:102960000F931F93FC011082118212821382148232
:102970001582168217821086118612861386448766
:10298000558766877787C08AD18AE28AF38A048B63
:10299000158B268B378B81E09FEF918F808F8FEF88
:1029A00090E0938F828F81E0848F1F910F91FF9031
:1029B000EF90DF90CF900895FC01408751876287A8
:1029C000738708952F923F924F925F926F927F92FA
:1029D0008F929F92AF92BF92CF92DF92EF92FF922F
:1029E0000F931F93CF93DF93EC018C8D882309F411
:1029F0009EC09A01AB01688579858A859B850E9476
:102A0000231E3B014C01288939894A895B89772D2E
:102A1000992D0E9417201B012C012C813D814E8194
:102A20005F81732D952D0E94241E5B016C01862F02
:102A30009B2DAC2DBD2D8C839D83AE83BF832881C0
:102A400039814A815B81662D772D882D992D0E94D1
:102A5000231E7B018C01862D972DA82DB92D8883EF
:102A60009983AA83BB832C853D854E855F85662D22
:102A7000772D882D992D0E9417202A2D3B2D4C2D26
:102A80005D2D0E94241E3B014C012C893D894E89FD
:102A90005F896E2D7F2D802F912F0E9417209B0123
:102AA000AC01C401B3010E94241E7B018C016A8D1C
:102AB0007B8D882777FD8095982F0E942A1F3B01E8
:102AC0004C01762F272F372D482D592D6E2D7F2D18
:102AD000802F912F0E94132018160CF417C0688DB8
:102AE000798D882777FD8095982F0E942A1F3B01BA
:102AF0004C01762F272F372D482D592D6E2D7F2DE8
:102B0000802F912F0E94881E87FF15C0222D332D04
:102B1000442D552D6A2D7B2D8C2D9D2D0E94231E1D
:102B20006C837D838E839F837301840104C0E12CB9
:102B3000F12C00E010E06E2D7F2D802F912FDF9182
:102B4000CF911F910F91FF90EF90DF90CF90BF90AA
:102B5000AF909F908F907F906F905F904F903F903D
:102B60002F900895CB010895CF93DF9343E050E079
:102B70006EE777E081E00E94051643E050E06DE9E2
:102B800077E080E00E94051640E855E260E070E0E2
:102B90008FEC92E00E948D1A61E08BE00E94A117F9
:102BA00061E08AE00E94A11761E086E00E94A1171F
:102BB00061E085E00E94A11782E990E00E94711B0C
:102BC000EC010E94A100D093C102C093C00289E42D
:102BD00090E00E94711BEC016091C0027091C102F3
:102BE0000E94F60AD093BF02C093BE02DF91CF913C
:102BF00008958091BE029091BF020E94E0128091E0
:102C0000C0029091C1020C9438028230E8F4E82F9F
:102C1000F0E0EE0FFF1FEE53FD4F718360838130B4
:102C200041F0809169008C7F842B80936900E89A41
:102C3000089580916900440F551F440F551F837FED
:102C4000842B80936900E99A08951F920F920FB622
:102C50000F9211242F933F934F935F936F937F9322
:102C60008F939F93AF93BF93EF93FF938091C20293
:102C70009091C302892B29F0E091C202F091C30226
:102C80000995FF91EF91BF91AF919F918F917F91A6
:102C90006F915F914F913F912F910F900FBE0F90C9
:102CA0001F9018951F920F920FB60F9211242F9319
:102CB0003F934F935F936F937F938F939F93AF93C4
:102CC000BF93EF93FF938091C4029091C502892B2B
:102CD00029F0E091C402F091C5020995FF91EF91AE
:102CE000BF91AF919F918F917F916F915F914F9124
:102CF0003F912F910F900FBE0F901F9018951F932B
:102D0000CF93DF93182FEB0161E00E94A11720976A
:102D100011F460E004C0CF3FD10539F461E0812FA8
:102D2000DF91CF911F910C94D917E12FF0E0EA5772
:102D3000FF4FE491E330B9F028F4E13051F0E23094
:102D4000B1F50CC0E63019F1E73049F1E43079F51E
:102D500014C084B5806884BDC7BD2EC084B58062B0
:102D600084BDC8BD29C080918000806880938000A8
:102D7000D0938900C09388001FC08091800080623A
:102D800080938000D0938B00C0938A0015C08091FF
:102D9000B00080688093B000C093B3000DC08091F4
:102DA000B00080628093B000C093B40005C0C0380A
:102DB000D1050CF0B3CFADCFDF91CF911F91089526
:102DC0001F920F920FB60F9211242F933F938F9360
:102DD0009F93AF93BF938091C6029091C702A09139
:102DE000C802B091C9023091CE02232F2D5F2D373A
:102DF00020F40196A11DB11D05C0232F2A5702966C
:102E0000A11DB11D2093CE028093C6029093C702EC
:102E1000A093C802B093C9028091CA029091CB02DC
:102E2000A091CC02B091CD020196A11DB11D80935D
:102E3000CA029093CB02A093CC02B093CD02BF9173
:102E4000AF919F918F913F912F910F900FBE0F9057
:102E50001F9018950F931F938FB7F8940091C60297
:102E60001091C7022091C8023091C9028FBFB801EA
:102E7000C9011F910F910895789484B5826084BD33
:102E800084B5816084BD85B5826085BD85B581606E
:102E900085BDEEE6F0E0808181608083E1E8F0E0CE
:102EA0001082808182608083808181608083E0E8FD
:102EB000F0E0808181608083E1EBF0E080818460DC
:102EC0008083E0EBF0E0808181608083EAE7F0E0DE
:102ED0008081846080838081826080838081816042
:102EE00080838081806880831092C1000895833040
:102EF00069F028F48130A1F0823011F514C08630D9
:102F0000B1F08730C1F08430D9F404C080918000E2
:102F10008F7703C0809180008F7D8093800008951B
:102F200084B58F7702C084B58F7D84BD089580916C
:102F3000B0008F7703C08091B0008F7D8093B00088
:102F40000895CF93DF9390E0FC01E656FF4F449144
:102F5000FC01E255FF4F8491882341F190E0880FF6
:102F6000991FFC01EA52FF4F25913491D9018453F6
:102F70009F4FFC0185919491C82FD92F9FB7F8944A
:102F80008C91611106C0409584238C9388818423A1
:102F900008C0623041F4242F209582238C938881CD
:102FA000842B888302C0842B8C939FBFDF91CF91A9
:102FB00008950F931F93CF93DF931F92CDB7DEB782
:102FC000282F30E0F901EA57FF4F8491F901E656C6
:102FD000FF4F1491F901E255FF4F04910023D1F006
:102FE000882321F069830E9477176981E02FF0E040
:102FF000EE0FFF1FE453FF4F85919491DC019FB7C3
:10300000F8948C91611103C01095812301C0812B2C
:103010008C939FBF0F90DF91CF911F910F910895D7
:10302000CF93DF93282F30E0F901EA57FF4F8491C7
:10303000F901E656FF4FD491F901E255FF4FC491D3
:10304000CC2389F081110E947717EC2FF0E0EE0F6E
:10305000FF1FEE53FF4F85919491DC018C918D23DE
:1030600021E030E011F420E030E0C901DF91CF91A0
:1030700008950F931F93CF93DF938230910510F43F
:1030800082E090E0E0917B03F0917C0320E030E06F
:10309000C0E0D0E023C04081518148175907A8F013
:1030A0004817590761F482819381209719F09B8317
:1030B0008A832EC090937C0380937B0329C02115C3
:1030C000310529F04217530710F0A90102C0BE01D3
:1030D000DF0102811381EF019A01F8013097D9F6DF
:1030E0002115310509F1281B390B2430310590F4E5
:1030F00012968D919C9113976115710521F0FB013A
:103100009383828304C090937C0380937B03FD01AF
:10311000329644C0FD01E20FF31F81939193225038
:1031200031092D933C933AC02091790330917A0371
:10313000232B41F4209102013091030130937A0353
:10314000209379032091000130910101211531056F
:1031500041F42DB73EB74091040150910501241B65
:10316000350BE0917903F0917A03E217F307A0F4AD
:103170002E1B3F0B2817390778F0AC014E5F5F4FCD
:103180002417350748F04E0F5F1F50937A03409382
:1031900079038193919302C0E0E0F0E0CF01DF91E9
:1031A000CF911F910F910895EF92FF920F931F936C
:1031B000CF93DF93009709F48FC0DC011297139629
:1031C0001C921E921297E0907B03F0907C03E11416
:1031D000F10489F42D913C911197280F391F8091AA
:1031E000790390917A038217930789F5B0937A0354
:1031F000A093790371C0E70120E030E001C0EA014B
:10320000CA17DB0738F44A815B819E0141155105DD
:10321000B1F722C0BC0162507109FB01D383C283A4
:1032200000811181AC01400F511F4C175D0761F403
:1032300048815981400F511F4E5F5F4F518340833A
:103240004A815B81538342832115310529F4B09370
:103250007C03A0937B0340C0F901B383A283E901FF
:1032600069917991C60FD71FAC17BD0779F4DC01BE
:103270005E914E91460F571F4E5F5F4F51834083C3
:1032800012968D919C91139793838283A0E0B0E076
:1032900002C0D7017C01F701828193810097C9F7B1
:1032A000C701029620813181820F931F20917903FB
:1032B00030917A032817390779F4109729F410927E
:1032C0007C0310927B0304C013961C921E921297EB
:1032D000F0927A03E0927903DF91CF911F910F91E1
:1032E000FF90EF900895FC0184859585FC01E05CDA
:1032F000FF4F20813181FC01EE5BFF4F8081918186
:10330000281B390B2F733327C9010895FC018485CD
:103310009585FC01E05CFF4F40815181FC01EE5B33
:10332000FF4F208131814217530741F00190F08116
:10333000E02DE80FF91F208130E002C02FEF3FEFB2
:10334000C9010895FC0184859585FC01E05CFF4F6F
:1033500040815181FC01EE5BFF4F2081318142179A
:10336000530781F0A081B181A80FB91F8C912081F2
:1033700031812F5F3F4F2F73332731832083282FD5
:1033800030E002C02FEF3FEFC9010895FC0181A199
:10339000882329F0A489B5898C9186FFFBCF11A2DF
:1033A0000895CF93DF93FC0126853785D901A05C72
:1033B000BF4F8D919C91119701968F739927E901C9
:1033C000CE5BDF4F4881598184179507D9F30D9063
:1033D000BC91A02DA20FB31F6C93A685B785A05CEE
:1033E000BF4F11969C938E93A689B7892C9181E04B
:1033F00090E0078C02C0880F991F0A94E2F7282BEF
:103400002C9381E081A30488F589E02D808180647C
:10341000808381E090E0DF91CF91089508951F921D
:103420000F920FB60F9211242F933F934F938F93C8
:103430009F93EF93FF938091C00082FD1CC0409149
:10344000C600809175039091760301968F7399273A
:1034500020917703309178038217930771F0E09100
:103460007503F0917603EB5CFC4F408390937603F9
:103470008093750302C08091C600FF91EF919F91E8
:103480008F914F913F912F910F900FBE0F901F90F2
:1034900018958FEC92E00E947319892B11F00C940F
:1034A0000E1A08951F920F920FB60F9211242F93A8
:1034B0003F938F939F93EF93FF932091310330912C
:1034C000320380913303909134032817390731F484
:1034D0008091C1008F7D8093C10014C0E0913303BF
:1034E000F0913403EF50FD4F208180913303909190
:1034F000340301968F739927909334038093330399
:103500002093C600FF91EF919F918F913F912F9152
:103510000F900FBE0F901F901895CF92DF92EF92F1
:10352000FF92CF93DF93EC016A017B01411581EE9D
:10353000580761057105F9F0EC89FD8981E090E09B
:1035400008A002C0880F991F0A94E2F7808360E008
:1035500079E08DE390E0A70196010E945524215067
:1035600031094109510956954795379527952115F8
:1035700080E1380798F0EC89FD89108260E874E8F2
:103580008EE190E0A70196010E9455242150310957
:10359000410951095695479537952795E889F98945
:1035A0003083EA89FB89208319A2EE89FF89408153
:1035B00081E090E09C010C8C02C0220F331F0A9422
:1035C000E2F7422B4083EE89FF8940819C010D8CFC
:1035D00002C0220F331F0A94E2F7422B4083EE8988
:1035E000FF8940819C010E8C02C0220F331F0A9478
:1035F000E2F7422B4083EE89FF8920810F8C02C0C5
:10360000880F991F0A94E2F7809582238083DF91C7
:10361000CF91FF90EF90DF90CF9008951092D2025B
:103620001092D10288EE93E0A0E0B0E08093D30244
:103630009093D402A093D502B093D60289E992E088
:103640009093D0028093CF0285E393E09093DC02C5
:103650008093DB0281EF92E09093DE028093DD02A3
:1036600085EC90E09093E0028093DF0284EC90E0A0
:103670009093E2028093E10280EC90E09093E40268
:103680008093E30281EC90E09093E6028093E50260
:1036900082EC90E09093E8028093E70286EC90E061
:1036A0009093EA028093E90284E08093EB0283E046
:1036B0008093EC0287E08093ED0285E08093EE0238
:1036C00081E08093EF0208950E943C170E94B41598
:1036D000C9E4DAE10E94F9152097E1F30E94491A42
:1036E000F9CF0C9439180C94D418CF92DF92EF9242
:1036F000FF920F931F93CF93DF936C01EB017A013D
:10370000E60EF71E00E010E00BC06991D601ED91C6
:10371000FC910190F081E02DC6010995080F191F59
:10372000CE15DF0591F7C801DF91CF911F910F9161
:10373000FF90EF90DF90CF9008956115710581F0B3
:10374000DB010D900020E9F7AD0141505109461B06
:10375000570BDC01ED91FC910280F381E02D09947F
:1037600080E090E008950C949D1BDC01ED91FC91AC
:103770000190F081E02D09940F931F93CF93DF9375
:10378000EC016DE00E94B51B8C016AE0CE010E9445
:10379000B51B9C01200F311FC901DF91CF911F91F3
:1037A0000F9108950F931F93CF93DF93EC010E9425
:1037B0009D1B8C01CE010E94BC1B9801280F391F54
:1037C000C901DF91CF911F910F9108954F925F92A0
:1037D0006F927F929F92AF92BF92CF92DF92EF92C1
:1037E000FF920F931F93CF93DF93CDB7DEB7A197CF
:1037F0000FB6F894DEBF0FBECDBF5C016A017B013E
:10380000922E19A281E0821710F08AE0982E8E0184
:103810000F5D1F4F492C512C612C712CC701B60133
:10382000A30192010E9455248C2D929E801911248F
:10383000015011098A3014F4805D01C0895CF801DF
:10384000808369017A01C114D104E104F10431F7E4
:10385000B801C5010E949D1BA1960FB6F894DEBF6A
:103860000FBECDBFDF91CF911F910F91FF90EF90D1
:10387000DF90CF90BF90AF909F907F906F905F90C0
:103880004F900895CF92DF92EF92FF920F931F9384
:10389000CF93DF93EC016A017B012115310579F4A7
:1038A000E881F9810190F081E02D642FDF91CF91C3
:1038B0001F910F91FF90EF90DF90CF9009942A30E5
:1038C000310519F477FD0EC02AE0B701A601CE013B
:1038D000DF91CF911F910F91FF90EF90DF90CF90EC
:1038E0000C94E61B6DE20E94B51B8C014427552702
:1038F000BA014C195D096E097F092AE0CE010E94C8
:10390000E61B080F191FC801DF91CF911F910F917E
:10391000FF90EF90DF90CF9008959A01AB0166275A
:1039200057FD6095762F0C94421C0F931F93CF93F5
:10393000DF93EC019A01AB01662757FD6095762F66
:103940000E94421C8C01CE010E94BC1B9801280FD2
:10395000391FC901DF91CF911F910F9108957F9277
:103960008F929F92AF92BF92CF92DF92EF92FF928F
:103970000F931F93CF93DF93EC016A017B01122F0A
:103980009A01AB01C701B6010E94C220882319F039
:1039900065EA72E032C046015701E894B7F82FEFAC
:1039A0003FEF4FE75FE7C501B4010E94C2208111DC
:1039B0000DC02FEF3FEF4FE75FE7C501B4010E9455
:1039C000881E18161CF469EA72E017C02FEF3FEF4B
:1039D0004FE75FE4C701B6010E94132018160CF4EC
:1039E0000AC02FEF3FEF4FE75FECC701B6010E941F
:1039F000881E87FF12C06DEA72E0CE01DF91CF9181
:103A00001F910F91FF90EF90DF90CF90BF90AF90FC
:103A10009F908F907F900C949D1B20E030E0A90137
:103A2000C701B6010E94881E87FF0AC06DE2CE0161
:103A30000E94B51B5C01F7FAF094F7F8F09402C00D
:103A4000A12CB12C00E060E070E080E09FE307C0B3
:103A500020E030E040E251E40E948F1E0F5F01132E
:103A6000F7CF262F372F482F592FC701B6010E94B5
:103A7000241E762E872E982EC92E0E94FC1ED62E2E
:103A8000E72EF82E092F0E94281F9B01AC01672DFD
:103A9000782D892D9C2D0E94231EC62E972E882EB0
:103AA000792E2AE04D2D5E2D6F2D702FCE010E94B4
:103AB000E61B7C01EA0CFB1C1123B9F161EB72E0FF
:103AC000CE010E949D1BE80EF91E2FC020E030E0C1
:103AD00040E251E46C2D792D882D972D0E941720FE
:103AE000762E072F6C019D2D0E94F71E4B01AA24F4
:103AF00097FCA094BA2C2AE030E0B501A401CE01D5
:103B00000E94421CE80EF91EC501B4010E942A1F42
:103B10009B01AC01672D702F8C2D9D2D0E94231EC3
:103B2000C62E972E882E792E11501111CFCFC70196
:103B3000DF91CF911F910F91FF90EF90DF90CF9089
:103B4000BF90AF909F908F907F9008950C94AF1C82
:103B5000FC0188279927E89421912032E9F3293044
:103B600010F02E30C8F32B3241F02D3239F4689426
:103B700004C00E94001E820F911D219120532A3003
:103B8000C0F31EF4909581959F4F0895F8940C947E
:103B9000B4249111D6C5803219F089508550D0F7E0
:103BA0000895FB01DC0104C08D910190801921F47E
:103BB00041505040C8F7881B990B0895FB01DC0168
:103BC00002C001900D9241505040D8F708956817F7
:103BD000790768F4FB01DC01E40FF51FA40FB51FA2
:103BE00002C002900E9241505040D8F708950C94B4
:103BF000DE1DDC0101C06D9341505040E0F7089597
:103C00007AE0979F902D879F802D910D1124089524
:103C1000A0E1B0E0EEE0FEE10C94872485E08C8327
:103C20008D899E899A838983AE01475E5F4F588B49
:103C30004F876F89788DCE0101960E94732260961E
:103C4000E2E00C94A3245058BB27AA270ED0A0C1B1
:103C500069D130F06ED120F031F49F3F11F41EF4A1
:103C60005EC10EF4E095E7FB54C1E92FB3D180F3B8
:103C7000BA17620773078407950718F071F49EF569
:103C8000CBC10EF4E0950B2EBA2FA02D0B01B9017C
:103C900090010C01CA01A0011124FF27591B99F0C2
:103CA000593F50F4503E68F11A16F040A22F232FCE
:103CB000342F4427585FF3CF469537952795A7951E
:103CC000F0405395C9F77EF41F16BA0B620B730BC5
:103CD000840BBAF09150A1F0FF0FBB1F661F771F36
:103CE000881FC2F70EC0BA0F621F731F841F48F4EB
:103CF000879577956795B795F7959E3F08F0B3CF71
:103D00009395880F08F09927EE0F9795879508955A
:103D1000DCD008F481E0089514D1E3954AC10CD0B9
:103D200037C107D140F0FED030F021F45F3F19F0E9
:103D3000F0C0511172C1F3C04DD198F39923C9F36A
:103D40005523B1F3951B550BBB27AA2762177307A1
:103D5000840738F09F5F5F4F220F331F441FAA1F55
:103D6000A9F333D00E2E3AF0E0E830D09150504015
:103D7000E695001CCAF729D0FE2F27D0660F771FC3
:103D8000881FBB1F261737074807AB07B0E809F0A5
:103D9000BB0B802DBF01FF2793585F4F2AF09E3F3A
:103DA000510568F0B6C039C15F3FECF3983EDCF3D3
:103DB000869577956795B795F7959F5FC9F7880FB3
:103DC000911D9695879597F90895E1E0660F771F05
:103DD000881FBB1F621773078407BA0720F0621B96
:103DE000730B840BBA0BEE1F88F7E095089504D08F
:103DF0006894B11112C10895F5D088F09F5790F0E2
:103E0000B92F9927B751A0F0D1F0660F771F881FFF
:103E1000991F1AF0BA95C9F712C0B13081F0FCD0E1
:103E2000B1E00895F9C0672F782F8827B85F39F07F
:103E3000B93FCCF3869577956795B395D9F73EF45E
:103E400090958095709561957F4F8F4F9F4F089506
:103E5000E89409C097FB3EF4909580957095619524
:103E60007F4F8F4F9F4F9923A9F0F92F96E9BB27DA
:103E70009395F695879577956795B795F111F8CF56
:103E8000FAF4BB0F11F460FF1BC06F5F7F4F8F4FC1
:103E90009F4F16C0882311F096E911C0772321F0B7
:103EA0009EE8872F762F05C0662371F096E8862F4F
:103EB00070E060E02AF09A95660F771F881FDAF7A6
:103EC000880F9695879597F90895990F0008550FD3
:103ED000AA0BE0E8FEEF16161706E807F907C0F090
:103EE00012161306E407F50798F0621B730B840B98
:103EF000950B39F40A2661F0232B242B252B21F472
:103F000008950A2609F4A140A6958FEF811D811D11
:103F1000089597F99F6780E870E060E008959FEF4B
:103F200080EC089500240A94161617061806090650
:103F3000089500240A94121613061406050608951F
:103F4000EECF50D0E8F3E894E0E0BB279F57F0F0C5
:103F50002AED3FE049EC06C0EE0FBB0F661F771F4E
:103F6000881F28F0B23A62077307840728F0B25A14
:103F7000620B730B840BE3959A9572F7803830F4DB
:103F80009A95BB0F661F771F881FD2F7904844C4CD
:103F9000092E0394000C11F4882352F0BB0F40F457
:103FA000BF2B11F460FF04C06F5F7F4F8F4F9F4F97
:103FB0000895EF93E0FF06C0A2EA2AED3FE049EC46
:103FC0005FEB53DEE5DF0F90039401FC9058E8E6C9
:103FD000F0E035C457FD9058440F551F59F05F3F2E
:103FE00071F04795880F97FB991F61F09F3F79F01B
:103FF00087950895121613061406551FF2CF46959D
:10400000F1DF08C0161617061806991FF1CF86951E
:104010007105610508940895E894BB276627772702
:10402000CB0197F9089551DF08F48FEF08950BD075
:10403000AFCF78DF28F07DDF18F0952309F069CF46
:104040006ECF1124EACFC6DFA0F3959FD1F3950F71
:1040500050E0551F629FF001729FBB27F00DB11D0C
:10406000639FAA27F00DB11DAA1F649F6627B00D9C
:10407000A11D661F829F2227B00DA11D621F739F85
:10408000B00DA11D621F839FA00D611D221F749F93
:104090003327A00D611D231F849F600D211D822FDA
:1040A000762F6A2F11249F5750408AF0E1F0882321
:1040B0004AF0EE0FFF1FBB1F661F771F881F91502E
:1040C0005040A9F79E3F510570F023CFA6CF5F3F28
:1040D000ECF3983EDCF3869577956795B795F79561
:1040E000E7959F5FC1F7FE2B880F911D96958795E9
:1040F00097F908959F9325DF0F9007FCEE5F59CF46
:1041000011F40EF40CCF86C36DDFD0F39923D9F3ED
:10411000CEF39F57550B87FF8BD30024A0E640EAD0
:10412000900180585695979528F4805C660F771F0C
:10413000881F20F026173707480730F4621B730BDF
:10414000840B202931294A2BA69517940794202502
:1041500031254A2758F7660F771F881F20F026174A
:104160003707480730F4620B730B840B200D311DA9
:10417000411DA09581F7B901842F9158880F96951C
:1041800087950895A2DE880B990B089520FD09C03C
:10419000FC0123FD05C022FF02C0738362835183AB
:1041A00040830895CF92DF92EF92FF920F931F9377
:1041B00044FD10C046FD10C0DB01FC01AA0FBB1F6F
:1041C000EE1FFF1F1094D1F76A0F7B1F8E1F9F1FDA
:1041D00031E003C033E001C034E0660F771F881F71
:1041E000991F3150D1F76B017C01C20ED11CE11C2B
:1041F000F11C97018601B601C9011F910F91FF9033
:10420000EF90DF90CF9008950F931F93CF93DF939C
:104210008C01C8010E94AF23EC0197FD08C00E94E9
:10422000C91D892BB1F7B801CE010E94EF23CE0141
:10423000DF91CF911F910F9108958F929F92AF922E
:10424000CF92DF92EF92FF920F931F93CF93DF9362
:10425000EC01A62E4A01022F0E94AF23FC01FF278A
:10426000EB32F10519F0BD9751F40068AA9411F4EE
:1042700080E063C0CE010E94AF2397FDF9CF102FDD
:104280001D7F302F3073E1F48033D1F4AA9409F408
:1042900040C0CE010E94AF2397FD3BC0883711F08C
:1042A000883549F41264AA94A1F1CE010E94AF238B
:1042B00097FF06C02EC006FF02C0126001C0126147
:1042C000C12CD12C7601282F2053283080F014FFE8
:1042D00004C0BE010E94EF2319C02A3040F016FF2F
:1042E000F8CF2F7D322F3151363098F72750412F9C
:1042F000C701B6010E94D2206B017C011260AA9412
:1043000059F0CE010E94AF2397FFDDCF11FD04C00D
:10431000AFCFC12CD12C760117FF08C0F094E094E8
:10432000D094C094C11CD11CE11CF11C212FB701F9
:10433000A601C4010E94C62081E0DF91CF911F91A8
:104340000F91FF90EF90DF90CF90AF909F908F9064
:1043500008956F927F929F92AF92BF92CF92DF9219
:10436000EF92FF920F931F93CF93DF93CDB7DEB7FA
:10437000A1970FB6F894DEBF0FBECDBF6C017A01D6
:104380008901FE01319680E2DF011D928A95E9F7ED
:10439000D60113969C9020E030E0A12CA0E0B12C37
:1043A000CF0141E050E0F80193FC759193FE7191CB
:1043B0008F01711103C000E010E080C07E3519F458
:1043C0002115310559F1EB2DF0E0E217F3073CF42C
:1043D0007D3569F17D3219F4AA2319F103C0A111C9
:1043E00001C0A72EE72FE695E695E6953C016E0EF7
:1043F000711CF301A72FA7703A0102C0660C771C4D
:10440000AA95E2F7D301B081BA2BB0837A1559F09F
:104410007A1510F47F5FE6CF7150E4CFBB24B394DC
:1044200003C0A1E001C0A0E02F5F3F4FBCCFAA2393
:1044300019F08E8180628E83B11003C0BB24B394C7
:104440000BC0FE013196CE018196208120952193EB
:10445000E817F907D1F7F2CFC60169A30E94AF238D
:1044600069A197FD24C0282F269526952695E1E081
:10447000F0E0EC0FFD1FE20FF11D208130E0AC01F8
:104480004770552702C0359527954A95E2F720FDDC
:1044900004C0B6010E94EF230AC0E114F10419F030
:1044A000D7018D937D016150B12CB1F602C0B110DE
:1044B00082CFE114F10411F0F7011082C801A19636
:1044C0000FB6F894DEBF0FBECDBFDF91CF911F9125
:1044D0000F91FF90EF90DF90CF90BF90AF909F90A3
:1044E0007F906F9008954F925F927F928F929F92EC
:1044F000AF92BF92CF92DF92EF92FF920F931F93F2
:10450000CF93DF931F92CDB7DEB78C012B015A01F9
:10451000FC0117821682812CF0C08E2D90E00E9443
:10452000C91D892B21F0C8010E940421E6C0F5E2D3
:10453000EF120AC0F201F3FC3591F3FE31912F0125
:10454000353271F455E2E52EC8010E94AF2397FD84
:10455000DFC0E81609F4D1C0B8010E94EF23DAC029
:104560003A3241F4F3FC3591F3FE31912F01992455
:10457000939401C0912C712C10C0F2E09F2A672DFA
:1045800070E080E090E040E20E94D220762EF201BE
:10459000F3FC3591F3FE31912F01232F20532A3064
:1045A00060F391FE03C0711003C0B4C077247A9405
:1045B000383619F03C3699F40AC0F201F3FC359113
:1045C000F3FE31912F01383651F4F8E09F2A84E050
:1045D000982AF201F3FC3591F3FE31912F01332338
:1045E00009F498C0632F70E080EE90E039830E9458
:1045F000A4233981892B09F48DC090FC07C0F501F3
:10460000E080F18082E0A80EB11C02C0E12CF12C08
:104610003E3651F4F8014681578160E070E0292D63
:10462000C7010E94C62069C0333691F491FC02C0D4
:1046300077247394C8010E94AF2397FD69C0E114E9
:10464000F10419F0F70181937F017A9499F753C02F
:104650003B3559F49201A701672DC8010E94A92199
:104660002C01009709F047C041C0C80139830E945E
:104670000421398197FD4CC03F3659F128F4343676
:1046800029F1393649F52AC0333719F0353721F584
:104690001DC0C8010E94AF236C0197FD11C00E948C
:1046A000C91D892B29F0B801C6010E94EF2308C05B
:1046B000E114F10419F0F701C1927F017A9449F7EE
:1046C000E114F104C1F0F701108215C0F0E29F2A55
:1046D00005C080E1982A02C090E4992A292DA701FB
:1046E000672DC8010E941D21811105C0F801838139
:1046F000807371F40FC090FE8394F801F380F2018F
:10470000F3FCE590F3FEE1902F01E11006CF02C02B
:10471000882019F0282D30E002C02FEF3FEFC901AB
:104720000F90DF91CF911F910F91FF90EF90DF904D
:10473000CF90BF90AF909F908F907F905F904F9061
:104740000895992788270895FC010590061621F001
:104750000020D9F7C00108953197CF010895CF9374
:10476000DF93EC013B8130FF34C036FF0AC03F7B52
:104770003B838E819F8101969F838E832A8130E0C7
:104780002AC032FF0FC0E881F9818081992787FD17
:104790009095009719F430623B831BC03196F983E2
:1047A000E8830EC0EA85FB85099597FF09C02B8138
:1047B000019611F480E101C080E2822B8B8309C055
:1047C0002E813F812F5F3F4F3F832E839C013327F4
:1047D00002C02FEF3FEFC901DF91CF910895FB0198
:1047E000238120FF13C026FD11C08F3F3FEF9307A9
:1047F00069F082832F7D20642383268137812150B5
:104800003109378326839C01332702C02FEF3FEF06
:10481000C90108959F3F31F0915020F48795779515
:104820006795B795880F911D9695879597F9089587
:1048300091505040660F771F881FD2F708959F93BD
:104840008F937F936F93FF93EF939B01AC01EFDB0B
:10485000EF91FF9105D02F913F914F915F91E7CB61
:10486000DF93CF931F930F93FF92EF92DF927B0121
:104870008C01689405C0DA2EEF01E5DBFE01E894B7
:10488000A5912591359145915591AEF3EF01EDD963
:10489000FE019701A801DA9479F7DF90EF90FF907D
:1048A0000F911F91CF91DF910895A1E21A2EAA1BBB
:1048B000BB1BFD010DC0AA1FBB1FEE1FFF1FA217D0
:1048C000B307E407F50720F0A21BB30BE40BF50BCD
:1048D000661F771F881F991F1A9469F76095709556
:1048E000809590959B01AC01BD01CF0108952F9259
:1048F0003F924F925F926F927F928F929F92AF9270
:10490000BF92CF92DF92EF92FF920F931F93CF93BC
:10491000DF93CDB7DEB7CA1BDB0B0FB6F894DEBF53
:104920000FBECDBF09942A88398848885F846E8479
:104930007D848C849B84AA84B984C884DF80EE80C3
:10494000FD800C811B81AA81B981CE0FD11D0FB6CC
:10495000F894DEBF0FBECDBFED010895EE0FFF1F2F
:0C4960000590F491E02D0994F894FFCF2D
:10496C0000007D03800020636D6447202000202020
:10497C00472020002020636D644420200020204428
:10498C00202000202043415020200020204445506E
:10499C0020200020207820203A00202079203A0086
:1049AC0020206361703A2020007665637400202C0F
:1049BC00200074727565005472756500545255452B
:1049CC00003100256400256F00255800257800254E
:1049DC0069006F7264726520696E64203D2000402E
:1049EC00005265676C616765204F646F00526563A8
:1049FC00616C206172726965726500526563616CED
:104A0C00206176616E74004246436170200042461C
:104A1C004176616E636500417272657420526F62FB
:104A2C006F740052657072656E64726500657272A7
:104A3C00200046696E206465206C69676E650045D0
:104A4C006E7265676973747265203A20002020735A
:104A5C00657269616C5F636F756E74202000636FA3
:104A6C0075636F7500200000000000C309E709E0C2
:104A7C00FFE0FF0000DD09F109200000000000C28A
:104A8C00072309E0FFE0FF0000CC072E090000001F
:104A9C0000BC071C0900000000A709B909FB07FCB2
:104AAC0007EC0DFD070608090816084D0863087A7F
:104ABC00080214E00B00000000D6071509FB07A83C
:104ACC0008AB08AE08F807B108B408F507DC07F323
:104ADC0007BA08B808060000000000C2072309FA4C
:104AEC00FFFAFF0000CC072E090B021F022902154A
:104AFC00027B02850200000000D119751B7319A2FC
:104B0C00198619C6196E616E00696E66006F76663D
:044B1C00002E000067
:00000001FF
