:100000000C9462000C947B070C94A8070C948A0053
:100010000C948A000C948A000C948A000C948A0038
:100020000C948A000C948A000C948A000C948A0028
:100030000C948A000C948A000C948A000C948A0018
:100040000C94F6070C948A000C943E0B0C94810BD4
:100050000C948A000C948A000C948A000C948A00F8
:100060000C948A000C948A00000000070002010032
:100070000003040600000000000000000102040864
:100080001020408001020408102001020408102002
:10009000040404040404040402020202020203032E
:1000A00003030303000000002300260029000000D2
:1000B0000000250028002B0000000000240027007D
:1000C0002A003D0C11241FBECFEFD8E0DEBFCDBF0C
:1000D00011E0A0E0B1E0E2EFFFE102C005900D9277
:1000E000AC3BB107D9F712E0ACEBB1E001C01D9217
:1000F000A538B107E1F710E0C4ECD0E004C02297C6
:10010000FE010E94F30FC23CD107C9F70E94930C75
:100110000C94C20D0C940000CF93DF93EC010E946D
:100120001A01CE010C960E94CC006AE070E0CE016C
:100130008E589F4F0E94A8066EE170E0CE0186584F
:100140009F4F0E94A806FE01EE57FF4F44EB58EC6C
:1001500066EB7EE34083518362837383FE01EA573B
:10016000FF4F4083518362837383FE01E657FF4F45
:1001700040E757E766E57CE34083518362837383FE
:10018000FE01E257FF4F11821082C057DF4F1982E4
:100190001882DF91CF910895CF92DF92EF92FF9274
:1001A0000F931F93CF93DF93EC010E941A01CE01AE
:1001B0000C960E941A01CE0148960E94280119A2AD
:1001C00018A2C12CD12C80E9E82E81E4F82E00E0A1
:1001D00010E0980140E050E068EC72E4CE018296B5
:1001E0000E94B406C12CD12C76019701860140E013
:1001F00050E060EC7FE3CE01CF960E94B406FE0192
:10020000E45AFF4F11821082FE01E25AFF4F118221
:100210001082FE01EC59FF4F81E08083CB59DF4F04
:100220008883DF91CF911F910F91FF90EF90DF9026
:10023000CF900895FC0110821182128213821482E1
:1002400015821682178210861186128613860895EB
:10025000FC0110821182128213821482158216828E
:10026000178208958BE00E943F094091C001509190
:10027000C1016091C2017091C301019729F44F5FE0
:100280005F4F6F4F7F4F04C04150510961097109A1
:100290004093C0015093C1016093C2017093C301A8
:1002A00008958CE00E943F094091BC015091BD012E
:1002B0006091BE017091BF01019729F4415051092D
:1002C0006109710904C04F5F5F4F6F4F7F4F4093CB
:1002D000BC015093BD016093BE017093BF010895AE
:1002E00023E331E0FC013183208308952DE731E0E1
:1002F000FC013183208323E331E037832683089593
:10030000DC01ED91FC91369720813181820F931FA2
:100310000C9476012BE531E0FC01318320830895B4
:10032000CF93DF93EC01E881F9810288F389E02D16
:1003300009959C012F3F8FEF380729F08D819E8111
:1003400001969E838D83C901DF91CF910895CB01E2
:1003500008958FEF9FEF089580E090E0089508954D
:100360000895242FDC01ED91FC910084F185E02DAE
:1003700041E0099480E090E00895FC0122893389EE
:1003800080899189281B390B86899789281B390B0D
:10039000C90108958F929F92AF92BF92EF92FF9200
:1003A000CF93DF93FC01DB01812C912C5401C68992
:1003B000D789E088F188828993898E199F09C817A7
:1003C000D907A0F482169306A406B5067CF4CE0DD8
:1003D000DF1D88818D938FEF881A980AA80AB80AC2
:1003E000868997890196978B868BE1CFB401C501E9
:1003F000DF91CF91FF90EF90BF90AF909F908F9043
:100400000895FC0126893789408951898289938919
:10041000841B950B2817390730F4FA01E20FF31FFC
:10042000208130E002C02FEF3FEFC9010895CF9344
:10043000DF93EC01E881F9810288F389E02D0995C9
:100440009C012F3F8FEF380729F08E899F890196F5
:100450009F8B8E8BC901DF91CF910895FC01868916
:100460009789009729F1A089B189228933892A1BAC
:100470003B0B2817390718F4378B268B19C00197C7
:100480006F3F2FEF720729F4978B868B60E070E047
:1004900011C0A80FB91F2C91261303C0978B868B10
:1004A00009C0278524FF04C0978B868B6C9302C0FC
:1004B0006FEF7FEFCB01089580E090E0089580E03A
:1004C00090E0089580E090E0089580E090E0089545
:1004D00060E070E0CB010895CB0108957F928F9288
:1004E0009F92AF92BF92CF92DF92EF92FF920F93C3
:1004F0001F93CF93DF93EC0149015A018B01C12C6B
:10050000D12C76012FC0F80171908F018F8580FF6B
:100510000BC0E881F9810084F185E02D20E144E001
:1005200060E070E0CE010995EB85FC858D859E85A8
:10053000E817F90738F470828B859C8501969C87B3
:100540008B870BC0E881F981028CF38DE02D672D3C
:1005500070E0CE010995019661F02FEFC21AD20A20
:10056000E20AF20AC814D904EA04FB0464F2750131
:100570006401B601C701DF91CF911F910F91FF90E8
:10058000EF90DF90CF90BF90AF909F908F907F9033
:1005900008952BE531E0FC01318320830C94A20CFB
:1005A00023E331E0FC01318320830C94A20C2DE77E
:1005B00031E0FC013183208323E331E0378326835C
:1005C0000C94A20CDC01ED91FC91369720813181D5
:1005D000820F931F0C94D702EF92FF920F931F93F9
:1005E000CF93DF937C01EB018A0164177507A1F0BB
:1005F000FC0140815181401B510B4F5F5F4FB8019F
:10060000CE010E94CE0D0C1B1D0BF7018081918144
:10061000801B910B91838083CE01DF91CF911F913D
:100620000F91FF90EF900895CF93DF93EC01BC0101
:1006300081E090E00E94E406FC0110821882DF91C4
:10064000CF910895FC018081918124813581281703
:10065000390711F00C94030A08950C942203CF93E8
:10066000DF93EC018BE391E099838883CE01409680
:100670000E942D038BE591E099838883DF91CF91D0
:100680000895CF93DF93EC010E942F03CE01DF91F9
:10069000CF910C94A20CCF93DF93EC018DE091E00D
:1006A0009983888387E191E099A388A3CE01069678
:1006B0000E942F0381E291E09983888383E391E094
:1006C00099A388A3DF91CF910895DC01ED91FC916E
:1006D000369720813181820F931F0C944B03CF9367
:1006E000DF93EC010E944B03CE01DF91CF910C947C
:1006F000A20CDC01ED91FC91369720813181820FB3
:10070000931F0C946F03CF93DF93EC01009791F04C
:10071000CE010E9468099C01009771F4E091C40128
:10072000F091C501309721F480E090E00E94C20D65
:100730000995EECF20E030E0C901DF91CF91089517
:100740000F931F93CF93DF93EC018B016F3F8FEFDC
:10075000780759F0CB010E948303998388839B8398
:100760008A83080F191F1D830C83DF91CF911F917E
:100770000F910895CF93DF93EC01198218821B82A9
:100780001A821D821C8268E070E00E94A0038A81A8
:100790009B81DF91CF910C941403EF92FF920F9302
:1007A0001F93CF93DF931F92CDB7DEB78C017B01F0
:1007B00064E670E00E94A806F80111861086BE016A
:1007C0006F5F7F4FC8010A960E94BA0381E290E0F2
:1007D000F80195AB84AB16AA17AA10AE46E050E01C
:1007E00060E070E041AF52AF63AF74AFFD9610822E
:1007F000118212821382F801EF5BFF4F80E2808347
:10080000F801EE5BFF4F11821082F801EC5BFF4FA5
:10081000C801479691838083F801EA5BFF4F1082FD
:10082000F801138A148A158A168A8DE091E0928B5A
:10083000818B87E191E092AB81AB138E128E158E86
:10084000148E178E168E11A210A213A212A215A238
:1008500014A216A28BE391E0908F878BBE016F5F8D
:100860007F4FC80187960E94BA03F80116A615A605
:1008700010AA17A688E086A3E95BFF4FF182E08209
:1008800081E0F801808B0F90DF91CF911F910F9144
:10089000FF90EF900895CF92DF92EF92FF920F9327
:1008A0001F93CF93DF93EC018A819B81288139814B
:1008B000821B930B8617970708F4CB016C012FEF6F
:1008C000C21AD20AC6010E9483038C016881798111
:1008D000EA80FB80E61AF70AA7010E94CE0DE00E1F
:1008E000F11EC7010E941403CE010E942203198346
:1008F0000883FB82EA820C0D1D1D1D830C83DF9192
:10090000CF911F910F91FF90EF90DF90CF900895BE
:100910001F93CF93DF93EC01162F8A819B819C015B
:100920002F5F3F4F4C815D814217530779F4288137
:100930003981821B930B11F09C0102C021E030E051
:10094000B901680F791FCE010E944B048A819B81F7
:1009500001960E941403EA81FB8110838A819B81A6
:1009600001969B838A83DF91CF911F9108950F9306
:100970001F93CF93DF93EC018B016F3F8FEF7807CD
:10098000E9F08F8584FF1DC0288D398D48895989EC
:100990008A899B89841B950B2817390728F0CE017B
:1009A00040960E94880404C0FA01E20FF31F60839E
:1009B000888D998D0196998F888F05C000E010E091
:1009C00002C00FEF1FEFC801DF91CF911F910F9170
:1009D00008950F931F93CF93DF938C01E22FE8705C
:1009E000322F30712871283121F4423009F05DC076
:1009F00059C0413011F4EB0129C04230D1F4332306
:100A000071F0DC015296CD91DC91539750968D9107
:100A10009C915197C81BD90BC60FD71F02C0C0E0CD
:100A2000D0E0EE2399F0D8015696CD91DC915797FE
:100A30000BC0D8015296CD91DC91539750968D9171
:100A40009C915197C81BD90BC60FD71FD80152963E
:100A50004D915C91539750966D917C915197CA013D
:100A6000861B970B8C179D07E8F0EE2321F0579615
:100A7000DC93CE9356973323D9F06C0F7D1FC801BA
:100A800042960E94EC02F80182899389208931897B
:100A9000821B930B268937898217930748F4978B1B
:100AA000868B06C0CFEFDFEF03C0413011F6A3CF36
:100AB000CE01DF91CF911F910F9108956F927F9298
:100AC0008F929F92AF92BF92CF92DF92EF92FF925E
:100AD0000F931F93CF93DF93EC017B016A014217C1
:100AE000530709F4A8C08901041B150B6A817B8197
:100AF0008C819D81861B970B081719070CF05EC02F
:100B00005B01AE18BF0866246394712C660E771ED5
:100B1000A016B106ECF0601B710B6F5F7F4FA30155
:100B2000461B570BC3010E94CE0D8A819B81800F0B
:100B3000911F9B838A83A501401B510B4F5F5F4F21
:100B4000B701C701800F911F0E94CE0DA80124C0DC
:100B500045018FEF881A980A840E951EA90148193D
:100B60005909B401C3010E94CE0D0A191B098A81DB
:100B70009B81800F911F9B838A83A3014E195F097C
:100B8000B7010E94CE0D8A819B818A0D9B1D9B839C
:100B90008A838C189D08A401B601C701DF91CF910B
:100BA0001F910F91FF90EF90DF90CF90BF90AF908B
:100BB0009F908F907F906F900C94C50D8881998144
:100BC000681B790B6F5F7F4FC8010431110510F46A
:100BD00084E190E04B01880E991EC4010E948303BA
:100BE0005C01688179813701661A770AA3010E9446
:100BF000CE0D6A0C7B1CA801B601C3010E94CE0D6C
:100C0000060D171DCA80DB80CE18DF08A601B701CC
:100C1000C8010E94CE0D0C0D1D1DC8010E941403B9
:100C2000CE010E942203B982A8821B830A83A80CEA
:100C3000B91CBD82AC82DF91CF911F910F91FF90C3
:100C4000EF90DF90CF90BF90AF909F908F907F906C
:100C50006F9008954F925F926F927F928F929F92C2
:100C6000AF92BF92CF92DF92EF92FF920F931F93BA
:100C7000CF93DF93EC01CB013901542E452E79013E
:100C8000488D598D088919894B01820E931E2A8936
:100C90003B89201B310B241B350B630126153705BF
:100CA00008F46901C40ED51EC00ED11E040F151F15
:100CB0005401A81AB90A9601201B310B2A153B05CD
:100CC00074F0A501BC01C8010E94C50DB8016A0DF0
:100CD0007B1DA601CE0142960E94EC0213C05C016E
:100CE000A20EB31E9501281B390BA901BC01C80136
:100CF0000E94C50D00E09401A501B601CE01409609
:100D00000E945E05888D998D8E0D9F1D998F888F0D
:100D1000B301852D942DDF91CF911F910F91FF90FD
:100D2000EF90DF90CF90BF90AF909F908F907F908B
:100D30006F905F904F900895CF93DF93EC010E94E6
:100D400040086C837D838E839F83DF91CF910895CC
:100D5000AB01662757FD6095762FFC0140835183D8
:100D6000628373830C949C06CF92DF92EF92FF9282
:100D70000F931F93FC01108211821282138214823E
:100D80001582168217821086118612861386448772
:100D9000558766877787C08AD18AE28AF38A048B6F
:100DA000158B268B378B81E09FEF918F808F8FEF94
:100DB00090E0938F828F81E0848F1F910F91FF903D
:100DC000EF90DF90CF900895CB010895CF93DF93FC
:100DD00043E050E062E371E081E00E945B0743E0A2
:100DE00050E061E571E080E00E945B0740E855E279
:100DF00060E070E087ED91E00E94BC0B61E086E06E
:100E00000E94070961E085E00E94070961E08AE02D
:100E10000E94070961E089E00E94070982E990E0E9
:100E20000E94A00CEC010E948C00D093C901C093D9
:100E3000C80189E490E00E94A00CEC016091C80117
:100E40007091C9010E94CD03D093C701C093C60120
:100E5000DF91CF91089561E070E080E090E00E9422
:100E60007C0883E10E94D507BC01882777FD809527
:100E7000982F0E94E00E20E030E046E953E40E9403
:100E80006C0F20E030EC4FE754E40E94450E20E068
:100E900030E048EC52E40E94E10D0E94AD0E4AE0C1
:100EA00050E087ED91E00E94BA0D67EA71E087EDAE
:100EB00091E00C94FF0C8230E8F4E82FF0E0EE0FA4
:100EC000FF1FE653FE4F71836083813041F08091B4
:100ED00069008C7F842B80936900E89A0895809143
:100EE0006900440F551F440F551F837F842B809347
:100EF0006900E99A08951F920F920FB60F9211247C
:100F00002F933F934F935F936F937F938F939F9311
:100F1000AF93BF93EF93FF938091CA019091CB0160
:100F2000892B29F0E091CA01F091CB010995FF913D
:100F3000EF91BF91AF919F918F917F916F915F9151
:100F40004F913F912F910F900FBE0F901F901895CA
:100F50001F920F920FB60F9211242F933F934F932E
:100F60005F936F937F938F939F93AF93BF93EF9311
:100F7000FF938091CC019091CD01892B29F0E091D4
:100F8000CC01F091CD010995FF91EF91BF91AF9107
:100F90009F918F917F916F915F914F913F912F9191
:100FA0000F900FBE0F901F9018958E3008F08E5046
:100FB00087702091000140E4249F90011124822B2E
:100FC00080937C0080917A00806480937A00809185
:100FD0007A0086FDFCCF2091780030917900932F24
:100FE00080E0AC01422B9A01C90108951F920F9233
:100FF0000FB60F9211242F933F938F939F93AF932C
:10100000BF938091CE019091CF01A091D001B0917A
:10101000D1013091D601232F2D5F2D3720F4019679
:10102000A11DB11D05C0232F2A570296A11DB11D78
:101030002093D6018093CE019093CF01A093D0014D
:10104000B093D1018091D2019091D301A091D401AC
:10105000B091D5010196A11DB11D8093D20190934D
:10106000D301A093D401B093D501BF91AF919F91CB
:101070008F913F912F910F900FBE0F901F90189559
:101080000F931F938FB7F8940091CE011091CF0169
:101090002091D0013091D1018FBFB801C9011F91BA
:1010A0000F9108950F931F939FB7F8940091D20169
:1010B0001091D3012091D4013091D50186B5A89B20
:1010C00006C08F3F21F00F5F1F4F2F4F3F4F9FBF35
:1010D000322F212F102F0027080F111D211D311D28
:1010E00042E0000F111F221F331F4A95D1F7B801AC
:1010F000C9011F910F910895CF92DF92EF92FF9255
:10110000CF93DF936B017C010E945208EB010EC06C
:101110000E9452086C1B7D0B683E734038F081E0E2
:10112000C81AD108E108F108C851DC4FC114D10434
:10113000E104F10469F7DF91CF91FF90EF90DF9028
:10114000CF900895789484B5826084BD84B5816021
:1011500084BD85B5826085BD85B5816085BDEEE6BF
:10116000F0E0808181608083E1E8F0E0108280819E
:1011700082608083808181608083E0E8F0E080810C
:1011800081608083E1EBF0E0808184608083E0EB2C
:10119000F0E0808181608083EAE7F0E08081846014
:1011A0008083808182608083808181608083808170
:1011B000806880831092C1000895833069F028F41C
:1011C0008130A1F0823011F514C08630B1F0873043
:1011D000C1F08430D9F404C0809180008F7703C0BF
:1011E000809180008F7D80938000089584B58F77F3
:1011F00002C084B58F7D84BD08958091B0008F7743
:1012000003C08091B0008F7D8093B0000895CF938C
:10121000DF9390E0FC01E458FF4F4491FC01E0575C
:10122000FF4F8491882341F190E0880F991FFC01C2
:10123000E854FF4F25913491D90182559F4FFC010D
:1012400085919491C82FD92F9FB7F8948C916111F3
:1012500006C0409584238C938881842308C0623023
:1012600041F4242F209582238C938881842B8883BA
:1012700002C0842B8C939FBFDF91CF910895CF93B1
:10128000DF93282F30E0F901E859FF4F8491F901ED
:10129000E458FF4FD491F901E057FF4FC491CC239C
:1012A00089F081110E94DD08EC2FF0E0EE0FFF1FA6
:1012B000EC55FF4F85919491DC018C918D2321E0B9
:1012C00030E011F420E030E0C901DF91CF910895C2
:1012D0000F931F93CF93DF938230910510F482E038
:1012E00090E0E0918302F091840220E030E0C0E0E1
:1012F000D0E023C04081518148175907A8F0481712
:10130000590761F482819381209719F09B838A8326
:101310002EC0909384028093830229C02115310549
:1013200029F04217530710F0A90102C0BE01DF01E6
:1013300002811381EF019A01F8013097D9F6211546
:10134000310509F1281B390B2430310590F4129630
:101350008D919C9113976115710521F0FB01938389
:10136000828304C09093840280938302FD013296AD
:1013700044C0FD01E20FF31F819391932250310984
:101380002D933C933AC02091810230918202232B0D
:1013900041F42091030130910401309382022093A3
:1013A000810220910101309102012115310541F4A2
:1013B0002DB73EB74091050150910601241B350B16
:1013C000E0918102F0918202E217F307A0F42E1B54
:1013D0003F0B2817390778F0AC014E5F5F4F241799
:1013E000350748F04E0F5F1F5093820240938102F1
:1013F0008193919302C0E0E0F0E0CF01DF91CF91C3
:101400001F910F910895EF92FF920F931F93CF9327
:10141000DF93009709F48FC0DC01129713961C929A
:101420001E921297E0908302F0908402E114F1047E
:1014300089F42D913C911197280F391F80918102D9
:10144000909182028217930789F5B0938202A0934C
:10145000810271C0E70120E030E001C0EA01CA1753
:10146000DB0738F44A815B819E0141155105B1F7D4
:1014700022C0BC0162507109FB01D383C283008189
:101480001181AC01400F511F4C175D0761F4488179
:101490005981400F511F4E5F5F4F518340834A81F6
:1014A0005B81538342832115310529F4B093840273
:1014B000A093830240C0F901B383A283E90169913B
:1014C0007991C60FD71FAC17BD0779F4DC015E9187
:1014D0004E91460F571F4E5F5F4F518340831296C8
:1014E0008D919C91139793838283A0E0B0E002C01A
:1014F000D7017C01F701828193810097C9F7C70169
:10150000029620813181820F931F209181023091B8
:1015100082022817390779F4109729F4109284026F
:101520001092830204C013961C921E921297F0929E
:101530008202E0928102DF91CF911F910F91FF9083
:10154000EF900895FC0184859585FC01E05CFF4FD8
:1015500020813181FC01EE5BFF4F80819181281B4E
:10156000390B2F733327C9010895FC0184859585B4
:10157000FC01E05CFF4F40815181FC01EE5BFF4FBD
:10158000208131814217530741F00190F081E02D15
:10159000E80FF91F208130E002C02FEF3FEFC901B3
:1015A0000895FC0184859585FC01E05CFF4F408136
:1015B0005181FC01EE5BFF4F2081318142175307BF
:1015C00081F0A081B181A80FB91F8C912081318158
:1015D0002F5F3F4F2F73332731832083282F30E035
:1015E00002C02FEF3FEFC9010895FC0181A18823BC
:1015F00029F0A489B5898C9186FFFBCF11A20895AB
:10160000CF93DF93FC0126853785D901A05CBF4FBE
:101610008D919C91119701968F739927E901CE5B6B
:10162000DF4F4881598184179507D9F30D90BC91FC
:10163000A02DA20FB31F6C93A685B785A05CBF4FEA
:1016400011969C938E93A689B7892C9181E090E0A6
:10165000078C02C0880F991F0A94E2F7282B2C935D
:1016600081E081A30488F589E02D808180648083F6
:1016700081E090E0DF91CF91089508951F920F923D
:101680000FB60F9211242F933F934F938F939F93F5
:10169000EF93FF938091C00082FD1CC04091C60073
:1016A00080917D0290917E0201968F7399272091FF
:1016B0007F02309180028217930771F0E0917D02E2
:1016C000F0917E02E35CFD4F408390937E02809315
:1016D0007D0202C08091C600FF91EF919F918F9192
:1016E0004F913F912F910F900FBE0F901F90189523
:1016F00087ED91E00E94A20A892B11F00C943D0B1A
:1017000008951F920F920FB60F9211242F933F93BB
:101710008F939F93EF93FF932091390230913A0278
:1017200080913B0290913C022817390731F4809157
:10173000C1008F7D8093C10014C0E0913B02F09105
:101740003C02E750FE4F208180913B0290913C0289
:1017500001968F73992790933C0280933B022093CC
:10176000C600FF91EF919F918F913F912F910F9024
:101770000FBE0F901F901895CF92DF92EF92FF92BD
:10178000CF93DF93EC016A017B01411581EE58078D
:1017900061057105F9F0EC89FD8981E090E008A010
:1017A00002C0880F991F0A94E2F7808360E079E015
:1017B0008DE390E0A70196010E94CF0F21503109DF
:1017C000410951095695479537952795211580E18F
:1017D000380798F0EC89FD89108260E874E88EE1A2
:1017E00090E0A70196010E94CF0F215031094109D5
:1017F00051095695479537952795E889F98930839A
:10180000EA89FB89208319A2EE89FF89408181E062
:1018100090E09C010C8C02C0220F331F0A94E2F767
:10182000422B4083EE89FF8940819C010D8C02C0D0
:10183000220F331F0A94E2F7422B4083EE89FF897F
:1018400040819C010E8C02C0220F331F0A94E2F7E4
:10185000422B4083EE89FF8920810F8C02C0880FC4
:10186000991F0A94E2F7809582238083DF91CF91BC
:10187000FF90EF90DF90CF9008951092DA011092D0
:10188000D90188EE93E0A0E0B0E08093DB01909373
:10189000DC01A093DD01B093DE018FEA91E090932B
:1018A000D8018093D7018DE392E09093E401809377
:1018B000E30189EF91E09093E6018093E50185ECE7
:1018C00090E09093E8018093E70184EC90E090939E
:1018D000EA018093E90180EC90E09093EC01809321
:1018E000EB0181EC90E09093EE018093ED0182ECAE
:1018F00090E09093F0018093EF0186EC90E090935C
:10190000F2018093F10184E08093F30183E08093FE
:10191000F40187E08093F50185E08093F60181E092
:101920008093F70108950E94A2080E94E606C8E786
:10193000DBE00E942B072097E1F30E94780BF9CFA0
:101940000C9468090C94030ACF92DF92EF92FF92F5
:101950000F931F93CF93DF936C01EB017A01E60E97
:10196000F71E00E010E00BC06991D601ED91FC91EB
:101970000190F081E02DC6010995080F191FCE15C1
:10198000DF0591F7C801DF91CF911F910F91FF9073
:10199000EF90DF90CF9008956115710581F0DB0124
:1019A0000D900020E9F7AD0141505109461B570B3E
:1019B000DC01ED91FC910280F381E02D099480E03F
:1019C00090E00895DC01ED91FC910190F081E02D13
:1019D00009940F931F93CF93DF93EC016DE00E9466
:1019E000E20C8C016AE0CE010E94E20C9C01200F07
:1019F000311FC901DF91CF911F910F9108950F936E
:101A00001F93CF93DF93EC010E94CC0C8C01CE018D
:101A10000E94E90C9801280F391FC901DF91CF916D
:101A20001F910F9108954F925F926F927F929F92B4
:101A3000AF92BF92CF92DF92EF92FF920F931F93DC
:101A4000CF93DF93CDB7DEB7A1970FB6F894DEBF83
:101A50000FBECDBF5C016A017B01922E19A281E00D
:101A6000821710F08AE0982E8E010F5D1F4F492CCF
:101A7000512C612C712CC701B601A30192010E9467
:101A8000CF0F8C2D929E80191124015011098A309C
:101A900014F4805D01C0895CF801808369017A01DA
:101AA000C114D104E104F10431F7B801C5010E9469
:101AB000CC0CA1960FB6F894DEBF0FBECDBFDF9160
:101AC000CF911F910F91FF90EF90DF90CF90BF903B
:101AD000AF909F907F906F905F904F900895CF92BE
:101AE000DF92EF92FF920F931F93CF93DF93EC015E
:101AF0006A017B012115310579F4E881F9810190B2
:101B0000F081E02D642FDF91CF911F910F91FF9015
:101B1000EF90DF90CF9009942A30310519F477FDCA
:101B20000EC02AE0B701A601CE01DF91CF911F912F
:101B30000F91FF90EF90DF90CF900C94130D6DE21A
:101B40000E94E20C8C0144275527BA014C195D090B
:101B50006E097F092AE0CE010E94130D080F191F9C
:101B6000C801DF91CF911F910F91FF90EF90DF900F
:101B7000CF9008959A01AB01662757FD6095762FA7
:101B80000C946F0DF8940C94F70FFB01DC0102C06C
:101B900001900D9241505040D8F708956817790789
:101BA00068F4FB01DC01E40FF51FA40FB51F02C0B0
:101BB00002900E9241505040D8F708950C94C50DF4
:101BC0005058BB27AA270ED04DC13ED130F043D18B
:101BD00020F031F49F3F11F41EF433C10EF4E09570
:101BE000E7FB29C1E92F4FD180F3BA1762077307CA
:101BF0008407950718F071F49EF567C10EF4E0951F
:101C00000B2EBA2FA02D0B01B90190010C01CA01B6
:101C1000A0011124FF27591B99F0593F50F4503E61
:101C200068F11A16F040A22F232F342F4427585F53
:101C3000F3CF469537952795A795F0405395C9F76B
:101C40007EF41F16BA0B620B730B840BBAF0915023
:101C5000A1F0FF0FBB1F661F771F881FC2F70EC0C2
:101C6000BA0F621F731F841F48F487957795679595
:101C7000B795F7959E3F08F0B3CF9395880F08F07E
:101C80009927EE0F9795879508950CD0EBC0E3D078
:101C900040F0DAD030F021F45F3F19F0CCC05111A0
:101CA00015C1CFC0F0D098F39923C9F35523B1F3F0
:101CB000951B550BBB27AA2762177307840738F0BB
:101CC0009F5F5F4F220F331F441FAA1FA9F333D01A
:101CD0000E2E3AF0E0E830D091505040E695001CCE
:101CE000CAF729D0FE2F27D0660F771F881FBB1F8A
:101CF000261737074807AB07B0E809F0BB0B802D64
:101D0000BF01FF2793585F4F2AF09E3F510568F0AF
:101D100092C0DCC05F3FECF3983EDCF3869577958C
:101D20006795B795F7959F5FC9F7880F911D9695B1
:101D3000879597F90895E1E0660F771F881FBB1F0D
:101D4000621773078407BA0720F0621B730B840BBA
:101D5000BA0BEE1F88F7E095089504D06894B1118E
:101D6000B5C0089598D088F09F5790F0B92F992763
:101D7000B751A0F0D1F0660F771F881F991F1AF096
:101D8000BA95C9F712C0B13081F09FD0B1E0089583
:101D90009CC0672F782F8827B85F39F0B93FCCF304
:101DA000869577956795B395D9F73EF4909580958C
:101DB000709561957F4F8F4F9F4F0895E89409C0AC
:101DC00097FB3EF490958095709561957F4F8F4F6E
:101DD0009F4F9923A9F0F92F96E9BB279395F69584
:101DE000879577956795B795F111F8CFFAF4BB0F02
:101DF00011F460FF1BC06F5F7F4F8F4F9F4F16C066
:101E0000882311F096E911C0772321F09EE8872FEF
:101E1000762F05C0662371F096E8862F70E060E0AB
:101E20002AF09A95660F771F881FDAF7880F969524
:101E3000879597F9089597F99F6780E870E060E0CB
:101E400008959FEF80EC089500240A941616170653
:101E500018060906089500240A941216130614069B
:101E600005060895092E0394000C11F4882352F0FE
:101E7000BB0F40F4BF2B11F460FF04C06F5F7F4FB6
:101E80008F4F9F4F089557FD9058440F551F59F09D
:101E90005F3F71F04795880F97FB991F61F09F3F57
:101EA00079F087950895121613061406551FF2CF80
:101EB0004695F1DF08C0161617061806991FF1CFD0
:101EC00086957105610508940895E894BB276627F7
:101ED0007727CB0197F908950BD0C4CFB5DF28F051
:101EE000BADF18F0952309F0A6CFABCF1124EECFBF
:101EF000CADFA0F3959FD1F3950F50E0551F629F65
:101F0000F001729FBB27F00DB11D639FAA27F00D52
:101F1000B11DAA1F649F6627B00DA11D661F829F79
:101F20002227B00DA11D621F739FB00DA11D621F5E
:101F3000839FA00D611D221F749F3327A00D611D7B
:101F4000231F849F600D211D822F762F6A2F11245D
:101F50009F5750408AF0E1F088234AF0EE0FFF1FB0
:101F6000BB1F661F771F881F91505040A9F79E3FE7
:101F7000510570F060CFAACF5F3FECF3983EDCF3E1
:101F8000869577956795B795F795E7959F5FC1F724
:101F9000FE2B880F911D9695879597F90895A1E2DC
:101FA0001A2EAA1BBB1BFD010DC0AA1FBB1FEE1FD3
:101FB000FF1FA217B307E407F50720F0A21BB30B1E
:101FC000E40BF50B661F771F881F991F1A9469F79A
:101FD00060957095809590959B01AC01BD01CF01F6
:101FE0000895EE0FFF1F0590F491E02D0994F894E9
:021FF000FFCF21
:101FF200010000850280002000000000004B036FFA
:1020020003E0FFE0FF000065037903200000000009
:10201200007601D702E0FFE0FF00008001E202004B
:102022000000007001D002000000002F034103AF46
:1020320001B001E904B101BA01BD01CA01010217EF
:10204200022E022A06B704000000008A01C902AF6C
:10205200015C025F026202AC0165026802A90190A2
:1020620001A7016E026C020600000000007601D793
:1020720002FAFFFAFF00008001E2020D0121012BAA
:102082000117017D018701206F646F47203A00200C
:102092006F646F44203A00206D6D00000000000064
:0C20A2000BA40CA20AD10AB50AF50A0032
:00000001FF
