:100000000C9477000C9457160C9484160C949F0053
:100010000C949F000C949F000C949F000C949F00E4
:100020000C949F000C949F000C949F000C949F00D4
:100030000C949F000C949F000C949F000C949F00C4
:100040000C9412170C949F000C94911A0C94CD1AD6
:100050000C949F000C949F000C949F000C949F00A4
:100060000C949F000C949F0005A84CCDB2D44EB9BF
:100070003836A9020C50B9918688083CA6AAAA2A4B
:10008000BE000000803F00000007000201000003E6
:100090000406000000000000000001020408102017
:1000A000408001020408102001020408102004040A
:1000B0000404040404040202020202020303030310
:1000C00003030000000023002600290000000000B8
:1000D000250028002B0000000000240027002A0033
:1000E0006364696E6F70737578585B00881B1124A8
:1000F0001FBECFEFD8E0DEBFCDBF12E0A0E0B1E081
:10010000E4EAF9E402C005900D92A23AB107D9F7EA
:1001100013E0A2EAB2E001C01D92A836B107E1F7F0
:1001200010E0CEEED0E004C02297FE010E94CC2465
:10013000CC3ED107C9F70E94D81B0C94E61D0C9445
:100140000000CF93DF93EC010E94F005CE010C96E6
:100150000E9483026AE070E0CE0184579F4F0E94A4
:1001600082146EE170E0CE018C569F4F0E94821483
:10017000FE01E456FF4F44EB58EC66EB7EE3408310
:10018000518362837383FE01E056FF4F40835183A6
:1001900062837383FE01EC55FF4F40E757E766E546
:1001A0007CE34083518362837383FE01E855FF4FF4
:1001B00011821082C655DF4F19821882DF91CF91CC
:1001C0000895CF92DF92EF92FF92CF93DF93EC01ED
:1001D0006091A2027091A3028091A4029091A50265
:1001E0000E944A1FFE01E056FF4F2081318142816B
:1001F00053810E9437206B017C016091A6027091AF
:10020000A7028091A8029091A9020E944A1FFE01B4
:10021000E456FF4F20813181428153810E94372073
:100220009B01AC01C701B6010E94431EFE01EC55C3
:10023000FF4F20813181428153810E943720AB01E1
:10024000BC01CE01DF91CF91FF90EF90DF90CF9076
:100250000C945B054F925F926F927F92AF92BF9228
:10026000CF92DF92EF92FF920F931F93CF93DF9382
:10027000EC010E94E10086EAE82E82E0F82E8E0171
:1002800008551F4FF70160817181F80180819181CC
:10029000681B790B882777FD8095982F0E944A1F4D
:1002A000FE01E456FF4F20813181428153810E943B
:1002B00037202B013C0192EAA92E92E0B92E6E0163
:1002C000FAEACF0ED11CF50160817181F6018081BF
:1002D0009181681B790B882777FD8095982F0E9464
:1002E0004A1FFE01E056FF4F208131814281538138
:1002F0000E9437209B01AC01C301B2010E94441E41
:1003000020E030E040E05FE30E943720AB01BC0119
:10031000CE010E946105F50180819181F6019183F2
:100320008083F70180819181F80191838083DF913F
:10033000CF911F910F91FF90EF90DF90CF90BF90E2
:10034000AF907F906F905F904F900895CF92DF9223
:10035000EF92FF920F93CF93DF931F92CDB7DEB74B
:100360007B016A0166E071E08DEB92E029830E94D7
:10037000211C4AE050E0B7018DEB92E00E94FB1C8B
:100380006EE071E08DEB92E00E94211C4AE050E0AB
:100390002981622F70E08DEB92E00E94FB1C64E1EA
:1003A00071E08DEB92E00E94211C4AE050E0B60122
:1003B0008DEB92E00E94FB1C6DE171E08DEB92E011
:1003C0000E94211C4AE050E0602F70E08DEB92E02B
:1003D0000F90DF91CF910F91FF90EF90DF90CF9032
:1003E0000C94FB1CAF92BF92CF92DF92EF92FF92E0
:1003F0000F931F93CF93DF937C01EC012C96CE01DA
:100400000E9431056C01CE010E943C055C01CE01C9
:100410000E943705182FCE010E944205082F112394
:1004200011F061E001C060E086E00E945B180023EB
:1004300011F060E001C061E085E00E945B18B60148
:100440008AE00E94B116B50189E00E94B116212F01
:10045000A501B601C7010E94A601DF91CF911F91AE
:100460000F91FF90EF90DF90CF90BF90AF900895E5
:10047000CF92DF92EF92FF920F931F93CF93DF9370
:10048000EC018C0104571F4FC8010E948E14882371
:1004900031F0C8010E947614CE010E942A018E011B
:1004A0000C561F4FC8010E948E148823F1F0C8011A
:1004B0000E947614C880D980EA80FB800C811D815F
:1004C0002E813F81488559856A857B85CE010C96B2
:1004D0000E94F404CE01DF91CF911F910F91FF9004
:1004E000EF90DF90CF900C94F201DF91CF911F91AC
:1004F0000F91FF90EF90DF90CF9008959C01245FC3
:100500003F4FC90108958F929F92AF92BF92CF92B1
:10051000DF92EF92FF920F931F93CF93DF93EC0143
:100520000E94F005CE010C960E94F005CE0148967F
:100530000E94180619A218A280E48F9380EA8F9374
:100540001F921F92812C912C80E2A82E81E4B82E5C
:10055000C12CD12C90E9E92E91E4F92E00E010E0B5
:10056000980140E050E068EC72E4CE0184960E946D
:10057000AE1481E48F9380E28F931F921F92812C9F
:10058000912C2CE8A22E22E4B22EC12CD12C760183
:100590000AE919E929E93EE340E050E060EC7FE335
:1005A000CE01835B9F4F0E94AE14FE01EA58FF4FBD
:1005B00011821082FE01E858FF4F11821082FE0165
:1005C000E258FF4F81E08083C158DF4F88838DB7A9
:1005D0009EB708960FB6F8949EBF0FBE8DBFDF91F1
:1005E000CF911F910F91FF90EF90DF90CF90BF9030
:1005F000AF909F908F9008958F929F92AF92BF92ED
:10060000CF92DF92EF92FF920F931F93CF93DF93DE
:10061000CDB7DEB764970FB6F894DEBF0FBECDBF7F
:100620004C01A986BA86CB86DC86ED86FE860F87CE
:10063000188B298B3A8B4B8B5C8BFC0171A360A3CD
:1006400082E090E093A382A384010C5D1F4FC80158
:100650000E94CE155401FDE4AF0EB11CC5010E94ED
:10066000CE15F40180A191A18130910521F002976E
:1006700009F06BC056C0CE0109960E944705AB0138
:10068000BC018401045F1F4FC8010E9461052DB7A2
:100690003EB72C5031090FB6F8943EBF0FBE2DBFA8
:1006A000ADB7BEB711968CE0F80101900D928A9516
:1006B000E1F7F401C080D180E280F38004811581EC
:1006C000268137814085518562857385CE010196EB
:1006D0000E94220688E0FE013196D40158960190CE
:1006E0000D928A95E1F7CE0109960E9447050FB653
:1006F000F894DEBF0FBECDBF20E030E0A9010E941C
:10070000A81E8401085E1F4F87FF03C0C8010E9416
:100710009906C8010E94AD0640E050E0BA01C5014B
:1007200012C0CE0109960E945105AB01BC013CE00C
:10073000830E911CC4010E945B05C4010E945105F7
:10074000AB01BC01C8010E94F81464960FB6F8947E
:10075000DEBF0FBECDBFDF91CF911F910F91FF90F4
:10076000EF90DF90CF90BF90AF909F908F900895C3
:10077000AF92BF92CF92DF92EF92FF920F931F93AF
:10078000CF93DF93CDB7DEB760970FB6F894DEBF97
:100790000FBECDBF5C01CE0109960E941806C501AF
:1007A0000E94A9058DB79EB70C970FB6F8949EBF0F
:1007B0000FBE8DBFADB7BEB711968CE0F5013C966C
:1007C00001900D928A95E1F7F501C080D180E28019
:1007D000F3800481158126813781408551856285AA
:1007E0007385CE0101960E94220688E0FE013196B3
:1007F000DE01199601900D928A95E1F70FB6F894F3
:10080000DEBF0FBECDBFF50180A191A18130910562
:1008100089F08230910509F45FC0892B09F076C018
:10082000E458FF4F11821082F501E658FF4F118204
:1008300010826CC0F501C080D180E280F380048119
:100840001581268137814085518562857385CE016A
:1008500001960E94D70609811A812B813C814D8126
:100860005E816F817885CE0109960E941107AB01E8
:10087000BC017501FDE4EF0EF11CC7010E94FE14DE
:10088000850106581F4F90580E94171FF801718369
:100890006083C5010E945105AB01BC0185010C5D5F
:1008A0001F4FC8010E94FE146501FCE7CF0ED11C4A
:1008B0000E94171FF60171836083F50162A173A185
:1008C000C7010E94D415882309F1F50162A173A123
:1008D000C8010E94D4151AC0C5010E945105AB0180
:1008E000BC01C50184960E94FE14850104581F4F67
:1008F0000E94171FF80171836083F501E658FF4FCE
:1009000011821082CE0109960E945B0763E471E0B8
:100910008DEB92E00E94401C60960FB6F894DEBF0B
:100920000FBECDBFDF91CF911F910F91FF90EF9040
:10093000DF90CF90BF90AF900895FC01E658FF4F35
:100940002081318137FF02C02F5F3F4FB90175957C
:100950006795FC01E458FF4FB081A1812B2F3A2FFE
:1009600037FF02C02F5F3F4F35952795AB01421BE4
:10097000530BFC01EA58FF4F518340832B2F3A2F32
:1009800037FF02C02F5F3F4F35952795260F371F42
:10099000FC01E858FF4F31832083FC01E258FF4FF0
:1009A00061E0141615060CF460E06083FC01E15868
:1009B000FF4F61E0121613060CF460E0608357FFEE
:1009C00008C0FC01EA58FF4F5195419551095183E8
:1009D000408337FF08C0FC01E858FF4F319521954F
:1009E0003109318320830895AF92BF92CF92DF9275
:1009F000EF92FF920F931F93CF93DF93CDB7DEB7A4
:100A00002C970FB6F894DEBF0FBECDBF5C01C98234
:100A1000DA82EB82FC820D831E832F83388749871D
:100A20005A876B877C878CE0FE013196D501019057
:100A30000D928A95E1F7C5010E94B803C5012C9675
:100A40000FB6F894DEBF0FBECDBFDF91CF911F91DF
:100A50000F91FF90EF90DF90CF90BF90AF900C94EC
:100A60009D04FC01EA58FF4F8081918108958258CE
:100A70009F4FFC0180810895FC01E858FF4F808161
:100A80009181089581589F4FFC0180810895FC0158
:100A90005081418132812381652F742F832F922FC2
:100AA0000895FC015085418532852385652F742F7B
:100AB000832F922F0895FC014087518762877387A7
:100AC00008958F929F92AF92BF92CF92DF92EF9252
:100AD000FF92CF93DF93EC016A017B0188849984B4
:100AE000AA84BB84C501B4010E94AC1E9B01AC0169
:100AF000C701B6010E9437209B01AC016881798152
:100B00008A819B810E94441E688379838A839B83A8
:100B1000C501B4010E949A209B01AC01C701B60136
:100B20000E9437209B01AC016C817D818E819F8169
:100B30000E94441E6C837D838E839F83DF91CF91BF
:100B4000FF90EF90DF90CF90BF90AF909F908F90ED
:100B50000895CF93DF93EC016EE271E08DEB92E0AC
:100B60000E94211C688179818A819B810E94171FC4
:100B70004AE050E08DEB92E00E94FB1C65E371E0DF
:100B80008DEB92E00E94211C6C817D818E819F8182
:100B90000E94171F4AE050E08DEB92E00E94FB1C80
:100BA0006BE371E08DEB92E00E94211C20E030E0CD
:100BB00044E353E4688579858A859B850E943720C4
:100BC00023EC35EF48E450E40E94AF1EAB01BC01BA
:100BD00022E030E08DEB92E0DF91CF910C94C61DC6
:100BE000FC011082118212821382148215821682F5
:100BF000178210861186128613860895CF92DF928F
:100C0000EF92FF920F931F93FC0140835183628305
:100C100073830483158326833783C086D186E28657
:100C2000F3861F910F91FF90EF90DF90CF90089582
:100C3000FC011082118212821382148215821682A4
:100C400017820895AF92BF92CF92DF92EF92FF92F8
:100C50000F931F93CF93DF93CDB7DEB72C970FB6CB
:100C6000F894DEBF0FBECDBF5C01C982DA82EB8291
:100C7000FC820D831E832F83388729813A814B8123
:100C80005C81698D7A8D8B8D9C8D0E94431EF50150
:100C900060837183828393832D813E814F81588548
:100CA0006D8D7E8D8F8D98A10E94431EF50164830A
:100CB0007583868397832C960FB6F894DEBF0FBE9C
:100CC000CDBFDF91CF911F910F91FF90EF90DF90FB
:100CD000CF90BF90AF9008958F929F92AF92BF92A6
:100CE000CF92DF92EF92FF92FC016081718182814D
:100CF0009381C480D580E680F7809B01AC010E947F
:100D000037204B015C01A7019601C701B6010E9483
:100D100037209B01AC01C501B4010E94441EFF9025
:100D2000EF90DF90CF90BF90AF909F908F900C94FA
:100D3000A420FC01408151816281738170584083FD
:100D400051836283738344815581668177817058B2
:100D500044835583668377830895CF92DF92EF9221
:100D6000FF92CF93DF93EC010E946C066B017C0134
:100D70009B01AC01688179818A819B810E94AF1EB1
:100D8000688379838A839B83A70196016C817D8127
:100D90008E819F810E94AF1E6C837D838E839F8393
:100DA000DF91CF91FF90EF90DF90CF900895CF9299
:100DB000DF92EF92FF920F931F93CF93DF93CDB704
:100DC000DEB72C970FB6F894DEBF0FBECDBF8C01F7
:100DD00049875A876B877C87C984DA84EB84FC84D3
:100DE000C701B6010E94AC1EF80160837183828343
:100DF0009383C701B6010E949A20F801648375832A
:100E0000868397832C960FB6F894DEBF0FBECDBFB6
:100E1000DF91CF911F910F91FF90EF90DF90CF90D6
:100E20000895AF92BF92CF92DF92EF92FF920F930D
:100E30001F93CF93DF93CDB7DEB728970FB6F89403
:100E4000DEBF0FBECDBF5C0109831A832B833C83B9
:100E50004D835E836F83788729813A814B815C81E2
:100E6000FC0160817181828193810E9437206B0136
:100E70007C012D813E814F815885F501648175810A
:100E8000868197810E9437209B01AC01C701B60182
:100E90000E94441E28960FB6F894DEBF0FBECDBF49
:100EA000DF91CF911F910F91FF90EF90DF90CF9046
:100EB000BF90AF900895CF93DF93EC0164E471E0AD
:100EC0008DEB92E00E94211C488159816A817B81CF
:100ED00022E030E08DEB92E00E94C61D69E471E0F3
:100EE0008DEB92E00E94211C4C815D816E817F819F
:100EF00022E030E08DEB92E0DF91CF910C94C61DA3
:100F00008BE00E9492184091A6025091A702609136
:100F1000A8027091A902019729F44F5F5F4F6F4FAC
:100F20007F4F04C041505109610971094093A602E5
:100F30005093A7026093A8027093A90208958CE0D1
:100F40000E9492184091A2025091A3026091A402C3
:100F50007091A502019729F4415051096109710965
:100F600004C04F5F5F4F6F4F7F4F4093A20250937B
:100F7000A3026093A4027093A50208952CE232E0CC
:100F8000FC0131832083089526E732E0FC013183A0
:100F900020832CE232E0378326830895DC01ED9133
:100FA000FC91369720813181820F931F0C94C407E6
:100FB00024E532E0FC01318320830895CF93DF9351
:100FC000EC01E881F9810288F389E02D09959C0103
:100FD0002F3F8FEF380729F08D819E8101969E83E8
:100FE0008D83C901DF91CF910895CB0108958FEFD3
:100FF0009FEF089580E090E0089508950895242FCC
:10100000DC01ED91FC910084F185E02D41E0099433
:1010100080E090E00895FC012289338980899189DC
:10102000281B390B86899789281B390BC90108951C
:101030008F929F92AF92BF92EF92FF92CF93DF93E6
:10104000FC01DB01812C912C5401C689D789E088F1
:10105000F188828993898E199F09C817D907A0F44E
:1010600082169306A406B5067CF4CE0DDF1D88819A
:101070008D938FEF881A980AA80AB80A86899789EB
:101080000196978B868BE1CFB401C501DF91CF919B
:10109000FF90EF90BF90AF909F908F900895FC01CC
:1010A000268937894089518982899389841B950BC8
:1010B0002817390730F4FA01E20FF31F208130E0DE
:1010C00002C02FEF3FEFC9010895CF93DF93EC01EA
:1010D000E881F9810288F389E02D09959C012F3F71
:1010E0008FEF380729F08E899F8901969F8B8E8B11
:1010F000C901DF91CF910895FC01868997890097F6
:1011000029F1A089B189228933892A1B3B0B281731
:10111000390718F4378B268B19C001976F3F2FEFD3
:10112000720729F4978B868B60E070E011C0A80FDE
:10113000B91F2C91261303C0978B868B09C0278576
:1011400024FF04C0978B868B6C9302C06FEF7FEFF8
:10115000CB01089580E090E0089580E090E008954C
:1011600080E090E0089580E090E0089560E070E015
:10117000CB010895CB0108957F928F929F92AF92F9
:10118000BF92CF92DF92EF92FF920F931F93CF9374
:10119000DF93EC0149015A018B01C12CD12C76015E
:1011A0002FC0F80171908F018F8580FF0BC0E881FF
:1011B000F9810084F185E02D20E144E060E070E0F9
:1011C000CE010995EB85FC858D859E85E817F9078D
:1011D00038F470828B859C8501969C878B870BC029
:1011E000E881F981028CF38DE02D672D70E0CE014E
:1011F0000995019661F02FEFC21AD20AE20AF20AAB
:10120000C814D904EA04FB0464F275016401B60150
:10121000C701DF91CF911F910F91FF90EF90DF9069
:10122000CF90BF90AF909F908F907F90089524E5CE
:1012300032E0FC01318320830C94E71B2CE232E086
:10124000FC01318320830C94E71B26E732E0FC018C
:10125000318320832CE232E0378326830C94E71B12
:10126000DC01ED91FC91369720813181820F931F33
:101270000C942509EF92FF920F931F93CF93DF9366
:101280007C01EB018A0164177507A1F0FC01408124
:101290005181401B510B4F5F5F4FB801CE010E943F
:1012A000071E0C1B1D0BF70180819181801B910B88
:1012B00091838083CE01DF91CF911F910F91FF9099
:1012C000EF900895CF93DF93EC01BC0181E090E0B3
:1012D0000E94DE15FC0110821882DF91CF910895E3
:1012E000DC0113968D919C911497892B59F01596DA
:1012F000ED91FC91169717968D919C911897E81790
:10130000F90741F4ED91FC9111970488F589E02DDE
:10131000CD01099481911696FC93EE93159790E078
:101320000895FC018581682B83899489892B09F0B4
:1013300001C0616065830895FC01808191812481F1
:1013400035812817390711F00C94561908950C941B
:101350009C09CF93DF93EC0184E392E09983888327
:10136000CE0140960E94A70984E592E09983888384
:10137000DF91CF910895CF93DF93EC010E94A909EB
:10138000CE01DF91CF910C94E71BCF93DF93EC015B
:1013900086E092E09983888380E192E099A388A314
:1013A000CE0106960E94A9098AE192E0998388837A
:1013B0008CE292E099A388A3DF91CF910895DC019C
:1013C000ED91FC91369720813181820F931F0C940F
:1013D000C509CF93DF93EC010E94C509CE01DF91CF
:1013E000CF910C94E71BDC01ED91FC9136972081A5
:1013F0003181820F931F0C94E909CF93DF93EC01A5
:10140000FB0101900020E9F73197E61BF70B88817B
:1014100099814A815B81481B590B4E175F0731F454
:101420000E94F11D9C0181E0232B09F080E0DF91F7
:10143000CF910895DC0113968D919C911497892B7F
:1014400059F01596ED91FC91169717968D919C91F8
:101450001897E817F90741F4ED91FC91119702886C
:10146000F389E02DCD010994808190E00895CF9318
:10147000DF93EC01E881F98136970190F081E02D4E
:10148000EC0FFD1F838994890E941A0A8F3F2FEF6A
:10149000920789F00E94E91D892BC9F0E881F98142
:1014A00036970190F081E02DEC0FFD1F8389948920
:1014B0000E947009DFCFE881F981369780819181A0
:1014C00062E08C0F9D1FDF91CF910C949109DF9109
:1014D000CF910895DF92EF92FF920F931F93CF93D6
:1014E000DF937C018B01D42EDB01ED91FC913697CB
:1014F0000190F081E02DE60FF71FC189D289209776
:10150000E9F0E881F98136970190F081E02DEC0F48
:10151000FD1F83899489DC01ED91FC910484F5859C
:10152000E02D0995019651F4E881F9813697808183
:10153000918161E08C0F9D1F0E949109D11003C021
:10154000C8010E94370A81E0F7018083DF91CF91C3
:101550001F910F91FF90EF90DF900895CF93DF934D
:10156000EC01009791F0CE010E94BB189C010097FE
:1015700071F4E091AA02F091AB02309721F480E07F
:1015800090E00E94E61D0995EECF20E030E0C90111
:10159000DF91CF9108950F931F93CF93DF93EC01C9
:1015A0008B016F3F8FEF780759F0CB010E94AE0A95
:1015B000998388839B838A83080F191F1D830C835B
:1015C000DF91CF911F910F910895CF93DF93EC019D
:1015D000198218821B821A821D821C8268E070E0C8
:1015E0000E94CB0A8A819B81DF91CF910C94620982
:1015F000EF92FF920F931F93CF93DF931F92CDB77C
:10160000DEB78C017B0164E670E00E948214F80171
:1016100011861086BE016F5F7F4FC8010A960E9437
:10162000E50A81E290E0F80195AB84AB16AA17AA0F
:1016300010AE46E050E060E070E041AF52AF63AF03
:1016400074AFFD961082118212821382F801EF5B53
:10165000FF4F80E28083F801EE5BFF4F1182108222
:10166000F801EC5BFF4FC801479691838083F80136
:10167000EA5BFF4F1082F801138A148A158A168AD2
:1016800086E092E0928B818B80E192E092AB81AB1D
:10169000138E128E158E148E178E168E11A210A216
:1016A00013A212A215A214A216A284E392E0908FB4
:1016B000878BBE016F5F7F4FC80187960E94E50A46
:1016C000F80116A615A610AA17A688E086A3E95B5E
:1016D000FF4FF182E08281E0F801808B0F90DF9173
:1016E000CF911F910F91FF90EF900895CF92DF92CD
:1016F000EF92FF920F931F93CF93DF93EC018A81B8
:101700009B8128813981821B930B8617970708F4E8
:10171000CB016C012FEFC21AD20AC6010E94AE0A99
:101720008C0168817981EA80FB80E61AF70AA701BB
:101730000E94071EE00EF11EC7010E946209CE0141
:101740000E949C0919830883FB82EA820C0D1D1DEF
:101750001D830C83DF91CF911F910F91FF90EF902C
:10176000DF90CF9008951F93CF93DF93EC01162F56
:101770008A819B819C012F5F3F4F4C815D81421785
:10178000530779F428813981821B930B11F09C0156
:1017900002C021E030E0B901680F791FCE010E943C
:1017A000760B8A819B8101960E946209EA81FB8106
:1017B00010838A819B8101969B838A83DF91CF91DD
:1017C0001F9108950F931F93CF93DF93EC018B012B
:1017D0006F3F8FEF7807E9F08F8584FF1DC0288D5C
:1017E000398D488959898A899B89841B950B2817CB
:1017F000390728F0CE0140960E94B30B04C0FA01CD
:10180000E20FF31F6083888D998D0196998F888FE1
:1018100005C000E010E002C00FEF1FEFC801DF912C
:10182000CF911F910F9108957F928F929F92AF92C7
:10183000BF92CF92DF92EF92FF920F931F93CF93BD
:10184000DF931F92CDB7DEB78C017B0140E0BC0176
:10185000CE0101960E946A0A2981D8018D919C913E
:10186000FC013697222309F47FC00190F081E02D1E
:10187000E00FF11FC388D488D701ED91FC91119737
:1018800012968D919C911397E817F90741F01082F9
:101890008D919C91119713969C938E931297D801DA
:1018A000ED91FC9136970190F081E02D3296E00F9A
:1018B000F11F62857385848595851286138614864B
:1018C00015865B016115710521F0C7010E94760B39
:1018D00003C0AA24AA94BA2CC6010E9470094C0124
:1018E0008F3FBFEF9B0741F4D801ED91FC913697F4
:1018F0008081918162E020C0992787FD90950E94A8
:10190000E91DB1E0AB1AB108892BD9F0F60183814A
:101910009481009789F10580F681E02DE817F90799
:1019200059F18291881228C034C0D801ED91FC9100
:1019300036978081918164E0800F911F0E94910908
:1019400007C0682DC7010E94B30BA114B10421F692
:10195000F701228133818081918128173907F9F4B9
:10196000D801ED91FC9136978081918164E0800FE0
:10197000911F0E94910913C0D601ED91FC91B40111
:1019800077270688F789E02DC6010995019669F247
:10199000DFCFD6011696FC93EE931597D9CFC801E9
:1019A0000F90DF91CF911F910F91FF90EF90DF90FB
:1019B000CF90BF90AF909F908F907F900895FF92AF
:1019C0000F931F93CF93DF93EC018B01F42E48818B
:1019D00059818A819B81841B950BBC01600F711F0B
:1019E0002C813D81241B350B2150310926173707E7
:1019F00058F49C018017910708F49801B901680F09
:101A0000791FCE010E94760B01151105E1F02A81A4
:101A10003B81C9010196A901400F511F481B590B79
:101A20006F2D70E00E94191E8A819B81800F911F8B
:101A30000E946209EA81FB81F0828A819B81800F8A
:101A4000911F9B838A83CE01DF91CF911F910F91CC
:101A5000FF900895CF92DF92EF92FF920F931F9322
:101A6000CF93DF931F92CDB7DEB77C018B01BE0110
:101A70006F5F7F4F0E94E50AD801ED91FC91369788
:101A80000190F081E02DE00FF11F838994890E947D
:101A90001A0A6C018F3FBFEF9B0729F10E94E91DD5
:101AA000892B69F020C0D801ED91FC913697808197
:101AB000918166E0800F911F0E9491091CC0D8019E
:101AC000ED91FC9136970190F081E02DE00FF11F30
:101AD000838994890E9470094C2D61E070E0C701F0
:101AE0000E94DF0CC9CFF70122813381808191816F
:101AF00028173907C1F2C7010F90DF91CF911F91CD
:101B00000F91FF90EF90DF90CF900895CF92DF92EA
:101B1000EF92FF920F931F93CF93DF931F92CDB756
:101B2000DEB76C018B01BE016F5F7F4F0E94E50A3B
:101B3000D801ED91FC9136970190F081E02DE00FF6
:101B4000F11F838994890E941A0A7C018F3FBFEF9D
:101B50009B0789F10E94E91D892B69F5C701C09790
:101B60000A97A8F0EEE2EE16F10489F0FCE2EF1617
:101B7000F10409F50CC0D801ED91FC9136978081F4
:101B8000918166E0800F911F0E9491091CC0D801CD
:101B9000ED91FC9136970190F081E02DE00FF11F5F
:101BA000838994890E9470094E2D61E070E0C6011E
:101BB0000E94DF0CBDCFF6012281338180819181AB
:101BC00028173907C1F2C6010F90DF91CF911F91FD
:101BD0000F91FF90EF90DF90CF9008950F931F9398
:101BE000CF93DF938C01E22FE870322F3071287190
:101BF000283121F4423009F05DC059C0413011F460
:101C0000EB0129C04230D1F4332371F0DC0152964C
:101C1000CD91DC91539750968D919C915197C81B13
:101C2000D90BC60FD71F02C0C0E0D0E0EE2399F059
:101C3000D8015696CD91DC9157970BC0D80152969A
:101C4000CD91DC91539750968D919C915197C81BE3
:101C5000D90BC60FD71FD80152964D915C9153975F
:101C600050966D917C915197CA01861B970B8C17EA
:101C70009D07E8F0EE2321F05796DC93CE9356971C
:101C80003323D9F06C0F7D1FC80142960E943A0998
:101C9000F8018289938920893189821B930B2689D7
:101CA00037898217930748F4978B868B06C0CFEF4E
:101CB000DFEF03C0413011F6A3CFCE01DF91CF910A
:101CC0001F910F9108958F929F92AF92BF92CF92E2
:101CD000DF92EF92FF920F931F93CF93DF93EC016C
:101CE0007B016417750709F45FC08A819B81688155
:101CF00079814C01861A970A8A010E191F09F80189
:101D0000E80DF91D2C813D81261B370B215031092F
:101D10002E173F0780F58FEF881A980AC801043103
:101D2000110510F484E190E0880E991EC4010E9410
:101D3000AE0A6C0168817981AA80BB80A61AB70AB5
:101D4000A5010E94071EAC0CBD1CA801B701C5016E
:101D50000E94071EA00EB11EC5010E946209CE019D
:101D60000E949C09D982C882BB82AA82C80CD91C55
:101D7000DD82CC8219C0B7016F5F7F4F461B570BC6
:101D800001960E94071E8A819B81800F911F0E94ED
:101D90006209EA81FB81D7018C9180838A819B81D2
:101DA000800F911F9B838A83CE01DF91CF911F917A
:101DB0000F91FF90EF90DF90CF90BF90AF909F90EA
:101DC0008F900895CF92DF92EF92FF920F931F931F
:101DD000CF93DF93EC018B017A016A01C61AD70A0F
:101DE000288139818A819B81821B930B8C159D05EB
:101DF00078F0A601C9010E94FE1D4A815B81FE01A7
:101E000061917191CF016C0D7D1D0E943A0911C045
:101E1000AC01C9010E94FE1D6A817B818881998184
:101E2000681B790B600F711F20E0A701CE010E9493
:101E3000630ECE01DF91CF911F910F91FF90EF9034
:101E4000DF90CF900895CF93DF93EC016817790767
:101E500039F0FB0142815381608171810E94E20E61
:101E6000CE01DF91CF910895CF93DF93EC01469699
:101E70000E94230F1D8E1C8E8D8981FF09C0888DC5
:101E8000998D2E893F89821B930B9F8F8E8F02C065
:101E90001F8E1E8EE881F98136970190F081E02D2A
:101EA000EC0FFD1F83899489892B11F0158202C0E4
:101EB00081E08583DF91CF910895EF92FF920F9398
:101EC0001F93CF93DF93CDB7DEB72D970FB6F8945E
:101ED000DEBF0FBECDBF7C018B01BE01635F7F4FB4
:101EE000CE0107960E94E50AB701CE0101960E9435
:101EF0002A0DBE016F5F7F4FCE0107960E94230F10
:101F0000CE0101960E94A7096DE471E0CE0107960B
:101F10000E94FD0981111EC062E571E0CE010796A5
:101F20000E94FD09811116C067E571E0CE01079698
:101F30000E94FD0981110EC06CE571E0CE0107968B
:101F40000E94FD09811106C009C0CE0107960E94BA
:101F5000A70907C081E0F8018083F7CFF80110825C
:101F6000F4CF2D960FB6F894DEBF0FBECDBFDF9134
:101F7000CF911F910F91FF90EF900895EF92FF92F4
:101F80000F931F93CF93DF93CDB7DEB72D970FB687
:101F9000F894DEBF0FBECDBF8C01F62EE72EBE013A
:101FA000635F7F4FCE0107960E94E50AD801ED914D
:101FB000FC9136970190F081E02DE00FF11F8381B5
:101FC000B80185FF14C0CE0101960E94860DBE01A6
:101FD0006F5F7F4FCE0107960E94230FCE010196BF
:101FE0000E94A709EF92FF928EE591E033C0CE01E7
:101FF00001960E942A0DBE016F5F7F4FCE010796AA
:102000000E94230FCE0101960E94A709D801ED91ED
:10201000FC9136970190F081E02DE00FF11F838154
:10202000948186FF05C0EF92FF9281E691E012C095
:1020300087FF0CC095FF05C0EF92FF9284E691E008
:1020400009C0EF92FF9287E691E004C0EF92FF9201
:102050008AE691E09F938F9388858F938F818F93EA
:102060000E94281E0F900F900F900F900F900F90CE
:10207000CE0107960E94A7092D960FB6F894DEBFF1
:102080000FBECDBFDF91CF911F910F91FF90EF90C9
:102090000895EF92FF920F931F93CF93DF931F92B8
:1020A000CDB7DEB77C018B0140E0BC01CE010196CB
:1020B0000E946A0AB801C7010E94BE0FC7010F90B3
:1020C000DF91CF911F910F91FF90EF900895AF9204
:1020D000BF92CF92DF92EF92FF920F931F93CF9315
:1020E000DF93CDB7DEB7EB970FB6F894DEBF0FBE28
:1020F000CDBF5C01BC01665F7F4F6C0181E1C80E02
:10210000D11CC6010E94340FBE01655C7F4FCE0119
:102110008B960E94E50ABE01655D7F4FC6010E9455
:10212000140CEBA5FCA510816DE671E08DEB92E03F
:102130000E94211CEBA5FCA5E180FF24E7FCF094A4
:10214000A0E3EA1AF108612F8DEB92E00E94231CB4
:102150006AE771E08DEB92E00E94211C4AE050E0BA
:10216000B7018DEB92E00E94031DBE01655C7F4FBD
:10217000CE0185960E94E50ABE01655C7F4FCE01C7
:102180004F960E94E50ABE01655C7F4FCE014996DD
:102190000E94E50A18AE1FAA1EAA1DAA1CAA1BAA05
:1021A0001AAA19AACE010D960E94F005133509F05E
:1021B00037C1B3E0EB16F10449F144F4A1E0EA16AB
:1021C000F104F1F004F5EF28C1F039C186E0E8161A
:1021D000F10409F4FCC034F4B4E0EB16F10409F0A6
:1021E0002EC18EC087E0E816F10409F40FC1A8E003
:1021F000EA16F10409F023C10CC16CE771E00BC1D0
:1022000068E871E008C166E971E005C1BE01615E80
:102210007F4FC6010E94140C7C0140E0BC01CE013E
:10222000C9960E946A0ABE01665C7F4FC7010E9480
:102230005D0FD701ED91FC9136970190F081E02D73
:10224000EE0DFF1D8581857009F00AC18F8D98A163
:102250000E94C81DBC01882777FD8095982F0E9499
:102260004A1F23EC35EF48E450E40E94372020E079
:1022700030E044E353E40E94AF1E6B017C0100E0B8
:1022800010E09801B901A801CE0101960E94FE0557
:102290008CE0FE013196DE011D9601900D928A952B
:1022A000E1F762EA71E08DEB92E00E94211C8F8DD4
:1022B00098A10E94C81D4AE050E0BC018DEB92E05D
:1022C0000E94031D4AE050E062E070E08DEB92E076
:1022D0000E94031DF501E95BFF4F808191810E94FF
:1022E0007E02AD84BE84CF84D888E988FA880B89C1
:1022F0001C892D893E894F89588D62E070E064C049
:10230000BE01675E7F4FC6010E94140CBE016D5C6A
:102310007F4F0E94491069EA71E08DEB92E00E94C4
:10232000401C62E471E08DEB92E00E94211C898DDB
:102330009A8D0E94C81D4AE050E0BC018DEB92E0EE
:102340000E94FB1C62E471E08DEB92E00E94211C74
:102350006BA97CA94AE050E08DEB92E00E94031D3E
:10236000898D9A8D0E94C81DBC01882777FD8095B4
:10237000982F0E944A1FAB01BC01C12CD12C7601C1
:1023800097018601CE0101960E94FE058CE0FE01B8
:102390003196DE011D9601900D928A95E1F7F501C7
:1023A000E95BFF4F808191810E947E02AD84BE84F3
:1023B000CF84D888E988FA880B891C892D893E89C1
:1023C0004F89588D61E070E00E94FC0238C0BE0168
:1023D000675E7F4FC6010E94140CBE01695C7F4F8F
:1023E0000E944910BE016B5C7F4F0E944910BE01E4
:1023F000615E7F4F0E94140CBE016F5C7F4F0E9494
:102400004910BE016D5C7F4F0E94491062EB71E084
:1024100002C06EEB71E08DEB92E00E94401C0FC099
:10242000CE0149960E94A709CE014F960E94A709A6
:10243000CE0185960E94A709CE018B960EC0CE01D3
:1024400049960E94A709CE014F960E94A709CE0186
:1024500085960E94A709CE018B960E94A70907C006
:1024600068EC71E08DEB92E00E94211CEFCEEB96C0
:102470000FB6F894DEBF0FBECDBFDF91CF911F9195
:102480000F91FF90EF90DF90CF90BF90AF900895A5
:10249000DF92EF92FF920F931F93CF93DF9300D0C1
:1024A00000D000D0CDB7DEB78C017C018AE0E80E09
:1024B000F11C65C06DEC71E08DEB92E00E94401C58
:1024C000F80180859185181619061CF081E0808B33
:1024D00002C0F801108A6AED71E08DEB92E00E9473
:1024E000211CF801628573858DEB92E00E94211C0E
:1024F00068EE71E08DEB92E00E94211CF80160858E
:1025000071854AE050E08DEB92E00E94031D4CC0C3
:10251000F8016485758542855385641B750B6E5F74
:102520007F4F1A8219821C821B821E821D82CE015D
:1025300001960E94CB0A8B819C810E946209F8015E
:10254000448555856285738520E0CE0101960E9401
:10255000630E6D2DCE0101960E94B30BBE016F5F1D
:102560007F4FC7010E94230FCE0101960E949C0954
:10257000F801208531852F5F3F4F318720878DEB14
:1025800092E00E94F5191816190674F4F801808576
:1025900091854C974CF48DEB92E00E94241AD82E32
:1025A000FAE08F13B5CF86CF26960FB6F894DEBF2C
:1025B0000FBECDBFDF91CF911F910F91FF90EF9094
:1025C000DF9008950F931F93CF93DF9300D000D037
:1025D00000D0CDB7DEB78C010E948E148823E9F1BC
:1025E000C8010E947614C8010E944812F80180892F
:1025F000811133C069EF71E08DEB92E00E94401CC5
:10260000C8010E94671081E0F801808B1A8219824C
:102610001C821B821E821D8261E070E0CE01019649
:102620000E94CB0A89819A819C838B830E946209D4
:10263000BE016F5F7F4FC80141960E94340FCE01EB
:1026400001960E94A709F8011186108643E451E023
:10265000BA01C8010A960E94E20E26960FB6F894B7
:10266000DEBF0FBECDBFDF91CF911F910F910895B7
:102670006F927F928F929F92AF92BF92CF92DF9292
:10268000EF92FF920F931F93CF93DF93EC017B01A7
:102690006A014217530709F4A8C08901041B150BEE
:1026A0006A817B818C819D81861B970B0817190796
:1026B0000CF05EC05B01AE18BF0866246394712CF9
:1026C000660E771EA016B106ECF0601B710B6F5FF3
:1026D0007F4FA301461B570BC3010E94071E8A812F
:1026E0009B81800F911F9B838A83A501401B510B07
:1026F0004F5F5F4FB701C701800F911F0E94071EF8
:10270000A80124C045018FEF881A980A840E951EEF
:10271000A90148195909B401C3010E94071E0A19E9
:102720001B098A819B81800F911F9B838A83A30150
:102730004E195F09B7010E94071E8A819B818A0D8D
:102740009B1D9B838A838C189D08A401B601C70139
:10275000DF91CF911F910F91FF90EF90DF90CF907D
:10276000BF90AF909F908F907F906F900C94FE1DC4
:1027700088819981681B790B6F5F7F4FC801043195
:10278000110510F484E190E04B01880E991EC401FC
:102790000E94AE0A5C01688179813701661A770A66
:1027A000A3010E94071E6A0C7B1CA801B601C3018D
:1027B0000E94071E060D171DCA80DB80CE18DF0899
:1027C000A601B701C8010E94071E0C0D1D1DC801FE
:1027D0000E946209CE010E949C09B982A8821B83D3
:1027E0000A83A80CB91CBD82AC82DF91CF911F91E6
:1027F0000F91FF90EF90DF90CF90BF90AF909F90A0
:102800008F907F906F9008954F925F926F927F921A
:102810008F929F92AF92BF92CF92DF92EF92FF92F0
:102820000F931F93CF93DF93EC01CB013901542E0B
:10283000452E7901488D598D088919894B01820EE1
:10284000931E2A893B89201B310B241B350B630106
:102850002615370508F46901C40ED51EC00ED11E19
:10286000040F151F5401A81AB90A9601201B310B39
:102870002A153B0574F0A501BC01C8010E94FE1D8C
:10288000B8016A0D7B1DA601CE0142960E943A094D
:1028900013C05C01A20EB31E9501281B390BA901C0
:1028A000BC01C8010E94FE1D00E09401A501B60113
:1028B000CE0140960E943813888D998D8E0D9F1DF4
:1028C000998F888FB301852D942DDF91CF911F9122
:1028D0000F91FF90EF90DF90CF90BF90AF909F90BF
:1028E0008F907F906F905F904F900895CF93DF937C
:1028F000EC010E945C176C837D838E839F83DF9144
:10290000CF910895AB01662757FD6095762FFC01A6
:1029100040835183628373830C9476140F931F93C7
:10292000CF93DF93EC010E945C170C811D812E81F7
:102930003F81601B710B820B930B41E00881198171
:102940002A813B8106171707280739070CF040E05A
:10295000842FDF91CF911F910F9108958F929F92B5
:10296000AF92BF92CF92DF92EF92FF920F931F939D
:10297000CF93DF93CDB7DEB7FC01108211821282B4
:10298000138214821582168217821086118612868F
:1029900013864487558766877787C08AD18AE28AFB
:1029A000F38A048B158B268B378B808E918EA28EAB
:1029B000B38E4F85588969897A89448F558F668F80
:1029C000778F81E09FEF91A380A38FEF90E093A397
:1029D00082A381E084A3DF91CF911F910F91FF909B
:1029E000EF90DF90CF90BF90AF909F908F90089521
:1029F000FC01408751876287738708952F923F9229
:102A00004F925F926F927F928F929F92AF92BF92FE
:102A1000CF92DF92EF92FF920F931F93CF93DF93AA
:102A2000EC018CA1882309F49EC09A01AB01688552
:102A300079858A859B850E94431E3B014C0128892C
:102A400039894A895B89772D992D0E9437201B018E
:102A50002C012C813D814E815F81732D952D0E942B
:102A6000441E5B016C01862F9B2DAC2DBD2D8C83EC
:102A70009D83AE83BF83288139814A815B81662D26
:102A8000772D882D992D0E94431E7B018C01862D68
:102A9000972DA82DB92D88839983AA83BB832C8574
:102AA0003D854E855F85662D772D882D992D0E9459
:102AB00037202A2D3B2D4C2D5D2D0E94441E3B01BD
:102AC0004C012C893D894E895F896E2D7F2D802F89
:102AD000912F0E9437209B01AC01C401B3010E94D9
:102AE000441E7B018C016AA17BA1882777FD80951C
:102AF000982F0E944A1F3B014C01762F272F372D1C
:102B0000482D592D6E2D7F2D802F912F0E9433201F
:102B100018160CF417C068A179A1882777FD809555
:102B2000982F0E944A1F3B014C01762F272F372DEB
:102B3000482D592D6E2D7F2D802F912F0E94A81E7C
:102B400087FF15C0222D332D442D552D6A2D7B2D49
:102B50008C2D9D2D0E94431E6C837D838E839F83CD
:102B60007301840104C0E12CF12C00E010E06E2D13
:102B70007F2D802F912FDF91CF911F910F91FF908B
:102B8000EF90DF90CF90BF90AF909F908F907F900D
:102B90006F905F904F903F902F90089522E030E02B
:102BA000FC0130A727A3089541E0FC0127A130A52F
:102BB0002617370709F440E0842F0895CB010895C4
:102BC000CF93DF9343E050E060E877E081E00E943C
:102BD000371643E050E06FE977E080E00E94371657
:102BE00040E855E260E070E08DEB92E00E94081B47
:102BF00061E086E00E94231861E085E00E942318CE
:102C000061E08AE00E94231861E089E00E942318B5
:102C10008CEA90E00E94E51BEC010E94A100D09399
:102C2000AF02C093AE0289E490E00E94E51BEC0184
:102C30006091AE027091AF020E94F80AD093AD028B
:102C4000C093AC02DF91CF91089561E070E080E025
:102C500090E00E9498178091AC029091AD020E9482
:102C6000E2128091AE029091AF020C943802823051
:102C7000E8F4E82FF0E0EE0FFF1FE055FD4F718301
:102C80006083813041F0809169008C7F842B809338
:102C90006900E89A089580916900440F551F440F18
:102CA000551F837F842B80936900E99A08951F92B2
:102CB0000F920FB60F9211242F933F934F935F9370
:102CC0006F937F938F939F93AF93BF93EF93FF93F4
:102CD0008091B0029091B102892B29F0E091B0026D
:102CE000F091B1020995FF91EF91BF91AF919F9142
:102CF0008F917F916F915F914F913F912F910F90A5
:102D00000FBE0F901F9018951F920F920FB60F9243
:102D100011242F933F934F935F936F937F938F93E0
:102D20009F93AF93BF93EF93FF938091B2029091E3
:102D3000B302892B29F0E091B202F091B302099518
:102D4000FF91EF91BF91AF919F918F917F916F9183
:102D50005F914F913F912F910F900FBE0F901F9059
:102D600018951F93CF93DF93182FEB0161E00E941A
:102D70002318209711F460E004C0CF3FD10539F447
:102D800061E0812FDF91CF911F910C945B18E12FAF
:102D9000F0E0EA57FF4FE491E330B9F028F4E13076
:102DA00051F0E230B1F50CC0E63019F1E73049F1ED
:102DB000E43079F514C084B5806884BDC7BD2EC0E9
:102DC00084B5806284BDC8BD29C0809180008068C0
:102DD00080938000D0938900C09388001FC08091A9
:102DE0008000806280938000D0938B00C0938A0023
:102DF00015C08091B00080688093B000C093B3008C
:102E00000DC08091B00080628093B000C093B40088
:102E100005C0C038D1050CF0B3CFADCFDF91CF9155
:102E20001F9108951F920F920FB60F9211242F93A6
:102E30003F938F939F93AF93BF938091B4029091F0
:102E4000B502A091B602B091B7023091BC02232F17
:102E50002D5F2D3720F40196A11DB11D05C0232F34
:102E60002A570296A11DB11D2093BC028093B40283
:102E70009093B502A093B602B093B7028091B802C6
:102E80009091B902A091BA02B091BB020196A11D26
:102E9000B11D8093B8029093B902A093BA02B09387
:102EA000BB02BF91AF919F918F913F912F910F9056
:102EB0000FBE0F901F9018950F931F938FB7F89424
:102EC0000091B4021091B5022091B6023091B70280
:102ED0008FBFB801C9011F910F9108950F931F93E0
:102EE0009FB7F8940091B8021091B9022091BA02EC
:102EF0003091BB0286B5A89B06C08F3F21F00F5FC3
:102F00001F4F2F4F3F4F9FBF322F212F102F0027D2
:102F1000080F111D211D311D42E0000F111F221F3E
:102F2000331F4A95D1F7B801C9011F910F91089538
:102F3000CF92DF92EF92FF92CF93DF936B017C01F0
:102F40000E946E17EB010EC00E946E176C1B7D0B6A
:102F5000683E734038F081E0C81AD108E108F108F2
:102F6000C851DC4FC114D104E104F10469F7DF91C9
:102F7000CF91FF90EF90DF90CF900895789484B533
:102F8000826084BD84B5816084BD85B5826085BD65
:102F900085B5816085BDEEE6F0E08081816080834B
:102FA000E1E8F0E01082808182608083808181602E
:102FB0008083E0E8F0E0808181608083E1EBF0E0F5
:102FC000808184608083E0EBF0E080818160808399
:102FD000EAE7F0E080818460808380818260808382
:102FE0008081816080838081806880831092C100AD
:102FF0000895833069F028F48130A1F0823011F512
:1030000014C08630B1F08730C1F08430D9F404C0E8
:10301000809180008F7703C0809180008F7D8093A6
:103020008000089584B58F7702C084B58F7D84BDFC
:1030300008958091B0008F7703C08091B0008F7D9C
:103040008093B0000895CF93DF9390E0FC01E656A3
:10305000FF4F4491FC01E255FF4F8491882341F1D9
:1030600090E0880F991FFC01EA52FF4F259134919F
:10307000D90184539F4FFC0185919491C82FD92F7A
:103080009FB7F8948C91611106C0409584238C936E
:103090008881842308C0623041F4242F2095822344
:1030A0008C938881842B888302C0842B8C939FBF50
:1030B000DF91CF9108950F931F93CF93DF931F92CA
:1030C000CDB7DEB7282F30E0F901EA57FF4F8491E2
:1030D000F901E656FF4F1491F901E255FF4F0491B3
:1030E0000023D1F0882321F069830E94F9176981B8
:1030F000E02FF0E0EE0FFF1FE453FF4F8591949116
:10310000DC019FB7F8948C91611103C01095812365
:1031100001C0812B8C939FBF0F90DF91CF911F91A6
:103120000F910895CF93DF93282F30E0F901EA57EC
:10313000FF4F8491F901E656FF4FD491F901E25512
:10314000FF4FC491CC2389F081110E94F917EC2F15
:10315000F0E0EE0FFF1FEE53FF4F85919491DC01DD
:103160008C918D2321E030E011F420E030E0C901A2
:10317000DF91CF9108950F931F93CF93DF93823008
:10318000910510F482E090E0E0916603F09167030E
:1031900020E030E0C0E0D0E023C0408151814817FA
:1031A0005907A8F04817590761F482819381209745
:1031B00019F09B838A832EC09093670380936603E4
:1031C00029C02115310529F04217530710F0A90134
:1031D00002C0BE01DF0102811381EF019A01F801F3
:1031E0003097D9F62115310509F1281B390B243008
:1031F000310590F412968D919C911397611571058C
:1032000021F0FB019383828304C090936703809332
:103210006603FD01329644C0FD01E20FF31F819366
:103220009193225031092D933C933AC0209164032D
:1032300030916503232B41F4209102013091030169
:1032400030936503209364032091000130910101C4
:103250002115310541F42DB73EB74091040150913D
:103260000501241B350BE0916403F0916503E2171F
:10327000F307A0F42E1B3F0B2817390778F0AC0199
:103280004E5F5F4F2417350748F04E0F5F1F509376
:103290006503409364038193919302C0E0E0F0E002
:1032A000CF01DF91CF911F910F910895EF92FF927F
:1032B0000F931F93CF93DF93009709F48FC0DC0126
:1032C000129713961C921E921297E0906603F0904C
:1032D0006703E114F10489F42D913C911197280FB3
:1032E000391F80916403909165038217930789F5D4
:1032F000B0936503A093640371C0E70120E030E060
:1033000001C0EA01CA17DB0738F44A815B819E01DC
:1033100041155105B1F722C0BC0162507109FB0192
:10332000D383C28300811181AC01400F511F4C1720
:103330005D0761F448815981400F511F4E5F5F4F17
:10334000518340834A815B81538342832115310538
:1033500029F4B0936703A093660340C0F901B383D7
:10336000A283E90169917991C60FD71FAC17BD07F8
:1033700079F4DC015E914E91460F571F4E5F5F4F0F
:103380005183408312968D919C91139793838283EE
:10339000A0E0B0E002C0D7017C01F70182819381F7
:1033A0000097C9F7C701029620813181820F931FD0
:1033B00020916403309165032817390779F4109739
:1033C00029F4109267031092660304C013961C92AE
:1033D0001E921297F0926503E0926403DF91CF9101
:1033E0001F910F91FF90EF900895FC0184859585C2
:1033F000FC01E05CFF4F20813181FC01EE5BFF4F5F
:1034000080819181281B390B2F733327C9010895BF
:10341000FC0184859585FC01E05CFF4F4081518172
:10342000FC01EE5BFF4F208131814217530741F0D1
:103430000190F081E02DE80FF91F208130E002C0FB
:103440002FEF3FEFC9010895FC0184859585FC01AC
:10345000E05CFF4F40815181FC01EE5BFF4F20811A
:1034600031814217530781F0A081B181A80FB91FA4
:103470008C91208131812F5F3F4F2F733327318310
:103480002083282F30E002C02FEF3FEFC9010895BD
:10349000FC0186859785FC01E05CFF4FDC01AE5B9B
:1034A000BF4F408151812D913C9111974217530795
:1034B000C1F70895CF93DF93FC0186859785DC01E2
:1034C000A05CBF4F2D913C9111972F5F3F4F2F7301
:1034D0003327EC01CE5BDF4F488159812417350734
:1034E000D9F30D90BC91A02DA80FB91F6C93A685A0
:1034F000B785A05CBF4F11963C932E93A689B789E0
:103500002C9181E090E0058C02C0880F991F0A94ED
:10351000E2F7282B2C9381E090E0DF91CF91089582
:1035200008951F920F920FB60F9211242F933F937D
:103530004F938F939F93EF93FF934091C600809199
:1035400060039091610301968F7399272091620324
:10355000309163038217930759F0E0916003F09173
:103560006103E05EFC4F40839093610380936003AE
:10357000FF91EF919F918F914F913F912F910F90DC
:103580000FBE0F901F9018958DEB92E00E94F519D9
:10359000892B11F00C94901A08951F920F920FB678
:1035A0000F9211242F933F938F939F93EF93FF9349
:1035B00020911C0330911D0380911E0390911F03E5
:1035C0002817390731F48091C1008F7D8093C100A5
:1035D00014C0E0911E03F0911F03E452FD4F2081BF
:1035E00080911E0390911F0301968F7399279093EA
:1035F0001F0380931E032093C600FF91EF919F91BC
:103600008F913F912F910F900FBE0F901F901895A3
:10361000CF92DF92EF92FF92CF93DF93EC016A019A
:103620007B01411581EE580761057105F9F0EC89C0
:10363000FD8981E090E00E8C02C0880F991F0A94EA
:10364000E2F7808360E079E08DE390E0A7019601E6
:103650000E9471242150310941095109569547951D
:1036600037952795211580E1380798F0EC89FD8979
:10367000108260E874E88EE190E0A70196010E9454
:1036800071242150310941095109569547953795C3
:103690002795E889F9893083EA89FB892083EE89B7
:1036A000FF89408181E090E09C010A8C02C0220FDA
:1036B000331F0A94E2F7422B4083EE89FF89408151
:1036C0009C010B8C02C0220F331F0A94E2F7422B9D
:1036D0004083EE89FF8940819C010C8C02C0220F3F
:1036E000331F0A94E2F7422B4083EE89FF89208141
:1036F0000D8C02C0880F991F0A94E2F780958223EF
:103700008083DF91CF91FF90EF90DF90CF9008956D
:103710001092C0021092BF0288EE93E0A0E0B0E0E9
:103720008093C1029093C202A093C302B093C402DB
:1037300084E992E09093BE028093BD0280E293E020
:103740009093CA028093C9028CED92E09093CC02D0
:103750008093CB0285EC90E09093CE028093CD02D3
:1037600084EC90E09093D0028093CF0280EC90E0C4
:103770009093D2028093D10281EC90E09093D40296
:103780008093D30286EC90E09093D6028093D5028A
:1037900084E08093D70283E08093D80287E080930F
:1037A000D90285E08093DA0281E08093DB020895FC
:1037B0000E94BE170E94E015C4ECDAE10E942516B3
:1037C0002097E1F30E94C41AF9CF0C94BB180C9413
:1037D0005619CF92DF92EF92FF920F931F93CF93E0
:1037E000DF936C01EB017A01E60EF71E00E010E0BA
:1037F0000BC06991D601ED91FC910190F081E02D13
:10380000C6010995080F191FCE15DF0591F7C801EC
:10381000DF91CF911F910F91FF90EF90DF90CF90AC
:103820000895DB010D900020E9F7AD0141505109E9
:10383000461B570BDC01ED91FC910280F381E02DDA
:1038400009940C94111CDC01ED91FC910190F08124
:10385000E02D09940F931F93CF93DF93EC016DE05C
:103860000E94231C8C016AE0CE010E94231C9C0153
:10387000200F311FC901DF91CF911F910F91089542
:103880000F931F93CF93DF93EC010E94111C8C01C7
:10389000CE010E942A1C9801280F391FC901DF910F
:1038A000CF911F910F9108954F925F926F927F92E7
:1038B0009F92AF92BF92CF92DF92EF92FF920F93BF
:1038C0001F93CF93DF93CDB7DEB7A1970FB6F894D0
:1038D000DEBF0FBECDBF5C016A017B01922E19A233
:1038E00081E0821710F08AE0982E8E010F5D1F4F45
:1038F000492C512C612C712CC701B601A3019201F6
:103900000E9471248C2D929E80191124015011095E
:103910008A3014F4805D01C0895CF80180836901FC
:103920007A01C114D104E104F10431F7B801C501F1
:103930000E94111CA1960FB6F894DEBF0FBECDBF3A
:10394000DF91CF911F910F91FF90EF90DF90CF907B
:10395000BF90AF909F907F906F905F904F90089531
:10396000CF92DF92EF92FF920F931F93CF93DF934B
:10397000EC016A017B012115310579F4E881F981B7
:103980000190F081E02D642FDF91CF911F910F9175
:10399000FF90EF90DF90CF9009942A30310519F411
:1039A00077FD0EC02AE0B701A601CE01DF91CF91CD
:1039B0001F910F91FF90EF90DF90CF900C94541CCB
:1039C0006DE20E94231C8C0144275527BA014C1933
:1039D0005D096E097F092AE0CE010E94541C080F80
:1039E000191FC801DF91CF911F910F91FF90EF90A8
:1039F000DF90CF9008959A01AB01662757FD60953F
:103A0000762F0C94B01C0F931F93CF93DF93EC0190
:103A10009A01AB01662757FD6095762F0E94B01C76
:103A20008C01CE010E942A1C9801280F391FC90160
:103A3000DF91CF911F910F9108957F928F929F9266
:103A4000AF92BF92CF92DF92EF92FF920F931F93AC
:103A5000CF93DF938C014A015B01F22E20E030E02E
:103A6000A901C501B4010E94A81E87FF0AC06DE22A
:103A7000C8010E94231CEC01B7FAB094B7F8B094C7
:103A800002C0C0E0D0E0E12C60E070E080E09FE3A5
:103A900007C020E030E040E251E40E94AF1EE39412
:103AA000EF10F7CF262F372F482F592FC501B4011C
:103AB0000E94441E762E872E982EA92E0E941C1F2F
:103AC000B62EC72ED82EE92E0E94481F9B01AC01AE
:103AD000672D782D892D9A2D0E94431EA62E972E94
:103AE000882E792E2AE04B2D5C2D6D2D7E2DC80160
:103AF0000E94541CC80FD91FFF20B9F160EA72E080
:103B0000C8010E94111CC80FD91F2FC020E030E04F
:103B100040E251E46A2D792D882D972D0E9437209F
:103B2000762EC72ED82EE92E0E94171F4B01AA24ED
:103B300097FCA094BA2C2AE030E0B501A401C8019A
:103B40000E94B01CC80FD91FC501B4010E944A1FB2
:103B50009B01AC01672D7C2D8D2D9E2D0E94431E57
:103B6000A62E972E882E792EFA94F110CFCFCE0163
:103B7000DF91CF911F910F91FF90EF90DF90CF9049
:103B8000BF90AF909F908F907F9008950C941D1DD3
:103B9000FC0188279927E89421912032E9F3293004
:103BA00010F02E30C8F32B3241F02D3239F46894E6
:103BB00004C00E94201E820F911D219120532A30A3
:103BC000C0F31EF4909581959F4F0895F8940C943E
:103BD000D0249111D2C5803219F089508550D0F788
:103BE0000895FB01DC0104C08D910190801921F43E
:103BF00041505040C8F7881B990B0895FB01DC0128
:103C000002C001900D9241505040D8F708956817B6
:103C1000790768F4FB01DC01E40FF51FA40FB51F61
:103C200002C002900E9241505040D8F708950C9473
:103C3000FE1DDC0101C06D9341505040E0F7089536
:103C40007AE0979F902D879F802D910D11240895E4
:103C5000A0E1B0E0EEE2FEE10C94A32485E08C83C9
:103C60008D899E899A838983AE01475E5F4F588B09
:103C70004F876F89788DCE0101960E948F226096C2
:103C8000E2E00C94BF245058BB27AA270ED0A0C155
:103C900069D130F06ED120F031F49F3F11F41EF461
:103CA0005EC10EF4E095E7FB54C1E92FB3D180F378
:103CB000BA17620773078407950718F071F49EF529
:103CC000CBC10EF4E0950B2EBA2FA02D0B01B9013C
:103CD00090010C01CA01A0011124FF27591B99F082
:103CE000593F50F4503E68F11A16F040A22F232F8E
:103CF000342F4427585FF3CF469537952795A795DE
:103D0000F0405395C9F77EF41F16BA0B620B730B84
:103D1000840BBAF09150A1F0FF0FBB1F661F771FF5
:103D2000881FC2F70EC0BA0F621F731F841F48F4AA
:103D3000879577956795B795F7959E3F08F0B3CF30
:103D40009395880F08F09927EE0F9795879508951A
:103D5000DCD008F481E0089514D1E3954AC10CD079
:103D600037C107D140F0FED030F021F45F3F19F0A9
:103D7000F0C0511172C1F3C04DD198F39923C9F32A
:103D80005523B1F3951B550BBB27AA276217730761
:103D9000840738F09F5F5F4F220F331F441FAA1F15
:103DA000A9F333D00E2E3AF0E0E830D091505040D5
:103DB000E695001CCAF729D0FE2F27D0660F771F83
:103DC000881FBB1F261737074807AB07B0E809F065
:103DD000BB0B802DBF01FF2793585F4F2AF09E3FFA
:103DE000510568F0B6C039C15F3FECF3983EDCF393
:103DF000869577956795B795F7959F5FC9F7880F73
:103E0000911D9695879597F90895E1E0660F771FC4
:103E1000881FBB1F621773078407BA0720F0621B55
:103E2000730B840BBA0BEE1F88F7E095089504D04E
:103E30006894B11112C10895F5D088F09F5790F0A1
:103E4000B92F9927B751A0F0D1F0660F771F881FBF
:103E5000991F1AF0BA95C9F712C0B13081F0FCD0A1
:103E6000B1E00895F9C0672F782F8827B85F39F03F
:103E7000B93FCCF3869577956795B395D9F73EF41E
:103E800090958095709561957F4F8F4F9F4F0895C6
:103E9000E89409C097FB3EF49095809570956195E4
:103EA0007F4F8F4F9F4F9923A9F0F92F96E9BB279A
:103EB0009395F695879577956795B795F111F8CF16
:103EC000FAF4BB0F11F460FF1BC06F5F7F4F8F4F81
:103ED0009F4F16C0882311F096E911C0772321F077
:103EE0009EE8872F762F05C0662371F096E8862F0F
:103EF00070E060E02AF09A95660F771F881FDAF766
:103F0000880F9695879597F90895990F0008550F92
:103F1000AA0BE0E8FEEF16161706E807F907C0F04F
:103F200012161306E407F50798F0621B730B840B57
:103F3000950B39F40A2661F0232B242B252B21F431
:103F400008950A2609F4A140A6958FEF811D811DD1
:103F5000089597F99F6780E870E060E008959FEF0B
:103F600080EC089500240A94161617061806090610
:103F7000089500240A9412161306140605060895DF
:103F8000EECF50D0E8F3E894E0E0BB279F57F0F085
:103F90002AED3FE049EC06C0EE0FBB0F661F771F0E
:103FA000881F28F0B23A62077307840728F0B25AD4
:103FB000620B730B840BE3959A9572F7803830F49B
:103FC0009A95BB0F661F771F881FD2F7904840C491
:103FD000092E0394000C11F4882352F0BB0F40F417
:103FE000BF2B11F460FF04C06F5F7F4F8F4F9F4F57
:103FF0000895EF93E0FF06C0A2EA2AED3FE049EC06
:104000005FEB53DEE5DF0F90039401FC9058E8E688
:10401000F0E031C457FD9058440F551F59F05F3FF1
:1040200071F04795880F97FB991F61F09F3F79F0DA
:1040300087950895121613061406551FF2CF46955C
:10404000F1DF08C0161617061806991FF1CF8695DE
:104050007105610508940895E894BB2766277727C2
:10406000CB0197F9089551DF08F48FEF08950BD035
:10407000AFCF78DF28F07DDF18F0952309F069CF06
:104080006ECF1124EACFC6DFA0F3959FD1F3950F31
:1040900050E0551F629FF001729FBB27F00DB11DCC
:1040A000639FAA27F00DB11DAA1F649F6627B00D5C
:1040B000A11D661F829F2227B00DA11D621F739F45
:1040C000B00DA11D621F839FA00D611D221F749F53
:1040D0003327A00D611D231F849F600D211D822F9A
:1040E000762F6A2F11249F5750408AF0E1F08823E1
:1040F0004AF0EE0FFF1FBB1F661F771F881F9150EE
:104100005040A9F79E3F510570F023CFA6CF5F3FE7
:10411000ECF3983EDCF3869577956795B795F79520
:10412000E7959F5FC1F7FE2B880F911D96958795A8
:1041300097F908959F9325DF0F9007FCEE5F59CF05
:1041400011F40EF40CCF82C36DDFD0F39923D9F3B1
:10415000CEF39F57550B87FF87D30024A0E640EA94
:10416000900180585695979528F4805C660F771FCC
:10417000881F20F026173707480730F4621B730B9F
:10418000840B202931294A2BA695179407942025C2
:1041900031254A2758F7660F771F881F20F026170A
:1041A0003707480730F4620B730B840B200D311D69
:1041B000411DA09581F7B901842F9158880F9695DC
:1041C0008795089520FD09C0FC0123FD05C022FF4D
:1041D00002C073836283518340830895CF92DF923C
:1041E000EF92FF920F931F9344FD10C046FD10C045
:1041F000DB01FC01AA0FBB1FEE1FFF1F1094D1F7BC
:104200006A0F7B1F8E1F9F1F31E003C033E001C088
:1042100034E0660F771F881F991F3150D1F76B016B
:104220007C01C20ED11CE11CF11C97018601B60174
:10423000C9011F910F91FF90EF90DF90CF900895EB
:104240000F931F93CF93DF938C01C8010E94CB2360
:10425000EC0197FD08C00E94E91D892BB1F7B80158
:10426000CE010E940B24CE01DF91CF911F910F91BF
:1042700008958F929F92AF92CF92DF92EF92FF922A
:104280000F931F93CF93DF93EC01A62E4A01022FC9
:104290000E94CB23FC01FF27EB32F10519F0BD97FB
:1042A00051F40068AA9411F480E063C0CE010E942A
:1042B000CB2397FDF9CF102F1D7F302F3073E1F402
:1042C0008033D1F4AA9409F440C0CE010E94CB23DC
:1042D00097FD3BC0883711F0883549F41264AA94E1
:1042E000A1F1CE010E94CB2397FF06C02EC006FF8E
:1042F00002C0126001C01261C12CD12C7601282F9E
:104300002053283080F014FF04C0BE010E940B240B
:1043100019C02A3040F016FFF8CF2F7D322F3151CF
:10432000363098F72750412FC701B6010E94EE2082
:104330006B017C011260AA9459F0CE010E94CB233C
:1043400097FFDDCF11FD04C0AFCFC12CD12C76017A
:1043500017FF08C0F094E094D094C094C11CD11C05
:10436000E11CF11C212FB701A601C4010E94E2202B
:1043700081E0DF91CF911F910F91FF90EF90DF903F
:10438000CF90AF909F908F9008956F927F929F9261
:10439000AF92BF92CF92DF92EF92FF920F931F9353
:1043A000CF93DF93CDB7DEB7A1970FB6F894DEBFFA
:1043B0000FBECDBF6C017A018901FE01319680E20A
:1043C000DF011D928A95E9F7D60113969C9020E0B3
:1043D00030E0A12CA0E0B12CCF0141E050E0F80189
:1043E00093FC759193FE71918F01711103C000E0F0
:1043F00010E080C07E3519F42115310559F1EB2DFF
:10440000F0E0E217F3073CF47D3569F17D3219F4F1
:10441000AA2319F103C0A11101C0A72EE72FE69529
:10442000E695E6953C016E0E711CF301A72FA7706F
:104430003A0102C0660C771CAA95E2F7D301B0815D
:10444000BA2BB0837A1559F07A1510F47F5FE6CF56
:104450007150E4CFBB24B39403C0A1E001C0A0E03D
:104460002F5F3F4FBCCFAA2319F08E8180628E83CD
:10447000B11003C0BB24B3940BC0FE013196CE0132
:104480008196208120952193E817F907D1F7F2CF83
:10449000C60169A30E94CB2369A197FD24C0282FE0
:1044A000269526952695E1E0F0E0EC0FFD1FE20F42
:1044B000F11D208130E0AC014770552702C03595D1
:1044C00027954A95E2F720FD04C0B6010E940B240F
:1044D0000AC0E114F10419F0D7018D937D016150F8
:1044E000B12CB1F602C0B11082CFE114F10411F089
:1044F000F7011082C801A1960FB6F894DEBF0FBE77
:10450000CDBFDF91CF911F910F91FF90EF90DF9082
:10451000CF90BF90AF909F907F906F9008954F92F3
:104520005F927F928F929F92AF92BF92CF92DF92D3
:10453000EF92FF920F931F93CF93DF931F92CDB70C
:10454000DEB78C012B015A01FC0117821682812CE7
:10455000F0C08E2D90E00E94E91D892B21F0C8014A
:104560000E942021E6C0F5E2EF120AC0F201F3FC3E
:104570003591F3FE31912F01353271F455E2E52E7C
:10458000C8010E94CB2397FDDFC0E81609F4D1C013
:10459000B8010E940B24DAC03A3241F4F3FC3591A1
:1045A000F3FE31912F019924939401C0912C712C29
:1045B00010C0F2E09F2A672D70E080E090E040E2BA
:1045C0000E94EE20762EF201F3FC3591F3FE31913C
:1045D0002F01232F20532A3060F391FE03C0711066
:1045E00003C0B4C077247A94383619F03C3699F475
:1045F0000AC0F201F3FC3591F3FE31912F013836F8
:1046000051F4F8E09F2A84E0982AF201F3FC3591F6
:10461000F3FE31912F01332309F498C0632F70E02A
:1046200080EE90E039830E94C0233981892B09F400
:104630008DC090FC07C0F501E080F18082E0A80EFB
:10464000B11C02C0E12CF12C3E3651F4F801468138
:10465000578160E070E0292DC7010E94E22069C007
:10466000333691F491FC02C077247394C8010E9400
:10467000CB2397FD69C0E114F10419F0F701819390
:104680007F017A9499F753C03B3559F49201A70101
:10469000672DC8010E94C5212C01009709F047C071
:1046A00041C0C80139830E942021398197FD4CC047
:1046B0003F3659F128F4343629F1393649F52AC004
:1046C000333719F0353721F51DC0C8010E94CB23BF
:1046D0006C0197FD11C00E94E91D892B29F0B801DA
:1046E000C6010E940B2408C0E114F10419F0F7017F
:1046F000C1927F017A9449F7E114F104C1F0F70106
:10470000108215C0F0E29F2A05C080E1982A02C0FD
:1047100090E4992A292DA701672DC8010E9439210B
:10472000811105C0F8018381807371F40FC090FE80
:104730008394F801F380F201F3FCE590F3FEE1903D
:104740002F01E11006CF02C0882019F0282D30E09B
:1047500002C02FEF3FEFC9010F90DF91CF911F9162
:104760000F91FF90EF90DF90CF90BF90AF909F9010
:104770008F907F905F904F90089599278827089594
:10478000FC010590061621F00020D9F7C00108951C
:104790003197CF010895CF93DF93EC013B8130FF38
:1047A00034C036FF0AC03F7B3B838E819F810196D8
:1047B0009F838E832A8130E02AC032FF0FC0E881B8
:1047C000F9818081992787FD9095009719F43062CF
:1047D0003B831BC03196F983E8830EC0EA85FB85D5
:1047E000099597FF09C02B81019611F480E101C062
:1047F00080E2822B8B8309C02E813F812F5F3F4F48
:104800003F832E839C01332702C02FEF3FEFC90166
:10481000DF91CF910895FB01238120FF13C026FD76
:1048200011C08F3F3FEF930769F082832F7D206493
:1048300023832681378121503109378326839C01C8
:10484000332702C02FEF3FEFC90108959F3F31F09A
:10485000915020F4879577956795B795880F911DAE
:104860009695879597F9089591505040660F771F58
:10487000881FD2F708959F938F937F936F93FF9331
:10488000EF939B01AC01F3DBEF91FF9105D02F91EA
:104890003F914F915F91EBCBDF93CF931F930F939A
:1048A000FF92EF92DF927B018C01689405C0DA2EB3
:1048B000EF01E9DBFE01E894A59125913591459141
:1048C0005591AEF3EF01F1D9FE019701A801DA94F9
:1048D00079F7DF90EF90FF900F911F91CF91DF91CB
:1048E0000895A1E21A2EAA1BBB1BFD010DC0AA1F31
:1048F000BB1FEE1FFF1FA217B307E407F50720F049
:10490000A21BB30BE40BF50B661F771F881F991FC3
:104910001A9469F760957095809590959B01AC010C
:10492000BD01CF0108952F923F924F925F926F92F7
:104930007F928F929F92AF92BF92CF92DF92EF922F
:10494000FF920F931F93CF93DF93CDB7DEB7CA1BB0
:10495000DB0B0FB6F894DEBF0FBECDBF09942A88DB
:10496000398848885F846E847D848C849B84AA8483
:10497000B984C884DF80EE80FD800C811B81AA8110
:10498000B981CE0FD11D0FB6F894DEBF0FBECDBFDB
:10499000ED010895EE0FFF1F0590F491E02D0994AD
:0449A000F894FFCFB9
:1049A40000006803800020636D64472020002020FD
:1049B400472020002020636D6444202000202044F0
:1049C4002020004E454152004146494E49002020D6
:1049D4007820203A00202079203A0020206361705A
:1049E4003A2020007665637400202C2000747275D0
:1049F40065005472756500545255450031002564B4
:104A040000256F002558002578002569006F726421
:104A1400726520696E64203D200040005265676C19
:104A2400616765204F646F00526563616C20617239
:104A3400726965726500526563616C206176616EAE
:104A440074004246436170200042464176616E63C1
:104A54006500417272657420526F626F7400526512
:104A64007072656E64726500657272200046696ECC
:104A7400206465206C69676E6500456E72656769C0
:104A840073747265203A2000202073657269616C2A
:104A94005F636F756E74202000636F75636F7500BC
:104AA400200000000000C509E909E0FFE0FF000064
:104AB400DF09F309200000000000C4072509E0FF16
:104AC400E0FF0000CE07300900000000BE071E0909
:104AD40000000000A909BB09FD07FE07EE0DFF0752
:104AE40008080B0818084F0865087C080414E20B32
:104AF40000000000D8071709FD07AA08AD08B00890
:104B0400FA07B308B608F707DE07F507BC08BA08C2
:104B1400060000000000C4072509FAFFFAFF0000A0
:104B2400CE07300906021A0224021002760280021D
:104B3400000000005A1AE91BF519241A081A481A29
:024B44002E0041
:00000001FF
