:100000000C9477000C942B160C9458160C949F00AB
:100010000C949F000C949F000C949F000C949F00E4
:100020000C949F000C949F000C949F000C949F00D4
:100030000C949F000C949F000C949F000C949F00C4
:100040000C94E6160C949F000C94151A0C94581AF4
:100050000C949F000C949F000C949F000C949F00A4
:100060000C949F000C949F0005A84CCDB2D44EB9BF
:100070003836A9020C50B9918688083CA6AAAA2A4B
:10008000BE000000803F00000007000201000003E6
:100090000406000000000000000001020408102017
:1000A000408001020408102001020408102004040A
:1000B0000404040404040202020202020303030310
:1000C00003030000000023002600290000000000B8
:1000D000250028002B0000000000240027002A0033
:1000E0006364696E6F70737578585B00141B11241C
:1000F0001FBECFEFD8E0DEBFCDBF12E0A0E0B1E081
:10010000E8E7F9E402C005900D92A43BB107D9F7E6
:1001100013E0A4EBB2E001C01D92AD37B107E1F7E7
:1001200010E0CEEED0E004C02297FE010E94B6247B
:10013000CC3ED107C9F70E946A1B0C94CC1D0C94CD
:100140000000CF93DF93EC010E94F405CE010C96E2
:100150000E9483026AE070E0CE018E589F4F0E9499
:1001600086146EE170E0CE0186589F4F0E9486147F
:10017000FE01EE57FF4F4AE959E969E97EE3408302
:10018000518362837383FE01EA57FF4F408351839B
:1001900062837383FE01E657FF4F46EA5BE964E43E
:1001A0007CE34083518362837383FE01E257FF4FF8
:1001B00011821082C057DF4F19821882DF91CF91D0
:1001C0000895CF92DF92EF92FF92CF93DF93EC01ED
:1001D0006091B4027091B5028091B6029091B7021D
:1001E0000E94301FFE01EA57FF4F2081318142817A
:1001F00053810E941D206B017C016091B8027091B7
:10020000B9028091BA029091BB020E94301FFE0198
:10021000EE57FF4F20813181428153810E941D2082
:100220009B01AC01C701B6010E94291EFE01E657E1
:10023000FF4F20813181428153810E941D20AB01FB
:10024000BC01CE01DF91CF91FF90EF90DF90CF9076
:100250000C945F054F925F926F927F92AF92BF9224
:10026000CF92DF92EF92FF920F931F93CF93DF9382
:10027000EC010E94E10088EBE82E82E0F82E8E016E
:1002800002571F4FF70160817181F80180819181D0
:10029000681B790B882777FD8095982F0E94301F67
:1002A000FE01EE57FF4F20813181428153810E9430
:1002B0001D202B013C0194EBA92E92E0B92E6E017A
:1002C000F0E9CF0ED11CF50160817181F6018081CA
:1002D0009181681B790B882777FD8095982F0E9464
:1002E000301FFE01EA57FF4F208131814281538147
:1002F0000E941D209B01AC01C301B2010E942A1E75
:1003000020E030E040E05FE30E941D20AB01BC0133
:10031000CE010E946505F50180819181F6019183EE
:100320008083F70180819181F80191838083DF913F
:10033000CF911F910F91FF90EF90DF90CF90BF90E2
:10034000AF907F906F905F904F900895CF92DF9223
:10035000EF92FF920F93CF93DF931F92CDB7DEB74B
:100360007B016A0166E071E08FEC92E029830E94D4
:10037000B91B4AE050E0B7018FEC92E00E94931C59
:100380006EE071E08FEC92E00E94B91B4AE050E011
:100390002981622F70E08FEC92E00E94931C64E14F
:1003A00071E08FEC92E00E94B91B4AE050E0B60188
:1003B0008FEC92E00E94931C6DE171E08FEC92E073
:1003C0000E94B91B4AE050E0602F70E08FEC92E091
:1003D0000F90DF91CF910F91FF90EF90DF90CF9032
:1003E0000C94931CAF92BF92CF92DF92EF92FF9248
:1003F0000F931F93CF93DF937C01EC012C96CE01DA
:100400000E9435056C01CE010E9440055C01CE01C1
:100410000E943B05182FCE010E944605082F11238C
:1004200011F061E001C060E086E00E94DF17002368
:1004300011F060E001C061E085E00E94DF17B601C5
:100440008AE00E948516B50189E00E948516212F59
:10045000A501B601C7010E94A601DF91CF911F91AE
:100460000F91FF90EF90DF90CF90BF90AF900895E5
:10047000CF92DF92EF92FF920F931F93CF93DF9370
:10048000EC018C010E581F4FC8010E949214882362
:1004900031F0C8010E947A14CE010E942A018E0117
:1004A00006581F4FC8010E9492148823F1F0C8011A
:1004B0000E947A14C880D980EA80FB800C811D815B
:1004C0002E813F81488559856A857B85CE010C96B2
:1004D0000E94F804CE01DF91CF911F910F91FF9000
:1004E000EF90DF90CF900C94F201DF91CF911F91AC
:1004F0000F91FF90EF90DF90CF9008959C01245FC3
:100500003F4FC9010895CF92DF92EF92FF920F9370
:100510001F93CF93DF93EC010E94F405CE010C965C
:100520000E94F405CE0148960E941C0619A218A24A
:10053000C12CD12C80E2E82E82E4F82E00E010E0FD
:100540002CE832E440E050E064EB72E4CE018296A5
:100550000E94B2149DECC92E9CECD92E9CE4E92E8D
:100560009EE3F92E03E313E323EB3EE340E050E088
:1005700060E07FE3CE01CF960E94B214FE01E45A00
:10058000FF4F11821082FE01E25AFF4F118210824A
:10059000FE01EC59FF4F81E08083CB59DF4F888308
:1005A000DF91CF911F910F91FF90EF90DF90CF904F
:1005B00008958F929F92AF92BF92CF92DF92EF9267
:1005C000FF920F931F93CF93DF93CDB7DEB764975E
:1005D0000FB6F894DEBF0FBECDBF4C01A986BA8618
:1005E000CB86DC86ED86FE860F87188B298B3A8BAF
:1005F0004B8B5C8BFC0171A360A36130710529F00A
:100600006230710509F06DC057C0CE0109960E9495
:100610004B05AB01BC018401045F1F4FC8010E9460
:1006200065052DB73EB72C5031090FB6F8943EBF83
:100630000FBE2DBFADB7BEB711968CE0F80101908B
:100640000D928A95E1F7F401C080D180E280F380B9
:1006500004811581268137814085518562857385A6
:10066000CE0101960E94260688E0FE013196D40153
:10067000589601900D928A95E1F7CE0109960E9455
:100680004B050FB6F894DEBF0FBECDBF20E030E0C3
:10069000A9010E948E1E8401085E1F4F87FF03C0C0
:1006A000C8010E949D06C8010E94B10640E050E0CA
:1006B000BA01C401CF9613C0CE0109960E94550518
:1006C000AB01BC018401045F1F4FC8010E945F059C
:1006D000C8010E945505AB01BC01C40182960E946D
:1006E000E21464960FB6F894DEBF0FBECDBFDF9163
:1006F000CF911F910F91FF90EF90DF90CF90BF901F
:10070000AF909F908F9008958F929F92AF92BF92DB
:10071000CF92DF92EF92FF920F931F93CF93DF93CD
:10072000CDB7DEB760970FB6F894DEBF0FBECDBF72
:100730005C01CE0109960E941C064501C5010E947C
:10074000AD058DB79EB70C970FB6F8949EBF0FBE40
:100750008DBFADB7BEB711968CE0F5013C96019008
:100760000D928A95E1F7F501C080D180E280F38097
:100770000481158126813781408551856285738585
:10078000CE0101960E94260688E0FE013196DE0128
:10079000199601900D928A95E1F70FB6F894DEBF95
:1007A0000FBECDBFF50180A191A18130910581F0EF
:1007B0008230910509F44AC0892B09F0A9C0EE598D
:1007C000FF4F11821082F501E05AFF4F1182108213
:1007D000F501C080D180E280F380048115812681FB
:1007E00037814085518562857385CE0101960E94CF
:1007F000DB0609811A812B813C814D815E816F81ED
:100800007885CE0109960E941507AB01BC01C50190
:10081000CF960E94E8148501005A1F4F90580E94FD
:10082000FD1EF80171836083C4010E945505AB0170
:10083000BC01C50182960E94E814F2E6AF0EB11C1D
:100840000E94FD1EF5017183608362C063E271E066
:100850008FEC92E00E94B91BC5010E945505AB01C7
:10086000BC01C50182960E94E81485010E591F4FF4
:100870000E94FD1EF801718360836BE271E08FECD2
:1008800092E00E94B91BF501C080D180E280F38024
:100890000481158126813781408551856285738564
:1008A000CE0101960E94DB0609811A812B813C81D1
:1008B0004D815E816F817885CE0109960E94150772
:1008C000AB01BC01C501CF960E94E8148501005A16
:1008D0001F4F90580E94FD1EF80171836083F5013F
:1008E000C080D180E280F380048115812681378128
:1008F0004085518562857385CE0101960E94DB0695
:10090000CE0101960E945F07CE0109960E945F0703
:1009100068E471E08FEC92E00E94D81B60960FB6FD
:10092000F894DEBF0FBECDBFDF91CF911F910F9125
:10093000FF90EF90DF90CF90BF90AF909F908F90FF
:100940000895FC01E05AFF4F2081318137FF02C03A
:100950002F5F3F4FB90175956795FC01EE59FF4F29
:10096000B081A1812B2F3A2F37FF02C02F5F3F4F5D
:1009700035952795AB01421B530BFC01E45AFF4F01
:10098000518340832B2F3A2F37FF02C02F5F3F4FF9
:1009900035952795260F371FFC01E25AFF4F31830B
:1009A0002083FC01EC59FF4F61E0141615060CF48E
:1009B00060E06083FC01EB59FF4F61E01216130603
:1009C0000CF460E0608357FF08C0FC01E45AFF4F5D
:1009D0005195419551095183408337FF08C0FC016F
:1009E000E25AFF4F319521953109318320830895D3
:1009F000AF92BF92CF92DF92EF92FF920F931F932D
:100A0000CF93DF93CDB7DEB72C970FB6F894DEBF48
:100A10000FBECDBF5C01C982DA82EB82FC820D83FE
:100A20001E832F83388749875A876B877C878CE0A2
:100A3000FE013196D50101900D928A95E1F7C5012D
:100A40000E948403C5012C960FB6F894DEBF0FBE3A
:100A5000CDBFDF91CF911F910F91FF90EF90DF906D
:100A6000CF90BF90AF900C94A104FC01E45AFF4FCB
:100A70008081918108958C599F4FFC018081089558
:100A8000FC01E25AFF4F8081918108958B599F4F5D
:100A9000FC0180810895FC015081418132812381D4
:100AA000652F742F832F922F0895FC015085418567
:100AB00032852385652F742F832F922F0895FC0193
:100AC000408751876287738708958F929F92AF9274
:100AD000BF92CF92DF92EF92FF92CF93DF93EC0120
:100AE0006A017B0188849984AA84BB84C501B4010E
:100AF0000E94921E9B01AC01C701B6010E941D20FD
:100B00009B01AC01688179818A819B810E942A1EA8
:100B1000688379838A839B83C501B4010E94802006
:100B20009B01AC01C701B6010E941D209B01AC01D5
:100B30006C817D818E819F810E942A1E6C837D83C2
:100B40008E839F83DF91CF91FF90EF90DF90CF90C6
:100B5000BF90AF909F908F900895CF93DF93EC015B
:100B600063E371E08FEC92E00E94B91B68817981A8
:100B70008A819B810E94FD1E4AE050E08FEC92E04A
:100B80000E94931C6AE371E08FEC92E00E94B91B13
:100B90006C817D818E819F810E94FD1E4AE050E024
:100BA0008FEC92E00E94931C60E471E08FEC92E085
:100BB0000E94B91B20E030E044E353E46885798566
:100BC0008A859B850E941D2023EC35EF48E450E484
:100BD0000E94951EAB01BC0122E030E08FEC92E058
:100BE000DF91CF910C94AC1DFC0110821182128216
:100BF000138214821582168217821086118612863D
:100C000013860895CF92DF92EF92FF920F931F9376
:100C1000FC0140835183628373830483158326839D
:100C20003783C086D186E286F3861F910F91FF90AD
:100C3000EF90DF90CF900895FC0110821182128214
:100C4000138214821582168217820895AF92BF9282
:100C5000CF92DF92EF92FF920F931F93CF93DF9388
:100C6000CDB7DEB72C970FB6F894DEBF0FBECDBF61
:100C70005C01C982DA82EB82FC820D831E832F83A2
:100C8000388729813A814B815C81698D7A8D8B8D82
:100C90009C8D0E94291EF50160837183828393835A
:100CA0002D813E814F8158856D8D7E8D8F8D98A1D0
:100CB0000E94291EF50164837583868397832C9691
:100CC0000FB6F894DEBF0FBECDBFDF91CF911F915D
:100CD0000F91FF90EF90DF90CF90BF90AF9008956D
:100CE0008F929F92AF92BF92CF92DF92EF92FF923C
:100CF000FC016081718182819381C480D580E6800E
:100D0000F7809B01AC010E941D204B015C01A701F3
:100D10009601C701B6010E941D209B01AC01C501CF
:100D2000B4010E942A1EFF90EF90DF90CF90BF90F9
:100D3000AF909F908F900C948A20FC01408151814C
:100D400062817381705840835183628373834481CD
:100D50005581668177817058448355836683778394
:100D60000895CF92DF92EF92FF92CF93DF93EC0141
:100D70000E9470066B017C019B01AC016881798146
:100D80008A819B810E94951E688379838A839B83D5
:100D9000A70196016C817D818E819F810E94951EA5
:100DA0006C837D838E839F83DF91CF91FF90EF9043
:100DB000DF90CF900895CF92DF92EF92FF920F9342
:100DC0001F93CF93DF93CDB7DEB72C970FB6F89470
:100DD000DEBF0FBECDBF8C0149875A876B877C87EA
:100DE000C984DA84EB84FC84C701B6010E94921E98
:100DF000F8016083718382839383C701B6010E94E7
:100E00008020F80164837583868397832C960FB6C0
:100E1000F894DEBF0FBECDBFDF91CF911F910F9130
:100E2000FF90EF90DF90CF900895AF92BF92CF9256
:100E3000DF92EF92FF920F931F93CF93DF93CDB783
:100E4000DEB728970FB6F894DEBF0FBECDBF5C01AA
:100E500009831A832B833C834D835E836F8378875A
:100E600029813A814B815C81FC01608171818281A1
:100E700093810E941D206B017C012D813E814F8159
:100E80005885F50164817581868197810E941D20B6
:100E90009B01AC01C701B6010E942A1E28960FB61D
:100EA000F894DEBF0FBECDBFDF91CF911F910F91A0
:100EB000FF90EF90DF90CF90BF90AF900895CF93C9
:100EC000DF93EC0169E471E08FEC92E00E94B91BC2
:100ED000488159816A817B8122E030E08FEC92E089
:100EE0000E94AC1D6EE471E08FEC92E00E94B91B91
:100EF0004C815D816E817F8122E030E08FEC92E059
:100F0000DF91CF910C94AC1D8BE00E94161840919C
:100F1000B8025091B9026091BA027091BB02019778
:100F200029F44F5F5F4F6F4F7F4F04C0415051090D
:100F3000610971094093B8025093B9026093BA02F3
:100F40007093BB0208958CE00E9416184091B40281
:100F50005091B5026091B6027091B702019729F4E1
:100F6000415051096109710904C04F5F5F4F6F4FD4
:100F70007F4F4093B4025093B5026093B6027093D2
:100F8000B702089521E332E0FC0131832083089504
:100F90002BE732E0FC013183208321E332E0378309
:100FA00026830895DC01ED91FC91369720813181F3
:100FB000820F931F0C94C80729E532E0FC013183AE
:100FC00020830895CF93DF93EC01E881F9810288B3
:100FD000F389E02D09959C012F3F8FEF380729F009
:100FE0008D819E8101969E838D83C901DF91CF9172
:100FF0000895CB0108958FEF9FEF089580E090E072
:10100000089508950895242FDC01ED91FC9100844A
:10101000F185E02D41E0099480E090E00895FC0125
:101020002289338980899189281B390B8689978980
:10103000281B390BC90108958F929F92AF92BF92DE
:10104000EF92FF92CF93DF93FC01DB01812C912C77
:101050005401C689D789E088F188828993898E19DD
:101060009F09C817D907A0F482169306A406B506EF
:101070007CF4CE0DDF1D88818D938FEF881A980A3E
:10108000A80AB80A868997890196978B868BE1CF43
:10109000B401C501DF91CF91FF90EF90BF90AF9069
:1010A0009F908F900895FC01268937894089518946
:1010B00082899389841B950B2817390730F4FA012C
:1010C000E20FF31F208130E002C02FEF3FEFC90194
:1010D0000895CF93DF93EC01E881F9810288F389C9
:1010E000E02D09959C012F3F8FEF380729F08E895D
:1010F0009F8901969F8B8E8BC901DF91CF910895B7
:10110000FC0186899789009729F1A089B1892289F4
:1011100033892A1B3B0B2817390718F4378B268B8A
:1011200019C001976F3F2FEF720729F4978B868BB9
:1011300060E070E011C0A80FB91F2C91261303C006
:10114000978B868B09C0278524FF04C0978B868BDD
:101150006C9302C06FEF7FEFCB01089580E090E0C9
:10116000089580E090E0089580E090E0089580E0A8
:1011700090E0089560E070E0CB010895CB01089500
:101180007F928F929F92AF92BF92CF92DF92EF9217
:10119000FF920F931F93CF93DF93EC0149015A0104
:1011A0008B01C12CD12C76012FC0F80171908F01D9
:1011B0008F8580FF0BC0E881F9810084F185E02DE7
:1011C00020E144E060E070E0CE010995EB85FC850C
:1011D0008D859E85E817F90738F470828B859C858C
:1011E00001969C878B870BC0E881F981028CF38D77
:1011F000E02D672D70E0CE010995019661F02FEF8B
:10120000C21AD20AE20AF20AC814D904EA04FB0498
:1012100064F275016401B601C701DF91CF911F919E
:101220000F91FF90EF90DF90CF90BF90AF909F9085
:101230008F907F90089529E532E0FC01318320836F
:101240000C94791B21E332E0FC01318320830C9460
:10125000791B2BE732E0FC013183208321E332E06C
:10126000378326830C94791BDC01ED91FC91369732
:1012700020813181820F931F0C942909EF92FF92F4
:101280000F931F93CF93DF937C01EB018A016417C7
:101290007507A1F0FC0140815181401B510B4F5F4C
:1012A0005F4FB801CE010E94ED1D0C1B1D0BF70115
:1012B00080819181801B910B91838083CE01DF918E
:1012C000CF911F910F91FF90EF900895CF93DF93EF
:1012D000EC01BC0181E090E00E94B815FC01108295
:1012E0001882DF91CF910895DC0113968D919C9126
:1012F0001497892B59F01596ED91FC911697179636
:101300008D919C911897E817F90741F4ED91FC91A4
:1013100011970488F589E02DCD01099481911696E5
:10132000FC93EE93159790E00895FC018581682B5E
:1013300083899489892B09F001C0616065830895D0
:10134000FC0180819181248135812817390711F0B2
:101350000C94DA1808950C94A009CF93DF93EC0154
:1013600089E392E099838883CE0140960E94AB097D
:1013700089E592E099838883DF91CF910895CF9397
:10138000DF93EC010E94AD09CE01DF91CF910C9467
:10139000791BCF93DF93EC018BE092E099838883F4
:1013A00085E192E099A388A3CE0106960E94AD093B
:1013B0008FE192E09983888381E392E099A388A3E7
:1013C000DF91CF910895DC01ED91FC91369720815A
:1013D0003181820F931F0C94C909CF93DF93EC01E5
:1013E0000E94C909CE01DF91CF910C94791BDC01D9
:1013F000ED91FC91369720813181820F931F0C94DF
:10140000ED09CF93DF93EC01FB0101900020E9F798
:101410003197E61BF70B888199814A815B81481BD4
:10142000590B4E175F0731F40E94D71D9C0181E0D4
:10143000232B09F080E0DF91CF910895DC01139612
:101440008D919C911497892B59F01596ED91FC91F3
:10145000169717968D919C911897E817F90741F404
:10146000ED91FC9111970288F389E02DCD0109944B
:10147000808190E00895CF93DF93EC01E881F981BA
:1014800036970190F081E02DEC0FFD1F8389948940
:101490000E941E0A8F3F2FEF920789F00E94CF1DF6
:1014A000892BC9F0E881F98136970190F081E02D10
:1014B000EC0FFD1F838994890E947409DFCFE881B6
:1014C000F98136978081918162E08C0F9D1FDF91B9
:1014D000CF910C949509DF91CF910895DF92EF920F
:1014E000FF920F931F93CF93DF937C018B01D42E38
:1014F000DB01ED91FC9136970190F081E02DE60F34
:10150000F71FC189D2892097E9F0E881F9813697E0
:101510000190F081E02DEC0FFD1F83899489DC019F
:10152000ED91FC910484F585E02D0995019651F427
:10153000E881F98136978081918161E08C0F9D1F50
:101540000E949509D11003C0C8010E943B0A81E0A6
:10155000F7018083DF91CF911F910F91FF90EF9062
:10156000DF900895CF93DF93EC01009791F0CE01C7
:101570000E943F189C01009771F4E091BC02F09129
:10158000BD02309721F480E090E00E94CC1D0995C7
:10159000EECF20E030E0C901DF91CF9108950F93A5
:1015A0001F93CF93DF93EC018B016F3F8FEF780791
:1015B00059F0CB010E94B20A998388839B838A8366
:1015C000080F191F1D830C83DF91CF911F910F917D
:1015D0000895CF93DF93EC01198218821B821A823F
:1015E0001D821C8268E070E00E94CF0A8A819B8184
:1015F000DF91CF910C946609EF92FF920F931F93A6
:10160000CF93DF931F92CDB7DEB78C017B0164E6E9
:1016100070E00E948614F80111861086BE016F5F8B
:101620007F4FC8010A960E94E90A81E290E0F80122
:1016300095AB84AB16AA17AA10AE46E050E060E066
:1016400070E041AF52AF63AF74AFFD96108211826C
:1016500012821382F801EF5BFF4F80E28083F80172
:10166000EE5BFF4F11821082F801EC5BFF4FC80167
:10167000479691838083F801EA5BFF4F1082F8015F
:10168000138A148A158A168A8BE092E0928B818BDA
:1016900085E192E092AB81AB138E128E158E148E83
:1016A000178E168E11A210A213A212A215A214A2B6
:1016B00016A289E392E0908F878BBE016F5F7F4F08
:1016C000C80187960E94E90AF80116A615A610AA75
:1016D00017A688E086A3E95BFF4FF182E08281E0F4
:1016E000F801808B0F90DF91CF911F910F91FF90A8
:1016F000EF900895CF92DF92EF92FF920F931F9396
:10170000CF93DF93EC018A819B8128813981821BF1
:10171000930B8617970708F4CB016C012FEFC21AC1
:10172000D20AC6010E94B20A8C0168817981EA80DE
:10173000FB80E61AF70AA7010E94ED1DE00EF11EDC
:10174000C7010E946609CE010E94A009198308837F
:10175000FB82EA820C0D1D1D1D830C83DF91CF914E
:101760001F910F91FF90EF90DF90CF9008951F93FE
:10177000CF93DF93EC01162F8A819B819C012F5F11
:101780003F4F4C815D814217530779F4288139819D
:10179000821B930B11F09C0102C021E030E0B901E3
:1017A000680F791FCE010E947A0B8A819B81019676
:1017B0000E946609EA81FB8110838A819B810196E0
:1017C0009B838A83DF91CF911F9108950F931F937D
:1017D000CF93DF93EC018B016F3F8FEF7807E9F038
:1017E0008F8584FF1DC0288D398D488959898A8944
:1017F0009B89841B950B2817390728F0CE0140964A
:101800000E94B70B04C0FA01E20FF31F6083888DBA
:10181000998D0196998F888F05C000E010E002C075
:101820000FEF1FEFC801DF91CF911F910F91089526
:101830007F928F929F92AF92BF92CF92DF92EF9260
:10184000FF920F931F93CF93DF931F92CDB7DEB715
:101850008C017B0140E0BC01CE0101960E946E0A22
:101860002981D8018D919C91FC013697222309F49E
:101870007FC00190F081E02DE00FF11FC388D48874
:10188000D701ED91FC91119712968D919C91139730
:10189000E817F90741F010828D919C9111971396EA
:1018A0009C938E931297D801ED91FC9136970190FD
:1018B000F081E02D3296E00FF11F628573858485FB
:1018C000958512861386148615865B016115710550
:1018D00021F0C7010E947A0B03C0AA24AA94BA2C53
:1018E000C6010E9474094C018F3FBFEF9B0741F472
:1018F000D801ED91FC9136978081918162E020C002
:10190000992787FD90950E94CF1DB1E0AB1AB108D1
:10191000892BD9F0F60183819481009789F10580A4
:10192000F681E02DE817F90759F18291881228C055
:1019300034C0D801ED91FC9136978081918164E0AB
:10194000800F911F0E94950907C0682DC7010E9452
:10195000B70BA114B10421F6F701228133818081F4
:10196000918128173907F9F4D801ED91FC91369748
:101970008081918164E0800F911F0E94950913C0BE
:10198000D601ED91FC91B40177270688F789E02D07
:10199000C6010995019669F2DFCFD6011696FC9330
:1019A000EE931597D9CFC8010F90DF91CF911F917A
:1019B0000F91FF90EF90DF90CF90BF90AF909F90EE
:1019C0008F907F900895FF920F931F93CF93DF9393
:1019D000EC018B01F42E488159818A819B81841B03
:1019E000950BBC01600F711F2C813D81241B350BB1
:1019F000215031092617370758F49C0180179107A9
:101A000008F49801B901680F791FCE010E947A0B82
:101A100001151105E1F02A813B81C9010196A90157
:101A2000400F511F481B590B6F2D70E00E94FF1D86
:101A30008A819B81800F911F0E946609EA81FB8148
:101A4000F0828A819B81800F911F9B838A83CE01C4
:101A5000DF91CF911F910F91FF900895CF92DF9268
:101A6000EF92FF920F931F93CF93DF931F92CDB707
:101A7000DEB77C018B01BE016F5F7F4F0E94E90AD8
:101A8000D801ED91FC9136970190F081E02DE00FA7
:101A9000F11F838994890E941E0A6C018F3FBFEF5A
:101AA0009B0729F10E94CF1D892B69F020C0D80126
:101AB000ED91FC9136978081918166E0800F911FB6
:101AC0000E9495091CC0D801ED91FC9136970190B8
:101AD000F081E02DE00FF11F838994890E94740941
:101AE0004C2D61E070E0C7010E94E30CC9CFF70103
:101AF000228133818081918128173907C1F2C70182
:101B00000F90DF91CF911F910F91FF90EF90DF9099
:101B1000CF900895CF92DF92EF92FF920F931F9391
:101B2000CF93DF931F92CDB7DEB76C018B01BE015F
:101B30006F5F7F4F0E94E90AD801ED91FC913697C3
:101B40000190F081E02DE00FF11F838994890E94BC
:101B50001E0A7C018F3FBFEF9B0789F10E94CF1DBA
:101B6000892B69F5C701C0970A97A8F0EEE2EE1637
:101B7000F10489F0FCE2EF16F10409F50CC0D8017C
:101B8000ED91FC9136978081918166E0800F911FE5
:101B90000E9495091CC0D801ED91FC9136970190E7
:101BA000F081E02DE00FF11F838994890E94740970
:101BB0004E2D61E070E0C6010E94E30CBDCFF6013E
:101BC000228133818081918128173907C1F2C601B2
:101BD0000F90DF91CF911F910F91FF90EF90DF90C9
:101BE000CF9008950F931F93CF93DF938C01E22F33
:101BF000E870322F30712871283121F4423009F019
:101C00005DC059C0413011F4EB0129C04230D1F41C
:101C1000332371F0DC015296CD91DC9153975096AD
:101C20008D919C915197C81BD90BC60FD71F02C02D
:101C3000C0E0D0E0EE2399F0D8015696CD91DC912A
:101C400057970BC0D8015296CD91DC91539750967F
:101C50008D919C915197C81BD90BC60FD71FD801E6
:101C600052964D915C91539750966D917C915197FE
:101C7000CA01861B970B8C179D07E8F0EE2321F015
:101C80005796DC93CE9356973323D9F06C0F7D1F74
:101C9000C80142960E943E09F801828993892089F1
:101CA0003189821B930B268937898217930748F461
:101CB000978B868B06C0CFEFDFEF03C0413011F664
:101CC000A3CFCE01DF91CF911F910F9108958F92F5
:101CD0009F92AF92BF92CF92DF92EF92FF920F93BB
:101CE0001F93CF93DF93EC017B016417750709F411
:101CF0005FC08A819B81688179814C01861A970A2D
:101D00008A010E191F09F801E80DF91D2C813D818A
:101D1000261B370B215031092E173F0780F58FEF17
:101D2000881A980AC8010431110510F484E190E082
:101D3000880E991EC4010E94B20A6C0168817981E3
:101D4000AA80BB80A61AB70AA5010E94ED1DAC0CA3
:101D5000BD1CA801B701C5010E94ED1DA00EB11E5A
:101D6000C5010E946609CE010E94A009D982C882DD
:101D7000BB82AA82C80CD91CDD82CC8219C0B701F3
:101D80006F5F7F4F461B570B01960E94ED1D8A81A6
:101D90009B81800F911F0E946609EA81FB81D70118
:101DA0008C9180838A819B81800F911F9B838A8382
:101DB000CE01DF91CF911F910F91FF90EF90DF90B7
:101DC000CF90BF90AF909F908F900895CF92DF9269
:101DD000EF92FF920F931F93CF93DF93EC018B0150
:101DE0007A016A01C61AD70A288139818A819B81C2
:101DF000821B930B8C159D0578F0A601C9010E94EA
:101E0000E41D4A815B81FE0161917191CF016C0DEE
:101E10007D1D0E943E0911C0AC01C9010E94E41D54
:101E20006A817B8188819981681B790B600F711FA2
:101E300020E0A701CE010E94670ECE01DF91CF9175
:101E40001F910F91FF90EF90DF90CF900895CF9367
:101E5000DF93EC016817790739F0FB014281538168
:101E6000608171810E94E60ECE01DF91CF910895CD
:101E7000CF93DF93EC0146960E94270F1D8E1C8E98
:101E80008D8981FF09C0888D998D2E893F89821B9C
:101E9000930B9F8F8E8F02C01F8E1E8EE881F9815B
:101EA00036970190F081E02DEC0FFD1F8389948916
:101EB000892B11F0158202C081E08583DF91CF91DB
:101EC0000895EF92FF920F931F93CF93DF93CDB7B7
:101ED000DEB72D970FB6F894DEBF0FBECDBF7C01E5
:101EE0008B01BE01635F7F4FCE0107960E94E90A16
:101EF000B701CE0101960E942E0DBE016F5F7F4F8C
:101F0000CE0107960E94270FCE0101960E94AB09D1
:101F100062E571E0CE0107960E94010A81111EC0A0
:101F200067E571E0CE0107960E94010A811116C093
:101F30006CE571E0CE0107960E94010A81110EC086
:101F400061E671E0CE0107960E94010A811106C088
:101F500009C0CE0107960E94AB0907C081E0F801D5
:101F60008083F7CFF8011082F4CF2D960FB6F89446
:101F7000DEBF0FBECDBFDF91CF911F910F91FF90BC
:101F8000EF900895EF92FF920F931F93CF93DF93FB
:101F9000CDB7DEB72D970FB6F894DEBF0FBECDBF1D
:101FA0008C01F62EE72EBE01635F7F4FCE010796B0
:101FB0000E94E90AD801ED91FC9136970190F081D9
:101FC000E02DE00FF11F8381B80185FF14C0CE0121
:101FD00001960E948A0DBE016F5F7F4FCE0107966A
:101FE0000E94270FCE0101960E94AB09EF92FF924B
:101FF00083E691E033C0CE0101960E942E0DBE0112
:102000006F5F7F4FCE0107960E94270FCE0101968A
:102010000E94AB09D801ED91FC9136970190F081B7
:10202000E02DE00FF11F8381948186FF05C0EF92C0
:10203000FF9286E691E012C087FF0CC095FF05C0B5
:10204000EF92FF9289E691E009C0EF92FF928CE651
:1020500091E004C0EF92FF928FE691E09F938F93FF
:1020600088858F938F818F930E940E1E0F900F9003
:102070000F900F900F900F90CE0107960E94AB0922
:102080002D960FB6F894DEBF0FBECDBFDF91CF9176
:102090001F910F91FF90EF900895EF92FF920F9391
:1020A0001F93CF93DF931F92CDB7DEB77C018B01D7
:1020B00040E0BC01CE0101960E946E0AB801C70142
:1020C0000E94C20FC7010F90DF91CF911F910F9116
:1020D000FF90EF900895AF92BF92CF92DF92EF9270
:1020E000FF920F931F93CF93DF93CDB7DEB7EB979C
:1020F0000FB6F894DEBF0FBECDBF5C01BC01665FBA
:102100007F4F6C0181E1C80ED11CC6010E94380FBF
:10211000BE01655C7F4FCE018B960E94E90ABE012D
:10212000655D7F4FC6010E94180CEBA5FCA51081D0
:1021300062E771E08FEC92E00E94B91BEBA5FCA571
:10214000E180FF24E7FCF094A0E3EA1AF108612F94
:102150008FEC92E00E94BB1B6FE771E08FEC92E086
:102160000E94B91B4AE050E0B7018FEC92E00E9458
:102170009B1CBE01655C7F4FCE0185960E94E90ADB
:10218000BE01655C7F4FCE014F960E94E90ABE01F9
:10219000655C7F4FCE0149960E94E90A18AE1FAADE
:1021A0001EAA1DAA1CAA1BAA1AAA19AACE010D961C
:1021B0000E94F405133509F037C1B3E0EB16F104C2
:1021C00049F144F4A1E0EA16F104F1F004F5EF2836
:1021D000C1F039C186E0E816F10409F4FCC034F41A
:1021E000B4E0EB16F10409F02EC18EC087E0E816CA
:1021F000F10409F40FC1A8E0EA16F10409F023C1C3
:102200000CC161E871E00BC16DE871E008C16BE9D8
:1022100071E005C1BE01615E7F4FC6010E94180CCE
:102220007C0140E0BC01CE01C9960E946E0ABE014D
:10223000665C7F4FC7010E94610FD701ED91FC9151
:1022400036970190F081E02DEE0DFF1D85818570A0
:1022500009F00AC18F8D98A10E94AE1DBC0188278C
:1022600077FD8095982F0E94301F23EC35EF48E4CE
:1022700050E40E941D2020E030E044E353E40E943B
:10228000951E6B017C0100E010E09801B901A801E6
:10229000CE0101960E9402068CE0FE013196DE011D
:1022A0001D9601900D928A95E1F767EA71E08FEC37
:1022B00092E00E94B91B8F8D98A10E94AE1D4AE04A
:1022C00050E0BC018FEC92E00E949B1C4AE050E081
:1022D00062E070E08FEC92E00E949B1CF501E95BEC
:1022E000FF4F808191810E947E02AD84BE84CF84A5
:1022F000D888E988FA880B891C892D893E894F89FD
:10230000588D62E070E064C0BE01675E7F4FC60119
:102310000E94180CBE016D5C7F4F0E944D106EEA4A
:1023200071E08FEC92E00E94D81B67E471E08FECC3
:1023300092E00E94B91B898D9A8D0E94AE1D4AE0E1
:1023400050E0BC018FEC92E00E94931C67E471E0C6
:102350008FEC92E00E94B91B6BA97CA94AE050E087
:102360008FEC92E00E949B1C898D9A8D0E94AE1D7D
:10237000BC01882777FD8095982F0E94301FAB0104
:10238000BC01C12CD12C760197018601CE010196AA
:102390000E9402068CE0FE013196DE011D9601903E
:1023A0000D928A95E1F7F501E95BFF4F80819181FC
:1023B0000E947E02AD84BE84CF84D888E988FA88E2
:1023C0000B891C892D893E894F89588D61E070E009
:1023D0000E94D90238C0BE01675E7F4FC6010E94CD
:1023E000180CBE01695C7F4F0E944D10BE016B5CF2
:1023F0007F4F0E944D10BE01615E7F4F0E94180CFE
:10240000BE016F5C7F4F0E944D10BE016D5C7F4F1F
:102410000E944D1067EB71E002C063EC71E08FEC3D
:1024200092E00E94D81B0FC0CE0149960E94AB09D2
:10243000CE014F960E94AB09CE0185960E94AB0952
:10244000CE018B960EC0CE0149960E94AB09CE01FB
:102450004F960E94AB09CE0185960E94AB09CE0132
:102460008B960E94AB0907C06DEC71E08FEC92E097
:102470000E94B91BEFCEEB960FB6F894DEBF0FBEED
:10248000CDBFDF91CF911F910F91FF90EF90DF9023
:10249000CF90BF90AF900895DF92EF92FF920F938D
:1024A0001F93CF93DF9300D000D000D0CDB7DEB71D
:1024B0008C017C018AE0E80EF11C65C062ED71E0E0
:1024C0008FEC92E00E94D81BF80180859185181648
:1024D00019061CF081E0808B02C0F801108A6FEDB4
:1024E00071E08FEC92E00E94B91BF8016285738560
:1024F0008FEC92E00E94B91B6DEE71E08FEC92E0E0
:102500000E94B91BF801608571854AE050E08FECAC
:1025100092E00E949B1C4CC0F80164857585428541
:102520005385641B750B6E5F7F4F1A8219821C8264
:102530001B821E821D82CE0101960E94CF0A8B81D2
:102540009C810E946609F8014485558562857385E2
:1025500020E0CE0101960E94670E6D2DCE010196FE
:102560000E94B70BBE016F5F7F4FC7010E94270F0C
:10257000CE0101960E94A009F801208531852F5FC8
:102580003F4F318720878FEC92E00E94791918160F
:10259000190674F4F801808591854C974CF48FEC02
:1025A00092E00E94A819D82EFAE08F13B5CF86CFFB
:1025B00026960FB6F894DEBF0FBECDBFDF91CF9148
:1025C0001F910F91FF90EF90DF9008950F931F934D
:1025D000CF93DF9300D000D000D0CDB7DEB78C0111
:1025E0000E9492148823E9F1C8010E947A14C8015C
:1025F0000E944C12F8018089811133C06EEF71E0A6
:102600008FEC92E00E94D81BC8010E946B1081E001
:10261000F801808B1A8219821C821B821E821D8205
:1026200061E070E0CE0101960E94CF0A89819A8113
:102630009C838B830E946609BE016F5F7F4FC80138
:1026400041960E94380FCE0101960E94AB09F80115
:102650001186108648E451E0BA01C8010A960E942A
:10266000E60E26960FB6F894DEBF0FBECDBFDF9103
:10267000CF911F910F9108956F927F928F929F92A9
:10268000AF92BF92CF92DF92EF92FF920F931F9380
:10269000CF93DF93EC017B016A014217530709F4E2
:1026A000A8C08901041B150B6A817B818C819D81E7
:1026B000861B970B081719070CF05EC05B01AE185C
:1026C000BF0866246394712C660E771EA016B106AF
:1026D000ECF0601B710B6F5F7F4FA301461B570B24
:1026E000C3010E94ED1D8A819B81800F911F9B83F6
:1026F0008A83A501401B510B4F5F5F4FB701C70194
:10270000800F911F0E94ED1DA80124C045018FEF8D
:10271000881A980A840E951EA90148195909B4010E
:10272000C3010E94ED1D0A191B098A819B81800F3C
:10273000911F9B838A83A3014E195F09B7010E94F1
:10274000ED1D8A819B818A0D9B1D9B838A838C183A
:102750009D08A401B601C701DF91CF911F910F9190
:10276000FF90EF90DF90CF90BF90AF909F908F90B1
:102770007F906F900C94E41D88819981681B790B80
:102780006F5F7F4FC8010431110510F484E190E0C0
:102790004B01880E991EC4010E94B20A5C01688137
:1027A00079813701661A770AA3010E94ED1D6A0C30
:1027B0007B1CA801B601C3010E94ED1D060D171D6B
:1027C000CA80DB80CE18DF08A601B701C8010E94CD
:1027D000ED1D0C0D1D1DC8010E946609CE010E9451
:1027E000A009B982A8821B830A83A80CB91CBD82E8
:1027F000AC82DF91CF911F910F91FF90EF90DF900E
:10280000CF90BF90AF909F908F907F906F900895E2
:102810004F925F926F927F928F929F92AF92BF92F0
:10282000CF92DF92EF92FF920F931F93CF93DF939C
:10283000EC01CB013901542E452E7901488D598D7B
:10284000088919894B01820E931E2A893B89201B16
:10285000310B241B350B63012615370508F469017C
:10286000C40ED51EC00ED11E040F151F5401A81A88
:10287000B90A9601201B310B2A153B0574F0A501FE
:10288000BC01C8010E94E41DB8016A0D7B1DA601B0
:10289000CE0142960E943E0913C05C01A20EB31EF7
:1028A0009501281B390BA901BC01C8010E94E41D38
:1028B00000E09401A501B601CE0140960E943C13B0
:1028C000888D998D8E0D9F1D998F888FB301852DD1
:1028D000942DDF91CF911F910F91FF90EF90DF909A
:1028E000CF90BF90AF909F908F907F906F905F90B0
:1028F0004F900895CF93DF93EC010E9430176C83C3
:102900007D838E839F83DF91CF910895AB016627EE
:1029100057FD6095762FFC0140835183628373835A
:102920000C947A140F931F93CF93DF93EC010E94C2
:1029300030170C811D812E813F81601B710B820B32
:10294000930B41E0088119812A813B810617170703
:10295000280739070CF040E0842FDF91CF911F91B9
:102960000F910895CF92DF92EF92FF920F931F93F2
:10297000FC01108211821282138214821582168247
:1029800017821086118612861386448755876687BC
:102990007787C08AD18AE28AF38A048B158B268BCB
:1029A000378B81E09FEF918F808F8FEF90E0938F37
:1029B000828F81E0848F1F910F91FF90EF90DF90C5
:1029C000CF900895FC0140875187628773870895EF
:1029D0002F923F924F925F926F927F928F929F922F
:1029E000AF92BF92CF92DF92EF92FF920F931F931D
:1029F000CF93DF93EC018C8D882309F49EC09A015C
:102A0000AB01688579858A859B850E94291E3B01DB
:102A10004C01288939894A895B89772D992D0E9433
:102A20001D201B012C012C813D814E815F81732D66
:102A3000952D0E942A1E5B016C01862F9B2DAC2DCB
:102A4000BD2D8C839D83AE83BF83288139814A81CC
:102A50005B81662D772D882D992D0E94291E7B0183
:102A60008C01862D972DA82DB92D88839983AA8353
:102A7000BB832C853D854E855F85662D772D882D02
:102A8000992D0E941D202A2D3B2D4C2D5D2D0E943D
:102A90002A1E3B014C012C893D894E895F896E2D90
:102AA0007F2D802F912F0E941D209B01AC01C4011E
:102AB000B3010E942A1E7B018C016A8D7B8D8827C1
:102AC00077FD8095982F0E94301F3B014C01762F97
:102AD000272F372D482D592D6E2D7F2D802F912F8B
:102AE0000E94192018160CF417C0688D798D88275C
:102AF00077FD8095982F0E94301F3B014C01762F67
:102B0000272F372D482D592D6E2D7F2D802F912F5A
:102B10000E948E1E87FF15C0222D332D442D552D6A
:102B20006A2D7B2D8C2D9D2D0E94291E6C837D830B
:102B30008E839F837301840104C0E12CF12C00E09B
:102B400010E06E2D7F2D802F912FDF91CF911F915F
:102B50000F91FF90EF90DF90CF90BF90AF909F903C
:102B60008F907F906F905F904F903F902F9008953F
:102B7000CB010895CF93DF9343E050E064E877E022
:102B800081E00E940B1643E050E063EA77E080E0CA
:102B90000E940B1640E855E260E070E08FEC92E096
:102BA0000E94931A61E086E00E94A71761E085E029
:102BB0000E94A71761E08AE00E94A71761E089E000
:102BC0000E94A71782E990E00E94771BEC010E9407
:102BD000A100D093C102C093C00289E490E00E949A
:102BE000771BEC016091C0027091C1020E94FC0A47
:102BF000D093BF02C093BE02DF91CF910895809120
:102C0000BE029091BF020E94E6128091C002909194
:102C1000C1020C9438028230E8F4E82FF0E0EE0FA5
:102C2000FF1FEE53FD4F71836083813041F080912F
:102C300069008C7F842B80936900E89A08958091C5
:102C40006900440F551F440F551F837F842B8093C9
:102C50006900E99A08951F920F920FB60F921124FE
:102C60002F933F934F935F936F937F938F939F9394
:102C7000AF93BF93EF93FF938091C2029091C302F1
:102C8000892B29F0E091C202F091C3020995FF91CE
:102C9000EF91BF91AF919F918F917F916F915F91D4
:102CA0004F913F912F910F900FBE0F901F9018954D
:102CB0001F920F920FB60F9211242F933F934F93B1
:102CC0005F936F937F938F939F93AF93BF93EF9394
:102CD000FF938091C4029091C502892B29F0E09165
:102CE000C402F091C5020995FF91EF91BF91AF9198
:102CF0009F918F917F916F915F914F913F912F9114
:102D00000F900FBE0F901F9018951F93CF93DF93D6
:102D1000182FEB0161E00E94A717209711F460E0E3
:102D200004C0CF3FD10539F461E0812FDF91CF910D
:102D30001F910C94DF17E12FF0E0EA57FF4FE49169
:102D4000E330B9F028F4E13051F0E230B1F50CC0D5
:102D5000E63019F1E73049F1E43079F514C084B573
:102D6000806884BDC7BD2EC084B5806284BDC8BDE7
:102D700029C080918000806880938000D093890072
:102D8000C09388001FC08091800080628093800083
:102D9000D0938B00C0938A0015C08091B0008068EA
:102DA0008093B000C093B3000DC08091B0008062EA
:102DB0008093B000C093B40005C0C038D1050CF0BA
:102DC000B3CFADCFDF91CF911F9108951F920F9296
:102DD0000FB60F9211242F933F938F939F93AF932E
:102DE000BF938091C6029091C702A091C802B09192
:102DF000C9023091CE02232F2D5F2D3720F401968A
:102E0000A11DB11D05C0232F2A570296A11DB11D7A
:102E10002093CE028093C6029093C702A093C8026B
:102E2000B093C9028091CA029091CB02A091CC02CA
:102E3000B091CD020196A11DB11D8093CA0290935D
:102E4000CB02A093CC02B093CD02BF91AF919F91E2
:102E50008F913F912F910F900FBE0F901F9018955B
:102E60000F931F938FB7F8940091C6021091C70279
:102E70002091C8023091C9028FBFB801C9011F91CA
:102E80000F910895789484B5826084BD84B5816083
:102E900084BD85B5826085BD85B5816085BDEEE662
:102EA000F0E0808181608083E1E8F0E01082808141
:102EB00082608083808181608083E0E8F0E08081AF
:102EC00081608083E1EBF0E0808184608083E0EBCF
:102ED000F0E0808181608083EAE7F0E080818460B7
:102EE0008083808182608083808181608083808113
:102EF000806880831092C1000895833069F028F4BF
:102F00008130A1F0823011F514C08630B1F08730E5
:102F1000C1F08430D9F404C0809180008F7703C061
:102F2000809180008F7D80938000089584B58F7795
:102F300002C084B58F7D84BD08958091B0008F77E5
:102F400003C08091B0008F7D8093B0000895CF932F
:102F5000DF9390E0FC01E656FF4F4491FC01E255FF
:102F6000FF4F8491882341F190E0880F991FFC0165
:102F7000EA52FF4F25913491D90184539F4FFC01B0
:102F800085919491C82FD92F9FB7F8948C91611196
:102F900006C0409584238C938881842308C06230C6
:102FA00041F4242F209582238C938881842B88835D
:102FB00002C0842B8C939FBFDF91CF9108950F9314
:102FC0001F93CF93DF931F92CDB7DEB7282F30E04A
:102FD000F901EA57FF4F8491F901E656FF4F14912A
:102FE000F901E255FF4F04910023D1F0882321F02D
:102FF00069830E947D176981E02FF0E0EE0FFF1FCB
:10300000E453FF4F85919491DC019FB7F8948C9124
:10301000611103C01095812301C0812B8C939FBF48
:103020000F90DF91CF911F910F910895CF93DF9370
:10303000282F30E0F901EA57FF4F8491F901E65655
:10304000FF4FD491F901E255FF4FC491CC2389F091
:1030500081110E947D17EC2FF0E0EE0FFF1FEE5361
:10306000FF4F85919491DC018C918D2321E030E01C
:1030700011F420E030E0C901DF91CF9108950F9362
:103080001F93CF93DF938230910510F482E090E09C
:10309000E0917B03F0917C0320E030E0C0E0D0E0E1
:1030A00023C04081518148175907A8F04817590794
:1030B00061F482819381209719F09B838A832EC0CB
:1030C00090937C0380937B0329C02115310529F05F
:1030D0004217530710F0A90102C0BE01DF010281AF
:1030E0001381EF019A01F8013097D9F621153105C6
:1030F00009F1281B390B2430310590F412968D917B
:103100009C9113976115710521F0FB0193838283D4
:1031100004C090937C0380937B03FD01329644C0EE
:10312000FD01E20FF31F81939193225031092D93FA
:103130003C933AC02091790330917A03232B41F4D8
:10314000209102013091030130937A032093790397
:1031500020910001309101012115310541F42DB775
:103160003EB74091040150910501241B350BE091BD
:103170007903F0917A03E217F307A0F42E1B3F0BBB
:103180002817390778F0AC014E5F5F4F24173507D9
:1031900048F04E0F5F1F50937A0340937903819359
:1031A000919302C0E0E0F0E0CF01DF91CF911F9159
:1031B0000F910895EF92FF920F931F93CF93DF9398
:1031C000009709F48FC0DC01129713961C921E928F
:1031D0001297E0907B03F0907C03E114F10489F4F2
:1031E0002D913C911197280F391F8091790390916F
:1031F0007A038217930789F5B0937A03A093790332
:1032000071C0E70120E030E001C0EA01CA17DB0726
:1032100038F44A815B819E0141155105B1F722C006
:10322000BC0162507109FB01D383C283008111810B
:10323000AC01400F511F4C175D0761F44881598163
:10324000400F511F4E5F5F4F518340834A815B8126
:10325000538342832115310529F4B0937C03A09355
:103260007B0340C0F901B383A283E901699179919D
:10327000C60FD71FAC17BD0779F4DC015E914E91E4
:10328000460F571F4E5F5F4F5183408312968D91BB
:103290009C91139793838283A0E0B0E002C0D70192
:1032A0007C01F701828193810097C9F7C7010296DB
:1032B00020813181820F931F2091790330917A030D
:1032C0002817390779F4109729F410927C0310928B
:1032D0007B0304C013961C921E921297F0927A03FD
:1032E000E0927903DF91CF911F910F91FF90EF90C2
:1032F0000895FC0184859585FC01E05CFF4F2081E9
:103300003181FC01EE5BFF4F80819181281B390BDD
:103310002F733327C9010895FC0184859585FC012D
:10332000E05CFF4F40815181FC01EE5BFF4F20814B
:1033300031814217530741F00190F081E02DE80FF1
:10334000F91F208130E002C02FEF3FEFC90108953F
:10335000FC0184859585FC01E05CFF4F4081518133
:10336000FC01EE5BFF4F208131814217530781F052
:10337000A081B181A80FB91F8C91208131812F5F6D
:103380003F4F2F73332731832083282F30E002C033
:103390002FEF3FEFC9010895FC0181A1882329F097
:1033A000A489B5898C9186FFFBCF11A20895CF9394
:1033B000DF93FC0126853785D901A05CBF4F8D9135
:1033C0009C91119701968F739927E901CE5BDF4F8E
:1033D0004881598184179507D9F30D90BC91A02D90
:1033E000A20FB31F6C93A685B785A05CBF4F119643
:1033F0009C938E93A689B7892C9181E090E0078CED
:1034000002C0880F991F0A94E2F7282B2C9381E0C1
:1034100081A30488F589E02D80818064808381E028
:1034200090E0DF91CF91089508951F920F920FB60B
:103430000F9211242F933F934F938F939F93EF936A
:10344000FF938091C00082FD1CC04091C600809116
:1034500075039091760301968F73992720917703D6
:10346000309178038217930771F0E0917503F09122
:103470007603EB5CFC4F4083909376038093750357
:1034800002C08091C600FF91EF919F918F914F9163
:103490003F912F910F900FBE0F901F9018958FECBA
:1034A00092E00E947919892B11F00C94141A089556
:1034B0001F920F920FB60F9211242F933F938F9369
:1034C0009F93EF93FF9320913103309132038091CA
:1034D0003303909134032817390731F48091C100E8
:1034E0008F7D8093C10014C0E0913303F0913403C9
:1034F000EF50FD4F2081809133039091340301966A
:103500008F73992790933403809333032093C600DD
:10351000FF91EF919F918F913F912F910F900FBE4F
:103520000F901F901895CF92DF92EF92FF92CF935A
:10353000DF93EC016A017B01411581EE58076105BB
:103540007105F9F0EC89FD8981E090E008A002C0E6
:10355000880F991F0A94E2F7808360E079E08DE399
:1035600090E0A70196010E945B2421503109410996
:1035700051095695479537952795211580E13807CC
:1035800098F0EC89FD89108260E874E88EE190E0A3
:10359000A70196010E945B2421503109410951097C
:1035A0005695479537952795E889F9893083EA89B3
:1035B000FB89208319A2EE89FF89408181E090E098
:1035C0009C010C8C02C0220F331F0A94E2F7422B9D
:1035D0004083EE89FF8940819C010D8C02C0220F3F
:1035E000331F0A94E2F7422B4083EE89FF89408122
:1035F0009C010E8C02C0220F331F0A94E2F7422B6B
:103600004083EE89FF8920810F8C02C0880F991FAB
:103610000A94E2F7809582238083DF91CF91FF9017
:10362000EF90DF90CF9008951092D2021092D102C5
:1036300088EE93E0A0E0B0E08093D3029093D402B0
:10364000A093D502B093D60289E992E09093D0027C
:103650008093CF0285E393E09093DC028093DB02BA
:1036600081EF92E09093DE028093DD0285EC90E0A2
:103670009093E0028093DF0284EC90E09093E2026A
:103680008093E10280EC90E09093E4028093E30267
:1036900081EC90E09093E6028093E50282EC90E06A
:1036A0009093E8028093E70286EC90E09093EA0220
:1036B0008093E90284E08093EB0283E08093EC0244
:1036C00087E08093ED0285E08093EE0281E08093B5
:1036D000EF0208950E9442170E94BA15CFE4DAE182
:1036E0000E94FF152097E1F30E944F1AF9CF0C9426
:1036F0003F180C94DA18CF92DF92EF92FF920F935B
:103700001F93CF93DF936C01EB017A01E60EF71E56
:1037100000E010E00BC06991D601ED91FC910190A1
:10372000F081E02DC6010995080F191FCE15DF05A0
:1037300091F7C801DF91CF911F910F91FF90EF900A
:10374000DF90CF9008956115710581F0DB010D9038
:103750000020E9F7AD0141505109461B570BDC0130
:10376000ED91FC910280F381E02D099480E090E0DE
:1037700008950C94A31BDC01ED91FC910190F08164
:10378000E02D09940F931F93CF93DF93EC016DE02D
:103790000E94BB1B8C016AE0CE010E94BB1B9C01F6
:1037A000200F311FC901DF91CF911F910F91089513
:1037B0000F931F93CF93DF93EC010E94A31B8C0107
:1037C000CE010E94C21B9801280F391FC901DF9149
:1037D000CF911F910F9108954F925F926F927F92B8
:1037E0009F92AF92BF92CF92DF92EF92FF920F9390
:1037F0001F93CF93DF93CDB7DEB7A1970FB6F894A1
:10380000DEBF0FBECDBF5C016A017B01922E19A203
:1038100081E0821710F08AE0982E8E010F5D1F4F15
:10382000492C512C612C712CC701B601A3019201C6
:103830000E945B248C2D929E801911240150110945
:103840008A3014F4805D01C0895CF80180836901CD
:103850007A01C114D104E104F10431F7B801C501C2
:103860000E94A31BA1960FB6F894DEBF0FBECDBF7A
:10387000DF91CF911F910F91FF90EF90DF90CF904C
:10388000BF90AF909F907F906F905F904F90089502
:10389000CF92DF92EF92FF920F931F93CF93DF931C
:1038A000EC016A017B012115310579F4E881F98188
:1038B0000190F081E02D642FDF91CF911F910F9146
:1038C000FF90EF90DF90CF9009942A30310519F4E2
:1038D00077FD0EC02AE0B701A601CE01DF91CF919E
:1038E0001F910F91FF90EF90DF90CF900C94EC1B05
:1038F0006DE20E94BB1B8C0144275527BA014C196D
:103900005D096E097F092AE0CE010E94EC1B080FB9
:10391000191FC801DF91CF911F910F91FF90EF9078
:10392000DF90CF9008959A01AB01662757FD60950F
:10393000762F0C94481C0F931F93CF93DF93EC01C9
:103940009A01AB01662757FD6095762F0E94481CAF
:103950008C01CE010E94C21B9801280F391FC9019A
:10396000DF91CF911F910F9108957F928F929F9237
:10397000AF92BF92CF92DF92EF92FF920F931F937D
:10398000CF93DF93EC016A017B01122F9A01AB0107
:10399000C701B6010E94C820882319F065EA72E0C9
:1039A00032C046015701E894B7F82FEF3FEF4FE7D9
:1039B0005FE7C501B4010E94C82081110DC02FEF3F
:1039C0003FEF4FE75FE7C501B4010E948E1E181656
:1039D0001CF469EA72E017C02FEF3FEF4FE75FE496
:1039E000C701B6010E94192018160CF40AC02FEF67
:1039F0003FEF4FE75FECC701B6010E948E1E87FFC5
:103A000012C06DEA72E0CE01DF91CF911F910F914C
:103A1000FF90EF90DF90CF90BF90AF909F908F90EE
:103A20007F900C94A31B20E030E0A901C701B601F0
:103A30000E948E1E87FF0AC06DE2CE010E94BB1B52
:103A40005C01F7FAF094F7F8F09402C0A12CB12CC5
:103A500000E060E070E080E09FE307C020E030E03D
:103A600040E251E40E94951E0F5F0113F7CF262F0D
:103A7000372F482F592FC701B6010E942A1E762ED4
:103A8000872E982EC92E0E94021FD62EE72EF82EC2
:103A9000092F0E942E1F9B01AC01672D782D892DC7
:103AA0009C2D0E94291EC62E972E882E792E2AE044
:103AB0004D2D5E2D6F2D702FCE010E94EC1B7C01D1
:103AC000EA0CFB1C1123B9F161EB72E0CE010E94FC
:103AD000A31BE80EF91E2FC020E030E040E251E4C5
:103AE0006C2D792D882D972D0E941D20762E072F65
:103AF0006C019D2D0E94FD1E4B01AA2497FCA094F1
:103B0000BA2C2AE030E0B501A401CE010E94481C85
:103B1000E80EF91EC501B4010E94301F9B01AC01E3
:103B2000672D702F8C2D9D2D0E94291EC62E972E3D
:103B3000882E792E11501111CFCFC701DF91CF916F
:103B40001F910F91FF90EF90DF90CF90BF90AF90BB
:103B50009F908F907F9008950C94B51CFC0188274E
:103B60009927E89421912032E9F3293010F02E3082
:103B7000C8F32B3241F02D3239F4689404C00E940E
:103B8000061E820F911D219120532A30C0F31EF48E
:103B9000909581959F4F0895F8940C94BA249111B3
:103BA000D6C5803219F089508550D0F70895FB01B1
:103BB000DC0104C08D910190801921F441505040E6
:103BC000C8F7881B990B0895FB01DC0102C0019026
:103BD0000D9241505040D8F708956817790768F45E
:103BE000FB01DC01E40FF51FA40FB51F02C002901A
:103BF0000E9241505040D8F708950C94E41DDC011A
:103C000001C06D9341505040E0F708957AE0979FCE
:103C1000902D879F802D910D11240895A0E1B0E093
:103C2000E4E1FEE10C948D2485E08C838D899E89EE
:103C30009A838983AE01475E5F4F588B4F876F89A8
:103C4000788DCE0101960E9479226096E2E00C9474
:103C5000A9245058BB27AA270ED0A0C169D130F0A3
:103C60006ED120F031F49F3F11F41EF45EC10EF4CA
:103C7000E095E7FB54C1E92FB3D180F3BA1762078F
:103C800073078407950718F071F49EF5CBC10EF405
:103C9000E0950B2EBA2FA02D0B01B90190010C015C
:103CA000CA01A0011124FF27591B99F0593F50F474
:103CB000503E68F11A16F040A22F232F342F4427CC
:103CC000585FF3CF469537952795A795F0405395C4
:103CD000C9F77EF41F16BA0B620B730B840BBAF094
:103CE0009150A1F0FF0FBB1F661F771F881FC2F7FF
:103CF0000EC0BA0F621F731F841F48F48795779513
:103D00006795B795F7959E3F08F0B3CF9395880FC9
:103D100008F09927EE0F979587950895DCD008F461
:103D200081E0089514D1E3954AC10CD037C107D181
:103D300040F0FED030F021F45F3F19F0F0C0511197
:103D400072C1F3C04DD198F39923C9F35523B1F350
:103D5000951B550BBB27AA2762177307840738F0FA
:103D60009F5F5F4F220F331F441FAA1FA9F333D059
:103D70000E2E3AF0E0E830D091505040E695001C0D
:103D8000CAF729D0FE2F27D0660F771F881FBB1FC9
:103D9000261737074807AB07B0E809F0BB0B802DA3
:103DA000BF01FF2793585F4F2AF09E3F510568F0EF
:103DB000B6C039C15F3FECF3983EDCF3869577954A
:103DC0006795B795F7959F5FC9F7880F911D9695F1
:103DD000879597F90895E1E0660F771F881FBB1F4D
:103DE000621773078407BA0720F0621B730B840BFA
:103DF000BA0BEE1F88F7E095089504D06894B111CE
:103E000012C10895F5D088F09F5790F0B92F9927E7
:103E1000B751A0F0D1F0660F771F881F991F1AF0D5
:103E2000BA95C9F712C0B13081F0FCD0B1E0089565
:103E3000F9C0672F782F8827B85F39F0B93FCCF3E6
:103E4000869577956795B395D9F73EF490958095CB
:103E5000709561957F4F8F4F9F4F0895E89409C0EB
:103E600097FB3EF490958095709561957F4F8F4FAD
:103E70009F4F9923A9F0F92F96E9BB279395F695C3
:103E8000879577956795B795F111F8CFFAF4BB0F41
:103E900011F460FF1BC06F5F7F4F8F4F9F4F16C0A5
:103EA000882311F096E911C0772321F09EE8872F2F
:103EB000762F05C0662371F096E8862F70E060E0EB
:103EC0002AF09A95660F771F881FDAF7880F969564
:103ED000879597F90895990F0008550FAA0BE0E808
:103EE000FEEF16161706E807F907C0F012161306BC
:103EF000E407F50798F0621B730B840B950B39F4FC
:103F00000A2661F0232B242B252B21F408950A2661
:103F100009F4A140A6958FEF811D811D089597F9A1
:103F20009F6780E870E060E008959FEF80EC08955F
:103F300000240A9416161706180609060895002488
:103F40000A9412161306140605060895EECF50D0F3
:103F5000E8F3E894E0E0BB279F57F0F02AED3FE05C
:103F600049EC06C0EE0FBB0F661F771F881F28F0B5
:103F7000B23A62077307840728F0B25A620B730BD8
:103F8000840BE3959A9572F7803830F49A95BB0FBD
:103F9000661F771F881FD2F7904844C4092E0394E8
:103FA000000C11F4882352F0BB0F40F4BF2B11F426
:103FB00060FF04C06F5F7F4F8F4F9F4F0895EF9357
:103FC000E0FF06C0A2EA2AED3FE049EC5FEB53DEDA
:103FD000E5DF0F90039401FC9058E8E6F0E035C46B
:103FE00057FD9058440F551F59F05F3F71F04795AA
:103FF000880F97FB991F61F09F3F79F0879508958F
:10400000121613061406551FF2CF4695F1DF08C0AD
:10401000161617061806991FF1CF869571056105CA
:1040200008940895E894BB2766277727CB0197F972
:10403000089551DF08F48FEF08950BD0AFCF78DFEC
:1040400028F07DDF18F0952309F069CF6ECF112499
:10405000EACFC6DFA0F3959FD1F3950F50E0551F2F
:10406000629FF001729FBB27F00DB11D639FAA27CD
:10407000F00DB11DAA1F649F6627B00DA11D661F1C
:10408000829F2227B00DA11D621F739FB00DA11D3D
:10409000621F839FA00D611D221F749F3327A00DF7
:1040A000611D231F849F600D211D822F762F6A2F93
:1040B00011249F5750408AF0E1F088234AF0EE0F18
:1040C000FF1FBB1F661F771F881F91505040A9F725
:1040D0009E3F510570F023CFA6CF5F3FECF3983E93
:1040E000DCF3869577956795B795F795E7959F5F8C
:1040F000C1F7FE2B880F911D9695879597F9089526
:104100009F9325DF0F9007FCEE5F59CF11F40EF45B
:104110000CCF86C36DDFD0F39923D9F3CEF39F572D
:10412000550B87FF8BD30024A0E640EA900180580E
:104130005695979528F4805C660F771F881F20F0AE
:1041400026173707480730F4621B730B840B2029AE
:1041500031294A2BA69517940794202531254A2703
:1041600058F7660F771F881F20F026173707480774
:1041700030F4620B730B840B200D311D411DA09593
:1041800081F7B901842F9158880F969587950895E6
:10419000A2DE880B990B089520FD09C0FC0123FDC8
:1041A00005C022FF02C07383628351834083089558
:1041B000CF92DF92EF92FF920F931F9344FD10C0B6
:1041C00046FD10C0DB01FC01AA0FBB1FEE1FFF1F45
:1041D0001094D1F76A0F7B1F8E1F9F1F31E003C021
:1041E00033E001C034E0660F771F881F991F3150FC
:1041F000D1F76B017C01C20ED11CE11CF11C9701AF
:104200008601B601C9011F910F91FF90EF90DF90D9
:10421000CF9008950F931F93CF93DF938C01C80124
:104220000E94B523EC0197FD08C00E94CF1D892B89
:10423000B1F7B801CE010E94F523CE01DF91CF91F5
:104240001F910F9108958F929F92AF92CF92DF921C
:10425000EF92FF920F931F93CF93DF93EC01A62E63
:104260004A01022F0E94B523FC01FF27EB32F10522
:1042700019F0BD9751F40068AA9411F480E063C06E
:10428000CE010E94B52397FDF9CF102F1D7F302F4F
:104290003073E1F48033D1F4AA9409F440C0CE0124
:1042A0000E94B52397FD3BC0883711F0883549F44B
:1042B0001264AA94A1F1CE010E94B52397FF06C013
:1042C0002EC006FF02C0126001C01261C12CD12CA9
:1042D0007601282F2053283080F014FF04C0BE013F
:1042E0000E94F52319C02A3040F016FFF8CF2F7D29
:1042F000322F3151363098F72750412FC701B60180
:104300000E94D8206B017C011260AA9459F0CE0162
:104310000E94B52397FFDDCF11FD04C0AFCFC12CA4
:10432000D12C760117FF08C0F094E094D094C0948B
:10433000C11CD11CE11CF11C212FB701A601C40135
:104340000E94CC2081E0DF91CF911F910F91FF90CF
:10435000EF90DF90CF90AF909F908F9008956F92E5
:104360007F929F92AF92BF92CF92DF92EF92FF9295
:104370000F931F93CF93DF93CDB7DEB7A1970FB6FF
:10438000F894DEBF0FBECDBF6C017A018901FE013A
:10439000319680E2DF011D928A95E9F7D6011396E6
:1043A0009C9020E030E0A12CA0E0B12CCF0141E0B6
:1043B00050E0F80193FC759193FE71918F0171119A
:1043C00003C000E010E080C07E3519F421153105EE
:1043D00059F1EB2DF0E0E217F3073CF47D3569F17C
:1043E0007D3219F4AA2319F103C0A11101C0A72E2F
:1043F000E72FE695E695E6953C016E0E711CF301FC
:10440000A72FA7703A0102C0660C771CAA95E2F7A5
:10441000D301B081BA2BB0837A1559F07A1510F414
:104420007F5FE6CF7150E4CFBB24B39403C0A1E01B
:1044300001C0A0E02F5F3F4FBCCFAA2319F08E81AF
:1044400080628E83B11003C0BB24B3940BC0FE0105
:104450003196CE018196208120952193E817F907A6
:10446000D1F7F2CFC60169A30E94B52369A197FDD8
:1044700024C0282F269526952695E1E0F0E0EC0F44
:10448000FD1FE20FF11D208130E0AC014770552780
:1044900002C0359527954A95E2F720FD04C0B60184
:1044A0000E94F5230AC0E114F10419F0D7018D939D
:1044B0007D016150B12CB1F602C0B11082CFE11480
:1044C000F10411F0F7011082C801A1960FB6F8941B
:1044D000DEBF0FBECDBFDF91CF911F910F91FF9037
:1044E000EF90DF90CF90BF90AF909F907F906F90B4
:1044F00008954F925F927F928F929F92AF92BF9258
:10450000CF92DF92EF92FF920F931F93CF93DF939F
:104510001F92CDB7DEB78C012B015A01FC01178227
:104520001682812CF0C08E2D90E00E94CF1D892B29
:1045300021F0C8010E940A21E6C0F5E2EF120AC08C
:10454000F201F3FC3591F3FE31912F01353271F414
:1045500055E2E52EC8010E94B52397FDDFC0E8169D
:1045600009F4D1C0B8010E94F523DAC03A3241F40F
:10457000F3FC3591F3FE31912F019924939401C0FE
:10458000912C712C10C0F2E09F2A672D70E080E022
:1045900090E040E20E94D820762EF201F3FC3591A3
:1045A000F3FE31912F01232F20532A3060F391FE27
:1045B00003C0711003C0B4C077247A94383619F060
:1045C0003C3699F40AC0F201F3FC3591F3FE3191C7
:1045D0002F01383651F4F8E09F2A84E0982AF2013E
:1045E000F3FC3591F3FE31912F01332309F498C088
:1045F000632F70E080EE90E039830E94AA23398116
:10460000892B09F48DC090FC07C0F501E080F18092
:1046100082E0A80EB11C02C0E12CF12C3E3651F410
:10462000F8014681578160E070E0292DC7010E94A2
:10463000CC2069C0333691F491FC02C07724739486
:10464000C8010E94B52397FD69C0E114F10419F077
:10465000F70181937F017A9499F753C03B3559F460
:104660009201A701672DC8010E94AF212C0100977C
:1046700009F047C041C0C80139830E940A2139812D
:1046800097FD4CC03F3659F128F4343629F13936BC
:1046900049F52AC0333719F0353721F51DC0C80157
:1046A0000E94B5236C0197FD11C00E94CF1D892B7C
:1046B00029F0B801C6010E94F52308C0E114F104F5
:1046C00019F0F701C1927F017A9449F7E114F104DE
:1046D000C1F0F701108215C0F0E29F2A05C080E109
:1046E000982A02C090E4992A292DA701672DC801B4
:1046F0000E942321811105C0F8018381807371F428
:104700000FC090FE8394F801F380F201F3FCE59072
:10471000F3FEE1902F01E11006CF02C0882019F0CE
:10472000282D30E002C02FEF3FEFC9010F90DF913D
:10473000CF911F910F91FF90EF90DF90CF90BF909E
:10474000AF909F908F907F905F904F9008959927A2
:1047500088270895FC010590061621F00020D9F75E
:10476000C00108953197CF010895CF93DF93EC01F5
:104770003B8130FF34C036FF0AC03F7B3B838E81D4
:104780009F8101969F838E832A8130E02AC032FF69
:104790000FC0E881F9818081992787FD9095009766
:1047A00019F430623B831BC03196F983E8830EC055
:1047B000EA85FB85099597FF09C02B81019611F4C5
:1047C00080E101C080E2822B8B8309C02E813F8172
:1047D0002F5F3F4F3F832E839C01332702C02FEF73
:1047E0003FEFC901DF91CF910895FB01238120FFA5
:1047F00013C026FD11C08F3F3FEF930769F08283FE
:104800002F7D20642383268137812150310937830E
:1048100026839C01332702C02FEF3FEFC901089583
:104820009F3F31F0915020F4879577956795B79524
:10483000880F911D9695879597F90895915050404E
:10484000660F771F881FD2F708959F938F937F93EA
:104850006F93FF93EF939B01AC01EFDBEF91FF911F
:1048600005D02F913F914F915F91E7CBDF93CF938D
:104870001F930F93FF92EF92DF927B018C0168945C
:1048800005C0DA2EEF01E5DBFE01E894A591259144
:10489000359145915591AEF3EF01EDD9FE019701A8
:1048A000A801DA9479F7DF90EF90FF900F911F91B4
:1048B000CF91DF910895A1E21A2EAA1BBB1BFD0127
:1048C0000DC0AA1FBB1FEE1FFF1FA217B307E407EF
:1048D000F50720F0A21BB30BE40BF50B661F771F47
:1048E000881F991F1A9469F7609570958095909527
:1048F0009B01AC01BD01CF0108952F923F924F92D1
:104900005F926F927F928F929F92AF92BF92CF925F
:10491000DF92EF92FF920F931F93CF93DF93CDB768
:10492000DEB7CA1BDB0B0FB6F894DEBF0FBECDBFE0
:1049300009942A88398848885F846E847D848C84B1
:104940009B84AA84B984C884DF80EE80FD800C81BA
:104950001B81AA81B981CE0FD11D0FB6F894DEBF9D
:104960000FBECDBFED010895EE0FFF1F0590F4912E
:08497000E02D0994F894FFCF3B
:1049780000007D03800020636D6447202000202014
:10498800472020002020636D64442020002020441C
:104998002020002020434150202000202044455062
:1049A80020200020207820203A00202079203A007A
:1049B80020206361703A2020007665637400202C03
:1049C800200074727565005472756500545255451F
:1049D800003100256400256F002558002578002542
:1049E80069006F7264726520696E64203D20004022
:1049F800005265676C616765204F646F005265639C
:104A0800616C206172726965726500526563616CE0
:104A1800206176616E740042464361702000424610
:104A28004176616E636500417272657420526F62EF
:104A38006F740052657072656E647265006572729B
:104A4800200046696E206465206C69676E650045C4
:104A58006E7265676973747265203A20002020734E
:104A6800657269616C5F636F756E74202000636F97
:104A780075636F7500200000000000C909ED09E0AA
:104A8800FFE0FF0000E309F709200000000000C86C
:104A9800072909E0FFE0FF0000D207340900000001
:104AA80000C207220900000000AD09BF0901080281
:104AB80008F20D03080C080F081C08530869088041
:104AC800080814E60B00000000DC071B090108AE0B
:104AD80008B108B408FE07B708BA08FB07E207F9E7
:104AE80007C008BE08060000000000C8072909FA28
:104AF800FFFAFF0000D20734090B021F0229021532
:104B0800027B02850200000000D7197B1B7919A8D7
:104B1800198C19CC196E616E00696E66006F766625
:044B2800002E00005B
:00000001FF
