:100000000C9462000C94C0070C94ED070C948A00C9
:100010000C948A000C948A000C948A000C948A0038
:100020000C948A000C948A000C948A000C948A0028
:100030000C948A000C948A000C948A000C948A0018
:100040000C943B080C948A000C94830B0C94BF0B0B
:100050000C948A000C948A000C948A000C948A00F8
:100060000C948A000C948A00000000070002010032
:100070000003040600000000000000000102040864
:100080001020408001020408102001020408102002
:10009000040404040404040402020202020203032E
:1000A00003030303000000002300260029000000D2
:1000B0000000250028002B0000000000240027007D
:1000C0002A007A0C11241FBECFEFD8E0DEBFCDBFCF
:1000D00011E0A0E0B1E0E4E5F0E202C005900D928D
:1000E000AC3BB107D9F712E0ACEBB1E001C01D9217
:1000F000A238B107E1F710E0C4ECD0E004C02297C9
:10010000FE010E942410C23CD107C9F70E94CA0C0C
:100110000C94F30D0C940000CF93DF93EC010E943C
:100120004501CE010C960E94CC006AE070E0CE0141
:1001300084579F4F0E94D3066EE170E0CE018C562B
:100140009F4F0E94D306FE01E456FF4F44EB58EC4C
:1001500066EB7EE34083518362837383FE01E05646
:10016000FF4F4083518362837383FE01EC55FF4F41
:1001700040E757E766E57CE34083518362837383FE
:10018000FE01E855FF4F11821082C655DF4F1982DC
:100190001882DF91CF9108958F929F92AF92BF9274
:1001A000CF92DF92EF92FF920F931F93CF93DF9343
:1001B000EC010E944501CE010C960E944501CE0142
:1001C00048960E94530119A218A280E48F9380EAF6
:1001D0008F931F921F92812C912C80E2A82E81E494
:1001E000B82EC12CD12C90E9E92E91E4F92E00E033
:1001F00010E0980140E050E068EC72E4CE01849693
:100200000E94DF0681E48F9380E28F931F921F92FA
:10021000812C912C2CE8A22E22E4B22EC12CD12CC0
:1002200076010AE919E929E93EE340E050E060EC93
:100230007FE3CE01835B9F4F0E94DF06FE01EA58F9
:10024000FF4F11821082FE01E858FF4F1182108289
:10025000FE01E258FF4F81E08083C158DF4F888361
:100260008DB79EB708960FB6F8949EBF0FBE8DBF90
:10027000DF91CF911F910F91FF90EF90DF90CF9082
:10028000BF90AF909F908F900895FC0110821182D3
:1002900012821382148215821682178210861186AA
:1002A000128613860895FC01108211821282138235
:1002B000148215821682178208958BE00E948409A9
:1002C0004091C0015091C1016091C2017091C30180
:1002D000019729F44F5F5F4F6F4F7F4F04C041502C
:1002E0005109610971094093C0015093C1016093A4
:1002F000C2017093C30108958CE00E94840940916B
:10030000BC015091BD016091BE017091BF01019788
:1003100029F4415051096109710904C04F5F5F4FD1
:100320006F4F7F4F4093BC015093BD016093BE015E
:100330007093BF01089523E331E0FC0131832083F2
:1003400008952DE731E0FC013183208323E331E080
:10035000378326830895DC01ED91FC913697208147
:100360003181820F931F0C94A1012BE531E0FC0138
:10037000318320830895CF93DF93EC01E881F981E5
:100380000288F389E02D09959C012F3F8FEF3807F4
:1003900029F08D819E8101969E838D83C901DF9115
:1003A000CF910895CB0108958FEF9FEF089580E0DE
:1003B00090E0089508950895242FDC01ED91FC91BB
:1003C0000084F185E02D41E0099480E090E00895FB
:1003D000FC012289338980899189281B390B868900
:1003E0009789281B390BC90108958F929F92AF926C
:1003F000BF92EF92FF92CF93DF93FC01DB01812C40
:10040000912C5401C689D789E088F1888289938923
:100410008E199F09C817D907A0F482169306A4065F
:10042000B5067CF4CE0DDF1D88818D938FEF881A81
:10043000980AA80AB80A868997890196978B868BAD
:10044000E1CFB401C501DF91CF91FF90EF90BF9054
:10045000AF909F908F900895FC012689378940893D
:10046000518982899389841B950B2817390730F4A9
:10047000FA01E20FF31F208130E002C02FEF3FEFBF
:10048000C9010895CF93DF93EC01E881F9810288D7
:10049000F389E02D09959C012F3F8FEF380729F054
:1004A0008E899F8901969F8B8E8BC901DF91CF9199
:1004B0000895FC0186899789009729F1A089B1895F
:1004C000228933892A1B3B0B2817390718F4378BED
:1004D000268B19C001976F3F2FEF720729F4978B76
:1004E000868B60E070E011C0A80FB91F2C91261315
:1004F00003C0978B868B09C0278524FF04C0978B88
:10050000868B6C9302C06FEF7FEFCB01089580E084
:1005100090E0089580E090E0089580E090E00895F4
:1005200080E090E0089560E070E0CB010895CB0199
:1005300008957F928F929F92AF92BF92CF92DF9257
:10054000EF92FF920F931F93CF93DF93EC0149013A
:100550005A018B01C12CD12C76012FC0F80171906A
:100560008F018F8580FF0BC0E881F9810084F185C0
:10057000E02D20E144E060E070E0CE010995EB85DC
:10058000FC858D859E85E817F90738F470828B8588
:100590009C8501969C878B870BC0E881F981028C32
:1005A000F38DE02D672D70E0CE010995019661F085
:1005B0002FEFC21AD20AE20AF20AC814D904EA04D6
:1005C000FB0464F275016401B601C701DF91CF91AC
:1005D0001F910F91FF90EF90DF90CF90BF90AF9061
:1005E0009F908F907F9008952BE531E0FC0131833F
:1005F00020830C94D90C23E331E0FC013183208368
:100600000C94D90C2DE731E0FC013183208323E3E6
:1006100031E0378326830C94D90CDC01ED91FC91F9
:10062000369720813181820F931F0C940203EF9241
:10063000FF920F931F93CF93DF937C01EB018A010D
:1006400064177507A1F0FC0140815181401B510BDB
:100650004F5F5F4FB801CE010E94FF0D0C1B1D0BB9
:10066000F70180819181801B910B91838083CE0162
:10067000DF91CF911F910F91FF90EF900895CF934D
:10068000DF93EC01BC0181E090E00E942907FC01AE
:1006900010821882DF91CF910895FC0180819181B1
:1006A000248135812817390711F00C94480A0895E0
:1006B0000C944D03CF93DF93EC018BE391E099838E
:1006C0008883CE0140960E9458038BE591E0998380
:1006D0008883DF91CF910895CF93DF93EC010E943F
:1006E0005A03CE01DF91CF910C94D90CCF93DF93B5
:1006F000EC018DE091E09983888387E191E099A3F3
:1007000088A3CE0106960E945A0381E291E0998364
:10071000888383E391E099A388A3DF91CF91089523
:10072000DC01ED91FC91369720813181820F931F7E
:100730000C947603CF93DF93EC010E947603CE01F5
:10074000DF91CF910C94D90CDC01ED91FC9136979F
:1007500020813181820F931F0C949A03CF93DF93F2
:10076000EC01009791F0CE010E94AD099C01009729
:1007700071F4E091C401F091C501309721F480E05B
:1007800090E00E94F30D0995EECF20E030E0C90122
:10079000DF91CF9108950F931F93CF93DF93EC01D7
:1007A0008B016F3F8FEF780759F0CB010E94AE03AA
:1007B000998388839B838A83080F191F1D830C8369
:1007C000DF91CF911F910F910895CF93DF93EC01AB
:1007D000198218821B821A821D821C8268E070E0D6
:1007E0000E94CB038A819B81DF91CF910C943F03C0
:1007F000EF92FF920F931F93CF93DF931F92CDB78A
:10080000DEB78C017B0164E670E00E94D306F8013C
:1008100011861086BE016F5F7F4FC8010A960E9445
:10082000E50381E290E0F80195AB84AB16AA17AA24
:1008300010AE46E050E060E070E041AF52AF63AF11
:1008400074AFFD961082118212821382F801EF5B61
:10085000FF4F80E28083F801EE5BFF4F1182108230
:10086000F801EC5BFF4FC801479691838083F80144
:10087000EA5BFF4F1082F801138A148A158A168AE0
:100880008DE091E0928B818B87E191E092AB81AB1F
:10089000138E128E158E148E178E168E11A210A224
:1008A00013A212A215A214A216A28BE391E0908FBC
:1008B000878BBE016F5F7F4FC80187960E94E5035B
:1008C000F80116A615A610AA17A688E086A3E95B6C
:1008D000FF4FF182E08281E0F801808B0F90DF9181
:1008E000CF911F910F91FF90EF900895CF92DF92DB
:1008F000EF92FF920F931F93CF93DF93EC018A81C6
:100900009B8128813981821B930B8617970708F4F6
:10091000CB016C012FEFC21AD20AC6010E94AE03AE
:100920008C0168817981EA80FB80E61AF70AA701C9
:100930000E94FF0DE00EF11EC7010E943F03CE0191
:100940000E944D0319830883FB82EA820C0D1D1D52
:100950001D830C83DF91CF911F910F91FF90EF903A
:10096000DF90CF9008951F93CF93DF93EC01162F64
:100970008A819B819C012F5F3F4F4C815D81421793
:10098000530779F428813981821B930B11F09C0164
:1009900002C021E030E0B901680F791FCE010E944A
:1009A00076048A819B8101960E943F03EA81FB8144
:1009B00010838A819B8101969B838A83DF91CF91EB
:1009C0001F9108950F931F93CF93DF93EC018B0139
:1009D0006F3F8FEF7807E9F08F8584FF1DC0288D6A
:1009E000398D488959898A899B89841B950B2817D9
:1009F000390728F0CE0140960E94B30404C0FA01E2
:100A0000E20FF31F6083888D998D0196998F888FEF
:100A100005C000E010E002C00FEF1FEFC801DF913A
:100A2000CF911F910F9108950F931F93CF93DF9351
:100A30008C01E22FE870322F30712871283121F4B7
:100A4000423009F05DC059C0413011F4EB0129C0BA
:100A50004230D1F4332371F0DC015296CD91DC9118
:100A6000539750968D919C915197C81BD90BC60FE7
:100A7000D71F02C0C0E0D0E0EE2399F0D80156960F
:100A8000CD91DC9157970BC0D8015296CD91DC9156
:100A9000539750968D919C915197C81BD90BC60FB7
:100AA000D71FD80152964D915C91539750966D91F6
:100AB0007C915197CA01861B970B8C179D07E8F014
:100AC000EE2321F05796DC93CE9356973323D9F03B
:100AD0006C0F7D1FC80142960E941703F80182899E
:100AE000938920893189821B930B26893789821744
:100AF000930748F4978B868B06C0CFEFDFEF03C0D8
:100B0000413011F6A3CFCE01DF91CF911F910F910C
:100B100008956F927F928F929F92AF92BF92CF92E1
:100B2000DF92EF92FF920F931F93CF93DF93EC012D
:100B30007B016A014217530709F4A8C08901041B0D
:100B4000150B6A817B818C819D81861B970B081711
:100B500019070CF05EC05B01AE18BF0866246394F1
:100B6000712C660E771EA016B106ECF0601B710B9F
:100B70006F5F7F4FA301461B570BC3010E94FF0D00
:100B80008A819B81800F911F9B838A83A501401BD3
:100B9000510B4F5F5F4FB701C701800F911F0E943C
:100BA000FF0DA80124C045018FEF881A980A840E12
:100BB000951EA90148195909B401C3010E94FF0DEE
:100BC0000A191B098A819B81800F911F9B838A834D
:100BD000A3014E195F09B7010E94FF0D8A819B8115
:100BE0008A0D9B1D9B838A838C189D08A401B601E6
:100BF000C701DF91CF911F910F91FF90EF90DF9090
:100C0000CF90BF90AF909F908F907F906F900C94FB
:100C1000F60D88819981681B790B6F5F7F4FC80142
:100C20000431110510F484E190E04B01880E991E07
:100C3000C4010E94AE035C01688179813701661AA4
:100C4000770AA3010E94FF0D6A0C7B1CA801B60164
:100C5000C3010E94FF0D060D171DCA80DB80CE1850
:100C6000DF08A601B701C8010E94FF0D0C0D1D1D74
:100C7000C8010E943F03CE010E944D03B982A882A1
:100C80001B830A83A80CB91CBD82AC82DF91CF9173
:100C90001F910F91FF90EF90DF90CF90BF90AF909A
:100CA0009F908F907F906F9008954F925F926F9278
:100CB0007F928F929F92AF92BF92CF92DF92EF92EC
:100CC000FF920F931F93CF93DF93EC01CB01390178
:100CD000542E452E7901488D598D088919894B016B
:100CE000820E931E2A893B89201B310B241B350B56
:100CF00063012615370508F46901C40ED51EC00E20
:100D0000D11E040F151F5401A81AB90A9601201B01
:100D1000310B2A153B0574F0A501BC01C8010E94E6
:100D2000F60DB8016A0D7B1DA601CE0142960E9408
:100D3000170313C05C01A20EB31E9501281B390BCB
:100D4000A901BC01C8010E94F60D00E09401A501B3
:100D5000B601CE0140960E948905888D998D8E0D31
:100D60009F1D998F888FB301852D942DDF91CF9191
:100D70001F910F91FF90EF90DF90CF90BF90AF90B9
:100D80009F908F907F906F905F904F900895CF933A
:100D9000DF93EC010E9485086C837D838E839F83A3
:100DA000DF91CF910895AB01662757FD6095762FAF
:100DB000FC0140835183628373830C94C7068F9236
:100DC0009F92AF92BF92CF92DF92EF92FF920F93DA
:100DD0001F93CF93DF93CDB7DEB7FC011082118252
:100DE000128213821482158216821782108611864F
:100DF000128613864487558766877787C08AD18A8B
:100E0000E28AF38A048B158B268B378B808E918E2A
:100E1000A28EB38E4F85588969897A89448F558F00
:100E2000668F778F81E09FEF91A380A38FEF90E093
:100E300093A382A381E084A3DF91CF911F910F91AF
:100E4000FF90EF90DF90CF90BF90AF909F908F90EA
:100E50000895CB010895CF93DF9343E050E06DE513
:100E600071E081E00E94A00743E050E06CE771E090
:100E700080E00E94A00740E855E260E070E087ED66
:100E800091E00E94FA0B61E086E00E944C0961E06B
:100E900085E00E944C0961E08AE00E944C0961E013
:100EA00089E00E944C098CEA90E00E94D70CEC018A
:100EB0000E948C00D093C901C093C80189E490E0DE
:100EC0000E94D70CEC016091C8017091C9010E9489
:100ED000F803D093C701C093C601DF91CF91089565
:100EE00061E070E080E090E00E94C10883E10E9430
:100EF0001A08BC01882777FD8095982F0E94110F52
:100F000020E030E046E953E40E949D0F20E030EC01
:100F10004FE754E40E94760E20E030E048EC52E4C3
:100F20000E94120E0E94DE0E4AE050E087ED91E032
:100F30000E94EB0D67EA71E087ED91E00C94300DB3
:100F40008230E8F4E82FF0E0EE0FFF1FE653FE4F8B
:100F500071836083813041F0809169008C7F842BA4
:100F600080936900E89A089580916900440F551FA5
:100F7000440F551F837F842B80936900E99A08955D
:100F80001F920F920FB60F9211242F933F934F93FE
:100F90005F936F937F938F939F93AF93BF93EF93E1
:100FA000FF938091CA019091CB01892B29F0E091A8
:100FB000CA01F091CB010995FF91EF91BF91AF91DB
:100FC0009F918F917F916F915F914F913F912F9161
:100FD0000F900FBE0F901F9018951F920F920FB693
:100FE0000F9211242F933F934F935F936F937F93AF
:100FF0008F939F93AF93BF93EF93FF938091CC0117
:101000009091CD01892B29F0E091CC01F091CD0197
:101010000995FF91EF91BF91AF919F918F917F9132
:101020006F915F914F913F912F910F900FBE0F9055
:101030001F9018958E3008F08E5087702091000117
:1010400040E4249F90011124822B80937C008091A6
:101050007A00806480937A0080917A0086FDFCCFCC
:101060002091780030917900932F80E0AC01422BE1
:101070009A01C90108951F920F920FB60F92112481
:101080002F933F938F939F93AF93BF938091CE0104
:101090009091CF01A091D001B091D1013091D601B2
:1010A000232F2D5F2D3720F40196A11DB11D05C002
:1010B000232F2A570296A11DB11D2093D60180939C
:1010C000CE019093CF01A093D001B093D101809134
:1010D000D2019091D301A091D401B091D501019694
:1010E000A11DB11D8093D2019093D301A093D4018F
:1010F000B093D501BF91AF919F918F913F912F9167
:101100000F900FBE0F901F9018950F931F938FB7DE
:10111000F8940091CE011091CF012091D00130912F
:10112000D1018FBFB801C9011F910F9108950F938D
:101130001F939FB7F8940091D2011091D301209191
:10114000D4013091D50186B5A89B06C08F3F21F010
:101150000F5F1F4F2F4F3F4F9FBF322F212F102F59
:101160000027080F111D211D311D42E0000F111F26
:10117000221F331F4A95D1F7B801C9011F910F9162
:101180000895CF92DF92EF92FF92CF93DF936B019E
:101190007C010E949708EB010EC00E9497086C1B0F
:1011A0007D0B683E734038F081E0C81AD108E10831
:1011B000F108C851DC4FC114D104E104F10469F70E
:1011C000DF91CF91FF90EF90DF90CF9008957894CA
:1011D00084B5826084BD84B5816084BD85B582603C
:1011E00085BD85B5816085BDEEE6F0E080818160DA
:1011F0008083E1E8F0E010828081826080838081DA
:1012000081608083E0E8F0E0808181608083E1EBB1
:10121000F0E0808184608083E0EBF0E08081816099
:101220008083EAE7F0E0808184608083808182604F
:101230008083808181608083808180688083109238
:10124000C1000895833069F028F48130A1F0823024
:1012500011F514C08630B1F08730C1F08430D9F474
:1012600004C0809180008F7703C0809180008F7DC3
:1012700080938000089584B58F7702C084B58F7DF8
:1012800084BD08958091B0008F7703C08091B00035
:101290008F7D8093B0000895CF93DF9390E0FC01A1
:1012A000E458FF4F4491FC01E057FF4F849188239D
:1012B00041F190E0880F991FFC01E854FF4F259100
:1012C0003491D90182559F4FFC0185919491C82F8B
:1012D000D92F9FB7F8948C91611106C04095842353
:1012E0008C938881842308C0623041F4242F209598
:1012F00082238C938881842B888302C0842B8C93D7
:101300009FBFDF91CF910895CF93DF93282F30E0D7
:10131000F901E859FF4F8491F901E458FF4FD49146
:10132000F901E057FF4FC491CC2389F081110E944D
:101330002209EC2FF0E0EE0FFF1FEC55FF4F8591D7
:101340009491DC018C918D2321E030E011F420E0B8
:1013500030E0C901DF91CF9108950F931F93CF9390
:10136000DF938230910510F482E090E0E0918002FA
:10137000F091810220E030E0C0E0D0E023C0408165
:10138000518148175907A8F04817590761F482811D
:101390009381209719F09B838A832EC090938102BA
:1013A0008093800229C02115310529F04217530787
:1013B00010F0A90102C0BE01DF0102811381EF011B
:1013C0009A01F8013097D9F62115310509F1281B4A
:1013D000390B2430310590F412968D919C9113971E
:1013E0006115710521F0FB019383828304C0909302
:1013F000810280938002FD01329644C0FD01E20F1C
:10140000F31F81939193225031092D933C933AC05D
:1014100020917E0230917F02232B41F42091030121
:101420003091040130937F0220937E0220910101CC
:10143000309102012115310541F42DB73EB740919D
:10144000050150910601241B350BE0917E02F091BD
:101450007F02E217F307A0F42E1B3F0B2817390772
:1014600078F0AC014E5F5F4F2417350748F04E0F00
:101470005F1F50937F0240937E028193919302C03D
:10148000E0E0F0E0CF01DF91CF911F910F9108953F
:10149000EF92FF920F931F93CF93DF93009709F47E
:1014A0008FC0DC01129713961C921E921297E09047
:1014B0008002F0908102E114F10489F42D913C91B5
:1014C0001197280F391F80917E0290917F02821719
:1014D000930789F5B0937F02A0937E0271C0E70164
:1014E00020E030E001C0EA01CA17DB0738F44A8186
:1014F0005B819E0141155105B1F722C0BC016250CC
:101500007109FB01D383C28300811181AC01400FBB
:10151000511F4C175D0761F448815981400F511FDD
:101520004E5F5F4F518340834A815B815383428387
:101530002115310529F4B0938102A093800240C0A7
:10154000F901B383A283E90169917991C60FD71F8D
:10155000AC17BD0779F4DC015E914E91460F571F21
:101560004E5F5F4F5183408312968D919C911397EC
:1015700093838283A0E0B0E002C0D7017C01F70131
:10158000828193810097C9F7C7010296208131813A
:10159000820F931F20917E0230917F022817390716
:1015A00079F4109729F4109281021092800204C0FD
:1015B00013961C921E921297F0927F02E0927E0286
:1015C000DF91CF911F910F91FF90EF900895FC0153
:1015D00084859585FC01E05CFF4F20813181FC0111
:1015E000EE5BFF4F80819181281B390B2F733327CE
:1015F000C9010895FC0184859585FC01E05CFF4FDD
:1016000040815181FC01EE5BFF4F20813181421707
:10161000530741F00190F081E02DE80FF91F208180
:1016200030E002C02FEF3FEFC9010895FC0184852F
:101630009585FC01E05CFF4F40815181FC01EE5B30
:10164000FF4F208131814217530781F0A081B18182
:10165000A80FB91F8C91208131812F5F3F4F2F73CD
:10166000332731832083282F30E002C02FEF3FEF54
:10167000C9010895FC0186859785FC01E05CFF4F58
:10168000DC01AE5BBF4F408151812D913C911197A0
:1016900042175307C1F70895CF93DF93FC01868566
:1016A0009785DC01A05CBF4F2D913C9111972F5F76
:1016B0003F4F2F733327EC01CE5BDF4F48815981B9
:1016C00024173507D9F30D90BC91A02DA80FB91F91
:1016D0006C93A685B785A05CBF4F11963C932E9363
:1016E000A689B7892C9181E090E0058C02C0880F13
:1016F000991F0A94E2F7282B2C9381E090E0DF9168
:10170000CF91089508951F920F920FB60F92112452
:101710002F933F934F938F939F93EF93FF9340911A
:10172000C60080917A0290917B0201968F7399276F
:1017300020917C0230917D028217930759F0E0914D
:101740007A02F0917B02E65CFD4F408390937B022E
:1017500080937A02FF91EF919F918F914F913F91EA
:101760002F910F900FBE0F901F90189587ED91E06D
:101770000E94E70A892B11F00C94820B08951F92A6
:101780000F920FB60F9211242F933F938F939F9335
:10179000EF93FF9320913602309137028091380207
:1017A000909139022817390731F48091C1008F7D5B
:1017B0008093C10014C0E0913802F0913902EA50E0
:1017C000FE4F2081809138029091390201968F73EB
:1017D000992790933902809338022093C600FF9195
:1017E000EF919F918F913F912F910F900FBE0F908E
:1017F0001F901895CF92DF92EF92FF92CF93DF93D5
:10180000EC016A017B01411581EE58076105710504
:10181000F9F0EC89FD8981E090E00E8C02C0880F20
:10182000991F0A94E2F7808360E079E08DE390E00D
:10183000A70196010E940010215031094109510968
:101840005695479537952795211580E1380798F0EB
:10185000EC89FD89108260E874E88EE190E0A701D0
:1018600096010E94001021503109410951095695F5
:10187000479537952795E889F9893083EA89FB8967
:101880002083EE89FF89408181E090E09C010A8CF1
:1018900002C0220F331F0A94E2F7422B4083EE89E5
:1018A000FF8940819C010B8C02C0220F331F0A94D8
:1018B000E2F7422B4083EE89FF8940819C010C8C2A
:1018C00002C0220F331F0A94E2F7422B4083EE89B5
:1018D000FF8920810D8C02C0880F991F0A94E2F7BE
:1018E000809582238083DF91CF91FF90EF90DF90EE
:1018F000CF9008951092DA011092D90188EE93E00A
:10190000A0E0B0E08093DB019093DC01A093DD01C7
:10191000B093DE018FEA91E09093D8018093D701D4
:101920008AE392E09093E4018093E30186EF91E0F3
:101930009093E6018093E50185EC90E09093E801B7
:101940008093E70184EC90E09093EA018093E901B1
:1019500080EC90E09093EC018093EB0181EC90E0BF
:101960009093EE018093ED0186EC90E09093F0016E
:101970008093EF0184E08093F10183E08093F20192
:1019800087E08093F30185E08093F40181E0809308
:10199000F50108950E94E7080E942B07C6EBDBE0E3
:1019A0000E9470072097E1F30E94B60BF9CF0C94C8
:1019B000AD090C94480ACF92DF92EF92FF920F93F9
:1019C0001F93CF93DF936C01EB017A01E60EF71EB4
:1019D00000E010E00BC06991D601ED91FC910190FF
:1019E000F081E02DC6010995080F191FCE15DF05FE
:1019F00091F7C801DF91CF911F910F91FF90EF9068
:101A0000DF90CF900895DB010D900020E9F7AD0144
:101A100041505109461B570BDC01ED91FC910280AE
:101A2000F381E02D0994DC01ED91FC910190F081AE
:101A3000E02D09940F931F93CF93DF93EC016DE09A
:101A40000E94130D8C016AE0CE010E94130D9C01CF
:101A5000200F311FC901DF91CF911F910F91089580
:101A60000F931F93CF93DF93EC010E94030D8C0122
:101A7000CE010E941A0D9801280F391FC901DF916C
:101A8000CF911F910F9108954F925F926F927F9225
:101A90009F92AF92BF92CF92DF92EF92FF920F93FD
:101AA0001F93CF93DF93CDB7DEB7A1970FB6F8940E
:101AB000DEBF0FBECDBF5C016A017B01922E19A271
:101AC00081E0821710F08AE0982E8E010F5D1F4F83
:101AD000492C512C612C712CC701B601A301920134
:101AE0000E9400108C2D929E801911240150110922
:101AF0008A3014F4805D01C0895CF801808369013B
:101B00007A01C114D104E104F10431F7B801C5012F
:101B10000E94030DA1960FB6F894DEBF0FBECDBF95
:101B2000DF91CF911F910F91FF90EF90DF90CF90B9
:101B3000BF90AF909F907F906F905F904F9008956F
:101B4000CF92DF92EF92FF920F931F93CF93DF9389
:101B5000EC016A017B012115310579F4E881F981F5
:101B60000190F081E02D642FDF91CF911F910F91B3
:101B7000FF90EF90DF90CF9009942A30310519F44F
:101B800077FD0EC02AE0B701A601CE01DF91CF910B
:101B90001F910F91FF90EF90DF90CF900C94440D28
:101BA0006DE20E94130D8C0144275527BA014C1990
:101BB0005D096E097F092AE0CE010E94440D080FDD
:101BC000191FC801DF91CF911F910F91FF90EF90E6
:101BD000DF90CF9008959A01AB01662757FD60957D
:101BE000762F0C94A00DF8940C942810FB01DC01C6
:101BF00002C001900D9241505040D8F708956817E7
:101C0000790768F4FB01DC01E40FF51FA40FB51F91
:101C100002C002900E9241505040D8F708950C94A3
:101C2000F60D5058BB27AA270ED04DC13ED130F03B
:101C300043D120F031F49F3F11F41EF433C10EF470
:101C4000E095E7FB29C1E92F4FD180F3BA1762076E
:101C500073078407950718F071F49EF567C10EF4B9
:101C6000E0950B2EBA2FA02D0B01B90190010C01AC
:101C7000CA01A0011124FF27591B99F0593F50F4C4
:101C8000503E68F11A16F040A22F232F342F44271C
:101C9000585FF3CF469537952795A795F040539514
:101CA000C9F77EF41F16BA0B620B730B840BBAF0E4
:101CB0009150A1F0FF0FBB1F661F771F881FC2F74F
:101CC0000EC0BA0F621F731F841F48F48795779563
:101CD0006795B795F7959E3F08F0B3CF9395880F1A
:101CE00008F09927EE0F9795879508950CD0EBC0D3
:101CF000E3D040F0DAD030F021F45F3F19F0CCC0EF
:101D0000511115C1CFC0F0D098F39923C9F35523D1
:101D1000B1F3951B550BBB27AA27621773078407DE
:101D200038F09F5F5F4F220F331F441FAA1FA9F394
:101D300033D00E2E3AF0E0E830D091505040E69586
:101D4000001CCAF729D0FE2F27D0660F771F881FE7
:101D5000BB1F261737074807AB07B0E809F0BB0BD6
:101D6000802DBF01FF2793585F4F2AF09E3F5105FA
:101D700068F092C0DCC05F3FECF3983EDCF38695E0
:101D800077956795B795F7959F5FC9F7880F911D70
:101D90009695879597F90895E1E0660F771F881F5C
:101DA000BB1F621773078407BA0720F0621B730B0F
:101DB000840BBA0BEE1F88F7E095089504D0689461
:101DC000B111B5C0089598D088F09F5790F0B92F01
:101DD0009927B751A0F0D1F0660F771F881F991F80
:101DE0001AF0BA95C9F712C0B13081F09FD0B1E0B6
:101DF00008959CC0672F782F8827B85F39F0B93FC6
:101E0000CCF3869577956795B395D9F73EF4909581
:101E10008095709561957F4F8F4F9F4F0895E894FF
:101E200009C097FB3EF490958095709561957F4F22
:101E30008F4F9F4F9923A9F0F92F96E9BB279395D0
:101E4000F695879577956795B795F111F8CFFAF4E0
:101E5000BB0F11F460FF1BC06F5F7F4F8F4F9F4F11
:101E600016C0882311F096E911C0772321F09EE86F
:101E7000872F762F05C0662371F096E8862F70E0D5
:101E800060E02AF09A95660F771F881FDAF7880FAF
:101E90009695879597F9089597F99F6780E870E080
:101EA00060E008959FEF80EC089500240A941616D0
:101EB000170618060906089500240A941216130638
:101EC000140605060895092E0394000C11F48823C6
:101ED00052F0BB0F40F4BF2B11F460FF04C06F5FE2
:101EE0007F4F8F4F9F4F089557FD9058440F551FB8
:101EF00059F05F3F71F04795880F97FB991F61F08C
:101F00009F3F79F087950895121613061406551F02
:101F1000F2CF4695F1DF08C0161617061806991F6E
:101F2000F1CF86957105610508940895E894BB2763
:101F300066277727CB0197F908950BD0C4CFB5DF7B
:101F400028F0BADF18F0952309F0A6CFABCF112403
:101F5000EECFCADFA0F3959FD1F3950F50E0551F48
:101F6000629FF001729FBB27F00DB11D639FAA27EE
:101F7000F00DB11DAA1F649F6627B00DA11D661F3D
:101F8000829F2227B00DA11D621F739FB00DA11D5E
:101F9000621F839FA00D611D221F749F3327A00D18
:101FA000611D231F849F600D211D822F762F6A2FB4
:101FB00011249F5750408AF0E1F088234AF0EE0F39
:101FC000FF1FBB1F661F771F881F91505040A9F746
:101FD0009E3F510570F060CFAACF5F3FECF3983E73
:101FE000DCF3869577956795B795F795E7959F5FAD
:101FF000C1F7FE2B880F911D9695879597F9089547
:10200000A1E21A2EAA1BBB1BFD010DC0AA1FBB1FFC
:10201000EE1FFF1FA217B307E407F50720F0A21B6E
:10202000B30BE40BF50B661F771F881F991F1A94DB
:1020300069F760957095809590959B01AC01BD0105
:10204000CF010895EE0FFF1F0590F491E02D099444
:04205000F894FFCF32
:102054000100008202800020000000000076039A44
:1020640003E0FFE0FF00009003A403200000000051
:1020740000A1010203E0FFE0FF0000AB010D03003B
:102084000000009B01FB02000000005A036C03DA0D
:1020940001DB011405DC01E501E801F5012C024234
:1020A4000259025506E20400000000B501F402DA08
:1020B4000187028A028D02D70190029302D401BBE8
:1020C40001D20199029702060000000000A101025A
:1020D40003FAFFFAFF0000AB010D030D0121012BF0
:1020E4000117017D018701206F646F47203A0020AA
:1020F4006F646F44203A00206D6D00000000004CB6
:0C2104000BDB0CE70A160BFA0A3A0B0082
:00000001FF
